:107000006B422E4D00000000000000000000000058
:107010005F49240398B6E1B3A6C7354A0072000061
:0470200040CE01005D
:10720000002000201D7B0100957B0100C7C6010006
:10721000917B0100917B0100917B01000000000047
:10722000000000000000000000000000A15F01005D
:10723000917B0100000000001161010081610100EB
:10724000F18B0100F58B0100F98B0100FD8B010032
:10725000018C0100058C0100098C01000D8C0100DE
:10726000118C0100158C0100198C01001D8C01008E
:10727000218C0100258C0100298C01002D8C01003E
:10728000EB7B0100917B0100917B0100917B010070
:10729000917B0100917B0100917B0100917B0100BA
:1072A000EF7B0100F37B0100D1960100A197010063
:1072B000917B0100917B0100FF7B0100859901001A
:1072C000077C0100BD9901000F7C0100F5990100C8
:1072D000177C0100917B0100917B0100917B0100F3
:1072E000917B0100917B0100917B0100917B01006A
:1072F000917B0100917B0100917B0100917B01005A
:107300006992010085920100A1920100BD920100E5
:10731000917B0100917B0100917B0100917B010039
:10732000917B0100917B010021910100917B010083
:10733000917B0100917B0100917B0100917B010019
:10734000917B0100917B0100917B0100917B010009
:10735000917B0100917B0100917B0100917B0100F9
:10736000917B0100917B0100917B0100917B0100E9
:1075F000917B0100917B0100917B0100FFFFFFFF68
:10760000FFFFFFFFFFFFFFFFFFFFFFFFFEFBFFFF8F
:08761000280000000100000049
:04761800D176000027
:04761C00AD76000047
:10762000F8B500BFF8BC08BC9E467047F8B500BF6F
:08763000F8BC08BC9E4670473F
:10763800154B002B08BF134B9D46A3F5803A00213C
:107648008B460F461348144A121A01F02CF80F4BB8
:10765800002B00D098470E4B002B00D098470020F5
:10766800002104000D000D48002802D00C48AFF39B
:10767800008000F0E9FF2000290014F0F1FA00F082
:10768800CFFF00BF0000080000200020000000001D
:107698000000000050C2FF1FE4100020000000009E
:1076A8000000000010B5054C237833B9044B13B122
:1076B8000448AFF300800123237010BDE8020020C6
:1076C800000000002076000008B5064B1BB10648F4
:1076D8000649AFF300800648036813B1054B03B1B0
:1076E800984708BD0000000020760000EC0200204A
:1076F800D8C1FF1F0000000081F0004102E000BF78
:1077080083F0004330B54FEA41044FEA430594EA59
:10771800050F08BF90EA020F1FBF54EA000C55EA94
:10772800020C7FEA645C7FEA655C00F0E2804FEA65
:107738005454D4EB5555B8BF6D420CDD2C4480EA47
:10774800020281EA030382EA000083EA010180EA77
:10775800020281EA0303362D88BF30BD11F0004FC5
:107768004FEA01314FF4801C4CEA113102D04042FB
:1077780061EB410113F0004F4FEA03334CEA133336
:1077880002D0524263EB430394EA050F00F0A7804E
:10779800A4F10104D5F1200E0DDB02FA0EFC22FA49
:1077A80005F2801841F1000103FA0EF2801843FA3D
:1077B80005F359410EE0A5F120050EF1200E012A2E
:1077C80003FA0EFC28BF4CF0020C43FA05F3C0186C
:1077D80051EBE37101F0004507D54FF0000EDCF1E5
:1077E800000C7EEB00006EEB0101B1F5801F1BD38E
:1077F800B1F5001F0CD349085FEA30004FEA3C0C92
:1078080004F101044FEA445212F5800F80F09A8087
:10781800BCF1004F08BF5FEA500C50F1000041EB8B
:10782800045141EA050130BD5FEA4C0C404141EB8F
:10783800010111F4801FA4F10104E9D191F0000FB6
:1078480004BF01460020B1FA81F308BF2033A3F139
:107858000B03B3F120020CDA0C3208DD02F1140C30
:10786800C2F10C0201FA0CF021FA02F10CE002F16B
:107878001402D8BFC2F1200C01FA02F120FA0CFC64
:10788800DCBF41EA0C019040E41AA2BF01EB0451AD
:10789800294330BD6FEA04041F3C1CDA0C340EDCAB
:1078A80004F11404C4F1200220FA04F001FA02F3EE
:1078B80040EA030021FA04F345EA030130BDC4F1AC
:1078C8000C04C4F1200220FA02F001FA04F340EAA1
:1078D8000300294630BD21FA04F0294630BD94F052
:1078E800000F83F4801306BF81F480110134013D39
:1078F8004EE77FEA645C18BF7FEA655C29D094EAAA
:10790800050F08BF90EA020F05D054EA000C04BF27
:107918001946104630BD91EA030F1EBF0021002012
:1079280030BD5FEA545C05D14000494128BF41F0B1
:10793800004130BD14F580043CBF01F5801130BD15
:1079480001F0004545F0FE4141F470014FF00000A0
:1079580030BD7FEA645C1ABF194610467FEA655C51
:107968001CBF0B46024650EA013406BF52EA0335F3
:1079780091EA030F41F4002130BD00BF90F0000FE1
:1079880004BF0021704730B54FF4806404F132041D
:107998004FF000054FF0000150E700BF90F0000FD6
:1079A80004BF0021704730B54FF4806404F13204FD
:1079B80010F0004548BF40424FF000013EE700BFCD
:1079C80042004FEAE2014FEA31014FEA02701FBF5D
:1079D80012F07F4393F07F4F81F06051704792F02F
:1079E800000F14BF93F07F4F704730B54FF46074A9
:1079F80001F0004521F0004120E700BF50EA0102F4
:107A080008BF704730B54FF000050AE050EA0102A0
:107A180008BF704730B511F0004502D5404261EB10
:107A280041014FF4806404F132045FEA915C3FF451
:107A3800DCAE4FF003025FEADC0C18BF03325FEAEA
:107A4800DC0C18BF033202EBDC02C2F1200300FA9F
:107A580003FC20FA02F001FA03FE40EA0E0021FAC4
:107A680002F11444C1E600BF70B54FF0FF0C4CF4AE
:107A7800E06C1CEA11541DBF1CEA135594EA0C0F64
:107A880095EA0C0F00F0DEF82C4481EA030621EA9F
:107A98004C5123EA4C5350EA013518BF52EA0335DA
:107AA80041F4801143F4801338D0A0FB02CE4FF08C
:107AB8000005E1FB02E506F00042E0FB03E54FF0BC
:107AC8000006E1FB03569CF0000F18BF4EF0010EB4
:107AD800A4F1FF04B6F5007F64F5407404D25FEAB0
:107AE8004E0E6D4146EB060642EAC62141EA555163
:107AF8004FEAC52040EA5E504FEACE2EB4F1FD0CA5
:107B080088BFBCF5E06F1ED8BEF1004F08BF5FEA22
:107B1800500E50F1000041EB045170BD06F00046D4
:107B280046EA010140EA020081EA0301B4EB5C0481
:107B3800C2BFD4EB0C0541EA045170BD41F4801179
:107B48004FF0000E013C00F3AB8014F1360FDEBF9E
:107B5800002001F0004170BDC4F10004203C35DA7A
:107B68000C341BDC04F11404C4F1200500FA05F3FD
:107B780020FA04F001FA05F240EA020001F000429E
:107B880021F0004110EBD37021FA04F642EB060114
:107B98005EEA430E08BF20EAD37070BDC4F10C043E
:107BA800C4F1200500FA04F320FA05F001FA04F202
:107BB80040EA020001F0004110EBD37041F10001EE
:107BC8005EEA430E08BF20EAD37070BDC4F12005F9
:107BD80000FA05F24EEA020E20FA04F301FA05F261
:107BE80043EA020321FA04F001F0004121FA04F209
:107BF80020EA020000EBD3705EEA430E08BF20EAD9
:107C0800D37070BD94F0000F0FD101F00046400012
:107C180041EB010111F4801F08BF013CF7D041EA94
:107C2800060195F0000F18BF704703F00046520098
:107C380043EB030313F4801F08BF013DF7D043EA69
:107C48000603704794EA0C0F0CEA135518BF95EA1F
:107C58000C0F0CD050EA410618BF52EA4306D1D1A6
:107C680081EA030101F000414FF0000070BD50EAC5
:107C7800410606BF1046194652EA430619D094EA4F
:107C88000C0F02D150EA013613D195EA0C0F05D139
:107C980052EA03361CBF104619460AD181EA03018D
:107CA80001F0004141F0FE4141F470014FF0000045
:107CB80070BD41F0FE4141F4780170BD70B54FF0E0
:107CC800FF0C4CF4E06C1CEA11541DBF1CEA135560
:107CD80094EA0C0F95EA0C0F00F0A7F8A4EB050442
:107CE80081EA030E52EA03354FEA013100F0888039
:107CF8004FEA03334FF0805545EA131343EA126302
:107D08004FEA022245EA111545EA10654FEA0026B6
:107D18000EF000419D4208BF964244F1FD0404F56F
:107D2800407402D25B084FEA3202B61A65EB0305CB
:107D38005B084FEA32024FF480104FF4002CB6EB88
:107D4800020E75EB030E22BFB61A754640EA0C0008
:107D58005B084FEA3202B6EB020E75EB030E22BF48
:107D6800B61A754640EA5C005B084FEA3202B6EB89
:107D7800020E75EB030E22BFB61A754640EA9C0048
:107D88005B084FEA3202B6EB020E75EB030E22BF18
:107D9800B61A754640EADC0055EA060E18D04FEAD6
:107DA800051545EA16754FEA06164FEAC30343EA76
:107DB80052734FEAC2025FEA1C1CC0D111F4801F43
:107DC8000BD141EA00014FF000004FF0004CB6E73C
:107DD80011F4801F04BF01430020B4F1FD0C88BFDB
:107DE800BCF5E06F3FF6AFAEB5EB030C04BFB6EBE6
:107DF800020C5FEA500C50F1000041EB045170BDD9
:107E08000EF0004E4EEA113114EB5C04C2BFD4EB05
:107E18000C0541EA045170BD41F480114FF0000E89
:107E2800013C90E645EA060E8DE60CEA135594EA05
:107E38000C0F08BF95EA0C0F3FF43BAF94EA0C0F08
:107E48000AD150EA01347FF434AF95EA0C0F7FF47D
:107E580025AF104619462CE795EA0C0F06D152EAD1
:107E680003353FF4FDAE1046194622E750EA4106B5
:107E780018BF52EA43067FF4C5AE50EA41047FF4C6
:107E88000DAF52EA43057FF4EBAE12E74FEA410229
:107E9800B2F1E04324BFB3F5001CDCF1FE5C0DD960
:107EA80001F0004C4FEAC0024CEA5070B2F1004FAA
:107EB80040EB830008BF20F00100704711F0804FAD
:107EC80021D113F13872BCBF01F00040704741F472
:107ED80080114FEA5252C2F11802C2F1200C10FA76
:107EE8000CF320FA02F018BF40F001004FEAC1235A
:107EF8004FEAD32303FA0CFC40EA0C0023FA02F3FE
:107F08004FEA4303CCE77FEA625307D150EA0133D3
:107F18001EBF4FF0FE4040F44000704701F00040A3
:107F280040F0FE4040F40000704700BF73B96AB9E2
:107F3800002908BF0028BCBF00204FF00041C4BF83
:107F48006FF000414FF0FF3000F0DAB882B0EC4635
:107F58002DE9005000F006F8DDF804E002B00CBC92
:107F6800704700BF2DE97043069E14461D468046A3
:107F7800894600F0C7F804FB01F300FB0533A4FBB6
:107F880000451D44B8EB040469EB0505C6E9004546
:107F9800BDE870832DE97043069E144680468946E5
:107FA8001D4600F0FBF900FB05F504FB0153A0FB9F
:107FB80004451D44B8EB040469EB0505C6E9004512
:107FC800BDE870834FF0FF3C06E000BF4FF0010CA6
:107FD80002E000BF4FF0010C4DF804CD4FEA410C10
:107FE8007FEA6C5C4FEA430C18BF7FEA6C5C1BD0DD
:107FF80001B050EA410C0CBF52EA430C91EA030F5E
:1080080002BF90EA020F0020704710F1000F91EABA
:10801800030F58BF994208BF90422CBFD8176FEA88
:10802800E37040F0010070474FEA410C7FEA6C5C56
:1080380002D150EA013C07D14FEA430C7FEA6C5C5D
:10804800D6D152EA033CD3D05DF8040B704700BF89
:108058008446104662468C461946634600E000BFD7
:1080680001B5FFF7B7FF002848BF10F1000F01BDA9
:108078004DF808EDFFF7F4FF0CBF012000205DF874
:1080880008FB00BF4DF808EDFFF7EAFF34BF0120F9
:1080980000205DF808FB00BF4DF808EDFFF7E0FF92
:1080A80094BF012000205DF808FB00BF4DF808EDE3
:1080B800FFF7CEFF94BF012000205DF808FB00BF4A
:1080C8004DF808EDFFF7C4FF34BF012000205DF82C
:1080D80008FB00BF4BB942B9002908BF002802D0ED
:1080E8004FF0FF31084600F00BB882B0EC462DE99E
:1080F8000050FFF74FFFDDF804E002B00CBC7047FA
:10810800704700BF00292DE9F00FC0F29F800024BE
:10811800002BC0F29680154606460F46002B3ED12E
:108128008A4257D9B2FA82F34BB1C3F1200201FA5D
:1081380003F720FA02F29D40174300FA03F6290CD0
:10814800B7FBF1F2330C01FB127CA8B243EA0C47EF
:1081580000FB02F3BB4209D97F1902F1FF3C80F012
:108168000181BB4240F2FE80023A2F44FF1AB7FB5E
:10817800F1F3B6B201FB137146EA014100FB03F0CB
:10818800884208D9491903F1FF3780F0ED80884209
:1081980040F2EA80023B43EA0242002303E08B42BA
:1081A8000AD900231A461046194614B1404261EB19
:1081B8004101BDE8F00F7047B3FA83F8B8F1000F3A
:1081C80040F084808B4202D3824200F2DE8000239A
:1081D8000122E8E712B90123B3FBF2F5B5FA85F2FB
:1081E800002A39D17F1B280C1FFA85FC0123B7FB15
:1081F800F0F1320C00FB117742EA07470CFB01F261
:10820800BA4207D97F1901F1FF3802D2BA4200F207
:10821800C1804146BF1AB7FBF0F2B6B200FB12703C
:1082280046EA00400CFB02FC844507D9401902F1DC
:10823800FF3702D2844500F2AB803A4642EA014257
:10824800B1E7E443524263EB430364E7404261EB26
:1082580041014FF0FF345BE79540C2F1200327FA54
:1082680003F1280C26FA03F39740B1FBF0F81F43FB
:108278003B0C00FB18111FFA85FC43EA01410CFB7B
:1082880008F38B4206FA02F608D9491908F1FF32B9
:1082980079D28B4277D9A8F102082944C91AB1FBCF
:1082A800F0F3BFB200FB131147EA01470CFB03F2DE
:1082B800BA4207D97F1903F1FF3160D2BA425ED9B9
:1082C800023B2F44BF1A43EA084390E7C8F1200253
:1082D80003FA08FC25FA02F343EA0C0C4FEA1C499E
:1082E80021FA02F301FA08F720FA02F2B3FBF9F1D6
:1082F800174309FB11333A0C1FFA8CFB42EA03437C
:108308000BFB01FA9A4505FA08F008D913EB0C03A0
:1083180001F1FF3235D29A4533D902396344CAEBA9
:108328000303B3FBF9F209FB1233BFB247EA034771
:108338000BFB02F9B94508D917EB0C0702F1FF331B
:108348001BD2B94519D9023A674442EA0145A5FB4F
:108358000001C9EB07078F424FF000030AD305D08D
:108368002A4620E7624601E73B4614E706FA08F684
:108378008642F5D26A1E002315E71A46E5E70B4642
:10838800A0E71146CBE7904688E7434642460AE70E
:10839800023A53E702392F443CE700BF2DE9F00FBA
:1083A800144605460E46002B43D18A4253D9B2FAE9
:1083B80082F757B1C7F1200620FA06F601FA07F34B
:1083C80002FA07F41E4300FA07F5210CB6FBF1F296
:1083D8002B0C01FB1267A0B243EA074600FB02F32D
:1083E800B34209D9361902F1FF3780F0F680B3425B
:1083F80040F2F380023A2644F61AB6FBF1F3ADB226
:1084080001FB136145EA014100FB03F0884208D9EA
:10841800091903F1FF3680F0E280884240F2DF80DC
:10842800023B43EA0242002310461946BDE8F00F1A
:1084380070478B424AD8B3FA83F6002E4DD18B424F
:1084480002D3824200F2D680002301221046194648
:10845800BDE8F00F704712B90124B4FBF2F4B4FA86
:1084680084F2002A7CD1091B260CA7B20123B1FB98
:10847800F6F02A0C06FB101142EA014107FB00F254
:108488008A4207D9091900F1FF3C02D28A4200F258
:10849800C3806046891AB1FBF6F2ADB206FB121131
:1084A80045EA014507FB02F7AF4208D92C1902F14A
:1084B800FF3180F09680A74240F29380023A42EA68
:1084C800004210461946BDE8F00F704700231A46CF
:1084D80010461946BDE8F00F7047C6F1200522FA8C
:1084E80005F4B3401C434FEA144821FA05F301FA96
:1084F80006F720FA05F5B3FBF8FC2F4308FB1C33FD
:108508003D0C1FFA84FA45EA03430AFB0CF9994526
:1085180002FA06FB04D91B190CF1FF326DD39446FD
:10852800C9EB0303B3FBF8F508FB1533BFB247EA01
:1085380003470AFB05F8B84504D93F1905F1FF338D
:1085480061D31D4645EA0C4CACFB0B23C8EB07076F
:108558009F424FF0000549D345D062462B4663E75A
:108568009440C2F1200321FA03FC260C20FA03F3FD
:1085780001FA02F5BCFBF6F843EA05010B0C06FB11
:1085880018CCA7B243EA0C4C07FB08F3634500FA82
:1085980002F509D91CEB040C08F1FF323AD2634505
:1085A80038D9A8F10208A444C3EB0C0CBCFBF6F3C1
:1085B80089B206FB13CC41EA0C4107FB03F28A425D
:1085C80007D9091903F1FF3022D28A4220D9023B88
:1085D8002144891A43EA084349E73A460CE73346F7
:1085E8001FE70A466BE7B0409042B6D20CF1FF3263
:1085F800002319E73346324616E799458FD9ACF17F
:10860800020C23448CE7B8459BD9023D274499E7DF
:108618000346DEE79046C7E7023821443AE700BF41
:1086280008B5074B044613B10021AFF30080054B92
:108638001868836A03B19847204600F045F800BFE0
:1086480000000000D886000070B50E4B0E4DED1AE4
:10865800AD1000241E46AC4204D056F824209047A2
:108668000134F8E7FEF7D8FF084D094BED1AAD10B5
:1086780000241E46AC4204D056F82420904701340A
:10868800F8E770BD18760000187600001C76000028
:108698001876000010B50023934203D0CC5CC45474
:1086A8000133F9E710BD02440346934202D003F8B0
:1086B800011BFAE77047034613F8012B002AFBD188
:1086C800181A01387047EEEEFEE700BF4300EEEEE1
:1086D800E8C1FF1F0028B8BF4042704710B50446E4
:1086E800224601341378002BFAD1CC5CD4540133E0
:1086F800002CFAD110BD034611F8012B03F8012B09
:08870800002AF9D17047FFFFC0
:1087100008B500F057F850B9054801F05DFA30B9D6
:1087200000F0C2FA18B9BDE8084000F02BBB08BD44
:10873000FD9B000007B500200190019B3BB1054B5C
:108740009B88019301460246034615F0D9FC03B00D
:108750005DF804FB00E00100174B13B51C68012C09
:1087600027D1164BD3E9002352EA030121D001F0AF
:10877000A1FBCDE900011249DDE90023D1E90001A7
:10878000994208BF904214D2DDE90023121A63EB2C
:108790000103002141F65830994208BF904228BF9A
:1087A00000214FF008003ABF214600220A4606F099
:1087B00005FB002002B010BD58C2FF1F78C2FF1F8A
:1087C00088C2FF1FF7B502AC042344F8043D064DF0
:1087D000064E074B2E60012001462246B04748B1A5
:1087E0006FF0020077E100BFD0C2FF1F01E101007E
:1087F000F8C2FF1F0523012001932E68934B014609
:108800002246B0470028EBD10623012001932E68B1
:108810008F4B01462246B0470028E1D107230120B3
:1088200001932E688B4B01462246B0470028D7D1D2
:108830000823012001932E68874B01462246B0474A
:108840000028CDD10923012001932E68834B0146D6
:108850002246B0470028C3D10A23012001932E6885
:108860007F4B01462246B0470028B9D10B23012097
:1088700001932E687B4B01462246B0470028AFD1BA
:108880000C23012001932E68774B01462246B04706
:108890000028A5D10D23012001932E68734B0146BA
:1088A0002246B04700289BD10E23012001932F6858
:1088B0006F4B704E01462246B847002890D10F23D7
:1088C0000120019337686C4B01462246B8470028C7
:1088D00086D11023012001933768684B0146224658
:1088E000B84700287FF47CAF11230120019337683B
:1088F000634B01462246B84700287FF471AF12232C
:108900000120019337685F4B01462246B847002893
:108910007FF466AF13230120019337685A4B014659
:108920002246B84700287FF45BAF1423012001934F
:108930003768564B01462246B84700287FF450AFAF
:108940001523012001933768514B01462246B84751
:1089500000287FF445AF16230120019337684D4B63
:1089600001462246B84700287FF43AAF172301207A
:1089700001933668484B01462246B04700287FF4F1
:108980002FAF1823012001932D68444B394E014627
:108990002246A84700287FF423AF19230120019322
:1089A00035683F4B01462246A84700287FF418AFA0
:1089B00020230120019335683A4B01462246A847FF
:1089C00000287FF40DAF2123012001933568364B39
:1089D00001462246A84700287FF402AF2223012047
:1089E00001933568314B01462246A84700287FF4A1
:1089F000F7AE23230120019335682D4B0146224613
:108A0000A84700287FF4ECAE2423012001933568A9
:108A1000284B01462246A84700287FF4E1AE2523D3
:108A2000012001933568244B01462246A8470028BF
:108A30007FF4D6AE26230120019335681F4B0146F3
:108A40002246A84700287FF4CBAE39E0F4C2FF1FCE
:108A5000C8C2FF1F00C3FF1F94C2FF1FF0C2FF1F49
:108A6000BCC2FF1FD4C2FF1FA0C2FF1FB4C2FF1FA2
:108A7000DCC2FF1FD0C2FF1FB0C2FF1FD8C2FF1F42
:108A800008C3FF1FECC2FF1FA4C2FF1FACC2FF1F21
:108A9000A8C2FF1F9CC2FF1F98C2FF1FC4C2FF1FB6
:108AA00090C2FF1FFCC2FF1FB8C2FF1FE8C2FF1F1A
:108AB00004C3FF1FC0C2FF1FCCC2FF1FE4C2FF1FC1
:108AC0002723012001933568044B01462246A8471D
:108AD00000287FF485AE03B0F0BD00BFE0C2FF1FE9
:108AE00010B5044C24680CB1A04710BD4FF0FF3006
:108AF00010BD00BFD0C2FF1F08B5044B1B680BB1EF
:108B0000984708BD4FF0FF3008BD00BFB8C2FF1F37
:108B100008B5024B186800B1804708BDE8C2FF1FC6
:108B200030B50B4C246885B03CB1089D0095099D7B
:108B300001950A9D0295A04702E003A1D1E9000139
:108B400005B030BDAFF3008000C032246B28D408DC
:108B500004C3FF1FAFF3008008B5044B1B680BB1C3
:108B6000984708BD4FF0FF3008BD00BFF8C2FF1F97
:108B70000449096808B509B1884708BD00200021EB
:108B800008BD00BFCCC2FF1F08B5044B1B680BB16A
:108B9000984708BD0020002108BD00BFC0C2FF1FCC
:108BA00008B5034B1B680BB1984708BD184608BDB4
:108BB00090C2FF1F08B5034B1B680BB1984708BD57
:108BC000184608BDFCC2FF1F08B5034B1B680BB15C
:108BD000984708BD184608BDC4C2FF1F08B5024B20
:108BE000186800B1804708BD98C2FF1F08B5024B46
:108BF000186800B1804708BD9CC2FF1F08B5024B32
:108C0000186800B1804708BDA8C2FF1F08B5024B15
:108C1000186800B1804708BDA4C2FF1F08B5024B09
:108C2000186800B1804708BD08C3FF1F08B5034B93
:108C30001B680BB1984708BD184608BDA0C2FF1FAE
:108C400008B5044B1B680BB1984708BD4FF0FF30C7
:108C500008BD00BFBCC2FF1F08B5024B186800B1B9
:108C6000804708BDB0C2FF1F08B5024B186800B1AD
:108C7000804708BDB4C2FF1F08B5044B1B680BB189
:108C8000984708BD4FF0FF3008BD00BFD8C2FF1F96
:108C900008B5044B1B680BB1984708BD4FF0FF3077
:108CA00008BD00BFDCC2FF1F094B13B51C685CB1D7
:108CB00002AB002143F8041D03200A46A04708B96F
:108CC000019803E0012001E04FF0FF3002B010BD39
:108CD000D0C2FF1F08B5044B1B680BB1984708BDF5
:108CE0004FF0FF3008BD00BFE0C2FF1F08B5094BC1
:108CF000002201201A705A709A70DA70FFF7FCFE99
:108D0000054BC0B2187018B1FFF702FF034B186093
:108D1000002008BD0CC3FF1F10C3FF1F14C3FF1F9B
:108D2000154B1B6810B52BB3144A145C04BB012906
:108D30001ED103EB80004378022B07D0042B09D00F
:108D4000012B17D1BDE8104012F0B8BBBDE81040B0
:108D500012F0BCBB0A4B1B78012B0BD14088FFF7EC
:108D600065FF0378D3F1010338BF0023037010BD02
:108D700001B9115410BD00BF14C3FF1F0CC3FF1F66
:108D800070C2FF1F08B5FFF741FF104B1860FFF7D7
:108D900057FF0F4B1860FFF729FF0E4B1860FFF7C6
:108DA0001DFF0D4B1860FFF75FFF0C4B1860FFF7BE
:108DB0006FFF0B4B1860FFF74FFF0A4B1860FFF770
:108DC0005BFF094B1860002008BD00BF1CC3FF1FDC
:108DD00028C3FF1F18C3FF1F30C3FF1F24C3FF1F7B
:108DE00020C3FF1F34C3FF1F2CC3FF1F054B1B688D
:108DF0001C2202FB00300379032B9ABF024AD05C8D
:108E0000002070471CC3FF1FB83C010000207047C2
:108E1000044B1B681C2202FB00304079031F5842A0
:108E2000584170471CC3FF1F084B70B500241E68D3
:108E30002546B44207DAA0B2FFF7EAFF08B10135D0
:108E4000ADB20134F5E7284670BD00BF28C3FF1F4F
:108E5000064B1C2250431B681B5803F00F030A2BC0
:108E60009ABF034AD05C0020704700BF1CC3FF1F9D
:108E7000BC3C010070B5054608460C46FFF7D6FE1F
:108E800006462046FFF7E4FF0023834203DAEA5C4C
:108E9000F2540133F9E7002070BDEEEE38B500F072
:108EA00019FD00F0F1F800F031F80E4B01221D68B9
:108EB00011460023E8180C4C807854F82340013305
:108EC000A04218BF0022002818BF00211C2BF1D19E
:108ED00029B922B902200121024605F06FFF0020C6
:108EE00038BD00BF34C3FF1F34EAFF1F08B500F0D0
:108EF00053FD00F05DF900F0A5F8002008BD08B5AD
:108F000000F038F900F07CF8002008BD2DE9F84F9A
:108F1000354B1B6893F800900024344B1B689C422F
:108F200058DA334E1425654333685A195B591B7858
:108F30004B454FD1107901F0F9FB5FFA80FABAF195
:108F4000020F45D133682B4458895B79013BDBB272
:108F5000072B46D8274FDFF8A48097F800B008EB1E
:108F6000CB0293719080FFF761FE32683B7848F83E
:108F70003B00154408EBC30295F805B0AE7995F8AF
:108F80000780D67101333B700BF10507FFB22979D9
:108F900038463246434601F04DFB054670B10BF1B1
:108FA000FF3B5FFA8BFB58463146424606F068FCB1
:108FB00058469FED110A06F049FD09E03A02504675
:108FC000012142F0030205F0F9FE284601F0CCFB36
:108FD0000134A2E706F068FC06F042FD0020BDE87F
:108FE000F88F0120BDE8F88F34C3FF1F20C3FF1F97
:108FF00024C3FF1F78C3FF1F0000000038C3FF1FFA
:10900000F8B50E4B1A781F46B2B1002425463B78BE
:109010009D4211DA0A4E3319DA79012A09D1987979
:1090200006F096FC10EE100AFEF7CEFCA659C6E933
:10903000000101350834EAE7F8BD00BF78C3FF1F1F
:1090400038C3FF1FF8B50E4B1A781E46BAB100247C
:10905000254633789D4212DA0A4B1A19D179022932
:109060000AD1E3589779D3E90001FEF713FF00EE28
:10907000100A384606F02AFC01350834E9E7F8BD45
:1090800078C3FF1F38C3FF1F354B1B682DE9F0471E
:1090900093F800900024334B1B689C4255DA324E03
:1090A0001425654333685A195B591B784B454CD1DD
:1090B000107901F03BFBC0B2032844D133682B4444
:1090C00058895B79013BDBB2072B45D8274FDFF886
:1090D000A08097F800A008EBCA0293719080FFF778
:1090E000A5FD32683B7848F83A00154408EBC30206
:1090F00095F805A0AE7995F80780D67101333B70DD
:109100000AF10D07FFB2297938463246434601F08D
:1091100091FA054668B10AF1FF3A5FFA8AFA3146D8
:109120005046424611F0DEFB5046002111F038FC5B
:1091300009E03A020220012142F0030205F03EFE5E
:10914000284601F011FB0134A5E711F0D5FB11F021
:109150004FFC0020BDE8F0870120BDE8F08700BF8C
:1091600034C3FF1F20C3FF1F24C3FF1F79C3FF1F8A
:109170007CC3FF1FF8B50C4B1A781E469AB111F04C
:1091800057FC0024254633789D420CDA074A131910
:10919000D979012904D19879A75811F00BFC3870BE
:1091A00001350834EFE7F8BD79C3FF1F7CC3FF1F0B
:1091B00038B50C4B1A781D4692B100242B789C428E
:1091C0000ADA094A02EBC40152F834308879197876
:1091D00011F0E6FB0134F1E7BDE8384011F008BCBE
:1091E00038BD00BF79C3FF1F7CC3FF1F2DE9F04FBF
:1091F00089B0154606918B49129A4FF0480A0AFB2E
:10920000051A0F2A9B4688460446139BBAF802901B
:10921000854900F108064FF000077FD1C773077436
:109220000868DDF850E0232105FB011101441FFA15
:109230008EF0497800909BB2304601F0BAFCBAF843
:109240000260C9EB89791423B1441222734302FBF3
:109250000599C1B2079308EB8909482202FB0582F0
:10926000508812790244964251DA079A07EB870A2E
:1092700092446E4A1068504490F806E0BEF1020F26
:1092800042D100790591039201F050FA039A0599B1
:109290001268584521D1524409EB07005279806881
:1092A000082A03780CD9093A4FF0010C207C0CFAFB
:1092B00002F20BB1104301E020EA0200207423E027
:1092C0004FF0010E013AE07B0EFA02F20BB11043AF
:1092D00001E020EA0200E07316E092449AF80420CC
:1092E0005A4511D109EB07029AF805E09268137804
:1092F000E27B01200EF1FF3E00FA0EF00BB10243BB
:1093000001E022EA0002E27301360437A5E7149B6C
:10931000082BCCBF02310131C9B267E0102A64D1F9
:109320000868DDF850E0232105FB011101441FFA14
:109330008EF0497800909BB2304601F03AFCBAF8C2
:109340000220C9EB89799144122101FB05995FFA4A
:1093500080FC08EB8909482000FB0580B9180079DA
:1093600081423EDADFF8C4B04FF0140A0AFB01FA7A
:10937000DBF8001001EB0A03997902292FD109EBE0
:1093800087018968D1E9000103920493CDF814C0E4
:10939000FEF780FD049B597906EB8101C0F3076E4F
:1093A00081F803E0DBF800105144C0F3074E49791F
:1093B000013106F821E0DBF800105144C0F3072E1C
:1093C000497906EB810181F805E0DBF80010514492
:1093D000497906EB81018871DDF814C0039A0137E1
:1093E000B9E70CF14003D9B200E039460E4B1B68D7
:1093F000232202FB053300205B7884F8143101221C
:1094000001F094FCC0B228B1013D06994B5D0133D7
:109410004B5503E0069A154405F8010C002009B0ED
:10942000BDE8F08FBCC3FF1F34C3FF1F24C3FF1F61
:109430002DE9F74F9A464C4B14461A68232304FB38
:1094400003331344894600F108055978BDF83430D8
:1094500000930C9A00238046284601F0AAFB0122C3
:10946000C1B2002001F062FCC7B22FB119F804307C
:10947000013309F8043073E0BAF1020F09F80470FF
:109480003BD13A4B4FF0480909FB04399B46B9F8E8
:109490000280482202FB04B207EB0803127942441F
:1094A00093425DDA324A1268142101FB03239A7950
:1094B000012A20D15B7909EB8702013BDBB2D2F8AC
:1094C00008A0042202FB0351C97861F31F6612FB56
:1094D0000321695C61F3174602FB035102FB03524F
:1094E0004979937961F30F2663F307063046FEF757
:1094F0006BFACAE900010137CBE7BAF1030F2FD1AC
:109500001A491B4B482000FB04101B6842884FF08F
:10951000140C0CFB023C3B460F46482101FB047136
:109520009E180D791544AE421ADA142101FB03C1CD
:109530008D79012D12D149790139C9B207298CBF22
:1095400098F80C6098F80B6000EB830588BF083929
:10955000AD6846FA01F101F0010129700133DCE741
:10956000002003B0BDE8F08F34C3FF1FBCC3FF1F52
:1095700024C3FF1F2DE9F84F002601251E4B1B6851
:109580009D4236DA1D4A23236B43126802EB030A1D
:10959000D25C1B4B0024F25405F1FF3BA146274649
:1095A0009846184B1B689C4220DA174A14236343E1
:1095B0001268D118D358534516D1B9F1000F04D110
:1095C00008EB06034FF001095C804889FFF72EFB8A
:1095D000122303FB0B730233013748F8230008EB17
:1095E00006031A7901321A710134DAE70135483677
:1095F000C4E70020BDE8F88F2CC3FF1F34C3FF1F52
:10960000BCC3FF1F20C3FF1F24C3FF1F2DE9F04F62
:10961000064685B04FF000084FF00B09614B1B6800
:10962000984580F2BB80604F232202FB08F23B6822
:109630009B5CDA1E022A02D9072B40F0AC80A9F10C
:109640000A0B5A4B86F814915FFA8BFB00213046C7
:109650000BEB8B05C5EBC5051C6804F086FC3B686D
:1096600059195B5D033BDBB2042B98BF504A5FFA8C
:1096700080FA94BFD25C00220231304604F0DCFC58
:109680004C4B19683B6840EA0A00C0B21D440023F5
:1096900001901A469A461F468B4210DA142058430E
:1096A000205890F801E06878864506D10AF1010A51
:1096B0005FFA8AFA02B9DFB201220133ECE7BAF1AC
:1096C000000F4BD007EB870304EB830405343D46C2
:1096D00007EB0A039D4241DA54F8053C1B78042B42
:1096E00008D114F8010C01F021F8012814BF04235B
:1096F000002300E000232278013A13448DF808305B
:1097000014F8010C8DF8090063788DF80A30A378FD
:109710008DF80B3001F00AF8022804D0032808D095
:10972000012810D105E02846FFF780FA036803936B
:1097300009E02846FFF77AFA007807EE900AF8EE7B
:10974000677ACDED037A304602A904F0AFFB019BA6
:109750001843C0B2019001351434B9E730460121F5
:1097600004F003FC019B184310F0FF0F0AD01E20E9
:1097700005F07CFC012104220BF1330005F01EFBF7
:1097800005F08EFC00F096FB0B4BC3E9000109F1DC
:1097900001095FFA89F908F101083FE7012005B0E6
:1097A000BDE8F08F2CC3FF1F34C3FF1F24C3FF1F6E
:1097B000C73C010020C3FF1F88C2FF1F73B50022F2
:1097C00005460E46144B1B68541C9C4221DA134B71
:1097D000196823236343CB5C032B07D10421202387
:1097E0008DE80A002846314602230EE0042B03D1FF
:1097F00002230093082304E0072B08D102230093DF
:1098000010230193284631460323FFF711FE224619
:10981000D8E7002002B070BD2CC3FF1F34C3FF1F68
:109820002DE9F043054685B00E460024274B1B6802
:10983000671C9F4245DA264B1A6823237B43D35C7F
:10984000032B09D110230022009301920293284692
:1098500031462246022330E0042B16D14FF00F0987
:1098600000234FF008080193CDF800900323CDF8B2
:109870000880284631462246FFF7B8FC2023CDF861
:1098800000900193CDF8088007E0052B0AD10F2046
:1098900020234FF0080E8DE8094028463146224625
:1098A00001230AE0072B0AD10F21002210238DE8A3
:1098B0000E002846314622460323FFF797FC3C461C
:1098C000B4E7012005B0BDE8F08300BF2CC3FF1F43
:1098D00034C3FF1F2DE9F04700232B4AD118002481
:1098E0000C719C500833302B9046F6D1274B1B68E7
:1098F00093F80090264B1B689C423FDA254F1425B5
:1099000065433B685A195B591B784B4536D1107932
:1099100000F00CFFC6B2012E2ED13B682B4493F809
:1099200005A058890AF1FF3A5FFA8AFABAF1050FE1
:1099300027D808EBCA031871FFF778F93B6848F895
:109940003A002B445D7919799A79DB79013DEDB2C2
:10995000284600F06FFE074620B12846002111F08E
:1099600083FA09E02A020220314642F0030205F0A0
:1099700025FA384600F0F8FE0134BBE70020BDE8C8
:10998000F0873046BDE8F087FCC5FF1F34C3FF1FDA
:1099900020C3FF1F24C3FF1F10B50024074B53F83B
:1099A00034301BB1E0B2197811F05EFA0134062CA4
:1099B000F4D1BDE8104011F077BA00BFFCC5FF1F1D
:1099C00008B5012010F06CF9044A1378FF2B03D07E
:1099D0000349C8540133137008BD00BF2CC7FF1FD3
:1099E0002CC6FF1F1FB5684611F074FB0024054B01
:1099F0000293694601208DF80E4011F0B1FB20461C
:109A000004B010BDC199000030B585B00446684669
:109A10000D4611F05FFB6946012000948DF804505B
:109A200011F05EFB002005B030BDEEEE014B187862
:109A3000704700BF2CC7FF1F034610B50C46E2B2AB
:109A40001946012011F0BEFB024B00221A7020467D
:109A500010BD00BF2CC7FF1F10B507490A780023AF
:109A6000934204DA054CE45CC4540133F8E7002364
:109A70000B70104610BD00BF2CC7FF1F2CC6FF1F68
:109A800008B546F624000FF09BF9024BC31A584262
:109A9000584108BDAAAACCCC012807B501D10C4B6E
:109AA00001E078B90B4B46F6240001930FF088F9DA
:109AB000019B984208D001A9012246F624000FF02C
:109AC000F1F801E0012000E0002003B05DF804FBA4
:109AD000AAAACCCCBBBBCCCC10B50A480A4CFFF729
:109AE0005FF80A4B18602046FFF764F8084B1860CF
:109AF0002368002B074BCCBF002201221A700020E4
:109B000010BD00BF30C7FF1F48C7FF1F44C7FF1F5E
:109B100040C7FF1F14C0FF1F30B5074B1A68002352
:109B20008B4205DAD55CC45CA54203D10133F7E76B
:109B3000012030BD002030BD40C7FF1F01382E2856
:109B40009ABF024B53F8200000207047CC3C010024
:109B5000092804D00D28034818BF00207047024888
:109B6000704700BFBD9B0000759B0000003018BF10
:109B70000120704702207047EFF311824FF050032D
:109B800083F31188BFF36F8FBFF34F8F014B1A60C0
:109B9000704700BF50C7FF1F024B1B6883F311883B
:109BA000704700BF50C7FF1F70474FF0FF3070472E
:109BB0000020704700207047002070470020704749
:109BC00070470CF057B9EEEE024B1A6802441A6067
:109BD0000CF0DAB84CC7FF1F07B502AA00230093A8
:109BE00042F8040D012102206B46FEF779FF08B907
:109BF000009800E0012003B05DF804FB013810B5C7
:109C00001C46072824D8DFE800F0042323230D0F87
:109C1000151D01291ED11068FFF790FF04B12060C7
:109C2000002010BD11B115E0012913D1002CF7D08F
:109C30002160F5E702290DD1002CF1D04FF0FF3360
:109C40002360EDE7012905D11068FFF781FFE5E703
:109C5000022010BD012010BD014BD3E90001704767
:109C600028C0FF1F074B70B5D3E9004500F022F96B
:109C700042F21076A0FB062306FB0133101943EBDA
:109C8000050170BD18C0FF1F10B50F4C246804609B
:109C90000E48006808600E49096811600D4A126894
:109CA0001A600D4B1A68029B1A600C4B1A68039BD2
:109CB0001A6000F0FFF84FF47A720023FEF70EFAF4
:109CC000049B1A6010BD00BF20C0FF1F30C0FF1FE3
:109CD00054C7FF1F58C7FF1F60C7FF1F64C7FF1F80
:109CE000F7B511F0A4FAC0F30746C4B2C0F30725D4
:109CF000370911F089FA06F00F060A2313FB0766ED
:109D0000194F06F5FA663E60C5F3001605F00F051B
:109D100013FB0655154E3560C4F3011504F00F040E
:109D200013FB0544124DC2B2C0F30721C0F3074034
:109D30002C60C0F3011400F00F0013FB04000D4C65
:109D40002060C1F3021001F00F0113FB00110A485B
:109D50000160C2F3021102F00F0213FB0123074955
:109D60000B6003B0F0BD00BF20C0FF1F30C0FF1F5D
:109D700054C7FF1F58C7FF1F60C7FF1F64C7FF1FDF
:109D80001FB5FFF7ADFF0C4B1B6800930B4B1B6817
:109D90000193002302930A4B18680A4B19680A4B77
:109DA0001A680A4B1B68FEF7BBFE094BC3E90001AA
:109DB00005B05DF804FB00BF60C7FF1F64C7FF1F4D
:109DC00020C0FF1F30C0FF1F54C7FF1F58C7FF1F11
:109DD00028C0FF1FF7B5A0F5FA600A2480B21F461D
:109DE000B0FBF4F304FB130000EB03138DF8023017
:109DF000B1FBF4F304FB131101EB03138DF80130F5
:109E0000B2FBF4F304FB132202EB03138DF80030D2
:109E100000989DF820609DF8245011F01FFAB7FBC0
:109E2000F4F304FB137707EB03138DF80630B6FB4E
:109E3000F4F304FB136606EB03138DF80530B5FB52
:109E4000F4F304FB135404EB03138DF8043001986E
:109E500011F000FA002003B0F0BDEEEE0449D1E9A4
:109E60000023013243F10003C1E90023704700BF22
:109E700068C7FF1F80B582B000AF0023FB710220CE
:109E80004FF47A710A4A09230FF034FA0346FB7142
:109E900002200FF0BBFA0346FB71FB79002B01D0C7
:109EA000012300E0002318460837BD4680BD00BFEF
:109EB0005D9E0000014BD3E90001704768C7FF1F9A
:109EC0000DF0D6B870B5002490B006ADC4F11403FF
:109ED00063550134142CF8D10BA9224600200EF052
:109EE0002FF92946042200200EF0D0F801A90422FF
:109EF00000200EF025F9284601A9042217F0C7FB1F
:109F000030BB2946052203200EF0C0F801A9052226
:109F100003200EF015F9284601A9052217F0B7FB1A
:109F20000646B8B9294622460EF0B0F801A92246E5
:109F300030460EF005F9284601A9224617F0A7FB86
:109F4000054648B90BA922460EF0A0F8284604E0C1
:109F5000012002E0022000E0032010B070BDEEEE10
:109F60000B78022B10B50C460BD002D8012B05D074
:109F700010BD042B13D0202B1ED010BD00234B602E
:109F80000BE0134B00221A70124B01221A70124B75
:109F90005B689847114B63602623A36010BD104B8C
:109FA00002791A600F4B4B6026238B60084B01220D
:109FB0001A700022074B09E00B4B0A691A600B4824
:109FC00014220021FEF773FB094B01221A7010BD09
:109FD00081C7FF1F80C7FF1F74C7FF1FE9C7FF1F8F
:109FE00070C7FF1FA3C7FF1F7CC7FF1FE4E8FF1F49
:109FF0000FC8FF1F01220346027078224270002220
:10A000008270DA70426070471FB58378044673B976
:10A0100001A80EF0AFFF63788DF804300D4B02936A
:10A020002078E378039301A90EF0A8FF0AE0012B42
:10A030000DD101A80EF000FFE3782078029301A96A
:10A040000EF000FF94E80300034B83E803000020B8
:10A0500004B010BD619F000074C7FF1F1FB578B921
:10A060000E4CA07001A80EF085FF022363708DF8DE
:10A07000043020780A4B029301A90EF07FFF0AE01A
:10A08000012808D1054CA07001A80EF0D5FE20785B
:10A0900001A90EF0D7FE002004B010BD74C7FF1F49
:10A0A000619F000030B5094C85B00546607001A87D
:10A0B0000EF060FF064B20788DF8045001A9029342
:10A0C0000EF05CFF002005B030BD00BF74C7FF1F5D
:10A0D000619F0000014B5878704700BF74C7FF1F95
:10A0E000024600210148FEF7E2BA00BFE9C7FF1FA0
:10A0F000024600210148FEF7DABA00BFA3C7FF1FDE
:10A1000030B59DF80C4024B95200D2B20F4B9B5C85
:10A110000EE0012C0BD152000C4CD5B242F00102E2
:10A12000655D6B40E35C5A40D2B2A35C00E0002363
:10A13000013989B24FF6FF72914205D0027853403F
:10A14000024A0130D35CF3E7184630BD883D010078
:10A15000012A73B505460C4609D10A4E0023009327
:10A1600030462A46FFF7CCFF30550134E4B2064BA7
:10A17000044A1878294623460EF0A8FE002002B0B3
:10A1800070BD00BFC9C7FF1F74C7FF1F30B5104D9A
:10A19000104C29686378CB1A032B85B015D10E4B70
:10A1A0005A780E4B002001391B78009089B2204666
:10A1B000FFF7A6FF2B688DF80F00013B9DF80F00FD
:10A1C000E35CC01A18BF012000E0002005B030BDDC
:10A1D0007CC7FF1FA3C7FF1F74C7FF1F70C7FF1FE8
:10A1E0007FB50A4D1446064601220B4600922846CA
:10A1F00021463246FFF784FF8DF80F009DF80F309F
:10A20000285DC01A18BF012004B070BD83C7FF1FAE
:10A21000012B2DE9F0470646884615461C460CBF23
:10A2200003270127DFF864A0DFF864908AF8008034
:10A230001420FFF745FE31465246012399F80000ED
:10A240000EF044FE0520FFF73BFE012C04BF013554
:10A25000EDB299F800000C4A31462B460EF060FE34
:10A26000012C02D00020BDE8F0876A1E304641462E
:10A27000D2B2FFF7B5FF0028F4D0013F17F0FF0777
:10A28000D0D12046BDE8F08783C7FF1FC9C7FF1F95
:10A2900074C7FF1F2DE9F04F5B4F00238DB03B606B
:10A2A00011F09EF80446002840F0AB80214622467B
:10A2B000092004F083FDFEF7B7FD544D286011F02E
:10A2C00085F82B6883422E4604D928600121092095
:10A2D000224610E04E4C206808B100F0A2FD306824
:10A2E000000100F09CFD0246206010B10025A84648
:10A2F0001DE00920012104F061FD012081E01FFA29
:10A3000085F94846FEF784FD01280FD123684FEAFE
:10A31000081A284603EB0A0BFEF788FC2368CBF8E3
:10A320000800534408F10108A3F80C900135394B9B
:10A330001B689D42E3DB03AD07A810F097FF0021E7
:10A3400010222846FEF7B3F9FEF768FC10220146FA
:10A350002846FEF7A3F9002307AA1A449178EA5C7D
:10A3600091421FD10133102BF6D1002533689D4255
:10A3700014DA0822284601A910F0BCFF23684FEA2E
:10A380000518434401A89989FEF774FD206801A9C6
:10A3900040440822FEF782F90135E7E701233B60DC
:10A3A00000202EE03368ADF82E30294610220DF142
:10A3B0001E00FEF773F907A810F07AFF0025336836
:10A3C0009D42D2DA23684FEA051843449889FEF784
:10A3D0002DFC2368434481469889FEF739FD4946A0
:10A3E000024601A8FEF75AF9284601A9082210F0F2
:10A3F000B7FF206801A940440822FEF74FF9013554
:10A40000DDE70DB0BDE8F08F18C8FF1F10C8FF1FB3
:10A4100014C8FF1F28C3FF1F2DE9F047304B1B68EE
:10A42000012B86B058D100262E4B1B689E424FF060
:10A4300000054FDA2C4C029523680395B7B24FEA1A
:10A4400007184344049598890595FEF701FD236894
:10A45000434481469889FEF7E9FB0DF1080A01465D
:10A460004A465046FEF71AF92368434404AA595D48
:10A47000A9540135082DF9D100234B4528DA1AF8E3
:10A480000300D15C884201D10133F6E700210822A4
:10A490006846FEF70CF9236835012B449889FEF7CE
:10A4A000D7FC23681D448046A889FEF7BFFB4246BF
:10A4B00001466846FEF7F2F820686946082200EB7C
:10A4C0000710FEF7EBF838466946082210F048FFFF
:10A4D0000136A9E7284600E0012006B0BDE8F08774
:10A4E00018C8FF1F10C8FF1F14C8FF1F2DE9F04137
:10A4F00080468CB00E46002042F2107115460FF0D7
:10A50000B7F9C0B2012839D000241E4B0093694628
:10A5100020468DF804408DF8054002AF0FF032F868
:10A52000012010F097FC214614223846FEF7BFF8B0
:10A5300007A821461422FEF7BAF8B44204DA18F844
:10A5400004303B550134F8E73346394607AA00206A
:10A550000EF096FF002010F07DFC0B4B00201D70CC
:10A56000A84207DA07AA731B13441A5C074BC254AC
:10A570000130F5E700200FF097F900200CB0BDE89E
:10A58000F08100BFA086010030C8FF1F1CC8FF1F5C
:10A5900038B5044608B9012014E04FF6E953984253
:10A5A00001D100200EE00A4DFFF784FCD5E900231D
:10A5B0008B4208BF824209D2121943F10003C5E958
:10A5C00000230220BDE8384010F0B0BB38BD00BF0A
:10A5D00038C8FF1F014B1870704700BF41C8FF1FEC
:10A5E000014B1878704700BF41C8FF1F08B510F035
:10A5F000AFFCC0B201380B2808D80123834040F6D5
:10A600003F601840003018BF012008BD002008BD81
:10A6100008B510F09DFCC0B201380F2808D80123FE
:10A6200083404FF2C1301840003018BF012008BDF0
:10A63000002008BD38B514461D4610F089FC012CD9
:10A6400005D002D3022C0BD018E0012217E0C3B2D0
:10A65000013B0B2B12D89C4040F63F62224009E0A0
:10A66000C3B2013B0F2B09D8012202FA03F34FF2C8
:10A67000C1321A40003218BF012200E00022052D2D
:10A6800035D8DFE805F0360308131E29C0B20A38B2
:10A6900006282CD82DE0C0B20138072827D801237E
:10A6A00003FA00F010F0C70023D138BDC0B2013862
:10A6B00008281CD80123834040F24B101840C0B931
:10A6C00038BDC0B20138042811D8012303FA00F0C4
:10A6D00010F013000DD138BDC0B20138052806D8DE
:10A6E000012303FA00F010F0230002D138BD00204E
:10A6F00038BD104638BD08B510F02AFCC0B2431E64
:10A700000F2B0FD8012000FA03F313F4604F0CD184
:10A7100013F4F05F08D1C3F30803002B0CBF002033
:10A72000022008BD002008BD032008BD431E0F2BDA
:10A730000FD8012000FA03F313F4604F0CD113F487
:10A74000F05F08D1C3F30803002B0CBF00200220E8
:10A7500070470020704703207047EEEE014B1878D9
:10A76000704700BF40C8FF1F034B012202FA00F0F0
:10A770001A6802431A60704744C8FF1F014B1868EB
:10A78000704700BF44C8FF1F70B5134C134E0546F9
:10A79000002120466C223170FDF789FF022D2346EF
:10A7A00004D00F4A12780B32954211DD02221A7042
:10A7B0000C481C225A7003F0EDFC0B4803F072FCAD
:10A7C0000A4803F0DBFC0A48BDE8704003F0B0BC67
:10A7D00001232570337070BD34C0FF1F42C8FF1FB6
:10A7E00040C8FF1F36C0FF1F56C0FF1F80C0FF1F9D
:10A7F00060C0FF1FF8B51A4B1A7804461E466AB3AC
:10A80000184B1B7880F8143103251749204603F0B4
:10A81000CAFAC7B20520FFF753FB144920464A1C69
:10A8200003F0E1FA3844C7B20520FFF749FB1049AD
:10A83000204603F0FBFA3844C7B20520FFF740FB7F
:10A8400020460C4903F012FB384410F0FF0F03D0F0
:10A85000013D15F0FF05D8D100233370F8BD00BFCE
:10A8600042C8FF1F34C0FF1F56C0FF1F35C0FF1F67
:10A8700080C0FF1F60C0FF1F044B1B7813B1044B47
:10A8800000221A7002496C22FDF708BF42C8FF1F60
:10A8900034C0FF1F014B1878704700BF42C8FF1F2C
:10A8A000F7B5012300248DF805308DF8063001A995
:10A8B000022380F814418DF8073005468DF80440D6
:10A8C0002B4E03F071FB1420FFF7FAFA0B238DF8DF
:10A8D0000330347003249DF803200121782003F015
:10A8E0007BF91420FFF7ECFA0321782003F05AF9E2
:10A8F00007461420FFF7E4FA9DF803309F4220D169
:10A900009DF803200021782003F066F91420FFF75A
:10A91000D7FA03219DF8030003F044F907461420F9
:10A92000FFF7CEFA9DF80330FFB29F4209D19DF8A0
:10A9300003300133DBB28DF80330337801333370E9
:10A94000C8E7013C14F0FF04C5D13278E3B29A4263
:10A9500004F1010408D904F10A0385F814312846EA
:10A96000002103F04AFBF0E7002003B0F0BD00BF78
:10A9700040C8FF1F0222027000224270A0F8082186
:10A98000A0F80A2180F80C21012280F80E214FF452
:10A990007A72C0F810217047407A7047827AC37A81
:10A9A00003EB022080B27047027B437B03EB022063
:10A9B00080B2704708B5002010F0A0FB094B1B685F
:10A9C0005A786AB9B3F80821FE2A04D899180132D6
:10A9D0000872A3F808210020BDE808400EF0B0BFBF
:10A9E00008BD00BF48C8FF1F012870B504460D46CA
:10A9F00016462CD80B68B3F5964F9CBF1549B1FB92
:10AA0000F3F1154B94BF013140F2D66153F8242085
:10AA1000002009230EF067FF104B53F82430AB6081
:10AA20002946002010F09CFB0D4B00210322012041
:10AA300043F824600BF022FD0A4B43F82400012068
:10AA40000BF0FEFD084B43F82400002070BD0120F0
:10AA500070BD00BFA0764B02A4C0FF1FA0C0FF1FA7
:10AA600048C8FF1F4CC8FF1F50C8FF1F014B53F8B9
:10AA70002000704748C8FF1F4B1EFF2B70B50A46C9
:10AA8000064610D8084D55F8203000240221597090
:10AA9000A3F8084103F108012046D2B210F092FB5E
:10AAA00055F826305C7070BD48C8FF1F4FF47A73AC
:10AAB00003FB01F2044951F820000021B2FBF3F23C
:10AAC0000B460BF06BBE00BF4CC8FF1F034B53F887
:10AAD000203000225A70A3F80821704748C8FF1F91
:10AAE00007B500200EF01DFF134B1B68587800BB04
:10AAF00093F80E2142B11A7A19788A4204D019B11A
:10AB000012B1FFF7E3FF14E01A7A83F8142102A9C7
:10AB1000002341F8043D094B18680BF0F7FD019B39
:10AB20003BB1074B4FF080521A60BFF34F8FBFF31A
:10AB30006F8F03B05DF804FB48C8FF1F4CC8FF1FB0
:10AB400004ED00E0024B53F8203001225A707047A8
:10AB500048C8FF1F10B50170511E0129BDF80840FB
:10AB6000427006D814F0070318BF012303EBD40486
:10AB700003E0D11E012903D864008470032010BDB6
:10AB8000511F012904D81A0A8270C370042010BD15
:10AB9000A2F10F01012907D81A0AC370230A827093
:10ABA00003714471062010BD203A012AEBD9002020
:10ABB00010BD10B5042ABDF8084009D84270C37012
:10ABC0001A0A230A0170827003714471062010BDB5
:10ABD0000F2A09D14270C3701A0A230A4471017006
:10ABE00082700371E4080AE0102A0BD14270C3702E
:10ABF0001A0A230A4471017082700371640084711F
:10AC0000072010BDA2F12004062C03D80170427069
:10AC1000022010BDA2F127041E2C04D8017042703E
:10AC20008370032010BD002010BDEEEE30B5002271
:10AC30004FF6FF7394B2A14209D0855C054C5D408C
:10AC4000EDB2013234F8154084EA1323F2E71846D6
:10AC500030BD00BF883E01002DE9F3471A4D55F87D
:10AC600020408946D4F8101106469046FFF71EFF93
:10AC700030B355F82630B3F80831032B01D8012042
:10AC80001FE0991E04F10807394402220DF1060065
:10AC9000FDF704FD55F82630BDF806A0B3F80811FD
:10ACA0000239384689B2FFF7C1FF8245E7D1237ADE
:10ACB0004B45E4D1607AB0EB080018BF012000E0FA
:10ACC000022002B0BDE8F08748C8FF1F73B5114DE0
:10ACD00055F82040B4F80811CBB2032B064616D91C
:10ACE00008340239214402220DF10600FDF7D6FC9A
:10ACF00055F82630B3F808110239204689B2FFF71B
:10AD000095FFBDF80630181A18BF012000E0012099
:10AD100002B070BD48C8FF1F38B505460C46FFF7A6
:10AD200085FF28552C44000A607038BD2DE9F04F8E
:10AD3000214F57F8208008F1080689461546C1B012
:10AD4000044689B23046FFF7E7FF012D09F10209F9
:10AD500008D900234B4504DAF25C0DF803200133D7
:10AD6000F8E76E4698F808A098F809B00020FDB101
:10AD700057F824304FF0000802225A70A3F80881D7
:10AD800031465FFA89F2404610F01CFA57F8243039
:10AD90005A4683F8018020465146FFF75DFF57F879
:10ADA00024300122C0B25A7010B1013DEDB2DEE78D
:10ADB00041B0BDE8F08F00BF48C8FF1F38B5134A47
:10ADC000054652F82000126892F814210C461AB970
:10ADD00090F80E21012A16D0002C0BD190F80E21EC
:10ADE000012A10D1427A62F07F02427202228272FC
:10ADF000032400E007DD0830A1B2FFF78DFF2846ED
:10AE0000A11CFFF739FE002038BD00BF48C8FF1F56
:10AE100063F07F03027043708170032070470AF073
:10AE2000B3BF0BF027B8EEEE10B51F4B1A781AB966
:10AE30001E4C23787BB123E000221A70FFF7A6F99D
:10AE400048B91B4B59781A4639B91A78194B1A6008
:10AE5000194B01221A70062010BD197823291DD024
:10AE60001978242901D19B78D3B11378242B02D1EE
:10AE70000F4B9B78BBB913782A2BD9D1022010BD78
:10AE80001420FFF72DF9002323700A4B1B68232B96
:10AE900008D02A2B14BF0620042010BD012010BDAD
:10AEA000052010BD032010BD81C7FF1F80C7FF1FF5
:10AEB000A3C7FF1F70C7FF1F82C7FF1FF7B5057825
:10AEC000032D13D10B4F0C4C3B7823700B4B0126F9
:10AED0001B6866701B78A370FFF7FCF83B78009640
:10AEE000024629462046FFF70BF9E070002003B028
:10AEF000F0BD00BF70C7FF1FE9C7FF1F48C8FF1F95
:10AF000008B50378012B2CD01BD3052B2ED10020A4
:10AF1000FFF760FB00200FF04FFE1E2004F0A6F8A4
:10AF2000012100220D2003F049FF00210A460220E2
:10AF300003F044FF1E2004F0B3F80220FFF7B2F83C
:10AF400014E00B4B98780B4BC0B21870FFF7AAF8BF
:10AF500001200FF031FE00210A460D2003F02EFFE4
:10AF600004E0034B9A78044B1B681A70002008BD5C
:10AF7000A3C7FF1F56C8FF1F48C8FF1F37B5037878
:10AF8000042B17D10D4A0E4C1378237001236370E4
:10AF90000C4B1B68012B18BF00231546A370FFF74D
:10AFA00099F8012102462B78054800910321FFF70B
:10AFB000A7F8E070002003B030BD00BF70C7FF1FCE
:10AFC000E9C7FF1F58C2FF1F08B50378022B10D135
:10AFD000094B9A78012A04D10FF071FC10F06EFA37
:10AFE00007E09B782BB90FF075FB0FF05BFC10F0BE
:10AFF0006DFA002008BD00BFA3C7FF1F2DE9F04771
:10B00000857A312D86B0064640F03681C77A012F09
:10B0100000F1080465D1002639462A463B460096D1
:10B020002046FFF7C6FDC5B2384603F07BFD030A94
:10B0300063556B1CDBB2E054022003F073FDAB1CC4
:10B04000DBB2020AE254EB1CDBB2E054304603F000
:10B0500069FD2B1DDBB2020AE2546B1DDBB2E0542A
:10B06000032003F05FFDAB1DDBB2020AE254EB1DCF
:10B07000DBB2E054082003F055FD05F10803DBB214
:10B08000020AE25405F10903DBB2E05405F10A03B8
:10B09000DBB2E65405F10B03DBB2E65405F10C0319
:10B0A000DBB2E65405F10D03DBB2E65405F10E0305
:10B0B000DBB2E65405F10F03DBB2E65405F11003F1
:10B0C000DBB2E65405F11103DBB2E65405F11203DD
:10B0D000DBB2E65405F11303DBB21435E654E8B2F3
:10B0E000CBE0022F40F0B180057B437B082003EBCF
:10B0F000052503F017FDC0B2854202D8002818BF0D
:10B10000284600270A2834BF81464FF00A0901214A
:10B110003122022300972046FFF74BFDC0B200F119
:10B12000010804F800901E2003F0A0FF5FFA88F8E1
:10B1300045464FF0010A4F454BD00C22002103A891
:10B14000FDF7B5FA514603A803F0A6FC9DF80E30B2
:10B1500063556B1CDBB29DF80F20E254BDF80C3038
:10B16000AA1CD2B2190AA154EA1CD2B20021A354DB
:10B170002B1DDBB29DF81020E1546B1DDBB20137B3
:10B18000E254AB1DDBB205F10A02E154EB1DDBB268
:10B19000D2B2E15405F10803DBB28A46E15405F16D
:10B1A0000903DBB2E154059B180EA05405F10B0214
:10B1B000D2B2180CA05405F10D0205F10C00D2B268
:10B1C000C0B24FEA132E0E3504F800E0EDB2A354DE
:10B1D000B1E703F065FF0020FFF748FCC7EBC707A6
:10B1E00008EB47084FF4C8735FFA88F8D0F810717D
:10B1F000C0F81031414604460020FFF7DFFD002073
:10B2000001213122FFF728FD0546D0B9737A312B91
:10B2100017D1B37A022B14D11E2003F027FF0D366D
:10B2200016F8028C454506F1040608DA16F8040CF7
:10B2300016F8021C012203F0B1FD0135F2E703F01C
:10B240002FFFFFB2C4F8107116E0032F14D11E2097
:10B2500003F00CFF03F0A0FC064603F021FF0023DF
:10B260000093204601212A463B46FFF7A2FCC0B2CC
:10B2700026540130C0B200E0002006B0BDE8F087DF
:10B2800073B5827A302A044650D1C57A012D10D187
:10B29000217B0020FDF744FD2846617BFDF740FD42
:10B2A000A17B0220FDF73CFD0320E17BFDF738FD8B
:10B2B0003CE0022D4FF000063AD100F108042B4685
:10B2C000009620460121FFF774FC1B4B1B78C2B28D
:10B2D000D3B13346D8B202EB8001C9B20130605419
:10B2E000164D2E6898000644214476784E702E68DC
:10B2F000064401337688360A8E702D682844042B64
:10B300004088C870E6D10DE0D8B202EB8001C9B226
:10B3100001306054013321440020042B48708870B0
:10B32000C870F1D102F11000C0B202E0002000E0CC
:10B33000304602B070BD00BF10C3FF1F14C3FF1F13
:10B340002DE9F04F827A272A89B000F108044FF0E6
:10B3500000054BD1C37A012B14D119460095204624
:10B36000FFF727FC8249C0B20B682354421CD2B2BB
:10B370000B689D421DDA7F4B1B68585DA31858551A
:10B380000135F5E7022B16D1012100952046FFF784
:10B3900010FC7949C0B20B682354421CD2B20B682E
:10B3A0009D4206DA754B1B68585DA3185855013548
:10B3B000F5E7D518D5E0032B40F0D5800095204661
:10B3C0000121FFF7F6FB6E4B1B78C0B2012B4FF04B
:10B3D0004F0204EB0003225403D14E225A70851C05
:10B3E0005EE046225A709A70C51C59E0282A40F047
:10B3F000BA80C17A012955D1B0F808211F2A40F03E
:10B40000B280621903AE5279AA550135142DF8D1D4
:10B410000121002390F8219090F822A090F8238039
:10B4200090F824B0009328220B462046FFF7C1FB7A
:10B430002946C7B23046FEF76FFBE619FD1D08B37B
:10B440004F4B4FEA0A4A01220AEB09691A70CB44B2
:10B45000FEF730FD0BEB08284FF47A7B0BFB08F866
:10B4600010EB080241F100034649C1E900235323D0
:10B470005522E35572704322B270F2704522327148
:10B4800073710CE04623E355412373704923B37075
:10B490004C23F37055233371522373714523B371D9
:10B4A000EDB260E002295ED1B0F808110F293FD15A
:10B4B000027B492A17D1427B442A14D1827B442A39
:10B4C00011D1C27B512A0ED1027C442A0AD1857C3B
:10B4D000427CC37C2D0405EB0265027D154405EB1F
:10B4E000032500E0002500230093204601212822A7
:10B4F0000223FFF75EFB224B0122C6B21A70FEF751
:10B50000D9FC4FF47A735D43421941F100031D49A0
:10B51000C1E900235323A3553444552262704322CA
:10B52000A270E270452222716371A371F51D18E0CB
:10B530000C2918D1124B20461D70012100950323C0
:10B54000FFF737FBC0B257232354044452236370E0
:10B550005323A3705423E3704F232371502363714B
:10B56000851DE8B200E0284609B0BDE8F08F00BFB5
:10B5700048C7FF1F40C7FF1F30C7FF1F44C7FF1F3B
:10B5800014C0FF1F38C7FF1FF0B5827A322A9FB060
:10B59000074600F108044FF0000518D12B460121A1
:10B5A00000952046FFF705FBC6B2771CA555FFF7AF
:10B5B000D5F8B31CDBB2FFB20130E055354AE55493
:10B5C000F31CDBB21268E2540436F0B260E0332AB6
:10B5D00011D12B46012100952046FFF7EAFAC6B2A9
:10B5E000787BFFF7D1F8A555731CDBB27A7BE25468
:10B5F000B01CC0B24CE0362A11D12B460121009577
:10B600002046FFF7D6FAC5B2FFF7B8F8000A605532
:10B610006E1CFFF7B3F8F6B20235A05535E0342AB8
:10B6200035D12B46012100952046FFF7C2FAC5B25D
:10B6300003A8FFF721F99DF80C3063556B1CDBB2B2
:10B640009DF80D20E254A81C0DF10E01202254FAA1
:10B6500080F0FDF723F805F122000EA9202254FA0C
:10B6600080F0FDF71BF805F1420016A9202254FADC
:10B6700080F0FDF713F805F1620054FA80F00DF147
:10B680002E010A22FDF70AF86C35E8B200E02846E0
:10B690001FB0F0BD2CC3FF1F7FB5827A292A044654
:10B6A00040F08680C17A012900F108051ED10023EF
:10B6B000009328460B46FFF77CFA404B1A68C0B24D
:10B6C00012122A5405441B686B703D4B1B68AB700B
:10B6D0003C4B1B68EB703C4B1B682B713B4B1B6856
:10B6E0006B713B4B1B68AB71073040E0022940D1C6
:10B6F000B0F808310D2B13D1637B007B667CA17BF6
:10B70000E27B03EB0020237C0096A47C01940024C0
:10B71000029480B2FEF75EFB0446FEF731FB00E0C8
:10B720000124002300932922022328460121FFF748
:10B7300040FAC2B2AB18D01D5CB95321A9545522AE
:10B740005A7043229A70DA7045221A7159719971B0
:10B750000DE04621A95441225A7049229A704C2288
:10B76000DA7055221A7152225A7145229A71C0B26A
:10B7700021E003294FF000060BD101210B46009672
:10B780002846FFF716FAC4B20FF06EFD2855601C6C
:10B79000EDE704290ED1047B012C03D120460FF0E4
:10B7A00061FD07E034B920460FF05CFD204602E061
:10B7B000002000E0304604B070BD00BF20C0FF1F75
:10B7C00030C0FF1F54C7FF1F58C7FF1F60C7FF1FB0
:10B7D00064C7FF1F2DE9F047867A212E90B00446FA
:10B7E00000F1080566D1002700216E222846FCF7EB
:10B7F0005EFF324601213B4600972846FFF7D9F904
:10B80000B64B1A68E272C2F30723A372B44B1A68EC
:10B810006273C2F307232373C6B2FDF7FFF93B46F9
:10B82000C15CEA180133102B9171F9D1FDF7E6F9EB
:10B8300000230746FA5C22B906A8FDF7C5F90023E4
:10B8400005E0E9180133202B8A75F3D1F4E7C15CD8
:10B85000EA180133102B82F83610F8D10023FA5C75
:10B860000ABB0220FDF748F9001284F86E0002209E
:10B87000FDF742F984F86F000320FDF73DF984F8E5
:10B8800070000420FDF738F984F871000520FDF7F9
:10B8900033F984F872000620FDF72EF984F873005E
:10B8A00006F16A0084E1E9180133202B81F8462073
:10B8B000D5D1D6E7222E67D1437B077B03EB072741
:10B8C000864B1B68BFB29F4200F374814FF00008A3
:10B8D000002132222846FCF7EAFE32464346CDF8E4
:10B8E000008028460121FFF764F91C265FFA80F9E1
:10B8F0007E4343467B490A68324488461269D25CDB
:10B90000002A3BD1D8F800309A193846526984F899
:10B910002D20C2F3076184F82A10C2F3074184F88E
:10B920002B10C2F30721C7F3072284F82E2084F8D6
:10B930002C1084F82F709B5984F83030FDF756FA9C
:10B94000824684F831003846FDF762FA4AEA001070
:10B950005FFA80FA84F831A03846FDF757FAD8F834
:10B9600000204AEA401009F12803164484F8310007
:10B97000DBB2327EEA5409F1290019E1E9180133FA
:10B98000202B8A70B6D1BDE7232E3AD1437B90F8A5
:10B990000C80002700213222284603EB0828FCF700
:10B9A00086FE324601213B46009728464E4EFFF761
:10B9B00000F91FFA88F80C21336801FB08F103EB4A
:10B9C000010C5A58E272C2F30723A372DCF8082074
:10B9D000E273C2F307632373C2F307436373C2F3D3
:10B9E0000723A373C0B23B4632680A445268D25C54
:10B9F0000AB92630DCE0EC180133202B2272F3D197
:10BA0000F7E7242E63D1C67A00F10C04142E28BF68
:10BA100014260023B34204F102040ADA14F8012CBC
:10BA200014F8021C02EB012106AA22F813100133BC
:10BA3000F0E700230093284601212422FFF7B9F8FC
:10BA4000C0B20DF116082E540130C4B208EB4609FD
:10BA5000C84500F0B180234B38F8026F1A681C23E8
:10BA60007343D358C3F303130393039B012B08D0F1
:10BA7000039B022B05D0039B032B02D0039B042BBB
:10BA80000FD13046FDF780F8CDE90401002304AA68
:10BA9000995C2A19D1540133082BF8D10834E4B247
:10BAA000D6E73046FDF7C2F8002782463046FDF75C
:10BAB000CFF9874205DA2B191AF80720DA55013732
:10BAC000F4E73046FDF7C4F92044C4B2C0E7252EA0
:10BAD0000CD10FF0FBFC00206FE000BF28C3FF1F5C
:10BAE00030C3FF1F1CC3FF1F18C3FF1F262E49D1E1
:10BAF000334B1B78012B31D1437B067B03EB0626AE
:10BB0000304BB6B21A681C237343D358C3F30313E4
:10BB1000013B032B11D800230022CDE9062300238B
:10BB2000EA18917906AA99540133082BF8D13046C6
:10BB3000DDE90623FDF71CF80EE03046FDF788F935
:10BB400007463046FDF772F80023BB4204D2EA18DC
:10BB50009279C2540133F8E7002700E0012700265C
:10BB600026223346009628460121FFF722F84F226D
:10BB70004B23C0B2A272E372CFB101232673637369
:10BB8000053015E0352E4FF0000415D1324623461E
:10BB9000009428460121FFF70CF80B4B1A68531E3E
:10BBA000C0B25A425A41431CDBB22C54EA54023010
:10BBB000C0B202E0012000E0204610B0BDE8F087EE
:10BBC00014C0FF1F1CC3FF1F58C2FF1FF8B5CA894E
:10BBD0004B890C4689899E1A3144102900F10805C9
:10BBE00002DD1032D31AA381237A4372237B5B00D8
:10BBF00083720026A389B6EB530F21DAB4F80AE06A
:10BC0000E78994F812C0617C227C0220C7EB0E0702
:10BC100097FBF0F03044231DC0B2BCF1000F02D1FD
:10BC200004F02CF901E004F057F9E379EB70A37903
:10BC30002B7163796B712379AB7101360435D9E7C8
:10BC40005B00033323700020F8BDF8B58B894A8967
:10BC5000054600F10806D80744BF01338B81CB8924
:10BC60000C46D11AC90744BF013262816289A18999
:10BC7000D01A0144102902DD10339A1AA28100273C
:10BC8000A389B7EB530F22DAF379E371337AA37107
:10BC9000737A6371B4F80AE0E089B37A2371C0EB78
:10BCA0000E00022390FBF3F094F812C0617C227C1A
:10BCB00094ED010A3844C0B2BCF1000F02D104F087
:10BCC00081F801E004F0ACF801370436D8E7237AB4
:10BCD0006B7263891B0AAB726389EB72A3891B0ABF
:10BCE0002B73A3896B73062323700020F8BD2DE905
:10BCF000F84F0646FEF750FE80463046FEF74EFEF1
:10BD000005463046FEF750FEB8F1030F044633D126
:10BD10000F2D00F2B4802B18102BC4BFC5F11004F6
:10BD2000A4B24FEA440903235FFA89F9737286F8D3
:10BD30000A90C4F34F04C5F347050B364FF00008D3
:10BD4000A04506F1040652DA05EB0800C0B203F084
:10BD5000FFFD10EE107AC7F3076306F8043CC7F343
:10BD6000074306F8033CC7F3072308F1010806F868
:10BD7000023C06F8017CE3E7B8F1040F3CD10F2D3B
:10BD80007DD8C10744BF00F1FF34A4B22B19102B9A
:10BD9000C4BFC5F11004A4B24FEA440904235FFAFA
:10BDA00089F9737286F80A90C4F34F04C5F3470506
:10BDB0000B364FF00008A04506F1040617DA05EB34
:10BDC0000800C0B203F0C4FD10EE107AC7F3076399
:10BDD00006F8043CC7F3074306F8033CC7F3072300
:10BDE00008F1010806F8023C06F8017CE3E709F1D6
:10BDF0000300C0B2BDE8F88FB8F1100F3FD10F2D8E
:10BE00003DD8C20744BF441CA4B2EB0744BF013570
:10BE1000ADB22B19102BC4BFC5F11004A4B2C4F3EA
:10BE20004F0A4FEA650B06F10F084FF00009D145A4
:10BE300008F1040818DA18F8043C63F31F6718F8CF
:10BE4000033C63F3174718F8023C63F30F2718F815
:10BE5000013C63F3070709EB0B0000EE107A03F0D7
:10BE600035FD09F10109E2E7102373720023B37273
:10BE7000230AF572337374730620BDE8F88F00202F
:10BE8000BDE8F88FF8B50446FEF786FD0646204665
:10BE9000FEF784FD07462046FEF786FD042EC5B258
:10BEA00056D140F6B8739F4205D1022D42D1667239
:10BEB000A672012026E040F6BC739F4205D1022DF8
:10BEC00038D16672A672012029E0B7F57C6F0FD1D8
:10BED000022D40F0F7806672A672012003F0E0FBAD
:10BEE000030EE372030C2373030A6373A073E9E088
:10BEF00040F6C8739F4208D1022D40F0E38066727D
:10BF0000A672284603F0A2FB0BE040F6CC739F42DA
:10BF100010D1022D40F0D6806672A672284603F03A
:10BF2000F6FB030EE372030C2373030AA07363731F
:10BF30000720F8BDB7F57D6F40F0C480022D40F0BA
:10BF4000C18004236372A372284603F0A9FBE8E7CB
:10BF5000102E40F0B78040F6B8739F420BD1022DEF
:10BF60005DD1237CE27B617C1B0403EB0263A27C3A
:10BF70000120134432E040F6BC739F420BD1022DE6
:10BF80004DD1237CE27B617C1B0403EB0263A27C2A
:10BF9000012013443AE0B7F57C6F10D1022D64D133
:10BFA000237CE27B617C1B0403EB0263A27C1344D1
:10BFB000012003EB012103F054FB667260E040F6C0
:10BFC000C8739F4213D1022D62D1237CE27B617C36
:10BFD0001B0403EB0263A27C2846134403EB0121FC
:10BFE00003F020FB0F23A3726672B8234BE040F6E8
:10BFF000CC739F4213D1022D64D1237CE27B617C00
:10C000001B0403EB0263A27C2846134403EB0121CB
:10C0100003F05AFB0F23A3726672BC2333E0B7F51B
:10C020007D6F0FD1022D4DD1237CE27B617C1B04FF
:10C0300003EB0263A27C1344284603EB012103F0C7
:10C0400010FB1BE040F6D4739F420ED1022D39D174
:10C05000237CE27B607C1B0403EB0263A27C134421
:10C0600003EB00200DF05AFF08E040F6D8739F4222
:10C070000ED1022D26D1A07C03F01CFD102363728B
:10C080000F23A372C023E37200232373657317E0A9
:10C0900040F6DC739F4215D1012D13D1E37B522B67
:10C0A00004D1237C532B01D103F054FD1023637280
:10C0B0000F23A372C023E37200232373022363734D
:10C0C0000620F8BD0020F8BD30B587B00446FEF765
:10C0D00063FC8DF80C002046FEF760FCADF80E0006
:10C0E0002046FEF761FC9DF80C10ADF81000002210
:10C0F000022905468DF804201FD1BDF80E2040F21C
:10C1000057439A4240F09381012808D02378237244
:10C11000637AA17263F07F036372032089E103F005
:10C1200009FF9DF80C306372003018BF0120042312
:10C13000A572E0728DF8043079E1032940F0BC80EB
:10C14000BDF80E30A3F140000F280ED84023ADF803
:10C15000123001238DF8153004238DF814308DF83A
:10C16000162020460DEB030122E0A3F180000F28EA
:10C170000ED880230422ADF8123001238DF815303B
:10C180008DF814208DF8163020460DEB02010FE0DB
:10C19000A3F1C0000F280ED8C023ADF81230012340
:10C1A0008DF815308DF814108DF81620204601A951
:10C1B000FFF70CFD3BE1A3F580700F2809D84FF481
:10C1C0008073ADF8123001238DF815308DF81410FE
:10C1D0006FE0A3F5E0710F2908D84FF4E073ADF8D4
:10C1E000123001238DF81530022318E0A3F50071F9
:10C1F0000F2908D84FF40073ADF8123001238DF8E1
:10C20000153002221AE0A3F5A0710F290AD84FF4C5
:10C21000A073ADF8123001238DF8153005238DF889
:10C220001430C1E7A3F5C0720F2A0AD84FF4C073C7
:10C23000ADF8123001238DF8153005228DF8142049
:10C2400037E0A3F550720F2A08D84FF45073ADF8B9
:10C25000123002238DF81530032317E0A3F5607226
:10C260000F2A08D84FF46073ADF8123002238DF80E
:10C27000153003231AE0A3F570720F2A0AD84FF481
:10C280007073ADF8123002238DF815308DF814302C
:10C2900000230EE0A3F580630F2B00F2C8804FF45B
:10C2A0008063ADF8123002238DF815308DF814300C
:10C2B00001238DF8163079E7102940F0B880BDF8D9
:10C2C0000E30A3F140010F290ED84023ADF81230F3
:10C2D00001238DF8153004238DF814308DF81620C5
:10C2E00020460DEB0301A0E0A3F180010F290ED839
:10C2F00080230422ADF8123001238DF815308DF81B
:10C3000014208DF8163020460DEB02018DE0A3F1CC
:10C31000C0010F2907D8C023ADF8123001238DF8D2
:10C320001530032318E0A3F580710F2908D84FF4C6
:10C330008073ADF8123001238DF81530032236E0FA
:10C34000A3F5E0710F290CD84FF4E073ADF812306B
:10C3500001238DF8153002238DF814308DF8162046
:10C3600061E0A3F500720F2A08D84FF40073ADF80E
:10C37000123001238DF81530022218E0A3F5A072C7
:10C380000F2A08D84FF4A073ADF8123001238DF8AE
:10C390001530052333E0A3F5C0720F2A0AD84FF4F5
:10C3A000C073ADF8123001238DF8153005228DF8D9
:10C3B000142036E0A3F550720F2A08D84FF45073BA
:10C3C000ADF8123002238DF81530032317E0A3F5E2
:10C3D00060720F2A08D84FF46073ADF81230022350
:10C3E0008DF81530032319E0A3F570720F2A0AD8CF
:10C3F0004FF47073ADF8123002238DF815308DF8BC
:10C40000143000230DE0A3F580630F2B0FD84FF4F9
:10C410008063ADF8123002238DF815308DF814309A
:10C4200001238DF81630204601A9FFF70EFC9DF878
:10C43000040007B030BD2DE9F04786B0054600F195
:10C440000804FEF7A9FA80462846FEF7A7FA074631
:10C450002846FEF7A9FAB8F1040F064640F0F3802B
:10C46000B7F5FA6F6AD1297A009042463B462046DA
:10C47000FEF770FBC5B2012002F054FB030A6355BE
:10C480006B1CDBB205F11406E054022002F04AFBFB
:10C49000AB1CDBB2020AE254EB1CDBB2F6B2E05496
:10C4A000002002F03FFB2B1DDBB2020AE2546B1DA1
:10C4B000DBB2E054032002F035FBAB1DDBB2020A15
:10C4C000E254EB1DDBB2E054082002F02BFB05F137
:10C4D0000803DBB2020AE25405F10903DBB2E054BF
:10C4E00002F0AAF905F10A03DBB2020EE25405F1EB
:10C4F0000B03DBB2020CE25405F10C03DBB2020ABF
:10C50000E25405F10D03DBB205F10E02D2B2E054A4
:10C510000023A35405F10F02D2B2A35405F1100277
:10C52000D2B2A35405F11102D2B2A35405F1120202
:10C530001335D2B2EDB2A3546355D3E040F2DA73AF
:10C540009F4240F0CE803C2800F2CB80082002F0D1
:10C55000E9FA072396FBF3F6C7B2F6B2BE4202D859
:10C56000002F18BF37464FEAC709C7EB09039BB234
:10C57000297A00932046042240F2DA73FEF7EAFAA1
:10C58000C6B2002F00F0AE801E2002F06FFD3546CF
:10C590004FF000084FF0010AB8454CDA0C22002198
:10C5A00003A8FCF784F8514603A802F075FA9DF839
:10C5B0000E3063556B1CDBB29DF80F20E254BDF8C2
:10C5C0000C30AA1CD2B2190AA154EA1CD2B2002122
:10C5D000A3542B1DDBB29DF81020E1546B1DDBB280
:10C5E00008F10108E254AB1DDBB205F10A02E15487
:10C5F000EB1DDBB2D2B2E15405F10803DBB28A468F
:10C60000E15405F10903DBB2E154059B180EA05477
:10C6100005F10B02D2B2180CA05405F10D0205F180
:10C620000C00D2B2C0B24FEA132E0E3504F800E06F
:10C63000EDB2A354B0E7C7EB090706EB4706F6B225
:10C6400002F02EFD4EE0B8F1100F4AD140F69803EB
:10C650009F4218D1EB7B232B43D12B7C432B40D122
:10C660006B7C4C2B3DD1AB7C532B3AD11E2002F07E
:10C67000FDFC02F091FA02F013FD297A00962046A3
:10C6800042463B4629E040F6A2039F4229D13B287F
:10C6900027D8C0F34F091E2002F0E8FC05F110076F
:10C6A0004FF00008C84507F104070EDA17F8031C1D
:10C6B00017F8023C17F8040C03EB012189B20122A0
:10C6C00002F06CFB08F10108ECE702F0E9FC297AC2
:10C6D00000962046102240F6A203FEF73BFAC6B2AF
:10C6E00000E00026304606B0BDE8F08770B504468D
:10C6F000FEF752F906462046FEF750F90546204659
:10C70000FEF752F9042E1AD140F6CC339D4247D1A0
:10C71000062845D10C23A3723023E372237363737D
:10C72000A373E3732374452363745223A374E374E4
:10C730004F22637531232275A3750F2070BD102E13
:10C740002ED140F6B8339D422AD1E07B40BB237CFA
:10C75000532B26D1637C652B23D1A37C742B20D152
:10C76000E37C422B1DD1237D6F2B1AD1637D6F2B70
:10C7700016D1A37D742B13D1E37D6C2B10D1237EB6
:10C780006F2B0DD1637E612B0AD1A37E642B07D161
:10C79000E37E652B04D1237F722B01D102F06EF86A
:10C7A000002070BD38B50446FEF7F6F80546204671
:10C7B000FEF7F4F8042D1ED140F2767398423ED174
:10C7C0001023A3726572002308341E4A1168C95CE5
:10C7D000E1701168194404344978217011681944D2
:10C7E0004988090A617012681A4404335288A27099
:10C7F000102BEAD121E0102D21D140F26C73984228
:10C800004FF000001DD1217CFCF78AFAA17C0120A9
:10C81000FCF786FA217D0220FCF782FA0320A17D35
:10C82000FCF77EFA0723A3726C23E37200232373C1
:10C83000042365726373062038BD132038BD0020C1
:10C8400038BD38BD14C3FF1F2DE9F04385B006463F
:10C8500000F10805FEF7A0F881463046FEF79EF885
:10C8600004463046FEF7A0F8A9F10303DBB2012B22
:10C87000074600F2ED8041F28353984240F2028273
:10C8800000EB040841F29053984500F3FB810094BB
:10C890003B46317A28464A46FEF75CF9A7F5AC5785
:10C8A000043FC4B21FFA88F80C2F00F2ED81DFE8D4
:10C8B00017F00D00EB011E0029003400EB014500CC
:10C8C000530061006F007D00EB01900001F04AFF12
:10C8D000030E2B552B19020C5A70020A9A70D8704D
:10C8E00041F2865304349845E4B240F2D7812A19C4
:10C8F00000232B55537041F2875302349845E4B21C
:10C9000040F2CC812A1900232B55537041F28853F1
:10C9100002349845E4B240F2C18101F0ADFF030E4C
:10C920002B552B19020C5A70020A9A70D87041F2DA
:10C930008A5304349845E4B240F2B08100232B5569
:10C94000012001F096FE671C41F28B53023498459A
:10C95000E855E4B240F2A28100232B55012001F0FA
:10C960008DFE671C41F28C5302349845E855E4B2C1
:10C9700040F2948100232B55022001F07AFE671CBF
:10C9800041F28D5302349845E855E4B240F2868175
:10C9900000232B55022001F071FE671C41F28E53DB
:10C9A00002349845E855E4B240F2788102A801F0DB
:10C9B00097FE029B1A0E2A552A19190C5170D37032
:10C9C000190A41F29053043498459170E4B240F250
:10C9D000658102A801F084FE9DF80E209DF80C7080
:10C9E0009DF80D109DF80F0000232B55631C0AB90C
:10C9F000002203E0012A01D0022AF9D1EA540FB142
:10CA0000012F03D1EA5C42F00402EA5419B9EA5C4E
:10CA100022F010020AE0012903D1EA5C42F0100280
:10CA200004E0022903D1EA5C42F02002EA54012822
:10CA300003D1EA5C22F0400203E018B9EA5C42F05C
:10CA40004002EA5441F29153984500F21D8116E1EB
:10CA5000B9F1100F40F0DE8041F28353984240F26A
:10CA6000118100EB040841F29153984500F30A81CB
:10CA700000943B46317A28464A46FEF76BF8A7F504
:10CA8000AC53043B04461FFA88F80A2B00F2BF801F
:10CA9000DFE803F006BD2334454E576572808D00F4
:10CAA000C7EB0807012F40F3F780307CF37B0004CD
:10CAB00040EA0360B37C1843737C40EA032040F6ED
:10CAC000B833984200F2E88001F01AFE41F2865332
:10CAD000984540F299800B2701E000200727EB19C9
:10CAE000EA5D5B7853EA022301D001F0B1FE41F226
:10CAF0008753984540F28880023701E000200727DD
:10CB0000EB19EA5D5B7853EA022301D001F080FE65
:10CB100041F28853984577D90237BFB201E000202F
:10CB2000072741F2895398456ED90237BFB201E019
:10CB30000020072741F28A53984565D90237BFB2D2
:10CB400000E00727EB1901205978002201F08CFD45
:10CB500041F28B53984557D90237BFB200E00727FF
:10CB6000EB190120597801F08EFD41F28C53984564
:10CB70004AD90237BFB200E00727EB1902205978E3
:10CB8000002201F071FD41F28D5398453CD90237E6
:10CB9000BFB200E00727EB190220597801F073FDBE
:10CBA00041F28E5398452FD9BB1C9BB200E007235E
:10CBB00041F28F5290456FDDEA18E85CD17804337A
:10CBC00015FA83F541EA006150786B78927841EA72
:10CBD000004141EA022213F01103029201D0012B1D
:10CBE00001D18DF80E3000238DF80C308DF80D300A
:10CBF00001238DF80F3004AB13E9030001F048FD69
:10CC000041F29153984502D8002839D000E0022023
:10CC1000902312E0B9F1200F13D1002832D1317ADC
:10CC200000943B4628464A46FDF794FFC7B2E819F0
:10CC3000214601F0C1FD10B1A023737219E03C44FC
:10CC40001EE0B9F1210F1DD1E0B9317A00943B46C5
:10CC500028464A46FDF77EFF96F80871063FFFB268
:10CC60000446394606F10C0001F082FD18B1A122FC
:10CC70007272B0720EE0E4B2285525446F7002342F
:10CC8000E4B20BE0002409E0A9F18009022386F850
:10CC90000990B372032401E00320B9E7204605B0F0
:10CCA000BDE8F0832DE9F84F064600F10807FDF7CF
:10CCB00073FE80463046FDF771FE05463046FDF7AF
:10CCC00073FEB8F1010F04462CD1072D00F29080BD
:10CCD0002B18082BC4BFC5F10804A4B20DF0A8FEA0
:10CCE0004FF00008A0451BDA18F0070A4FEAE809E0
:10CCF00008BF07EB090308EB050009F1030908BFAA
:10CD000083F803A0C0B217F809B00DF053FE00FA83
:10CD10000AF040EA0B0B07F809B008F10108E1E757
:10CD200001232DE0B8F1020F36D1072D60D82B1862
:10CD3000082BC4BFC5F10804A4B20DF079FE4FF072
:10CD40000008A0451BDA18F0070A4FEAE80908BFF7
:10CD500007EB090308EB050009F1030908BF83F895
:10CD600003A0C0B217F809B00DF024FE00FA0AF0D3
:10CD700040EA0B0B07F809B008F10108E1E70223CC
:10CD80007372601E082390FBF3F0C0B2431CB372B1
:10CD90000430C0B2BDE8F88FB8F10F0F28D1072DCD
:10CDA00026D82B18082BC4BFC5F10804A4B24FF035
:10CDB0000008A0450FDA07EBE80308EB0500D97976
:10CDC00008F007031941C0B201F001010DF0E8FDC0
:10CDD00008F10108EDE70DF00BFE0F23737200233D
:10CDE000B372230AF572337374730620BDE8F88FAB
:10CDF0000020BDE8F88F2DE9F0418EB00546FDF723
:10CE0000CBFD024628460292FDF7C8FD03462846A0
:10CE10000393FDF7C9FD029A039B042A40F09B800F
:10CE200040F64F318B4205F1080416D1297A009063
:10CE30002046FDF78FFE04AD00212022C6B2284611
:10CE4000FBF735FC284601F073F90023A219E95CD1
:10CE5000D1540133202BF9D135E0B3F5366F18D119
:10CE6000297A00902046FDF775FE04AD00210A22C4
:10CE7000C6B22846FBF71BFC284601F013F9002335
:10CE8000A219E95CD15401330A2BF9D106F10A0049
:10CE90005FE040F668318B4218D1297A0090204635
:10CEA000FDF758FE04AD00212022C6B22846FBF74C
:10CEB000FEFB284601F062F90023A219E95CD15477
:10CEC0000133202BF9D106F1200042E040F67C31FD
:10CED0008B4223D1297A00902046FDF73BFEC5B254
:10CEE0006B1CDBB200271C2204AE39466755304666
:10CEF000E2542022FBF7DBFB05F10208304601F08B
:10CF000049F95FFA88F8394604EB0803725C5A5411
:10CF100001312029F8D105F122001AE0B3F5396F6B
:10CF200019D1297A00902046FDF714FE04AD0021A6
