:1000000000000020850A0000D10A0000D50A000087
:10001000CD0A0000CD0A0000CD0A0000000000005B
:10002000000000000000000000000000D90A0000ED
:10003000CD0A000000000000DD0A0000E10A000017
:100040001539000005390000F5380000E5380000DA
:10005000D5380000C5380000B5380000A5380000CC
:1000600095380000853800007538000065380000BC
:1000700055380000453800003538000025380000AC
:10008000250B0000CD0A0000CD0A0000CD0A0000BB
:10009000CD0A0000CD0A0000CD0A0000CD0A000004
:1000A000290B00002D0B0000310B0000350B000068
:1000B000CD0A0000CD0A0000390B00000D3600000B
:1000C000410B0000D5350000490B00009D350000B4
:1000D000510B0000CD0A0000CD0A0000CD0A00003F
:1000E000CD0A0000CD0A0000CD0A0000CD0A0000B4
:1000F000CD0A0000CD0A0000CD0A0000CD0A0000A4
:10010000993600007D36000061360000453600005B
:10011000CD0A0000CD0A0000CD0A0000CD0A000083
:10012000CD0A0000CD0A0000B5360000CD0A00005F
:10013000CD0A0000CD0A0000CD0A0000CD0A000063
:10014000CD0A0000CD0A0000CD0A0000CD0A000053
:10015000CD0A0000CD0A0000CD0A0000CD0A000043
:10016000CD0A0000CD0A0000CD0A0000CD0A000033
:1003F000CD0A0000CD0A0000CD0A0000FFFFFFFF7C
:10040000FFFFFFFFFFFFFFFFFFFFFFFFFEFBFFFF01
:1004100010B5054C237833B9044B13B10448AFF33E
:1004200000800123237010BDD8C0FF1F0000000012
:100430009C51000008B5064B1BB106480649AFF3B6
:1004400000800648036813B1054B03B1984708BD07
:10045000000000009C510000DCC0FF1FD0C0FF1F47
:1004600000000000154B002B08BF134B9D46A3F561
:10047000803A00218B460F461348144A121A04F0A2
:1004800036F80F4B002B00D098470E4B002B00D0B6
:1004900098470020002104000D000D48002802D0DC
:1004A0000C48AFF3008003F0F3FF2000290000F0B8
:1004B00093FB03F0D9FF00BF0000080000000020FC
:1004C0000000000000000000D8C0FF1F88D4FF1FFC
:1004D00000000000000000004BB942B9002908BF2D
:1004E000002802D04FF0FF31084600F03BB882B040
:1004F000EC462DE9005000F01DF8DDF804E002B0F4
:100500000CBC70472DE97043069E14461D4680467C
:10051000894600F029F804FB01F300FB0533A4FB36
:1005200000451D44B8EB040469EB0505C6E9004528
:10053000BDE870832DE97043069E144680468946C7
:100540001D4600F05DF900FB05F504FB0153A0FB1F
:1005500004451D44B8EB040469EB0505C6E90045F4
:10056000BDE87083704700BF00292DE9F00FC0F28D
:100570009F800024002BC0F29680154606460F4649
:10058000002B3ED18A4257D9B2FA82F34BB1C3F164
:10059000200201FA03F720FA02F29D40174300FA05
:1005A00003F6290CB7FBF1F2330C01FB127CA8B265
:1005B00043EA0C4700FB02F3BB4209D97F1902F161
:1005C000FF3C80F00181BB4240F2FE80023A2F44A2
:1005D000FF1AB7FBF1F3B6B201FB137146EA014112
:1005E00000FB03F0884208D9491903F1FF3780F076
:1005F000ED80884240F2EA80023B43EA0242002357
:1006000003E08B420AD900231A461046194614B15A
:10061000404261EB4101BDE8F00F7047B3FA83F847
:10062000B8F1000F40F084808B4202D3824200F286
:10063000DE8000230122E8E712B90123B3FBF2F5C3
:10064000B5FA85F2002A39D17F1B280C1FFA85FCE8
:100650000123B7FBF0F1320C00FB117742EA0747A8
:100660000CFB01F2BA4207D97F1901F1FF3802D21F
:10067000BA4200F2C1804146BF1AB7FBF0F2B6B2EF
:1006800000FB127046EA00400CFB02FC844507D9CF
:10069000401902F1FF3702D2844500F2AB803A469E
:1006A00042EA0142B1E7E443524263EB430364E7A9
:1006B000404261EB41014FF0FF345BE79540C2F1EE
:1006C000200327FA03F1280C26FA03F39740B1FB25
:1006D000F0F81F433B0C00FB18111FFA85FC43EA9E
:1006E00001410CFB08F38B4206FA02F608D94919BE
:1006F00008F1FF3279D28B4277D9A8F10208294458
:10070000C91AB1FBF0F3BFB200FB131147EA01476E
:100710000CFB03F2BA4207D97F1903F1FF3160D213
:10072000BA425ED9023B2F44BF1A43EA084390E71E
:10073000C8F1200203FA08FC25FA02F343EA0C0C84
:100740004FEA1C4921FA02F301FA08F720FA02F2F3
:10075000B3FBF9F1174309FB11333A0C1FFA8CFB79
:1007600042EA03430BFB01FA9A4505FA08F008D95F
:1007700013EB0C0301F1FF3235D29A4533D902391C
:100780006344CAEB0303B3FBF9F209FB1233BFB2B4
:1007900047EA03470BFB02F9B94508D917EB0C07E9
:1007A00002F1FF331BD2B94519D9023A674442EA34
:1007B0000145A5FB0001C9EB07078F424FF000037D
:1007C0000AD305D02A4620E7624601E73B4614E7F4
:1007D00006FA08F68642F5D26A1E002315E71A4685
:1007E000E5E70B46A0E71146CBE7904688E743468E
:1007F00042460AE7023A53E702392F443CE700BF7A
:100800002DE9F00F144605460E46002B43D18A42CF
:1008100053D9B2FA82F757B1C7F1200620FA06F68B
:1008200001FA07F302FA07F41E4300FA07F5210C58
:10083000B6FBF1F22B0C01FB1267A0B243EA0746AC
:1008400000FB02F3B34209D9361902F1FF3780F0F9
:10085000F680B34240F2F380023A2644F61AB6FB21
:10086000F1F3ADB201FB136145EA014100FB03F076
:10087000884208D9091903F1FF3680F0E2808842E6
:1008800040F2DF80023B43EA024200231046194651
:10089000BDE8F00F70478B424AD8B3FA83F6002EBA
:1008A0004DD18B4202D3824200F2D6800023012236
:1008B00010461946BDE8F00F704712B90124B4FB89
:1008C000F2F4B4FA84F2002A7CD1091B260CA7B2F8
:1008D0000123B1FBF6F02A0C06FB101142EA01419C
:1008E00007FB00F28A4207D9091900F1FF3C02D246
:1008F0008A4200F2C3806046891AB1FBF6F2ADB2BB
:1009000006FB121145EA014507FB02F7AF4208D981
:100910002C1902F1FF3180F09680A74240F29380BB
:10092000023A42EA004210461946BDE8F00F70470D
:1009300000231A4610461946BDE8F00F7047C6F16D
:10094000200522FA05F4B3401C434FEA144821FA6B
:1009500005F301FA06F720FA05F5B3FBF8FC2F437F
:1009600008FB1C333D0C1FFA84FA45EA03430AFBDB
:100970000CF9994502FA06FB04D91B190CF1FF3258
:100980006DD39446C9EB0303B3FBF8F508FB1533AD
:10099000BFB247EA03470AFB05F8B84504D93F1937
:1009A00005F1FF3361D31D4645EA0C4CACFB0B232C
:1009B000C8EB07079F424FF0000549D345D0624678
:1009C0002B4663E79440C2F1200321FA03FC260C76
:1009D00020FA03F301FA02F5BCFBF6F843EA05013D
:1009E0000B0C06FB18CCA7B243EA0C4C07FB08F330
:1009F000634500FA02F509D91CEB040C08F1FF323B
:100A00003AD2634538D9A8F10208A444C3EB0C0CD0
:100A1000BCFBF6F389B206FB13CC41EA0C4107FBA1
:100A200003F28A4207D9091903F1FF3022D28A4220
:100A300020D9023B2144891A43EA084349E73A4650
:100A40000CE733461FE70A466BE7B0409042B6D248
:100A50000CF1FF32002319E73346324616E7994579
:100A60008FD9ACF1020C23448CE7B8459BD9023DE9
:100A7000274499E70346DEE79046C7E7023821445A
:100A80003AE700BF72B60A480A4901600A6882F371
:100A90000888094880470949094A0A4B9A42BEBF5B
:100AA00051F8040B42F8040BF8E762B60648804799
:100AB00008ED00E000000000F1430000C451000018
:100AC00000C0FF1FD4C0FF1F65040000FFF7FEBF7A
:100AD000204800472048004720480047204800475A
:100AE000204800472048004720480047204800474A
:100AF000204800472048004720480047204800473A
:100B00002048004720480047204800472048004729
:100B10002048004720480047204800472048004719
:100B20002048004720480047204800472048004709
:100B300020480047204800472048004720480047F9
:100B400020480047204800472048004720480047E9
:100B500020480047D10A0000D50A0000D90A000049
:100B6000DD0A0000E10A000009390000F938000040
:100B7000E9380000D9380000C9380000B938000051
:100B8000A938000099380000893800007938000041
:100B90006938000059380000493800003938000031
:100BA0002938000019380000CD0A0000053800007F
:100BB000F13700003539000019390000D93700003D
:100BC000C1370000CD0A0000A9370000CD0A00009F
:100BD00091370000CD0A0000AE4BAF4E1A68AF4D02
:100BE00042F400722DE980481A601A68AC4F42F452
:100BF00080621A601A6842F400621A601A6842F44D
:100C000080521A601A6842F400521A60336823F462
:100C1000E06343F480733360736823F4E06343F468
:100C200080737360B36823F4E06343F48073B3604C
:100C30002B6EE3B023F4E0631CAC43F480732B66AB
:100C40004FF0010838460021224684F8018084F8DC
:100C5000008003F01DFBC7F8088038464146224655
:100C60004FF0020803F014FB4FF00409C7F80880A6
:100C700038464146224603F00BFB803747F8789C04
:100C800018213846224603F003FB4FF08073BB6007
:100C900084484946224603F0FBFA7369824823F4EC
:100CA000E06343F400737361B36923F4E06343F4D6
:100CB0000073B361F36923F4E06343F40073F361F9
:100CC0007A4B1A6C22F4E06242F440721A645A6C55
:100CD00022F4E06242F440725A642A6822F4E0622C
:100CE00042F440722A606A6822F4E06242F4407280
:100CF0006A60826822F4E06242F440728260C268F4
:100D000022F4E06242F44072C2601A6822F4E062A7
:100D100042F400721A605A6822F4E06242F40072EF
:100D20005A604FF0230268F30A221A809A80B28533
:100D300032855F4A102191605E4A516921F4E06179
:100D400041F480715161916821F4E06141F4807156
:100D50009160296C21F4E0612964696C21F4E061FF
:100D60006964A96C21F4E061A964E96C21F4E06193
:100D7000E964996C21F4E06141F48071996411692E
:100D800021F4E06141F480711161016921F4E061B5
:100D900041F480710161D96C21F4E06141F480710A
:100DA000D964996821F4E06141F480719960536BD2
:100DB000414923F4E06343F480735363136B23F4DA
:100DC000E06343F48073136341F24403A2F50052DD
:100DD000D1503A4B1A7802F0F0021A701A7802F0E9
:100DE0005F0242F080021A7000229A70344A5178F1
:100DF00001F0C30141F0240151701B781E0602D599
:100E000093799D07FCD52F4B2F4A1A602C4B9A796A
:100E10009979187A10F00E0FD2B201F0010116D0B4
:100E200029B9274B1A7A02F0D0021A720FE0C2F3E6
:100E30008102012A02D01B789807F2D5204B5A78FC
:100E400002F0FE025A709A79D107FCD4E9E71C4BF4
:100E50005A7802F0FE025A701A7802F0FC0242F050
:100E600002021A7019468A79154BD207FBD41A78F8
:100E700002F0C70242F010021A701A7B197B970722
:100E800001F0FC01197321D040F2DD53013B1DD06C
:100E900000BFFBE73880044000B0044000D00440AD
:100EA00080F00F4000F00F4000C0044000A004405C
:100EB000C0F00F40009004400000230100500640A5
:100EC0000040064070D3FF1F001BB700564B5A78F6
:100ED00002F0FD025A701A7802F03B0242F08002E2
:100EE0001A709979504A01F01C010829F9D15379F7
:100EF00003F0BF0353714C4B9A799606FBD405223D
:100F00001A715A7902F0E00242F010025A711A790D
:100F100042F040021A71444B9A795506FBD55A7932
:100F200042F040025A7199793F4A8806FBD51378FE
:100F300003F03F0313703C4B93F80690C9F381090B
:100F4000B9F1030FF7D1A3F5E83341F24402374971
:100F5000995041F20402995821F4403141F4803112
:100F600099501A6822F4402242F400221A60304B51
:100F7000304A1A6002F058F88046002864D12E4D9D
:100F80002E4F2B6823F4E06343F480732B60EB68EF
:100F900023F4E06343F48073EB606B6823F4E06355
:100FA00043F480736B60AB6823F4E06343F48073B5
:100FB0000126AB603846224605212670667003F094
:100FC00067F9384622460221267084F8018066F3CC
:100FD0000A2903F05DF9224612211948267084F887
:100FE000018003F055F9A5F800907B6923F0010317
:100FF0007B6103F067F97B6923F480537B613146A1
:1010000022463846267084F8018003F041F90D48E5
:1010100001F078FF0A4826700221224684F80180F8
:1010200003F036F912E000BF004006400000230143
:1010300034C0FF1F00B4C4040090044000F00F400F
:1010400040F00F40A086010003F03CF9EFF310825E
:1010500072B6774B4AF2026199814BF280419981D5
:1010600082F31088EFF3108172B64CF22052DA81CD
:101070004DF62812DA8100229A82DA821A815A8188
:101080009A804FF4FA62DA8044F291021A8081F376
:1010900010884FF48072013A998AFCD1022001F045
:1010A00079FE0E2001F076FE0F2001F073FE01F0B4
:1010B00007FF02F0EBFC5F4B1A78012A07D01B7880
:1010C000032B04D05B480378042B40F077815A4B04
:1010D0005A481A6842F400021A60594B1A6822F002
:1010E00002021A601A6842F0010200211A603422DA
:1010F00003F0FDF9534A41F24C034FF48075D35885
:10110000C3F303630F2B1CBF4F4A32F813104B4B32
:1011100014BF89024FF480215960012119724FF4E4
:1011200000610022D96049491A6091F8280005FA47
:1011300000F0586191F82B101A61DA6999611E4626
:10114000002A00F06A811368022B40F06681404952
:1011500033680B603F4973680B603F4BF16819605F
:1011600000223A4B326272629978C9B201F00303ED
:10117000022B3A4B05D001F0C00180290CBF01229F
:1011800002221A700023364A00259D500433B3F51D
:10119000006FF8D102F0DCFA0126324826700321F4
:1011A0002246667003F074F8022323704FF47A73BA
:1011B0006570A4F80851A4F80A5184F80C5184F819
:1011C0000E61C4F81031284640F2D661264A274FF6
:1011D000092302F0DDF8264B2648D3F80080264B81
:1011E0005A6E22F4E06242F480725A66192109AA0A
:1011F0008DF824608DF8255003F04AF83D683E795B
:1012000002F0B2F80F4A41F24403D35802F50C320F
:10121000954239D002F58052954235D002F5805280
:10122000954231D01548164A164BD72102F000F8E6
:101230000020054064C0FF1F3C80044094D3FF1F82
:10124000007003400070044012480000000002409B
:1012500078D3FF1F6CD3FF1FDCD2FF1FE0D2FF1F2C
:1012600084C9FF1F00F00F40AD2900003CC0FF1FE4
:1012700068C0FF1F00F10F4000D00440B6480000D6
:1012800008480000D84800001B0F0133B0FBF3F002
:101290004FF4E113B0FBF3F39BB2002B08BF012323
:1012A00040004FF4E13EC3EBC322B0FBFEFE0EEB69
:1012B000421E1FFA8EFE0EEB4312B0FBF2F0B0F5A9
:1012C000E13F40F2CD80A0F5E130B0F5586F40F23B
:1012D000CA8073B2002B80F2D680B34A06F00F01A9
:1012E0000A44902111762A78D2B22A70EA7842F024
:1012F0002002EA70AA7942F00802AA716A7C13F10E
:10130000800FD2B26A7408D0012206F01F0602FADA
:1013100006F65B09A54A42F82360A54BC3F8008096
:1013200000237B71A34B1C604FF4C843A24A196889
:101330009950043346F270429342F7D14FF4C843B8
:1013400012AD1B68012B00F0A68000219B482022D3
:1013500003F0CDF899489A4903F0DEF80126994B3D
:101360006B604FF002082946304685F80080AE6079
:1013700002F068FE944B95491E70002283F80180AC
:101380009A70DE705960924B1E701346914900228C
:10139000CA540133B3F5006FF8D18F4B1A808F4BCD
:1013A0001A808F4B1A78012A00F0AF801A78032A2E
:1013B00000F0AB801B78042B00F0A780894B1B78D2
:1013C000012B0CD1BFF34F8F874A884BD16801F4B2
:1013D000E0610B43D360BFF34F8F00BFFDE7844B49
:1013E000844953F804290A601B6883F308889047EE
:1013F000002341F28830236001F084FDEFF3108276
:1014000072B67D4B4AF2026199814BF2804199811B
:1014100082F3108823680133EBE7784F784D794BDE
:1014200079496F604FF0000838460C22AB60C5F870
:101430000080F56103F052F8744B754901371F6065
:10144000AF681C22384603F049F8724B01371F6021
:101450004046434641464246B84702232B6076E663
:10146000C0F5E13031E76C4A954200F0D48402F5D2
:101470008052954200F0D18402F58052954200F0EE
:10148000CE8402F0B7FD03F1604202F56142902183
:1014900082F8001327E74FF4CC43D3F80080B8F16B
:1014A000FF3F3FF45BAF0BAE304600210A2203F052
:1014B0001EF8B8F1000F1DD009230A21B8FBF1F284
:1014C00001FB128805F8038013F1FF339046F4D234
:1014D00000231A46A95C09B10BB9D3B213B1D01AD3
:1014E0003031315401320A2AF4D1C3F10A03002207
:1014F000F25401E0302333704849304802F0FFFFD6
:1015000031462E4802F0FBFF28E74549DFF81C91E1
:101510000B7833B9D9E90023424DC5E900230123F3
:101520000B70404ED9E90001D6E90023801A61EB27
:10153000030142F2107200238B4208BF824204D2A0
:101540000E200121032202F003FADFF86880D8F8A8
:10155000006096F80C31002B00F0AE83B6F808114D
:10156000002386F80C31CBB2032B40F29F83083660
:1015700012AD023902222846314402F0AFFFD8F8FA
:101580000030B3F80821023A16FA82F24FF6FF73E0
:1015900096424DD016F8010B23495840C0B231F89D
:1015A000101081EA1323F3E7FCEC00E000E100E017
:1015B0005CD2FF1F14C1FF1F646EFF1F14C0FF1F0A
:1015C00064480000712A0000F4C0FF1F853100004C
:1015D00000C1FF1F18C1FF1F14D2FF1F1CC9FF1F2E
:1015E00064C0FF1FD4D2FF1F00ED00E00400FA0525
:1015F00004720000FCC0FF1F0020054018D2FF1F2E
:1016000020C9FF1FE8D2FF1F4C4800007CD3FF1FFA
:101610003048000074D3FF1F00A006406948000056
:1016200088D3FF1F08C1FF1F6C45000088D1FF1F32
:101630002E88F61A18BF0126002E40F037839DF839
:1016400079209DF87AE09DF87B309DF87C009DF82C
:101650007D10042A16D09DF87B309DF87AA09DF865
:1016600079B09DF87C8003EB0A2A9DF87D30BBF1B0
:10167000040F03EB08281FFA8AFA1FFA88F840F0D3
:101680009F813FE103EB0E2301EB00209BB240F66C
:101690004F318B4280B23BD19DF8781000901EA84C
:1016A00001F0F3FC20225FFA80F83146284602F070
:1016B0001EFF32460023AB540132202AFAD1BC4A25
:1016C0009A5C0AB9DAB204E0EA540133202BF6D16D
:1016D000002200239918202909DCB649595C41B938
:1016E0000DF5C47A53441A44A2F5A0721170002378
:1016F00005E0A818C1540133142BEBD1F7E71CAA5D
:1017000042441A44E95C11720133202BF7D195E071
:10171000B3F5366F6ED19DF8781000901EA801F0D9
:10172000B4FC31465FFA80F80A220BA802F0DFFE13
:1017300046F2F0531B68591C18D14E238DF82C30FB
:101740004F238DF82D3054238DF82E3056238DF8ED
:101750002F3041238DF830304C238DF83130492320
:101760008DF8323044238DF8333036E0ABB9302376
:101770008DF82C308DF82D608DF82E608DF82F604F
:101780008DF830608DF831608DF832608DF83360FF
:101790008DF834608DF835601FE009220A20B3FB14
:1017A000F0F100FB1133AB5412F1FF320B46F5D2CE
:1017B00000231A46A95C09B10BB9D3B22BB1D01AD8
:1017C0000DF12C0E30310EF8001001320A2AF1D141
:1017D000C3F10A030BAA0021D15400231CAA0BA9B0
:1017E00042441A44595C117201330A2BF6D108F1B4
:1017F0000A0880E040F668318B4222D19DF87810CB
:1018000000901EA801F041FC31465FFA80F82022CA
:10181000284602F06CFE3346674A9A5CEA540AB9DD
:10182000002303E00133202BF6D1F9E71CAA424440
:101830001A44E95C11720133202BF7D108F120081A
:1018400059E040F67C318B422FD19DF87810009002
:101850001EA801F01AFC1CAB5FFA80F843440DF19E
:10186000700C1E7208F101035CFA83F31C221A72D9
:1018700008F1020A28463146202202F038FE5FFABB
:101880008AFA33464D4A52F82320EA5401331C2B7E
:10189000F8D100231CAA52441A44E95C11720133A6
:1018A000202BF7D108F1220825E0B3F5396F7FF43A
:1018B000D2AE9DF8781000901EA801F0E6FB3146EC
:1018C0005FFA80F82822284602F011FE334603F51D
:1018D000C8521C3292001268EA5401330B2BF6D125
:1018E00000231CAA42441A44E95C11720133282BDC
:1018F000F7D108F128085FFA88F8B8F1000F40F036
:101900009681A8E640F6CC339A4540F05C81B8F168
:10191000060F40F058819DF87810CDF800805A46A7
:1019200053461EA801F0B1FB1CABC0B203444222D7
:101930001A720DF1700E421C5EFA82F26F2313725E
:10194000821C5EFA82F274211372C21C5EFA82F269
:1019500000F10C081172021D5EFA82F26C21117204
:10196000421D5EFA82F25FFA88F81372831D5EFAF6
:1019700083F361221A72C31D5EFA83F364221A7222
:1019800000F108035EFA83F365221A7200F109037D
:101990005EFA83F372221A7200F10A035EFA83F38D
:1019A0000B304F225EFA80F01A724B2303720CE167
:1019B0007C47000000C0FF1F14C0FF1F64D2FF1F40
:1019C000BBF1100F40F0FF80BAF53E6F48D1AC4B31
:1019D0001B78002B00F0F7801EA801F049FB9DF852
:1019E000831083469DF8820001F024FB9DF885104A
:1019F000069082469DF8840001F01CFBDA445FFAF1
:101A00008AFA0246524407909DF887109DF8860096
:101A10005FFA82FA01F00EFB0246524405905FFA2B
:101A200082FA00235B450ADA194604931EA801F0E6
:101A300024FB049B50445FFA80FA0133F2E71CA8B0
:101A40000BF1080B00EB4B03187A597A01F0F2FA0C
:101A50004042C0B282454FF0000340F01D821EE2BA
:101A600040F6F4339A4523D1B8F1040F40F0AB802F
:101A700001F026FA834B2B60294601224FF4D04017
:101A800001F040F800210A460E2001F061FF7E4B74
:101A900001221A7001F0FAFF10F0FF0F40F093805E
:101AA0009DF87810CDF800801EA85A46534623E0D2
:101AB00040F6FE339A4540F08680B8F1040F40F0BE
:101AC00082809DF87F30542B7DD19DF88030452B4E
:101AD00079D19DF88130532B75D19DF88230542BEC
:101AE00071D16A4B9DF8781000221A70042300937C
:101AF0001EA8102240F6FE3301F0C7FA5FFA80F804
:101B000063E0069B079A02EB032A614B1B6813FAFA
:101B10008AFA604B1B68002B00F0DE810021012255
:101B20000F2001F015FF1EA801F0A2FA5A4B5345F1
:101B300040F0CC81102840F0C981584B18682860CB
:101B40001B792B710DF14D0000211B2202F0CFFCFF
:101B50004FF0000B59461EA801F08FFA0BAB03F8AB
:101B60000B000BF1010BBBF1100FF3D104932846CE
:101B700002F0DAFC049B8346184602F0D5FC5FFABB
:101B80008BFBC0B258452CBF03465B464FF0000BA1
:101B90005FFA8BF29A4280F09781594604931EA80F
:101BA0000BF1010B01F069FA05EB0B02049B12F833
:101BB000012C8242ECD03A4B002201211A600F2006
:101BC0000A4601F0C5FE4FF0000818F0FF080AD0E1
:101BD000D9E90023334D0021C5E900230E200A4630
:101BE00001F0B6FE23E09DF87B309DF87AA09DF8C9
:101BF00079209DF87C9003EB0A2A9DF87D30032A1A
:101C000003EB09291FFA8AFA1FFA89F940F0AE821C
:101C1000AAF5BB53103B99B2572900F2848219F000
:101C2000030F00F0378216F0FF0800F0B383DFF8EF
:101C30007890D9F8003093F81411424619B993F806
:101C40000E11012918D0B8F1000F40F0858593F8E6
:101C50000E21012A10D15A7A62F07F025A720222B2
:101C60009A72032200F078BD99541344FF2A5D70E4
:101C700002F1020340F08885D9F8003018E000BF77
:101C800000C1FF1FBBBBDDDDD4D2FF1F64C0FF1F3F
:101C900058D2FF1F38C0FF1F007000003C450000F5
:101CA00090D3FF1F08C1FF1F14C1FF1FD8F80030D9
:101CB00000225A70A3F80821A74BA84DD3E90001D0
:101CC000D5E900238B4208BF824207D2C83243F1D4
:101CD0000003C5E90023A24B0822DA60A14B1A7861
:101CE000002A3CD000251D7001F078F89E4B012899
:101CF00018702AD019D305282CD19C4B1D70984BF5
:101D000004229A6001F018F92A4601210D2001F001
:101D10001FFE29462A46022001F01AFE1E2001F06D
:101D200027F8022002F090FA14E0914B9878914B3A
:101D3000C0B2187002F088FA894B04225A60294612
:101D40002A460D2001F004FE04E0894B9A788A4B64
:101D50001B681A7086480021142202F0C8FB874ACB
:101D6000874B106803EB0010834239D013F8092C1D
:101D700013F8081C914224D0012A0AD113F8071C39
:101D8000012901D17F4901E079B97F490D68013509
:101D90000AE052B913F8071C012901D1794901E081
:101DA00019B979490D68013D0D6013F80A1C19B184
:101DB00076490D6801350D60002103F80A1C03F80F
:101DC000082C1A7852B113F80A2C1AB16F4A11680C
:101DD00001311160002203F80A2C1A701033C3E796
:101DE0006A4B19685E4B4FF4005209B15A6000E02B
:101DF0009A60EFF3108272B6654B4AF202619981E4
:101E00004BF28041998182F3108841F2883001F0D1
:101E100079F8FFF7C6BA002202E0012200E00222B0
:101E20005C4951F822100A0C02F1804202F58E2220
:101E300088B2D2F800C0012101FA00F04CEA00009B
:101E40001060EA7802F0F302EA702A7802F0E00209
:101E500042EA1322D2B2DBB22A706B70AB7A0EF078
:101E60001F0E03F0E0034EEA030E85F80AE0AB789C
:101E700003F0EC03AB700023EB7469752B7C43F02B
:101E800088032B746B7C43F0C0036B74EB7843F0D6
:101E90000C03EB70FFF71DBA3F4A137093E6DDF8B1
:101EA00014C0BCF1050FF7D80FF2040E5EF82CF049
:101EB000031B00003F2000004D2000008320000095
:101EC0006720000083200000012200E00022334B45
:101ED0001A60334B00221A60304B1B682BB1314B18
:101EE0009A4502D3304B9A4503D90F200121022293
:101EF00067E6DFF8B8B0BBF800104FEADA2211B994
:101F0000511CABF800100132BBF8001092B29142A4
:101F100011D1BBF800301EA8C3F101030AEBC32A9C
:101F200001F0A6F81FFA8AFA5044B0F5006F41DAC2
:101F30004FF0000B71E0039201F0D8FA039A0028E9
:101F400040F0808019490A80194A0021115401305B
:101F5000B0F5006FF8D1DCE788D1FF1F90D1FF1FEB
:101F600000F00F40E1D2FF1F80D3FF1FD5D2FF1F2B
:101F700098D1FF1F10C1FF1F14C1FF1F84D3FF1F83
:101F800040C9FF1FE4D2FF1F2CC9FF1F8CD3FF1FC6
:101F9000002005405848000000C1FF1F90D3FF1FDC
:101FA00038C0FF1F00700000000004001CC9FF1FA4
:101FB00018C1FF1F4FF0000B5A4603921EA801F0F4
:101FC00057F88345039A5CDA0AEB0B01B1F5006F11
:101FD0000FDB01F08BFA002834D1C7490A8801329F
:101FE0000A80C64900220A540130B0F5006FF8D1CA
:101FF00092460AEB020C59460392CDF810C01EA877
:1020000001F03BF8BD49DDF810C001F80C00039A5F
:102010000132D2B20BF1010BCFE71EA801F028F874
:1020200083452EDA0BEB0A03594604931EA801F0F0
:1020300024F8B24A049B0BF1010BD054EDE701F0F8
:1020400055FAF0B1AE4B00221A70BCE500211EA873
:1020500001F013F8012182461EA801F00EF800EBF2
:102060000A2000010BE000211EA801F006F8012162
:1020700082461EA801F001F800EB0A200004A14BE3
:1020800018609DF87810CDF800801EA810224FF43B
:102090003E6331E51AF0030F7FF4C5AD4B44582B76
:1020A00005DDCAF5BE5909F108091FFA89F99DF83D
:1020B0007810CDF8009053461EA8032200F0E5FFEB
:1020C000C0B24FEA990903460021494526DA1CAD02
:1020D0001D4400222A721CAE5D1C56FA85F50DF1D6
:1020E000700A2A729D1C56FA85F501312A72DD1C90
:1020F00056FA85F52A721D1D56FA85F52A725D1D60
:1021000056FA85F59E1D2A72DD1D5AFA86F65AFA90
:1021100085F508333272DBB22A72D6E700EBC908C4
:102120005FFA88F834E141F2FC739A4540F030815F
:10213000B9F1010F3FF677AD53469DF87810CDF811
:1021400000901EA800F0A1FF1CABC0B203440DF12B
:10215000700C83F8088000F102086B4B01305CFAC8
:1021600080F01B7803725FFA88F811E1102A40F0C2
:102170000F81AAF5BB53103B99B257291CD819F00F
:10218000030F7FF450AD1AF0030F7FF44CAD4B44B6
:10219000582B05DDCAF5BE5909F108091FFA89F95E
:1021A00000F0CAFE01210A46022001F0D1FB4FF0E7
:1021B000000800F0DDFDB2E041F2FC739A4508D161
:1021C000B9F1010F3FF62FAD00F0B6FE022001215C
:1021D00034E041F638039A4536D1B9F1050F3FF6A0
:1021E00022AD53469DF87810CDF800901EA800F05F
:1021F0004CFF9DF87F30012B5FFA80F803D1434BF1
:1022000004225A6003E013B9404B04229A609DF8FF
:102210008030012B02D13E4B04229A609DF8813020
:10222000012B02D1022002F00FF800F085FE0121FF
:102230000D20002201F08CFB022000210A4601F053
:1022400087FB00F095FD65E041F642039A4519D100
:10225000B9F1010F3FF6E7AC53469DF87810CDF881
:1022600000901EA800F011FF9DF88030012B5FFA4E
:1022700080F802D10422264B1CE0002B4AD1042214
:10228000234B1CE041F643039A451AD1B9F1010FE3
:102290003FF6C9AC53469DF87810CDF800901EA8C3
:1022A00000F0F3FE9DF88030012B5FFA80F803D137
:1022B000164B04225A602DE063BB144B04229A6033
:1022C00028E041F644039A4524D1B9F1010F3FF6C5
:1022D000AAAC9DF87810CDF800901EA8102200F04E
:1022E000D4FE5FFA80F89DF8800043B2002B4FDDEA
:1022F00001F0AAFF4CE000BF1CC9FF1F18C1FF1F5F
:1023000000C1FF1F58D2FF1FD5D2FF1F40F00F4062
:1023100000F00F4041F645039A453FF484AC41F686
:102320009C039A4534D1B9F1110F3FF67CAC9DF86E
:1023300080A000231CAA1A440BAE527C9A5501338C
:102340001C2BF7D141F69C039DF87810CDF8009036
:1023500010221EA800F099FE00215FFA80F82022CA
:10236000284602F0C4F80023CD4A52F82320EA544C
:1023700001331C2BF8D1BAF11C0F40F0E38100238C
:10238000E95CF25C914240F0DD8101331C2BF7D116
:10239000464648E49DF87A109DF87B309DF87920F8
:1023A0009DF87C6003EB01239DF87D10042A01EB6E
:1023B00006269BB2B6B240F03781B3F5FA6F40F013
:1023C00083809DF8781000961EA800F05EFEB54B45
:1023D000C5B21B681CA92944C3F307220A720DF178
:1023E000700E691C5EFA81F1DBB20B72A91C5EFAF9
:1023F00081F10DF1700981F80880E91C5EFA81F124
:10240000464681F80880291D5EFA81F10A726A1D2C
:102410005EFA82F2137200F0B7FD1CA9AB1D51FAEF
:1024200083F3020A1A72EB1D51FA83F305F10802D5
:1024300018729D4B1B6851FA82F2190A117205F14C
:10244000090259FA82F2137205F10A0359FA83F369
:1024500083F8088005F10B0359FA83F383F80880A9
:1024600005F10C0359FA83F383F8088005F10D0395
:1024700059FA83F383F8088005F10E0359FA83F3C0
:1024800083F8088005F10F0359FA83F383F8088075
:1024900005F1100359FA83F383F8088005F111035D
:1024A00059FA83F383F8088005F1120359FA83F38C
:1024B00083F8088005F11408133559FA85F55FFA99
:1024C00088F82E72FFF7B3BB40F2DA7293427FF4C2
:1024D000AEAB3C2E3FF6ABAB734B1D68072396FBB0
:1024E000F3F6EDB2F6B2AE4202D8002D18BF354673
:1024F000C5EBC5039BB200939DF878101EA804227B
:1025000040F2DA7300F0C1FD5FFA80F8002D3FF46D
:102510008EAB00F011FD434600200121A84279DA7C
:10252000DFF88CE111B10022CEF800205D4ADEF820
:1025300000101668B14211D25C4A02EB011201315F
:1025400092F802C0BCF1000FF4D1168892F8049002
:1025500092F805C0CEF80010926803E0002294467D
:10256000914616460DF1700E9E4400218EF808101B
:102570000DF1700A03F1010E5AFA8EFE01308EF849
:10258000089003F1020E5AFA8EFE4FEA16298EF8D1
:10259000089003F1030E5AFA8EFE8EF808601E1D95
:1025A0005AFA86F64FEA126E31725E1D5AFA86F6B4
:1025B00086F808C09E1D5AFA86F64FEA122C317230
:1025C000DE1D5AFA86F6317203F108065AFA86F6CB
:1025D000317203F109065AFA86F6317203F10A06DE
:1025E0005AFA86F686F808E003F10B065AFA86F6E0
:1025F0004FEA124E86F808E003F10D0603F10C0EC7
:102600005AFA8EFE5AFA86F60E338EF808C0DBB2FE
:10261000327283E7C5EBC50508EB45085FFA88F819
:1026200000F0A6FBFFF703BB102A7FF400AB40F6D7
:10263000980293423ED19DF87F30232B7FF4F7AA76
:102640009DF88030432B7FF4F2AA9DF881304C2B0B
:102650007FF4EDAA9DF88230532B7FF4E8AA00F0B6
:102660006BFC104B1968090188450FD00F4B434490
:102670001A79012A07D19A781AB10B4A10680130E9
:10268000106000229A7008F11008EDE700F070FB6E
:102690009DF8781000961EA8102240F698034BE093
:1026A00064D2FF1F84D3FF1F8CD3FF1F34C9FF1FC9
:1026B00030C9FF1F40F6A20293427FF4B8AA3B2E16
:1026C0003FF6B5AA00F038FC674B7508D3F800E078
:1026D0001CABA84527DA9A7C93F811C002EB0C2CAE
:1026E0001A7C1FFA8CFCD2B9724518D05F481101D0
:1026F00031F80090E14502D1013202D10FE0013200
:10270000F2E742189278012A06D0594AD2F800C05E
:102710000CF1FF3CC2F800C0014401228A7008F1AC
:1027200001080433D5E700F023FB9DF878100096EC
:102730001EA8102240F6A20300F0A7FC5FFA80F862
:10274000FFF775BA00F0F8FB02200121024601F004
:10275000FFF800F00DFB1BE6083396B200204FF6A1
:10276000FF7185B2AE424FEA11253FF47DAA13F8FE
:1027700000E081EA0E015FFA81FE3E4931F81E1049
:10278000ADB269400130ECE7D9F80010DFF80C81F8
:102790007E790022A1F808214FF0007002224A70D1
:1027A000C8F804000831386816B1012E0AD037E0A5
:1027B000DBB29E4234D002791206FCD58A5DC2712A
:1027C0000136F6E72C482D4D86712869DBB228B911
:1027D0002B482C4A2C4BE321FEF728BD2BB9284867
:1027E000284A2A4BE621FEF721BD687E012817D032
:1027F000EB606E7612A80092254A01F0C9FA12A980
:102800002E76286901F09EF9286901F06DFD214BB3
:10281000DA7A42F08002DA72DA7842F08002DA7014
:102820007B7983B1012B14D11B4B0A93BB7923B95C
:102830000A9B43B9104A93710BE00A9B013B0A9330
:10284000002BF3D1F4E73D68284600F04DFC430629
:10285000FAD54FF00073C8F80830D9F800300022DC
:102860005A70FFF709BA00BF84D3FF1F34C9FF1F96
:102870008CD3FF1F6C4500003CC0FF1FC0D1FF1F61
:102880006B4800005E45000092480000A748000029
:1028900007A0064000A00640A086010000F10F40FE
:1028A0000D4BDB6970B50446A3B11B68022B11D137
:1028B00001280FD1094D0A482E684FF470011422E7
:1028C0000F23B0472D6806484FF4002113222346FA
:1028D000A84770BD70BD00BF94D3FF1F74D3FF1F06
:1028E00004F0014010B50F4C702323700E4BDB69D0
:1028F00013B11B68022B01D06D2010BD0B4B20467D
:102900001B6898472378DBB29A0609D4D90605D408
:1029100013F0010F0CBF0020692010BD682010BD0E
:10292000672010BD0000024094D3FF1F7CD3FF1F1F
:10293000013A40EA01031A420DD1084A136898424D
:1029400007D352680844134498428CBF6620002085
:102950007047662070476520704700BF94D3FF1F03
:102960000F4B1B68D8790F4B1B685A78C0B2AAB9B5
:10297000B3F80821FE2A04D8991801320872A3F886
:102980000821094BD3F8082122F00102C3F80821DD
:10299000D3F8082142F00102C3F80821704700BFB4
:1029A0003CC0FF1F14C1FF1F007003400F4BD3F842
:1029B000082122F00102C3F808210D4B1B685A7848
:1029C00092B993F80E1141B1187A1978884204D05F
:1029D00018B111B1A3F8082170471A7A83F81421AD
:1029E000012283F80C215A70704700BF0070034029
:1029F00014C1FF1F030943EA0010C0B200F0330303
:102A000000F0CC00801040EA830303F0550003F08F
:102A1000AA035B1043EA4000704700000449D1E973
:102A20000023013243F10003C1E90023704700BFD6
:102A300088D1FF1F38B520220C46054608460021E4
:102A400001F055FD094B1A68AA1A2260DA68626023
:102A50001A7A5B68B3FBF2F3A36008220423E360F5
:102A600022616261A361E361002038BD94D3FF1F3E
:102A70000B78022B10B50C460BD002D8012B05D0D9
:102A800010BD042B13D0202B1ED010BD00234B6093
:102A90000BE0134B00221A70124B01221A70124BDA
:102AA0005B689847114B63602623A36010BD104BF1
:102AB00002791A600F4B4B6026238B60084B012272
:102AC0001A700022074B09E00B4B0A691A600B4889
:102AD0001422002101F00BFD094B01221A7010BDD8
:102AE000CCD3FF1FCDD3FF1FF4C0FF1FF0D3FF1FB8
:102AF000ECD3FF1F98D1FF1FD4D3FF1F68D4FF1F53
:102B0000E1D2FF1F2DE9F04F05468BB0002900F000
:102B100016819600341803460020A34208D04F1BAC
:102B2000D3F800C0FF580433BC4518BF0120F4E7B8
:102B3000002800F00581844B186825F4FF640130FB
:102B4000186024F00704002380481F591F500433E5
:102B5000B3F5006F8146F7D12F1B27F00307074419
:102B60000023B34203D0C858F8500433F9E7D30721
:102B700048BF013272B6764E37686FF0030808FB23
:102B800002F8A7F5006702A9C8EB07072046CDF8B1
:102B90000480FFF74FFF20463946069AFFF7C8FE2C
:102BA000B246834630BB029EDDF80C80721E17448D
:102BB000B7FBF8F208FB127111B102FB0887013F65
:102BC0000020FFF76DFEBE4211D8624A26F07F4119
:102BD00041F010611160FFF785FE5F4A126912B182
:102BE00000909047009808B94644ECE783460120DE
:102BF000FFF756FEBBF1000F40F08680DAF8003098
:102C0000019AA3F50063C2EB030802A92046FFF76F
:102C100011FF20464146079AFFF78AFE68BB20460F
:102C200002A9FFF707FF029EDDF810B07342CBF157
:102C300000071F407F42B74200D15F44B8F1000F48
:102C40001DD0079A4349BB1B434528BF4346B3FBEE
:102C5000F2F2120426F07F406FEA522240F08070B8
:102C60006FEA422208604A600093FFF73BFE009B38
:102C700018B9C3EB08081E44DFE7002844D1DAF88E
:102C8000006002A92046FFF7D5FE20463146059A8E
:102C9000FFF74EFE8046002836D1029FFFF700FE68
:102CA0002A4B5EB32D491A680A60059A042A03F17B
:102CB000040A06D127F07F42264B42F0C0621A6018
:102CC0000CE0082A0AD15A6803F1080A244B1A605A
:102CD00027F07F4242F0E06243F8082CFFF702FE43
:102CE0001D4B1B69834603B19847BBF1000F04D10C
:102CF000059B1F44F61A5346D3E7D8460120FFF739
:102D0000CFFDB8F1000F01D062B618E062B62346DD
:102D10004046C4EB09021968D258914207D0114AC3
:102D200010601A68104B1A60104B1D6007E00130EC
:102D3000B0F5007F03F10403EBD1002000E0012097
:102D40000BB0BDE8F08F00BFDCD3FF1F84C9FF1FAD
:102D5000DCD2FF1F0400024094D3FF1F0800024092
:102D60000C000240D0D3FF1FC8D3FF1FD8D3FF1FD2
:102D700082B0EFF3058303F03F0301930199044B05
:102D8000012272B61A6062B6002002B0704700BF1E
:102D90006CC0FF1F0F4A116870B5002316468B42A6
:102DA00008D01C010C4AA25A824201D00133F6E736
:102DB000012070BD052B4FF00102F9D0064C19011E
:102DC00065180133AA7000226A71336060521046A0
:102DD00070BD00BF84D3FF1F34C9FF1FF7B52F4A52
:102DE00013781BB92E4C237853B32BE000231370B8
:102DF0002C4A11682C4A5078081A032817D12B48FE
:102E00002B4C40784000C0B2D71801338EB29DB22F
:102E1000AE42205C02D03D786840F5E70139224B94
:102E20008DF807009DF807005B5C984208D1517847
:102E30001D4BC9B91A781F4B1A601F4B01221A701B
:102E4000062029E01D480021142201F050FB002338
:102E50002370184B1B68232B04D02A2B14BF062089
:102E6000042019E0032017E0197823290FD01978DE
:102E7000242901D19B7863B11378242B02D10A4B0A
:102E80009B7843B913782A2BACD1022004E00120AF
:102E900002E0052000E0002003B0F0BDCCD3FF1F0E
:102EA000CDD3FF1FD4D3FF1F98D1FF1FF4C0FF1F46
:102EB0002A4D0000ECD3FF1FE0D3FF1FF0D3FF1F0C
:102EC0000023044A9958044A99500433242BF8D11A
:102ED000704700BF0070000018D4FF1F00687047E3
:102EE00003280CD8000100F1804000F55C30D0F8D8
:102EF000083143F00103C0F8083100207047012079
:102F0000704700000A4B1A680A4BB2FBF3F35843B0
:102F10000B22B0FBF2F382B000220192019A9A4296
:102F200003D200BF019A0132F7E702B0704700BF39
:102F300034C0FF1F40420F0037B5EFF3058303F0A5
:102F40003F030193019D0F4CADB972B6236843B99D
:102F500062B66420FFF7D6FF72B60135B5F5967FED
:102F6000F4D123681BB1074B0020186000E001205A
:102F700062B603B030BD72B62368002BF7D00020D4
:102F80002060F5E76CC0FF1F054B1968054B1868FA
:102F9000054B1A68054B08441B68104418447047D9
:102FA0002CC9FF1F04C1FF1F28D3FF1FE4D2FF1F3E
:102FB000F7B506460F4614460025BD4214DA705D8B
:102FC000FFF718FD8DF806009DF8063084EA0363CC
:102FD0001B0E8DF807309DF80720054B53F8223063
:102FE000013583EA0424E8E7204603B0F0BD00BFC2
:102FF00018490000F8B50446C0B2FFF7FBFC0646CE
:10300000C4F30720FFF7F6FC0746C4F30740FFF7B9
:10301000F1FC0546200EFFF7EDFC3B0443EA066396
:10302000184340EA0520F8BD014B1868704700BFFF
:10303000E8D3FF1FA0F13003DBB2092B06D9A0F1C2
:103040004103052B03D83738C0B200E01846A1F180
:103050003003DBB2092B06D9A1F14103052B03D8BC
:103060003739C9B200E0194601EB0010C0B2704711
:103070000346007A597AFFF7DDBF083100EB4103C0
:1030800010F811005978FFF7D5BF10B50170511E27
:103090000129BDF80840427006D814F0070318BF94
:1030A000012303EBD40403E0D11E012903D86400FB
:1030B0008470032010BD511F012904D81A0A8270A0
:1030C000C370042010BDA2F10F01012907D81A0A0C
:1030D000C370230A827003714471062010BD203A28
:1030E000012AEBD9002010BD02794179037B807C55
:1030F0001B0443EA0123134343EA0060704708B509
:10310000427902F03F024271002282740279C27950
:103110000279C279427C42F040024274FFF7E4FF38
:1031200010F00F0F40F2EE3008BF002008BD000085
:1031300010B5C478E40603460A4602D48478A4068F
:1031400003D518461146044B00E0044B1B68984712
:10315000BFF34F8F10BD00BFE4D3FF1F60D4FF1F2C
:10316000064B9A79D20706D5187A054BC0F3420070
:1031700023FA00F070474FF40040704700400640CB
:1031800000093D0038B5FFF729FE234B234A1B7881
:103190001070032853701DD1214901220B704A7011
:1031A000204A126812788A701F4A50781F4A4000DD
:1031B000C4B240F00100145D6340D35C5840C0B21B
:1031C0000023105CCC180133042B21D024786040FC
:1031D000105CF7E704281DD1114901220B704A70D9
:1031E000114A5078114A4000C5B240F00100555DC7
:1031F0006B400024D35C8C705840C0B22346105CF6
:10320000CC180133042B03D024786040105CF7E71E
:10321000034BD870002038BDECD3FF1F80D3FF1FB5
:10322000F0D3FF1F14C1FF1FF4C0FF1F2A4D000081
:1032300000BEFDE708B50D4B1B7B03F00303012B1C
:103240000DD004D30A48022B18BF002008BD094B3B
:10325000186850B90848094A094BE72103E00648B5
:10326000064A084BEC21FFF7E3FF08BD004006408B
:10327000006CDC0270D3FF1F3A4E0000814E00004C
:103280005D4E0000694E000010B50E4CA37903F0AE
:10329000400303F0FF00A3B1FFF7CCFF30B90A48A9
:1032A0000A4A0B4B40F26521FFF7C2FF237903F076
:1032B0001F030133B0FBF3F0637903F01F031833EE
:1032C000584310BD004006403A4E0000184D000023
:1032D000764E000038B5134DAC79C4F30014ECB948
:1032E000FFF7A8FFE0B12B7869782A7BC3F3C2030C
:1032F00011F0300F20FA03F402F0030200D00AB1FB
:10330000022A0DD1062B03D0072B03D0640907E056
:10331000142300E00C23B4FBF3F401E04FF4004469
:10332000204638BD0040064010B50D4C637803F0D0
:10333000020303F0FF008BB9A3799B060FD4FFF7BC
:10334000C9FF60B1E278E378C2F34112520002EBA8
:10335000D312044B33F81230584310BD002010BD77
:10336000004006402A4E0000084B9B79C3F38103BE
:10337000022B09D0032B03D0012B03D0FFF7D4BFBE
:10338000FFF782BFFFF7ECBEFFF754BF00400640D7
:1033900038B50D461C46032800F29680DFE800F0A1
:1033A00002264A6E494B1A60FFF7DEFF484A41F297
:1033B00044032401D358474AC3F303630133B0FBEA
:1033C000F3F0A0FB05010023FDF786F8424BC3F89C
:1033D0000001D3F8082142F00202C3F808213F4B54
:1033E000E4B283F830434FF480326AE03C4B1A6019
:1033F000FFF7BAFF364A41F244032401D358354A55
:10340000C3F303630133B0FBF3F0A0FB050100231A
:10341000FDF762F8304BC3F81001D3F8182142F0E1
:103420000202C3F818212D4BE4B283F831434FF464
:10343000003246E02B4B1A60FFF796FF244A41F218
:1034400044032401D358234AC3F303630133B0FB7D
:10345000F3F0A0FB05010023FDF73EF81E4BC3F877
:103460002001D3F8282142F00202C3F828211B4B87
:10347000E4B283F832434FF4802222E01A4B1A6000
:10348000FFF772FF124A41F244032401D358114A54
:10349000C3F303630133B0FBF3F0A0FB050100238A
:1034A000FDF71AF80C4BC3F83001D3F8382142F07D
:1034B0000202C3F83821094BE4B283F833434FF4D6
:1034C00000225A60002038BD012038BD40D4FF1FC3
:1034D0000070044040420F000070034000E100E033
:1034E00044D4FF1F54D4FF1F3CD4FF1F0B4A08B520
:1034F000138801339BB2B3F5967F13800CD8084B29
:103500000849188801384FF40072C002FFF7FAFA30
:10351000003018BF012008BD012008BD14D2FF1FD4
:103520001CC9FF1F18C1FF1F08B528B91648174A44
:10353000174B40F2191106E0C30606D01248134A91
:10354000144B4FF48D71FFF773FE29B90E480F4AE3
:10355000114B40F21B11F6E70B6803600A7A4B68C7
:1035600003614B7A120202F4E06203F00703134393
:10357000C3804B8983808B8983820B6983608B8AAC
:10358000C382C38308BD00BF024F0000DA4E0000B3
:10359000244F0000304F00004D4F000010B50B4C81
:1035A0002046FFF7A1FD10F0280F0DD0030703D52B
:1035B0002046FFF7A4FD05E0054B1B680BB19847BB
:1035C00000E0E379BFF34F8F10BD00BF00C006409D
:1035D00018C9FF1F10B50B4C2046FFF785FD10F0F2
:1035E000280F0DD0030703D52046FFF788FD05E01F
:1035F000054B1B680BB1984700E0E379BFF34F8F91
:1036000010BD00BF00B0064060D2FF1F10B50B4CCC
:103610002046FFF769FD10F0280F0DD0030703D5F2
:103620002046FFF76CFD05E0054B1B680BB1984782
:1036300000E0E379BFF34F8F10BD00BF00A006404C
:103640005CD2FF1F08B5044B0122C3F83C21034B99
:103650001B6803B1984708BD007003403CD4FF1FAE
:1036600008B5044B0122C3F82C21034B1B6803B19E
:10367000984708BD0070034054D4FF1F08B5044BA1
:103680000122C3F81C21034B1B6803B1984708BDF6
:103690000070034044D4FF1F08B5044B0122C3F857
:1036A0000C21034B1B6803B1984708BD0070034011
:1036B00040D4FF1F08B5074B1A6842F080021A6019
:1036C000054B1B6803B19847BFF34F8FBFF36F8F54
:1036D00008BD00BF00000440D8D2FF1F80B584B0F1
:1036E00000AF4FF0FF337B60184BDB69FB600023BA
:1036F000BB6013E0F868FFF7F1FB03463B607B68B3
:103700003A46104604211A46FFF752FC03467B60F6
:10371000FB680433FB60BB680133BB600B4B1A6A68
:103720000A4BDB69D31A9A08BB689A42E2D87B68D5
:103730001846FFF75FFC03467B607B68DB437B60DA
:103740007B6818461037BD4680BD00BF18D4FF1FE8
:1037500080B582B000AF0023FB7101204FF47A7175
:103760000A4A0223FFF714FE0346FB710120FFF70C
:10377000B7FB0346FB71FB79002B01D0012300E06E
:10378000002318460837BD4680BD00BF1D2A000033
:1037900008B5034B03481B680021984708BD00BFCC
:1037A00048D4FF1F00C0064008B5034B03481B6800
:1037B0000021984708BD00BF48D4FF1F00B0064055
:1037C00008B5034B03481B680021984708BD00BF9C
:1037D00048D4FF1F00A0064008B5034B03481B68F0
:1037E0000021984708BD00BF58D4FF1F00A0024029
:1037F000024B03485968FFF79BBC00BF4CD4FF1F26
:1038000000700640024B03481968FFF791BC00BFE7
:103810004CD4FF1F00600640014BD86B00F09ABDEE
:103820002CD3FF1FFFF7F8BF014B986B00F092BD40
:103830002CD3FF1FFFF7F8BF014B586B00F08ABD78
:103840002CD3FF1FFFF7F8BF014B186B00F082BDB0
:103850002CD3FF1FFFF7F8BF014BD86A00F07ABDE9
:103860002CD3FF1FFFF7F8BF014B986A00F072BD21
:103870002CD3FF1FFFF7F8BF014B586A00F06ABD59
:103880002CD3FF1FFFF7F8BF014B186A00F062BD91
:103890002CD3FF1FFFF7F8BF014BD86900F05ABDCA
:1038A0002CD3FF1FFFF7F8BF014B986900F052BD02
:1038B0002CD3FF1FFFF7F8BF014B586900F04ABD3A
:1038C0002CD3FF1FFFF7F8BF014B186900F042BD72
:1038D0002CD3FF1FFFF7F8BF014BD86800F03ABDAB
:1038E0002CD3FF1FFFF7F8BF014B986800F032BDE3
:1038F0002CD3FF1FFFF7F8BF014B586800F02ABD1B
:103900002CD3FF1FFFF7F8BF014B186800F022BD52
:103910002CD3FF1FFFF7F8BF08B50348034A044B39
:1039200040F25E61FFF784FC694F0000C44E000066
:103930008B4F000008B50348034A044B40F2566120
:10394000FFF776FC694F0000735000009B4F0000AA
:103950000129F0B500F29080484B1E680025B54261
:103960000BD02B01464C33F804C0844503EB04070D
:1039700001D00135F3E7013502D14FF0FF30F0BD42
:1039800001294FF0000601D0BE6071E00F28BD682C
:1039900057D004D8022805D00E2844D060E0323831
:1039A0000A285DD8D0B2032805D004280BD00238ED
:1039B0004242424108E0120AE018083245F004068B
:1039C000D2B2866000E00322012000FA02F2E01881
:1039D0008668324332F002068260427911D0002AB2
:1039E0003ED00279012A07D1264A106801301060C2
:1039F000254A106801381060E2180020507101203B
:103A00000FE0012A2CD00279012A07D11D4A106843
:103A1000013810601C4A106801301060E218012063
:103A2000507110731CE0022A04D0032A0CBF02203C
:103A3000002000E008460127E61887402F43B760C2
:103A400000E03046012A03D0022A08BF012000E02E
:103A50000020E218012606FA00F0966806439660F8
:103A6000E21802F10800926895421CBF012202711F
:103A700023440020D970F0BD0120F0BD84D3FF1F86
:103A800034C9FF1F2CC9FF1FE4D2FF1F4FF4D043DE
:103A900037B51B68254CB3F1BB3F01D1012304E0CE
:103AA000234A93420CBF002302232370214B1A7830
:103AB0005B78214B12F0200F04D19A8A4FF6FF72E7
:103AC0009A8213E01D4A1278012AF6D09B8A9BB293
:103AD000ADF80630BDF806309BB2042B06D90121A3
:103AE00003230E200A462370FFF732FFFFF79CFAEC
:103AF00068B9134DEB699A070BD12B6A9B0708D164
:103B0000FFF7ECFD6B69C01A18BF012002E000202E
:103B100000E0012030B104230E2001210222237095
:103B2000FFF716FF2078C0B203B030BD64C0FF1F9E
:103B3000BBBBDDDD00F0074000200540D4D2FF1FF5
:103B400018D4FF1F2DE9F843044628B98648874A50
:103B5000874B40F27321C3E029B98348834A854BE0
:103B60004FF41D71BCE0027C8368E66802F18000BE
:103B700003EB401536BBAE8BB6B21EB1AD8B2D0636
:103B800040F1ED800F2A03D977487B4AA6219EE0B9
:103B900003EB4010FFF7C8FCA368227C03EB421242
:103BA00002F58052918B89B241F008019183227C09
:103BB00003EB421303F580539A8B92B242F0020258
:103BC0009A8379E0EFF3108272B6E07C237D40B2F5
:103BD0005BB2984205DB82F3108841F2EC30BDE81D
:103BE000F883A37CE07C0130DBB2C0B2E0745FFA02
:103BF00083F9207D09F10107FFB2B84208BF002711
:103C0000A77482F310880BB994F814904FFA83F8D4
:103C1000E2684FEA481609F1FF3990195FFA89F90D
:103C200005D15148554A564B40F2051158E010F065
:103C30001F0304D04C48514A4FF483714FE0935115
:103C400008228380C3808360C36003618382C38250
:103C500083618283C383FFF767FCE1688B197FB2BE
:103C60009A8B4FFA89F992B242F0020201EB4717A0
:103C7000C8459A839F6107D1227CA5680F2A28D95D
:103C80003948404A652122E001EB4910828B22F03D
:103C900018021204120C42F010028283AA699342A5
:103CA00011D1AA8B22F018021204120C42F0100259
:103CB000AA83AA8BD20602D50020BDE8F883AA69A0
:103CC000BA42D9D1F8E7AA69002AD5D0F4E72E4B39
:103CD00006E013F01F0005D023482A4A67212B4B2A
:103CE000FFF7A6FA8F5905EB421101F580560A46F7
:103CF00037609F8841F20406BFB28F53DF8841F2DC
:103D00000606BFB28F5341F208059E68565101F571
:103D10008051DD68CD6041F210051E6956519D8AC3
:103D200002F58051ADB28D82DD8AADB2CD8241F215
:103D300018059E69565102F5805188839A8B92B27C
:103D40008A83DB8B9BB2CB8394F91530002BB3DADB
:103D5000227CA36802F00F02DA76BDE8F88341F214
:103D6000ED30BDE8F88300BF024F00004F50000067
:103D7000AB4F00004D4F0000984E0000F44E000085
:103D8000244F000063500000BA4F0000304F000085
:103D900010B59DF8084028B91548164A164B40F250
:103DA0002B210CE029B91248124A144B4FF40B7125
:103DB00005E032B90E480F4A114B40F22D21FFF7B2
:103DC00037FA80E806000122436194424FF0000375
:103DD00002610372437208D002D3022C02D010BDDC
:103DE000828100E08381428110BD8481438110BDC6
:103DF000024F0000AF4E00004D4F0000E44F0000A6
:103E0000F44F0000F7B505460C4631B97648774ABD
:103E1000774B40F2D451FFF70BFA00238DF80730AF
:103E20009DF807300133DBB28DF80730C67883790F
:103E30005F068379F6B248BF46F48046D80648BF8D
:103E400046F480560F1D710402D4F2042AD519E0FD
:103E5000AB7943F04003AB7102220023EB70EA70B0
:103E6000227862B123612370A36920229B0622710C
:103E700005D5E3691BB128463946226A9847700682
:103E8000E3D4AFE0AB7943F01003AB710023EB70E8
:103E90000223EB7010232371A369DA0607D473069B
:103EA00040F1A0800223F107EB7008D425E0E3691C
:103EB000002BF4D028463946226A9847EFE7AB78C2
:103EC00003F0E703AB702B79DBB28DF80730E368C2
:103ED000002B00F087802023237140F24E432361A2
:103EE00000232370A36998067CD5E369002B79D061
:103EF00028463946226A984774E0710627D501237F
:103F000016F004062370237105D0AA7842F010023F
:103F1000AA701E460FE0AB7803F0E703AB702B7975
:103F2000DBB28DF807309DF8073003F0FF0213B9BC
:103F30004023237116462279A3691A422DD0E369E2
:103F4000002B2AD028463946226A984725E03206B7
:103F500044D5730702D5A36813BB23E0A3680BB154
:103F6000E3684BB904232371E3691BB12846394642
:103F7000226A9847002363612A79E368D2B2002B52
:103F800030D0A368591CA1601A70E368013BE3605C
:103F9000636901336361E36824E0002EDBD121E033
:103FA000E3684BB902232371E3691BB12846394604
:103FB000226A984700236361E3685BB1A3685A1CD7
:103FC000A2601B782B71E368013BE36063690133F6
:103FD000636107E0AB7803F0E703AB702B79DBB2EA
:103FE0008DF8073003B0F0BDDE500000995000009E
:103FF000FF50000008B50348034A044BA921FFF70E
:1040000017F900BFB64800006751000009510000D1
:1040100008B5084B984205D003F58053984203D168
:10402000012008BD002008BD0348044A044BB52107
:10403000FFF7FEF800600640DE50000089500000E7
:1040400023510000724B2DE9F0411A5C0D7853B2F8
:1040500013F1800F0E4607D002F01F0101278F4099
:104060005C096C4941F82470B168002B4FEA0111DA
:1040700005DA02F00F02684BC9B2995406E003F169
:10408000604303F56143C9B283F80013634B53F8EF
:104090002040FFF769F9624A41F24403D358C3F361
:1040A000036808F10108B0FBF8F82046FFF7B0FFFD
:1040B0005C4B53F82020130C03F1804303F58E234F
:1040C0000120196892B200FA02F20A431A60854090
:1040D0000022FF232270EDB26270A270E3705023C1
:1040E0006271A371E2712570A37803F0FD0343F0C0
:1040F0008003A370637943F090036371174696467B
:104100004FF0FF3348490120904048431D460021AD
:10411000464B33F811304343B3FBF8F3B3F57A6FF2
:1041200034BFC3F57A63A3F57A63AB4203D29646F4
:104130000F4623B11D4601314029E9D12B46022A01
:1041400032D107F03F073A4D47EA8E1E5FFA8EFEE6
:1041500084F801E000212422284600F0C8F9204616
:10416000FFF756FF2422074600212846D6F8048090
:1041700000F0BDF900232B622E4B2F4A43F8275045
:104180002E4BC5F81C801A602D4BDB5D5AB212F124
:10419000800F0DD0012103F01F0301FA03F3520930
:1041A0001C4941F8223003E00132002BAAD1C8E7B4
:1041B0002B781F4F03F0FF011BBBA37803F0BF0355
:1041C000A370A37903F08F03A371381D142200F0AC
:1041D0008EF901233B706623BB61A37943F0500342
:1041E000A371A37943F05003A3711223E370A37862
:1041F00043F04003A370A37903F0AF0343F020031F
:10420000A371104B32781A700020BDE8F08100BF16
:104210005C45000000E100E014ED00E074470000A0
:10422000007004406C4700000065CD1D8847000009
:1042300064D4FF1F4CD4FF1F053E000060D4FF1F55
:10424000B45000005CD4FF1F1FB5084B8DF804006C
:1042500058701878064A0292022802D801A9FFF77E
:10426000F1FE002005B05DF804FB00BFF4C0FF1FA5
:10427000712A000008B50348034A044B4B21FEF79E
:10428000D7FF00BF455100007851000048500000A2
:1042900010B50AB9FFF7EEFF147801232CB9426973
:1042A0008B4022EA0303436110BD52788B400AB968
:1042B000836000E043604369012202FA01F119437F
:1042C000416110BD13B50123002406488DF8043068
:1042D0000D2101AA8DF80540FFF7DAFF204602B054
:1042E00010BD00BF00F00F4038B530B91648174A6E
:1042F000174B40F2FB21FEF79BFFC1688268037CED
:1043000019B903F00F03D37638BD803302EB4313A2
:10431000427D62F07F0242759A69A2B1EFF3108488
:1043200072B68268017CD56801208840284208D195
:10433000988B000602D59B8BDB0602D501F00F019E
:10434000D17684F3108838BD024F0000B6500000CB
:10435000AB4F000038B5014630B92248224A234B02
:1043600040F23531FEF764FF8368027CDA77C36878
:1043700004681BB914B14168012230E08A68087CE6
:1043800002EB401000F58052183241F218054059F6
:104390009288C01AC2F3C012400912B900B9087D50
:1043A00001384B7CC0B25BB2984206D1CB7C0D7D0C
:1043B0009D420AD1CB7C5BB208E04B7C5BB2C31A56
:1043C00004D50D7D43FA85F300E00023C0B24874A4
:1043D000C87CC01AC0B2C87414B108464968A04766
:1043E00038BD00BF024F000085510000AB4F0000F8
:1043F000184B1A6813B542F480621A601A68164C9A
:1044000042F480521A6002AA01238DF8053002F8A6
:10441000043D124BD96C21F4E06141F48071D96400
:1044200020461321FFF734FF4FF4002363600C4B49
:10443000D3F8882042F47002C3F88820094B4CF26C
:104440002052DA814DF62812DA814FF4E9721A808F
:1044500002B010BD3880044040F00F4000A004407E
:1044600000ED00E00020054008B5074B044613B1FD
:104470000021AFF30080054B1868836A03B19847A9
:10448000204600F059F800BF0000000098510000DD
:1044900070B50E4B0E4DED1AAD1000241E46AC4209
:1044A00004D056F8242090470134F8E700F076FE57
:1044B000084D094BED1AAD1000241E46AC4204D045
:1044C00056F8242090470134F8E770BDBC51000035
:1044D000BC510000C0510000BC51000010B50023C9
:1044E000934203D0CC5CC4540133F9E710BD0244BD
:1044F0000346934202D003F8011BFAE7704710B558
:104500000446224601341378002BFAD1CC5CD454F3
:104510000133002CFAD110BD034611F8012B03F82A
:10452000012B002AF9D17047034613F8012B002A0A
:10453000FBD1181A01387047FEE700BF6B422E4DC1
:10454000000000000000000000000000000000006B
:104550000000000000000000000000001819554194
:1045600052545F53656E6445444D41000000C1C024
:1045700081C1400101C3C003800241C201C6C0061F
:10458000800741C70005C1C581C4400401CCC00CEF
:10459000800D41CD000FC1CF81CE400E000AC1CAAF
:1045A00081CB400B01C9C009800841C801D8C0189F
:1045B000801941D9001BC1DB81DA401A001EC1DE1F
:1045C00081DF401F01DDC01D801C41DC0014C1D40F
:1045D00081D5401501D7C017801641D601D2C0122F
:1045E000801341D30011C1D181D0401001F0C030FF
:1045F000803141F10033C1F381F240320036C1F61F
:1046000081F7403701F5C035803441F4003CC1FCEE
:1046100081FD403D01FFC03F803E41FE01FAC03AAE
:10462000803B41FB0039C1F981F840380028C1E8DE
:1046300081E9402901EBC02B802A41EA01EEC02E1E
:10464000802F41EF002DC1ED81EC402C01E4C0240E
:10465000802541E50027C1E781E640260022C1E22E
:1046600081E3402301E1C021802041E001A0C0603E
:10467000806141A10063C1A381A240620066C1A61E
:1046800081A7406701A5C065806441A4006CC1ACEE
:1046900081AD406D01AFC06F806E41AE01AAC06AAE
:1046A000806B41AB0069C1A981A840680078C1B89E
:1046B00081B9407901BBC07B807A41BA01BEC07E1E
:1046C000807F41BF007DC1BD81BC407C01B4C0740E
:1046D000807541B50077C1B781B640760072C1B22E
:1046E00081B3407301B1C071807041B00050C1907E
:1046F000819140510193C053805241920196C0561E
:10470000805741970055C19581944054019CC05CED
:10471000805D419D005FC19F819E405E005AC19AAD
:10472000819B405B0199C059805841980188C048DD
:1047300080494189004BC18B818A404A004EC18E1D
:10474000818F404F018DC04D804C418C0044C1840D
:10475000818540450187C047804641860182C0422D
:10476000804341830041C181818040400600341074
:104770000700341000600640007006406B422E4D6A
:1047800020626F6F742000001400160018001A00D9
:104790001C001E00220028001C002000240028000D
:1047A0002C00300038004400300038004000480041
:1047B00050005800680080005000600070008000C9
:1047C0009000A000C000F000A000C000E0000001C8
:1047D000200140018001E00140018001C001000290
:1047E000400280020003C003800200038003000433
:1047F0008004000500068007000500060007000889
:104800000009000A000C000F554152545F496E69BF
:104810007400080010001800200030004000600004
:104820008000C000000180010002000300040006B7
:1048300010B5002905D004688C43934019402143EA
:104840000160BFF36F8FBFF34F8F10BD80210170E8
:1048500002780A42FCD070470A0034100B00341072
:104860000C0034106B422E58002D002E2E2F536F4B
:1048700075726365732F6E78702F447269766572F6
:10488000732F66736C5F756172745F65646D612E02
:10489000630068616E646C652D3E747845646D617B
:1048A00048616E646C6500786665722D3E64617463
:1048B0006153697A65002E2E2F536F75726365738D
:1048C0002F6E78702F447269766572732F66736CE1
:1048D0005F756172742E630046534C5F46454154C8
:1048E0005552455F554152545F4649464F5F5349C3
:1048F0005A456E286261736529203E3D20636F6EC4
:104900006669672D3E74784669666F576174657293
:104910006D61726B0000000000000000B71DC10453
:104920006E3B8209D926430DDC7604136B6BC517E9
:10493000B24D861A0550471EB8ED08260FF0C92261
:10494000D6D68A2F61CB4B2B649B0C35D386CD31C9
:104950000AA08E3CBDBD4F3870DB114CC7C6D04895
:104960001EE09345A9FD5241ACAD155F1BB0D45B71
:10497000C2969756758B5652C836196A7F2BD86ED9
:10498000A60D9B6311105A6714401D79A35DDC7D51
:104990007A7B9F70CD665E74E0B6239857ABE29C3D
:1049A0008E8DA191399060953CC0278B8BDDE68F71
:1049B00052FBA582E5E66486585B2BBEEF46EABA59
:1049C0003660A9B7817D68B3842D2FAD3330EEA951
:1049D000EA16ADA45D0B6CA0906D32D42770F3D0B5
:1049E000FE56B0DD494B71D94C1B36C7FB06F7C3E9
:1049F0002220B4CE953D75CA28803AF29F9DFBF6E1
:104A000046BBB8FBF1A679FFF4F63EE143EBFFE5C8
:104A10009ACDBCE82DD07DEC77708634C06D4730E0
:104A2000194B043DAE56C539AB0682271C1B4323E8
:104A3000C53D002E7220C12ACF9D8E1278804F1660
:104A4000A1A60C1B16BBCD1F13EB8A01A4F64B05C8
:104A50007DD00808CACDC90C07AB9778B0B6567C94
:104A600069901571DE8DD475DBDD936B6CC0526F70
:104A7000B5E6116202FBD066BF469F5E085B5E5AD8
:104A8000D17D1D576660DC5363309B4DD42D5A4950
:104A90000D0B1944BA16D84097C6A5AC20DB64A804
:104AA000F9FD27A54EE0E6A14BB0A1BFFCAD60BB70
:104AB000258B23B69296E2B22F2BAD8A98366C8E58
:104AC00041102F83F60DEE87F35DA9994440689D50
:104AD0009D662B902A7BEA94E71DB4E0500075E4B4
:104AE000892636E93E3BF7ED3B6BB0F38C7671F7E8
:104AF000555032FAE24DF3FE5FF0BCC6E8ED7DC2E0
:104B000031CB3ECF86D6FFCB8386B8D5349B79D1C7
:104B1000EDBD3ADC5AA0FBD8EEE00C6959FDCD6D35
:104B200080DB8E6037C64F643296087A858BC97EEB
:104B30005CAD8A73EBB04B77560D044FE110C54B5B
:104B4000383686468F2B47428A7B005C3D66C158CB
:104B5000E4408255535D43519E3B1D252926DC21AF
:104B6000F0009F2C471D5E28424D1936F550D83273
:104B70002C769B3F9B6B5A3B26D6150391CBD407D3
:104B800048ED970AFFF0560EFAA011104DBDD01453
:104B9000949B93192386521D0E562FF1B94BEEF5B7
:104BA000606DADF8D7706CFCD2202BE2653DEAE673
:104BB000BC1BA9EB0B0668EFB6BB27D701A6E6D353
:104BC000D880A5DE6F9D64DA6ACD23C4DDD0E2C053
:104BD00004F6A1CDB3EB60C97E8D3EBDC990FFB98F
:104BE00010B6BCB4A7AB7DB0A2FB3AAE15E6FBAAEB
:104BF000CCC0B8A77BDD79A3C660369B717DF79FDB
:104C0000A85BB4921F4675961A163288AD0BF38CCA
:104C1000742DB081C330718599908A5D2E8D4B596A
:104C2000F7AB085440B6C95045E68E4EF2FB4F4AEA
:104C30002BDD0C479CC0CD43217D827B9660437F5A
:104C40004F460072F85BC176FD0B86684A16476CCA
:104C500093300461242DC565E94B9B115E565A15AE
:104C600087701918306DD81C353D9F0282205E0672
:104C70005B061D0BEC1BDC0F51A69337E6BB5233D2
:104C80003F9D113E8880D03A8DD097243ACD562052
:104C9000E3EB152D54F6D4297926A9C5CE3B68C17E
:104CA000171D2BCCA000EAC8A550ADD6124D6CD272
:104CB000CB6B2FDF7C76EEDBC1CBA1E376D660E752
:104CC000AFF023EA18EDE2EE1DBDA5F0AAA064F452
:104CD000738627F9C49BE6FD09FDB889BEE0798D8E
:104CE00067C63A80D0DBFB84D58BBC9A62967D9EEA
:104CF000BBB03E930CADFF97B110B0AF060D71ABDA
:104D0000DF2B32A66836F3A26D66B4BCDA7B75B8C9
:104D1000035D36B5B440F7B1434C4F434B5F476535
:104D200074506C6C30467265710000070E091C1BD4
:104D30001215383F363124232A2D70777E796C6B1B
:104D40006265484F464154535A5DE0E7EEE9FCFB8B
:104D5000F2F5D8DFD6D1C4C3CACD90979E998C8B7B
:104D60008285A8AFA6A1B4B3BABDC7C0C9CEDBDCEB
:104D7000D5D2FFF8F1F6E3E4EDEAB7B0B9BEABACDB
:104D8000A5A28F88818693949D9A2720292E3B3C4B
:104D900035321F18111603040D0A5750595E4B4C3B
:104DA00045426F68616673747D7A898E87809592BB
:104DB0009B9CB1B6BFB8ADAAA3A4F9FEF7F0E5E29B
:104DC000EBECC1C6CFC8DDDAD3D4696E676075720B
:104DD0007B7C51565F584D4A4344191E17100502FB
:104DE0000B0C21262F283D3A33344E49404752556B
:104DF0005C5B7671787F6A6D64633E39303722255B
:104E00002C2B0601080F1A1D1413AEA9A0A7B2B5CA
:104E1000BCBB9691989F8A8D8483DED9D0D7C2C5BA
:104E2000CCCBE6E1E8EFFAFDF4F38002DC0200050A
:104E3000B80580079508000A710B2E2E2F536F7549
:104E4000726365732F6E78702F4472697665727322
:104E50002F66736C5F636C6F636B2E6300675F78A4
:104E600074616C304672657100675F7874616C3391
:104E70003246726571006D6367706C6C30636C6B89
:104E800000434C4F434B5F4765744D6367457874EF
:104E9000436C6B467265710045444D415F536574C8
:104EA0005472616E73666572436F6E666967004522
:104EB000444D415F507265706172655472616E73EA
:104EC00066657200535049315F4472697665724974
:104ED000525148616E646C65720045444D415F54A7
:104EE00063645365745472616E73666572436F6E6A
:104EF0006669670045444D415F546364526573655C
:104F000074002E2E2F536F75726365732F6E787039
:104F10002F447269766572732F66736C5F65646D7A
:104F2000612E630074636420213D204E554C4C007B
:104F3000282875696E7433325F742974636420267F
:104F400020307831465529203D3D203000636F6E7A
:104F500066696720213D204E554C4C00706172619E
:104F60006D0068616E646C65002E2E2F536F757234
:104F70006365732F6E78702F447269766572732F34
:104F800066736C5F647370692E6300675F6473702F
:104F90006948616E646C655B315D00675F64737066
:104FA0006948616E646C655B305D0068616E646C5D
:104FB0006520213D204E554C4C006368616E6E6546
:104FC0006C203C2046534C5F464541545552455F4A
:104FD00045444D415F4D4F44554C455F4348414E1C
:104FE0004E454C007372634164647220213D204E33
:104FF000554C4C00646573744164647220213D20FB
:105000004E554C4C00433A5C4275696C644167658F
:105010006E745C776F726B5C383562313536323264
:1050200033383764636430635C536F7572636573E0
:105030005C6E78705C447269766572732F66736C0F
:105040005F706F72742E6800636F6E6669670045EB
:10505000444D415F5375626D69745472616E73663D
:1050600065720045444D415F496E7374616C6C54C8
:10507000434400535049305F447269766572495227
:105080005148616E646C6572004932435F476574D4
:10509000496E7374616E6365004932435F536C619E
:1050A00076655472616E7366657248616E646C6594
:1050B00049525100181945444D415F53746172744F
:1050C0005472616E736665720068616E646C652D02
:1050D0003E727845646D6148616E646C65002E2E89
:1050E0002F536F75726365732F6E78702F447269DA
:1050F000766572732F66736C5F6932632E63006925
:10510000326348616E646C6500696E7374616E63CE
:1051100065203C20756172744172726179436F75CC
:105120006E7400696E7374616E6365203C20415239
:105130005241595F53495A4528735F69326342614E
:1051400073657329002E2E2F536F75726365732F4D
:105150006E78702F447269766572732F66736C5F18
:105160006770696F2E6300554152545F47657449FB
:105170006E7374616E6365004750494F5F50696E8E
:10518000496E69740045444D415F48616E646C65C9
:10519000495251004300000070C0FF1FF8B500BF26
:1051A000F8BC08BC9E467047F8B500BFF8BC08BC08
:0451B0009E46704760
:0851B400B0B2FF7F0100000012
:0451BC0035040000B6
:0451C00011040000D6
:1051C40076332E302E302E30000000000000000018
:1051D400000000006B422E4D0000000000000000A3
:1051E40000000000000000000000000000000000BB
:1051F40000000000000040010100000000A0064083
:105204001F00000000B006402100000000C006405E
:105214002300000000000000000000000000000067
:1052240000000000010000006129000001000000EE
:10523400000000000000000000000000000000006A
:10524400000000000000000000000000000000005A
:105254009451000000000000000000000000000065
:10526400000000000000000000000000000000003A
:10527400000000000000000000000000000000002A
:10528400000000000000000000000000000000001A
:045294000000000016
:0400000300000A856A
:00000001FF
