:020000041000EA
:1000000000E001202502001071020010756C001044
:100010007502001077020010790200100000000045
:100020000000000000000000000000007B02001043
:100030007D020010000000007F020010810200100D
:100040006961001071610010796100108161001018
:10005000896100109161001099610010A161001088
:10006000A9610010B1610010B9610010C1610010F8
:10007000C9610010D1610010D9610010E161001068
:10008000E9610010F1610010F961001001620010D7
:100090000962001011620010196200102162001044
:1000A0002962001031620010E9290010AD2A001009
:1000B0003962001041620010496200104D2C00109E
:1000C00051620010852C001059620010BD2C0010E8
:1000D00061620010696200107162001079620010A4
:1000E0008162001089620010152000103920001074
:1000F000F52C0010916200102D2D00109962001057
:100100009D250010B9250010D5250010F1250010FF
:10011000A16200105D200010A9620010B162001001
:10012000B9620010C1620010B5240010C96200104D
:10013000D1620010D9620010E1620010E962001083
:10014000F1620010712B0010F962001001630010C1
:100150000963001011630010196300108120001062
:10016000216300102963001031630010396300100F
:100170004163001045630010496300104D63001097
:1001800051630010556300105D630010656300103B
:100190006D630010756300107D63001085630010AF
:1001A0008D630010956300109D630010A56300101F
:1001B000AD630010B5630010BD630010C56300108F
:1001C000C9630010CD630010D1630010D563001027
:1001D000D9630010E1630010E9630010F1630010BF
:1001E000F96300100164001009640010116400102C
:1001F000196400102164001029640010316400109B
:10020000396400104164001049640010516400100A
:10021000596400105D640010616400106564001092
:100220006964001010B572B604F042FD0D4B07E092
:1002300003F10C049A685968186800F023F8234603
:10024000094A9342F4D306E01C46596854F8080B57
:1002500000F027F82346054A9342F5D362B606F02C
:1002600040FFFEE7000800103008001050080010A2
:10027000FEE7FEE7FEE7FEE7FEE7FEE7FEE7FEE756
:10028000FEE7FEE7002393420AD210B450F8044B75
:1002900041F8044B04339342F8D35DF8044B7047A4
:1002A000704700238B4204D2002240F8042B043311
:1002B000F8E77047FFFFFFFFFFFFFFFFFFFFFFFFB4
:1002C000FFFFFFFFFFFFFFFFFFFFFFFFFFFFFFFF3E
:1002D000FFFFFFFFFFFFFFFFFFFFFFFFFFFFFFFF2E
:1002E000FFFFFFFFFFFFFFFFFFFFFFFFFFFFFFFF1E
:1002F000FFFFFFFFFFFFFFFFFFFFFFFFFFFFFFFF0E
:10030000FFFFFFFFFFFFFFFFFFFFFFFFFFFFFFFFFD
:10031000FFFFFFFFFFFFFFFFFFFFFFFFFFFFFFFFED
:10032000FFFFFFFFFFFFFFFFFFFFFFFFFFFFFFFFDD
:10033000FFFFFFFFFFFFFFFFFFFFFFFFFFFFFFFFCD
:10034000FFFFFFFFFFFFFFFFFFFFFFFFFFFFFFFFBD
:10035000FFFFFFFFFFFFFFFFFFFFFFFFFFFFFFFFAD
:10036000FFFFFFFFFFFFFFFFFFFFFFFFFFFFFFFF9D
:10037000FFFFFFFFFFFFFFFFFFFFFFFFFFFFFFFF8D
:10038000FFFFFFFFFFFFFFFFFFFFFFFFFFFFFFFF7D
:10039000FFFFFFFFFFFFFFFFFFFFFFFFFFFFFFFF6D
:1003A000FFFFFFFFFFFFFFFFFFFFFFFFFFFFFFFF5D
:1003B000FFFFFFFFFFFFFFFFFFFFFFFFFFFFFFFF4D
:1003C000FFFFFFFFFFFFFFFFFFFFFFFFFFFFFFFF3D
:1003D000FFFFFFFFFFFFFFFFFFFFFFFFFFFFFFFF2D
:1003E000FFFFFFFFFFFFFFFFFFFFFFFFFFFFFFFF1D
:1003F000FFFFFFFFFFFFFFFFFFFFFFFFFFFFFFFF0D
:10040000FFFFFFFFFFFFFFFFFFFFFFFFFEFFFFFFFD
:1008000040820010000000202802000040820010FA
:100810000000002F000000004082001000000000D7
:1008200000000000408200100000001800000000DE
:1008300028020020A04800000000002F0000000057
:100840000000000000000000000000180000000090
:1008500005282DE9F04104460D46904630D80A6837
:10086000B2F5964F29D800231CA1D1E9000106F06A
:100870007DFE461C4FF000034FF6FF7241F100076A
:10088000BB4208BFB24200D216460F4A09230F48A6
:10089000314652F82420005D06F06EF90C4B2946D3
:1008A00053F82430AB600B4B185D02F00DFC0A4B83
:1008B000002043F82480BDE8F08141F28836E4E767
:1008C0000120F8E7AFF3008010000020A2790010AB
:1008D00024000020A279001078020020A0764B02AC
:1008E00000000000000000000528F8B504460D4691
:1008F0002BD8194B53F820308B60184B185C02F042
:1009000033FC2A68B2F5964F1CD8002310A1D1E918
:10091000000106F02BFE461C4FF000034FF6FF725D
:1009200041F10007BB4208BFB24200D216460C4A52
:1009300009230C48314652F82420005D06F01CF9CA
:100940000020F8BD41F28836F1E70120F9E700BF49
:10095000A0764B020000000024000020A2790010C5
:1009600010000020A279001008B51F220B4606498E
:100970000A70487002208B700323044A02F046F983
:10098000002818BF052008BDA5480020A14600206A
:1009900084230E4A10B50E4C23700B01214643EA06
:1009A0001020002360700220A37040F2032302F0A5
:1009B0002DF948B9074B01221870074B1A70074AE6
:1009C00013780133137010BD0520FCE7A146002009
:1009D000A5480020A0460020A94A0020AA4A0020DD
:1009E00038B509490F23094D04460B70C0232A4628
:1009F00002204B70032302F009F910B9A8782040B7
:100A000038BDFF20FCE700BFA5480020A14600201C
:100A100013491023134A10B50B7020FA03F3C87062
:100A20004B70030A02208B70042302F0EFF8A0B988
:100A30000120FFF7D5FF04460028F9D10820FFF771
:100A4000CFFF28B12146C020FFF78EFF032010BD45
:100A5000054B1870054B1870F9E70520F7E700BF44
:100A6000A5480020A1460020AA4A0020A94A00204B
:100A7000114B1B7810B504461BB9104B187860B9A0
:100A800010BD0F4B1868C0F3404100F4C060FFF781
:100A90007FFF0028F1D00520F2E7094BE40A1B682C
:100AA000B4EBD32F4FEAD32003D0BDE81040FFF7BB
:100AB000AFBF0020E4E700BFA0460020A94A002005
:100AC0000C00002008B50B4913230B4A0B70030CD4
:100AD000C8704B70030A02208B70042302F096F852
:100AE00028B90120FFF77CFF0028FAD108BD0520B6
:100AF000FCE700BFA5480020A14600202DE9F74FE4
:100B000000EB020881460191B8F1005F58D83049E6
:100B1000022001F0ADFE4FF0FF30FFF7A9FF0446C1
:100B200020B94D46DFF8B4A0A84503D8204603B04D
:100B3000BDE8F08FAAB24FF401706E0CA8EB02036F
:100B4000C2F30A0B9BB2591E91FBF0F300FB131387
:100B5000C5F30A01E80A01339FB211FA83F3B3F532
:100B6000006F84BFCBF50067BFB2FFF7ABFF48BB98
:100B70002020FFF735FF38BB36014FF0FF33154A11
:100B8000032106F010068AF8033013603B1D46EA85
:100B90001B268AF800109BB20F4A104902208AF8DF
:100BA00001608AF802B002F031F878B9A5EB0900CB
:100BB000019B3A460A4918443D4406F099FAB3E7C6
:100BC0000124B3E70446B1E70224AFE70524ADE70B
:100BD000000000200C000020A1460020A5480020B5
:100BE000A546002070B504460D4600260A49254456
:100BF000022001F03DFEA54201D8304670BDE00A5A
:100C0000FFF760FF18B92020FFF7EAFE00B10226C7
:100C100004F50064EFE700BF000000200449D1E9BB
:100C2000002330B5541C43F10005C1E9004530BD37
:100C30002802002008B5074A09234FF47A710120E1
:100C400005F09AFF012005F0ACFF003818BF012025
:100C500008BD00BF1D0C0010014BD3E90001704717
:100C60002802002030B518240F4A89B004FB00F395
:100C7000D118D3580D7A08468DF8045010301D69EC
:100C800002959D6803951D7D8DF818501B7B05907E
:100C900001208DF81930054B04934B6801A9079387
:100CA00001F050FB09B030BD48020020B10C00102B
:100CB0002DE9F347077918258046254E38467D43B0
:100CC00001F0B8FB8246384606EB050901F0BCFB93
:100CD0007459BAF1040F60601ED1D4F804A0BAF1BF
:100CE000010F1CD1A3681B78DBB22370D9F80C303C
:100CF000D8F80000984773591A691B781370725915
:100D00001469557D13782046CDF800A0294699F83E
:100D1000082005F0B2FB605502B0BDE8F0876368BB
:100D2000012BF9D0616899F808202378C9B2A0682E
:100D300005F0CFFB013006D10021384602B0BDE8F6
:100D4000F04701F06DBB735901229A75E4E700BFCB
:100D50004802002013B50446684605F0F4FE064A32
:100D600018236946204603FB04235B68019305F0C2
:100D7000C4FE02B010BD00BF4802002008B5182212
:100D8000064B02FB0033597219B9FFF76BFF0020C5
:100D900008BD0129FBD1FFF7DDFFF8E7480200207D
:100DA00038B5182204780B4D6243AB18A95002796C
:100DB0005A6081785972C2789A7242781A7282683F
:100DC0001C75DA60C26820461A61FFF7D7FF002061
:100DD00038BD00BF4802002008B51822034B02FBB3
:100DE00000331972FFF73EFF002008BD48020020C3
:100DF00038B5044620B90120BDE8384002F0C6B835
:100E00004FF6E953984201D10020F5E7094DFFF76D
:100E100023FFD5E900238B4208BF824208D2FFF7A7
:100E20001BFF001941F10001C5E900010220E3E7C1
:100E300038BD00BF30020020014B1878704700BF5A
:100E4000AB4A002007B501900138F62807D80122E7
:100E500001A9044801F016F803B05DF804FB6FF037
:100E60000200F9E744C00F1008B5054805F069FE17
:100E7000431EF62B03D9F020FFF7E4FFF02008BD56
:100E800044C00F1008B5034805F05BFE012888BF79
:100E9000002008BD50C00F1008B5044805F051FEF1
:100EA000431EF72B28BFF02008BD00BF48C00F101D
:100EB00010B504460E4805F044FEC0F30721C3B246
:100EC000C0F3074201294FEA1060A370E17062701D
:100ED000207005D8022A03D80B2801D8022B05D987
:100EE0000023A370E37063700B232370002010BDF8
:100EF0004CC00F1008B5002002F078F90A4B1A69AF
:100F000053787BB9B2F80831FE2B9EBFD11801335C
:100F100008724FF0000098BFA2F80831BDE8084001
:100F200005F069BE08BD00BF7802002008B50320A7
:100F300002F05CF90A4BDA6853787BB9B2F80831F1
:100F4000FE2B9EBFD118013308724FF0030098BFEB
:100F5000A2F80831BDE8084005F04DBE08BD00BF4D
:100F60007802002008B5022002F040F90A4B9A6886
:100F700053787BB9B2F80831FE2B9EBFD1180133EC
:100F800008724FF0020098BFA2F80831BDE808408F
:100F900005F031BE08BD00BF7802002008B5012071
:100FA00002F024F90A4B5A6853787BB9B2F8083139
:100FB000FE2B9EBFD118013308724FF0010098BF7D
:100FC000A2F80831BDE8084005F015BE08BD00BF15
:100FD0007802002008B5002002F008F90A4B1A68D0
:100FE00053787BB9B2F80831FE2B9EBFD11801337C
:100FF00008724FF0000098BFA2F80831BDE8084021
:1010000005F0F9BD08BD00BF78020020014B53F880
:1010100020007047780200204B1EFF2B0ED8084B93
:10102000002253F82030A3F8082102225A70CAB2D5
:1010300003F10801034B185C05F01ABE704700BFAE
:1010400078020020A2790010054B53F8203093F865
:101050000C0118B10022012083F80C21704700BF59
:1010600078020020034B002253F82030A3F8082117
:101070005A70704778020020002008B505F0A6FDE0
:101080000B490A69507888B992F80E31012B08D1C2
:10109000107A1378984204D018B113B10420FFF7E6
:1010A000E1FF0B69012283F80C215A7008BD00BFD3
:1010B00078020020032008B505F088FD0B49CA68B6
:1010C000507888B992F80E31012B08D1107A137834
:1010D000984204D018B113B10320FFF7C3FFCB68C7
:1010E000012283F80C215A7008BD00BF780200204D
:1010F000022008B505F06AFD0B498A68507888B966
:1011000092F80E31012B08D1107A1378984204D04E
:1011100018B113B10220FFF7A5FF8B68012283F8F5
:101120000C215A7008BD00BF78020020012010B5C4
:1011300005F04CFD0A494A68507880B992F80E01D2
:10114000012807D1147A13789C4203D014B10BB153
:10115000FFF788FF4B68012283F80C215A7010BDFD
:101160007802002008B5002005F030FD0C4B1B680C
:10117000587898B993F80E111A7A012908D119787C
:10118000914205D022B119B1BDE80840FFF76ABF0E
:1011900083F81421012283F80C215A7008BD00BF86
:1011A000780200204B1EFF2B10B5044610D8094BC7
:1011B000022253F820305A70CAB203F10801064BDC
:1011C000185C01F0DFFF2046BDE81040FFF74ABF82
:1011D00010BD00BF78020020A2790010174B70B537
:1011E000054653F8200016460C4690F814212AB9FB
:1011F00090F80E21012A1CD1002070BDD9B990F8B9
:101200000E21012AF8D1427A032462F07F02427251
:1012100002228272A1B2083005F046FA012E04F1D2
:101220000201284602D1FFF7F7FEE5E7FFF7BAFF14
:10123000E2E70029E0D0002CECDCDDE778020020BA
:101240000E4B53F8203003F10800B3F8081193F85F
:101250000831032B10B50CD94318023913F8012CAF
:1012600089B213F8024C44EA022405F020FAA042A5
:1012700001D0022010BD0020FCE700BF7802002052
:101280002DE9F043054691B000F1080805F0CFF9CB
:101290000390284605F0CDF90746284605F0CFF91A
:1012A000039A0646032A40D141F2FC739F4218D1AB
:1012B000012800F28D8000903B46297A404605F0D7
:1012C000C4F90023C5B2AC1C08F805300135FFF79E
:1012D000B3FDE4B2EDB208F80500204611B0BDE858
:1012E000F08341F64C039F4231D1022870D13B4636
:1012F00000904046297A05F0A8F9C5B205F036F904
:101300006C1C08F8050005F037F9E4B208F8040091
:10131000AC1C05F02DF9E4B208F80400281D0335D3
:10132000C4B2EDB205F026F9D5E7102A0FD141F28B
:10133000FC739F420DD101284AD81E2000F0A6FC64
:1013400001220220114600F021FC00F0A9FC00243B
:10135000C3E741F638039F423CD1052838D80090B6
:101360003B46297A404605F070F9C4B2E87B012873
:1013700002D105F07BFC01E00028FAD02B7C012B88
:1013800002D1002001F0E0FD687C012802D1782123
:10139000FFF722FDAB7C012B05D15E4BF0201B68D3
:1013A0001870FFF74FFD1E2000F070FC0022012195
:1013B0000D2000F0EBFB00220220114600F0E6FBBE
:1013C00000F06EFC41F69C039F4286D1112E68D935
:1013D000002083E741F642039F4211D10128F7D84C
:1013E00000903B46297A404605F02FF9C4B2287C8C
:1013F000012802D101F0A8FDE4E70028E2D1F9E7D5
:1014000041F643039F4211D10128E1D800903B46A9
:10141000297A404605F019F9C4B2287C012802D186
:1014200005F024FCCEE70028CCD1F9E741F64403CF
:101430009F4205D041F645039F4214D00024C1E7E6
:101440000128C5D800903B46297A404605F0FDF8B2
:1014500095F91030C4B2297C002B7FF73EAF0120F4
:10146000FFF7BAFC39E70128B2D8287C431EDBB26B
:10147000F62B0ED8274B1B681870FFF7E3FC00967D
:1014800041F645031022297A404605F0DEF8C4B241
:1014900023E76B7A03212A7A404605F00EF90446C9
:1014A0001BE72B460DF1100905F1200113F8107F01
:1014B0004A4613F8010F8B4202F8010BF9D141F6AD
:1014C0009C03102200964046297A05F0BEF80021C0
:1014D0001C22C4B209A8089105F00CFE08A800F06F
:1014E00099F8102F0BD108AB13F8011B19F8012B39
:1014F000914204D1013F17F0FF07F5D1EDE61E2020
:1015000000F0C4FB02220121104600F03FFB00F076
:10151000C7FBE2E67802002030B5044685B02148DA
:1015200005F00FFB431C14D14E2323704F2363702F
:101530005423A3705623E370412323714C2363711A
:101540004923A3714423E37100232372002005B0D3
:1015500030BD40B93023237004F1090304F8010FB2
:10156000A342FBD1F2E7092301A90A25B0FBF5F25A
:1015700005FB12005854013B1046F7D200221346D7
:1015800011F8010B08B10BB9D3B213B1D51A303031
:10159000605501320A2AF3D1C3F10A030022E25452
:1015A000D4E700BF00E00F10431E00F11F0200212E
:1015B00003F8011F9342FBD10C49002311F8012BC2
:1015C0005AB9DBB203440A491A1A202A03DC11F87B
:1015D000012B42B91A7000207047C2540133202BEE
:1015E000ECD10023EEE703F8012BEDE70D0200201C
:1015F000A7790010064A00F1200112F8013B13B947
:1016000003700020704700F8013B8842F5D1F8E7ED
:10161000ED010020431E054A0F3052F8041B03F869
:10162000011F8342F9D10020704700BFDC44002035
:1016300010B50446064805F084FA2070054805F008
:1016400080FA6070044805F07CFAA070002010BD9C
:1016500050E00F1054E00F1058E00F100B4A08B57F
:10166000138801339BB2B3F5967F13800CD8084BD7
:101670004FF40062074918880138400300F002FC6B
:10168000003818BF012008BD0120FCE79E4600205D
:101690009C4600208C020020074B012207491A704B
:1016A00000231A46CA540133B3F5005FFAD1044B44
:1016B0001A80044B1A807047AC4A00208C0200202C
:1016C0009E4600209C4600202DE9F04F8F4F8FB0A2
:1016D00004463B78002B73D005F0D2F98146E17ABD
:1016E0004FF0000BA07A05F0AFF909EB0006617B23
:1016F0008246F6B2207B05F0A7F9E17B06448046DE
:10170000A07BF6B205F0A0F905460644F6B2CB453B
:1017100015DB09F1080304EB430214F813005178B8
:1017200005F092F94042C0B2864240F0CF80052DCC
:1017300000F2CC80DFE805F00CC6CDBEDCBE594619
:10174000204605F0A1F930440BF1010BC6B2DEE7EB
:101750006F4B08EB0A286F4E18686F4B10FA88F829
:101760001A689A46AAB3012200210F2000F00EFA4F
:1017700000F05EF9404530D1684B1A22002118680C
:101780009B8806900DF11E00ADF81C3005F0B2FCF0
:1017900006A805F03BFE02A95FFA80FB04F11000E9
:1017A0005A4605F07AF95A4606A902A805F0BBFD8B
:1017B00050B100230122336001210F2000F0E6F92F
:1017C00001200FB0BDE8F08F012333600023CAF879
:1017D000003033681BB90222EEE70023F5E700F082
:1017E00027F94045F7D8C14400F026F98145F2D8E1
:1017F0004FEA58394A4E09F1010933881FFA89F92D
:1018000003BBA6F80090B6F800A0204605F038F912
:101810000AF1FF3AA8EB4A381FFA88F84044B0F5BD
:10182000005F49DA00253F4E204605F029F9A8421D
:1018300040DD08EB050729462046013505F024F96F
:10184000F055F1E74B45DED0FFF708FF00283DD10A
:10185000344B0246A6F800901A540130B0F5005FF0
:10186000FAD1D0E708EB0903B3F5005F0FDBFFF710
:10187000F5FE054650BB33880133338003460AF832
:1018800003B00133B3F5005FF9D14FF0000808EB66
:1018900005030135494620460193EDB205F0F4F801
:1018A00009F10109019B0AF80300204605F0E8F858
:1018B0004845D7DC002084E74FF00009DFF864A03A
:1018C000CB46F2E7FFF7CAFE0028F3D000233B70B7
:1018D00076E70021204605F0D7F80546012120468D
:1018E00005F0D2F800EB05200001094B1860E1E794
:1018F0000021204605F0C8F805460121204605F0E4
:10190000C3F800EB05200004EFE700BFAC4A00205D
:101910008C2200209022002038000020B079001096
:101920009C4600208C020020024B53F8200004F05B
:1019300025BE00BF94220020024B53F8200004F083
:1019400057BE00BF94220020084B014410B5142458
:1019500004FB0232137B814201D1184610BD10F8FE
:10196000014B63409468E35CF5E700BF3C00002056
:1019700080B582B000AF094BDB691846074B1A6A85
:10198000064BDB69D31A0322194605F0CAF8034651
:101990007B607B6818460837BD4680BDA0220020CA
:1019A00010B500F085F970B9094CE3699A070CD1BC
:1019B000236A9B0709D1FFF7DBFF6369C01A18BFD1
:1019C0004FF0FF3010BD0020FCE74FF0FF30F9E78B
:1019D000A0220020054C08B505F0BBF86368044A56
:1019E0001360226882F30888984700BF00A800109F
:1019F0009C220020014B187840B27047E80100207B
:101A00000020014B18707047E801002070B5064DAA
:101A10000024064E3019043405F093F845F8040B01
:101A2000B4F5807FF6D170BDA022002000A0001088
:101A30000048704700A000100048704700800F1059
:101A400013B51C4805F07DF8B0F1BB3F1A4C19D115
:101A50000123237001F02AFA012803D0174B1B78C9
:101A6000012B16D101F02EFAFFF79AFF30B10423B3
:101A7000022201210E20237000F088F8207840B265
:101A800002B010BD0E4B98420CBF002302232370FE
:101A9000E0E701F005FAADF80600BDF806309BB2AC
:101AA000042BE1D9012203230E201146237000F0FC
:101AB0006DF8D9E73CC00F10E8010020AD4A0020C6
:101AC000BBBBDDDD0A4B07B5012201A90948019323
:101AD00000F0D8F900220E20114600F057F8064B0E
:101AE00001221A70FFF7ACFF03B05DF804FB00BFE2
:101AF000BBBBDDDD3CC00F10AD4A0020012910B595
:101B000023D8144B040103EB001042798A421ED003
:101B1000027981B9012A07D10F48026801320260B7
:101B20000E480268013A0260234401226FF002006D
:101B300059711A7310BD012AF6D107480268013A9B
:101B40000260064802680132EDE70120F2E76FF01B
:101B50000300EFE7B0230020A0230020A4230020EF
:101B6000084A034608490020126810B5904202D185
:101B70004FF0FF3010BD0401645A9C42FAD001308E
:101B8000F4E700BFAC230020B023002001292DE999
:101B9000F84381460F46144673D8FFF7E1FF451C12
:101BA0000AD0394D0601012F05EB060306D00022AD
:101BB0009A6035440020EF70BDE8F883B9F10F0F4B
:101BC000D3F8088044D00CD8B9F1020F11D0B9F184
:101BD0000E0F2ED0AB199A6842451CBF01221A7312
:101BE000E7E7B9F1130F3CD0A9F13209B9F10A0FB7
:101BF000F0D8E3B2032B12D0042B18D0991E4C421C
:101C00004C41AA190121936801FA04F41C4334F0F1
:101C10000203946018BF0021FFF770FFDAE7240A7F
:101C2000AB1948F0040208349A60E4B2E9E70324EF
:101C3000E7E7022C0AD0032C14BF00220222012362
:101C4000A919934043EA08038B60C3E73A46F6E7D5
:101C5000A21E5442544107FA04F444EA08049C606A
:101C6000B8E7A31EAA19022B4FF0010396BF04F197
:101C7000FF340024E4B203FA04F444EA0804946054
:101C8000A8E7012098E700BFB023002008B5034B68
:101C90000146186804F072FC08BD00BFA8230020AC
:101CA00008B5024B186804F0A3FC08BDA823002067
:101CB000014B1868704700BF00240020022A7FB53E
:101CC00006460D4614462DD0032A23D0012A0AD0F9
:101CD0004FF6FF7348F20500CDE9000340F201130F
:101CE0000293002305E0002341F221010293CDE994
:101CF000001369460F488DF80C3001F0F5FD0D48D2
:101D00002A46314604F0D1FF032C0A480FD004F0D4
:101D1000EDFF0AE04FF0FF33074ACDE900234FF013
:101D20000133DDE789B2FFF70FFE04B070BD04F0A8
:101D3000DBFFFAE700200340B71DC10480B485B083
:101D400000AF7860124B1B68124AA2FB03239B0C66
:101D50000133FB60FB687A6802FB03F3FB60FB68FE
:101D60000D4AA2FB03239B08FB600023BB6003E03A
:101D700000BFBB680133BB60BB68FA689A42F7D802
:101D800000BF00BF1437BD465DF8047B704700BF3D
:101D9000E401002083DE1B43CDCCCCCC014804F011
:101DA0006DB900BFD07A001038B5642200212848F0
:101DB00005F0A0F908220021264805F09BF92448E7
:101DC00002F074F918B1FFF7E9FF012038BD21488E
:101DD00001F0DEFF08B1FFF7E1FF1F4A04211C48B4
:101DE00005F07AF81D4D1E4A0121194805F074F8D6
:101DF0001C4A0021164805F06FF82946144805F0E2
:101E000069F8044618B1FFF7C9FF0220DEE72B6826
:101E1000154A934218D002F5EF1202F50072934270
:101E200014D0124A934202D1114804F027F9114804
:101E300004F024F9104B0022013443F8042BB4F5CC
:101E4000006FF9D10020C1E70C48EEE70C48ECE741
:101E50000444002074440020684400208C000020CA
:101E6000704400206C440020A55AA55A3CC33CC3D2
:101E7000EE7A0010547B001004240020037B001035
:101E80002B7B0010564B2DE9F04107461868554B47
:101E900086B0984240F0A28000293BD0B2F5005FA6
:101EA00038D801EB82060C460B467A1AB34203D1AE
:101EB000002006B0BDE8F081D05853F8041B8842DA
:101EC000F4D0DFF8388127F4FF550121464804F0AB
:101ED00024FF25F01F05414600224346A85804323E
:101EE000B2F5005F41F8040BF8D17A1B22F003022F
:101EF0001344B44210D13D4C04F02DFE3C4B294616
:101F000022683C4804F059FF58B13B4804F0B6F849
:101F100004F024FE0120CCE754F8042B43F8042BF2
:101F2000E7E7012322682946324804F089FF0028A8
:101F3000EBD123682946314A2E4804F05FFF002880
:101F4000E3D105AB29462B48029304AB019301234F
:101F500000932A4B226804F094FF04460028D4D151
:101F60000146214804F0D9FE254AC2F88440BFF357
:101F70004F8FD2F8803043F6E074C3F3C900C3F347
:101F80004E335B0103EA040C01464CEA81760139C9
:101F9000C2F87462F9D2203B13F1200FF2D1BFF3E3
:101FA0004F8FBFF36F8F04F0D9FD002355F8231036
:101FB00005EB830258F8040B88420AD011490E48F9
:101FC0000B60114B12681A60104B1F6004F056F83A
:101FD000A0E70133B3F5006FE8D169E70C48F5E7F6
:101FE0008C0000203CC33CC3744400206C4400209F
:101FF0006B66656B04440020D07A00100424002036
:1020000000ED00E07C440020804400208444002057
:10201000577B001008B54FF40071054804F0ADFF80
:10202000044B1B6803B19847BFF34F8F08BD00BF37
:10203000008003408844002008B54FF40071054833
:1020400004F09BFF044B1B6803B19847BFF34F8F0D
:1020500008BD00BF009003408C44002008B54FF439
:102060000071054804F089FF044B1B6803B19847D1
:10207000BFF34F8F08BD00BF00A003409044002075
:1020800008B54FF40071054804F077FF044B1B6856
:1020900003B19847BFF34F8F08BD00BF00600240F7
:1020A0009444002000B589B002230B4801A98DF8A3
:1020B000043002F057F801A9084802F053F801A9CA
:1020C000074802F04FF801A9064802F04BF800203B
:1020D00009B05DF804FB00BF00800340009003409E
:1020E00000A003400060024004282DE9F0410546AD
:1020F0000E461C463CD8032805D8DFE800F0022E27
:1021000030321C4B1A601C4F052057F8258001F017
:10211000DDFA8008194A0023A0FB060105F026FA23
:102120004FF40071C8F8080057F8250004F008FFC4
:10213000134B5A572301002ADBB214DB11498818CC
:1021400080F800335009012302F01F0203FA02F263
:1021500041F820200020BDE8F0810B4BD2E70B4B6B
:10216000D0E70B4BCEE702F00F020A498B54F1E7A0
:102170000120F0E7884400209000002040420F003A
:10218000E901002000E100E08C44002090440020A0
:102190009444002014ED00E004280ADC064B53F8B8
:1021A00020200020136823F0180343F00803136075
:1021B00070470120704700BF90000020042808DC11
:1021C000054B53F820200020136823F018031360F8
:1021D00070470120704700BF9000002004280EDCEB
:1021E000084B53F820200020136823F018031360D5
:1021F000136823F0180343F00803136070470120AD
:10220000704700BF9000002010F1800F0CD0002814
:1022100008DB4209012300F01F0003FA00F0034B22
:1022200043F82200002070470120704700E100E0E1
:102230002DE9F041087816461479042836D005D8DF
:10224000012824D0022826D0BDE8F0812028FBD127
:102250004C231E4D0A69002103FB045713FB0400A5
:1022600087F849202844142204F044FF97F84830A6
:10227000022B27D1042387F848304C2303FB045456
:102280002369002BE0D03068BDE8F04118470023F7
:102290004B608B60D8E74C230C4A03FB04240123DA
:1022A00084F84830A3684B60237EF2E74C23074A4A
:1022B00003FB0424E3684B60637E8B60022384F895
:1022C0004830C1E7012BD8D10323D4E7A000002078
:1022D00002287FB505460E462CD8174B1C562046C3
:1022E000FFF792FF002C4B684FEA03131CDB04F14D
:1022F0006044DBB204F5614484F8003301A802F0C5
:102300005BF833680220029301238DF8053001F059
:10231000DDF94C23024601A95D43084B585902F0F0
:102320008DF8002004B070BD04F00F04DBB2044A45
:102330001355E3E70120F5E79A7B0010A000002089
:1023400014ED00E002282DE9FF4706460C465DD853
:10235000684602F035FA002322788DF80830ADF88F
:1023600006302B4BADF8042099570846FFF74CFF79
:10237000A36900294FEA031342DB01F16041DBB29C
:1023800001F5614181F800334C25224F022005FB05
:1023900006F916FB05F557F8098001F097F9024692
:1023A00007EB090A404605F11C086946B84402F0EB
:1023B00075F924220021404604F09CFE0AF1040C29
:1023C0000FCCACE80F0094E80300134A8AF844608D
:1023D0008CE80300DAF81430414657F80900CAF8CF
:1023E000403005F140033B4402F0FEF92022414613
:1023F00057F8090002F02AFA002004B0BDE8F0877F
:1024000001F00F01DBB2054A5354BDE70120F4E7A8
:102410009A7B0010A00000203122001014ED00E093
:10242000034B4C2202FB003080F84810002070471C
:10243000A0000020034B4C2202FB003090F9480022
:10244000704700BFA0000020034B4C2202FB00306D
:1024500090F94900704700BFA0000020124B37B52B
:102460001A691249124B02F41F42D3F8A030D1F876
:10247000A05001F580512B43D1F8A04001F58051C7
:102480002343D1F8A00001F580510343D1F8A010F7
:102490000B43134314BF012300238DF807309DF82D
:1024A000070003B030BD00BF000008E000A00440FA
:1024B00000900440074A08B5136843F08003136096
:1024C000054B1B6803B19847BFF34F8FBFF36F8F66
:1024D00008BD00BF0000044098440020054908B52D
:1024E000084602F035FA0349034802F0FFF90020DC
:1024F00008BD00BFAE4A00200000044010B50F4BDD
:102500000C4613201A6001F0E1F80D4A0023A4FBE9
:10251000000105F02BF810B90A4802F053FD0A4AF1
:10252000013890600020136823F0800343F04003DB
:1025300013604FF08062054B5A6010BD9844002034
:1025400040420F009C7B00100000044000E100E0CE
:10255000044A0020136823F0800343F00103136052
:10256000704700BF00000440034A0020136823F0B6
:1025700081031360704700BF00000440064A00203A
:10258000136823F081031360136823F0800343F082
:1025900001031360704700BF00000440044B012298
:1025A000C3F80C21034B1B6803B11847704700BFE9
:1025B000007003409C440020044B0122C3F81C21FE
:1025C000034B1B6803B11847704700BF00700340FE
:1025D000A0440020044B0122C3F82C21034B1B68AC
:1025E00003B11847704700BF00700340A4440020A7
:1025F000044B0122C3F83C21034B1B6803B118476D
:10260000704700BF00700340A844002013B50024A9
:1026100001A904488DF8044002F0BEF9204602B03A
:1026200010BD00BF0070034070B505460E461C4645
:10263000032877D8DFE800F002203E5A3A4B022008
:1026400024011A6001F042F8384A0023A6FB000179
:10265000E4B204F08BFF364BC3F80001D3F8082135
:1026600042F00202C3F808214FF48032314B83F864
:1026700030435A60284670BD2F4B022024011A6057
:1026800001F024F8294A0023A6FB0001E4B204F07B
:102690006DFF274BC3F81001D3F8182142F0020256
:1026A000C3F818214FF40032224B83F83143002540
:1026B0005A60DFE7214B022024011A6001F006F87E
:1026C0001A4A0023A6FB0001E4B204F04FFF184BA6
:1026D000C3F82001D3F8282142F00202C3F82821D0
:1026E0004FF48022134B83F83243E0E7144B02206F
:1026F00024011A6000F0EAFF0C4A0023A6FB000147
:10270000E4B204F033FF0A4BC3F83001D3F83821A8
:1027100042F00202C3F838214FF40022054B83F83F
:102720003343C4E7FF25A5E79C44002040420F0047
:102730000070034000E100E0A0440020A444002019
:10274000A844002003280AD8DFE800F0020B131B7E
:10275000104AD2F8083143F00103C2F808310020D2
:1027600070470C4AD2F8183143F00103C2F818310F
:10277000F5E7084AD2F8283143F00103C2F82831BE
:10278000EDE7044AD2F8383143F00103C2F838319A
:10279000E5E700BF0070034003280AD8DFE800F037
:1027A000020B131B104AD2F8083123F00103C2F8C0
:1027B0000831002070470C4AD2F8183123F0010389
:1027C000C2F81831F5E7084AD2F8283123F001039E
:1027D000C2F82831EDE7044AD2F8383123F001037A
:1027E000C2F83831E5E700BF00700340032810D875
:1027F000DFE800F002111F2D1C4BD3F8082122F056
:102800000102C3F80821D3F8082142F00102C3F8FD
:10281000082100207047154BD3F8182122F001023F
:10282000C3F81821D3F8182142F00102C3F8182187
:10283000EFE70E4BD3F8282122F00102C3F828213C
:10284000D3F8282142F00102C3F82821E1E7074B21
:10285000D3F8382122F00102C3F83821D3F8382107
:1028600042F00102C3F83821D3E700BF00700340F3
:102870000228F0B50C468BB05BD88B792F4F2BB16B
:102880002C2202FB0072127B9A4254D02C25454325
:102890007E1978593373A368B36201F079F8A3887D
:1028A00021680820ADF810300022254B0390052048
:1028B0008DF8042002918DF81220ADF82420B3FB8E
:1028C000F1F3CDE90533079340F20113089300F0CB
:1028D000FDFE01A90246785901F084F996F9043009
:1028E0007279002B4FEA02121DDB1649D2B2C818CA
:1028F00080F800235809012203F01F0302FA03F3B2
:1029000041F82030104B0020012218709A704FF4CB
:1029100080325870D87018710C4B1A6004220C4B1E
:102920001A600BB0F0BD03F00F03D2B20949CA54CC
:10293000E8E70120F5E70020F3E700BF38010020B9
:1029400000CA9A3B00E100E0B54A0020AC440020F8
:10295000B044002014ED00E00228F8B539D82C244A
:102960001D4D60432C18285823620023C4E9063308
:1029700084F82430036843F001030360036843F4E0
:1029800040630360154BC362036823F00103C4E98D
:1029900004210360124904F0B0F9FEF75DF910F16B
:1029A000FA0641F1000794F824300BB10020F8BD7D
:1029B000FEF752F98F4208BF8642F4D2094A1368E3
:1029C000013313602268136B23F0007323F4003388
:1029D00013630120EBE700BF3801002000000ADA92
:1029E00000000202B44400202C4B9A69196A8A4202
:1029F0002DE9F04315D22A4800241D694FF4003C0C
:102A00000746C66AB60302D45CB19A6109E0846BDA
:102A100005B1AC5401320124C7F82CC09142F0D169
:102A20009961DA6991421AD91E484FF00079D3F8BA
:102A300018E0D0F800C01C485D69D0F80080002084
:102A4000174CE66AB60108D5A2EB0E06B44504D9C8
:102A50009E6F37465E6FBE4213D380B1DA61DA698A
:102A600091420CD19A69914209D10D490A6B22F029
:102A7000007222F400320A63012283F82420BDE8A8
:102A8000F08345B1A85C40EA080001326063012090
:102A9000C4F82C90D5E7FF20F5E700BF38010020EF
:102AA00000C00240B0440020AC4400202C4B596CC4
:102AB000DA6C91422DE9F04115D22A480024DD6BF1
:102AC0004FF4003C0746C66AB60302D45CB15964B1
:102AD00009E0846B05B16C5401310124C7F82CC0A6
:102AE0008A42F0D15A64996C8A4210D91E484FF03C
:102AF0000078D3F844C007681C481D6CD0F800E08B
:102B00000020184CE66AB60112D418B19964996C89
:102B10008A4216D0BDE8F08145B1685C40EA0E00FB
:102B2000013160630120C4F82C80EBE7FF20F5E75A
:102B3000A1EB0C06B742E8D98A42EDD10028E6D0D5
:102B40009A64596C8A42E5D106490A6B22F00072F8
:102B500022F400320A63012283F85020DAE700BF32
:102B60003801002000D00240B0440020AC440020D6
:102B7000224B9A6F196F9142F0B50FD220484FF453
:102B80000035C16A8C0309D59C6E866B196F04B140
:102B9000665401318A421967C562F2D1596F8A427F
:102BA00010D8596F8A420CD1196F8A4209D1144941
:102BB0000A6B22F0007222F400320A63012283F8C9
:102BC0007C20F0BD0F494FF000770D4C0D680E4989
:102BD0000E68E06A596F8001E3D5186F081AA842A1
:102BE000DFD28A42DDD9D86E30B1405C304301314A
:102BF00060635967E762ECE7FF20F7E738010020E0
:102C000000C00A40B0440020AC4400207FB50E4E06
:102C10002C25044605FB0065AD6A3DB101200191FC
:102C2000CDE90223A8470199DDE902232046FFF7F9
:102C300093FE05462C2000FB0464A36A0BB1002020
:102C40009847284604B070BD3801002010B50B4CE1
:102C5000204604F0EFF910F0280F0ED0030705D03E
:102C600020460F21BDE8104004F0EFB9044B1B686B
:102C700013B1BDE810401847E37910BD00A006402D
:102C8000B844002010B50B4C204604F0D3F910F0E6
:102C9000280F0ED0030705D020460F21BDE81040B5
:102CA00004F0D3B9044B1B6813B1BDE810401847BA
:102CB000E37910BD00B00640BC44002010B50B4CB9
:102CC000204604F0B7F910F0280F0ED0030705D006
:102CD00020460F21BDE8104004F0B7B9044B1B6833
:102CE00013B1BDE810401847E37910BD00C006409D
:102CF000C044002010B50B4C204604F09BF910F0A6
:102D0000280F0ED0030705D020460F21BDE8104044
:102D100004F09BB9044B1B6813B1BDE81040184781
:102D2000E37910BD00D00640C444002010B50B4C20
:102D3000204604F07FF910F0280F0ED0030705D0CD
:102D400020460F21BDE8104004F07FB9044B1B68FA
:102D500013B1BDE810401847E37910BD00A00E4044
:102D6000C8440020314BF0B585B00C4653F83070A4
:102D700003EBC0030646684693F9045001F020FFB8
:102D8000236800932379012B34D0022B34D00BB964
:102D90008DF80430012300208DF80B308DF80C30B5
:102DA00000F094FC69460246384601F04FFE237B52
:102DB000002D4FEA031321DB05F16042DBB202F57F
:102DC000614282F800334FF40221384604F017F9CB
:102DD000002D08DB6A09012305F01F0503FA05F53C
:102DE000134B43F82250042E11D8DFE806F00D13E0
:102DF00016191C000223CBE70323C9E705F00F01D6
:102E0000DBB20C4A5354DEE7A2680B4B1A60002079
:102E100005B0F0BDA268094BF8E7A268084BF5E7DA
:102E2000A268084BF2E7A268074BEFE79001002089
:102E300000E100E014ED00E0B8440020BC440020B4
:102E4000C0440020C4440020C844002008B5034BFF
:102E500053F8300004F01AF9002008BD900100205A
:102E6000024B53F83030D879704700BF90010020F2
:102E7000054B10B553F83040204604F0DBF843060C
:102E8000FAD5002010BD00BF900100200B289ABF8A
:102E9000024B53F820004FF0FF3070479C77001032
:102EA000014B988A80B2704700200540044B1A7885
:102EB0005B7812F0200F0CBF01200220704700BF8A
:102EC00000F00740024B9A8A4FF6FF729A827047D1
:102ED0000020054010B586B0044601A801F092FE1E
:102EE0000594012409488DF80A4004F0DCF80748ED
:102EF00001A98DF8044001F09BFE4FF48070034B54
:102F000001389A8AFCD106B010BD00BF00200540F0
:102F1000034B1B6813B9034804F0C5B8704700BFE2
:102F2000CC44002000200540064B9B6810B5184497
:102F30001446FDF7E3FD00280CBF20464FF0FF309C
:102F400010BD00BFD0440020012805D1064B4FF42E
:102F500000225A60002070470028FBD1024B4FF43A
:102F600000229A60F6E700BF40F00F4040F20113E4
:102F700007B5032101AA0448ADF8043001F0DAF9DD
:102F8000002003B05DF804FB40F00F40012803D19E
:102F9000074B08229A60704718B9054B08225A60FF
:102FA0007047022802D1024B0822DA60704700BF46
:102FB00040F00F4070B5064D064C074E20460434D5
:102FC00003F0BFFD45F8040BB442F7D1002070BDFB
:102FD000DC44002010E00F1050E00F1010B529481D
:102FE00086B003F0AEFD04280BD020220021264835
:102FF00004F080F82549244804F0E7F9012006B0E0
:1030000010BD234803F09DFD431C4FF0000336D054
:10301000ADF80830CDE9003368B3092303A90A24C9
:10302000B0FBF4F204FB12005854013B1046F7D2F7
:103030000022134611F8010B08B10BB9D3B233B11A
:10304000D41A0DF1180C3030644404F8180C013215
:103050000A2AEFD106AAC3F10A031344002203F897
:10306000182C0C49084804F0A1F96946064804F0F8
:103070009DF90020C3E730238DF80030F1E71846B2
:10308000BDE700BF10E00F10ED010020EB7B00104A
:103090000CE00F10F07B001013B501246A460421E8
:1030A0000748ADF8004001F045F901AA1421054890
:1030B000ADF8044001F03EF9002002B010BD00BFA1
:1030C00000F10F4040F00F40052837B50D463FD8BE
:1030D000204B1C5C042C21D8DFE804F011032720CE
:1030E00034001D4A0521536923F4706343F480734F
:1030F0005361012301AAADF8043018480CE0184AC6
:103100000521536923F4706343F4807353610123F1
:1031100001AAADF80430134801F00CF92946204605
:10312000FFF720FE002003B030BD0D4A0721D36910
:1031300023F4706343F48073D361012301AAADF8D3
:103140000430E8E7012301AA0721ADF80430D4E7F1
:103150000120E8E7F27B001000B0044080F00F404F
:1031600000C00440C0F00F40052808B505D8044B46
:10317000185C03F060FD002008BD0120FCE700BFE3
:10318000F27B001038B50446042807D8DFE800F0C9
:10319000031517061A00124B20205860114B1D5DB5
:1031A0002846FFF753FE2846FFF762FE042C0ED890
:1031B000DFE804F00A0F110D14000B4BECE70A4B8B
:1031C0008020EAE7064BFBE7054B20229A600020AF
:1031D00038BD054BF9E7044B8022F7E7004BFBE7CE
:1031E00080F00F40F27B0010C0F00F40014B185CE4
:1031F000FFF736BEF27B00100848012110B5084CDD
:10320000606003F061FA10F11E0F05D020702046B7
:10321000BDE8104003F07CBA10BD00BFC001002023
:10322000B8010020F8B504460E46FDF70DFFD8B1F1
:103230002046FEF705F820B12046BDE8F840FDF72E
:1032400011BF0A4F042557F8043B3046984710F049
:10325000FF0104D1013D15F0FF05F4D1ECE7002298
:103260002046FDF7BBFFE7E7F8BD00BFCC770010B5
:103270002DE9F041754AADF5567D1368002B75D0E8
:1032800003F028FF03F023FF03F023FF41F288300F
:10329000FFF720FEFFF73CFE03F0CFFBFEF7B6FB87
:1032A000FEF7CEFB0128C3B203D0033B012B00F293
:1032B000A18003F056FC0024FEF776FD032503F001
:1032C00024F9FDF7B7FCFFF7E7FE03A803F0CEF8FB
:1032D00047F601035E4903A8ADF80C305D4B8DF84D
:1032E0000E4005938DF81050FDF75AFD0DA803F020
:1032F0008FF907A803F094FC2046FDF787FEF02322
:1033000003702046FDF782FE07A902462046FDF71E
:103310009FFA2846FDF77AFE04702846FDF776FEF0
:1033200007A902462846FDF793FAFEF7B5F90DA85E
:1033300003F0F0F80C224849684603F0D9FE009AE1
:10334000464B9A4210D1019971B1029D444E2846D4
:10335000414FFDF747FC041B18BF0124DDE90123A1
:103360001344AB4237D91CB13E4C69E000BF84E73F
:10337000FDF772FCD6E900238B4208BF824208D2D7
:10338000FDF76AFC033041F10001C6E90001FFF7D7
:10339000BFFD40F20B22002153A803F0ABFE0DF25B
:1033A0005121284603F049FC53A95FFA80F80DF239
:1033B0005120424603F083FB51A8FEF785F90446ED
:1033C00038B1002301240322694638460193FEF7F1
:1033D00059FD4544C2E7002CC6D1FEF711FB03227C
:1033E00069461D480194FEF74DFDFEF76BFB00207A
:1033F000FFF7CCFDFEF7EEFA00BFFDE7FDF72CFC72
:10340000D4E900238B4208BF824208D2FDF724FC96
:10341000033041F10001C4E90001FFF779FD6420A8
:10342000FDF7E6FC0320FDF7F1FD01460320FFF761
:10343000F9FE0020FDF7EAFD01460020FFF7F2FE4D
:10344000FEF7D8FA0028D9D1D1E700BFD801002073
:10345000C0010020F931001064E00F10CADBCDABD1
:10346000380200204002002008B5044B1A6812B947
:10347000034801F0A7FD186808BD00BF1C450020E7
:10348000F77B001008B5FFF7EFFF70B10A4A137819
:103490005278C3F3C20312F0300F20FA03F004D0C5
:1034A000062B03D0072B05D0400908BD1423B0FB21
:1034B000F3F0FAE70C23FAE700400640064B9A794E
:1034C000D20702D4054B18687047187A044AC0F333
:1034D00042031068D840704700400640E0010020D9
:1034E000DC01002008B5074B1B781B0607D5064BEF
:1034F0001A6812B9054801F065FD186808BD00207A
:10350000FCE700BF005006401C4500201C7C00105A
:1035100008B5084B1A7812060AD5074A116811B97E
:10352000064801F04FFD10689B789B09D84008BD04
:103530000020FCE7005006401C4500203B7C0010AA
:1035400008B50A4B1B6813F4402FC3F3814205D022
:10355000032A14BF00204FF47A7008BDFFF7C2FFA2
:10356000B0F5004F18BF0020F7E700BF007004401F
:103570000D4A41F24403416810B5D15041F20404B0
:10358000037811591B0421F4403103F440330B43F9
:103590001351437811689B0421F4402103F4402324
:1035A0000B43136010BD00BF0070044008B5104B02
:1035B0005A78910701D5002008BD9A799206FAD46D
:1035C0009B79DB0610D4FFF75DFF0028F3D0084A93
:1035D000D378D278C3F341135B0003EBD213054ACF
:1035E00032F813305843E7E7034B1868EDE700BFA4
:1035F00000400640CC780010E0010020034B187812
:1036000010F0020001D0FFF759BF7047004006409C
:1036100010B50C4CA07910F0400011D0FFF724FF3A
:1036200010B9094801F0CEFC237903F007030133F8
:10363000B0FBF3F0637903F01F03103358434008E5
:1036400010BD00BF004006405A7C0010084A41F2FD
:103650000403D35813F4403FC3F3014203D0012ABB
:1036600003D000207047FFF7A1BFFFF7D1BF00BF15
:1036700000700440084B9B79C3F38103022B09D0EF
:10368000032B03D0012B03D1FFF718BFFFF7C0BFF7
:10369000FFF78CBFFFF7E8BE00400640094B10B5AE
:1036A0009B79DB060AD4FFF7EDFE0446FFF7E2FF45
:1036B000B4EBD00F94BF2046002010BD024B1C6815
:1036C000F4E700BF00400640E001002008B51328E1
:1036D0000BD8DFE800F00C0A2920291732364E0AF1
:1036E0004A3A3E42460A0A0A0A52002008BDFFF73B
:1036F000C1FF234A41F24403D3581B0F0133B0FBEF
:10370000F3F0F3E7FFF7B6FF1D4A41F24403D35845
:10371000C3F30363F2E7FFF7ADFF194A41F2440335
:10372000D358C3F30353E9E7FFF7A4FF144A41F268
:103730004403D358C3F30343E0E7BDE80840FFF771
:1037400085BFBDE80840FFF7FBBEBDE80840FFF7B6
:10375000A5BFBDE80840FFF751BFBDE80840FFF72F
:1037600025BFBDE80840FFF753BFBDE80840FFF79D
:10377000B9BEBDE80840FFF7CBBE4FF47A70B5E79D
:10378000007004401E4B70B59C799D791E7AC4F37D
:103790008104EDB2C6F34206964217D01B789B0710
:1037A00001D4012C09D1EE0707D5154B5D7805F042
:1037B000FE055D709D79ED07FCD4114D52002B7A0A
:1037C00002F00E0203F0D0031A432A720C4B01F0F0
:1037D0000105012C5A7802F0FE0242EA05025A70F5
:1037E0001A7802F0FC0242EA00021A7001D0820745
:1037F00004D59A7902F001028A42FAD1002070BD04
:1038000000400640036849F69702934230B526D936
:10381000144DAB4294BF01250225134A0179137858
:1038200003F0F0030B43114913704B78447903F014
:10383000C303234343EA05134B701378857903F0E0
:103840005F032B431370C3799B01DBB293702CB1E0
:1038500013781A0602D58B799B07FCD530BD00255D
:10386000DBE700BF00127A0000500640004006402F
:10387000F8B51C4DEC78AE79E4B2C6F30017F60645
:1038800004D5EE78012786F02006EE702E78C00071
:1038900006F0030600F0380030432870687810F016
:1038A000040F104802D08579AE07FCD58579ED0666
:1038B000FCD407B1C470520104F01F0402F060028E
:1038C00042EAC11144EA01020649D2B2CA70C8787C
:1038D0009042FCD18A7912F00C0FFBD103B19847CA
:1038E0000020F8BD00400640164A136843F48023C8
:1038F000F0B513600C7B0B7ACA7AD1E90065DCB9AC
:103900004F7A002F18BF0224002B4FEA02638A7AF5
:1039100003F0807343EA826343EA047314BF4FF0F9
:1039200000424FF04042134343F000728360466010
:10393000826005608360F0BD002B4FEA026303F0F4
:103940008073EBE73C80044008B50A4B98420AD0EC
:1039500003F58053984208D003F5FE23984206D021
:10396000054801F02FFB002008BD0120FCE70220E4
:10397000FAE700BF00C00240787C001010B50C468A
:10398000FFF7E2FF014B1C5410BD00BFC44A0020EA
:10399000026842F0010208B50260026842F4804207
:1039A0000260FFF7D1FF084B53F820200120130CD1
:1039B00092B203F1804300FA02F203F58E231968F4
:1039C00021EA02021A6008BD7C7800102DE9F04F50
:1039D00085B0074603910168002949DB002005B046
:1039E000BDE8F08F80468A46A946A4464FF0010EF6
:1039F0000198B0FBF6F6B24208D3901B604505D2A1
:103A00008446B0468A46A9464FF0020E40466446B8
:103A10000131102900D0ACB90135042D02D00BF1D1
:103A2000040B8CBB039B0EF1FF3E07EB83071B4B84
:103A3000FA68134043EA0A0343EA094949EACE73A4
:103A4000FB60CCE78046A446009850F8046B0090D9
:103A500002984643B3FBF6F08242C9D3141A644578
:103A6000C6D2002CBED18A46A9464FF0010ECFE740
:103A700000255900DFF82CB04FF0010E2846AA4669
:103A8000A9464FF0FF34019105498046A4460091B4
:103A9000DBF8001002910021D6E700BFF0FFFC7FA9
:103AA000EC770010DC77001038B505689DF8104001
:103AB000002D15DA022C4FEA810112D0032C1ED002
:103AC000012C29D108441B039105C4689AB201F462
:103AD000400124F440030A4323F470431A43C260B4
:103AE00038BD084412051B02C46802F4401103F4F7
:103AF000706224F440130A4323F47063EEE7084431
:103B000092041B01C16802F44022DBB21A4321F483
:103B1000402323F0F003E1E7014801F053FA00BF2E
:103B2000AD7C00102DE9F04F046885B084468E46C8
:103B3000002C19DA274C4FF4E025274E0E9FB6FBD8
:103B4000F3F6B4FBF3F37543B7EB430F4FEA4304CB
:103B50004FEA95050AD8002300921A46FFF7A4FF02
:103B6000204605B0BDE8F08F0024F9E70F23DFF809
:103B70006C902C4600274FF0030A4FF0FF31029360
:103B800059F8040B0025DFF8588000FB06F3039377
:103B9000039B58F8040B58430E9BB3EB900F4FEA6E
:103BA000900B07D8ABEB030088423FBF01465C4651
:103BB000BA4602950135102D01D00029E8D1013710
:103BC000042F01D00029DBD100927146029B52469E
:103BD0006046C3E700CA9A3B00286BEE2C780010C1
:103BE0003C78001073B5054616460C4611B944489A
:103BF00001F0E8F9FFF7A8FE424B012253F820102C
:103C00000B0C89B203F180438A40A17F03F58E2318
:103C10001868024328461A602B6823F480432B60FF
:103C20002B6843F001032B602B6843F000432B60AB
:103C300094F820302A689B0622F08A4243EA817376
:103C400022F44C521343E27F43EA026394F82120AA
:103C5000120202F4407213432B60227F637F2968B3
:103C6000012B4FEA0243626803F47C130CBF0B4341
:103C700021EA03032B6033462178FFF7A7FE08B93A
:103C80002148B5E72178A06805EB81020138D368A7
:103C9000C00623F0FE4300F0F0401843237B9B0650
:103CA00003F080631843637B5B0603F000731843E3
:103CB000A37B1B0603F0807318432369D0600122A5
:103CC000009328463346FFF72DFF636902222846FA
:103CD000009333462178FFF725FFA3690322284686
:103CE000009333462178FFF71DFF00212846FFF798
:103CF00045FE2B6823F001032B6002B070BD00BFAE
:103D0000C57C00107C780010EC7C0010064B196814
:103D100010B511B9054801F055F9054B05481B6868
:103D2000BDE81040184700BF20450020047D00106A
:103D30002C45002000400240064B596810B511B9CF
:103D4000054801F03FF9054B05481B68BDE81040E8
:103D5000184700BF20450020357D00102C4500206D
:103D600000500240064B996810B511B9054801F0A2
:103D700029F9054B05481B68BDE81040184700BFEE
:103D800020450020667D00102C45002000400A40A0
:103D900008B550B143680BB9054B43601C22054977
:103DA000406803F0A5F9002008BD0420FCE700BF2F
:103DB00030450020DC78001010B444680123132241
:103DC0004FF4002101340248A4465DF8044B6047DB
:103DD00004F0014010B570230A4C2370431C2046A8
:103DE000984722789106D3B207D4DA0607D413F0A5
:103DF000010F14BF6920002010BD6720FCE7682078
:103E0000FAE700BF0000024010B50446D8B14FF4F5
:103E100080534FF0C052C0E90F23836C0BB90B4B9A
:103E200083640C220A49A06C03F062F994F84C30C8
:103E3000002023F0030343F0020384F84C30054BC9
:103E4000C4E9143010BD0420FCE700BF7045002019
:103E5000F8780010080800042DE9F8431F4690F890
:103E600034300646144602F05EFF0546F8B9134B9F
:103E70009F421FD1376B013CD6F810803C44B4FB05
:103E8000F8F308FB134212B103FB0884013CDFF88E
:103E900030900AE027F07F43B06C43F01063C9F81C
:103EA0000030FFF797FF38B94744A742F2D92846B8
:103EB000BDE8F8836B25FAE70546F8E76B66656BA6
:103EC000040002402DE9F84F80461E4690F83970F4
:103ED00014469AB33B46324602F025FF054620B908
:103EE000D8F83090DFF864A016B92846BDE8F88FFE
:103EF000204604F1040B02F02FFF124B042F186030
:103F00000ED129F07F4242F0C062CAF80020D8F8F2
:103F10004800FFF75FFF98B9B944F61B5C46E3E73A
:103F2000082FF4D1584604F1080B02F015FF064B98
:103F300029F07F42186042F0E062E6E70425D4E70A
:103F40000546D2E7080002400C000240040002408F
:103F50002DE9F74F9A4690F83530064617460193FB
:103F600002F0E1FE814690B973694FEA0A2AF268CD
:103F7000356BB2FBF3F86C1EC8F1000344441C40DF
:103F8000A54208BF05EB0804114B124A1FB9484669
:103F900003B0BDE8F08FA4EB050B25F07F41B06CBA
:103FA000BB4541F0807128BFBB461960019BBBFB3C
:103FB000F3F14AEA014141F0FF011160FFF70AFF06
:103FC00020B9A7EB0B075D444444DDE78146DEE7FB
:103FD00004000240080002402DE9F74F80461546D4
:103FE00090F837A09946002B38D0534602F09BFE3C
:103FF000044670B99DF83070D8F830303F06184943
:104000001E46DFF864B067F07F47A9EB0300304439
:104010001DB9204603B0BDE8F08F26F07F4C019318
:10402000104B4CF000721A600F6002F095FECBF856
:104030000000D8F84800FFF7CDFE0949019B48B1C0
:104040000D9B03B11E600E9B13B100230E9A1360EB
:104050000446DEE7A5EB0A055644D6E70424D8E774
:1040600008000240040002400C00024098B191B1E7
:104070000A4B9B78DAB203F00303022B03D1084BFF
:1040800000200B60704702F0C003802B01D1054B6C
:10409000F6E7054BF4E70420704700BF000002403C
:1040A0003CC33CC3A55AA55AA53CC35AC8B9042071
:1040B0007047194A32F813309B02B3F5004FC360C2
:1040C0004FF080528CBF5B094FF480634262202224
:1040D0008362124BC26243634FF400630387FFF7AE
:1040E00093BE002301210E4A0380037923F03F038E
:1040F00043F02F0303714FF0805383604FF400535C
:10410000C0E9043141F24C03D358C3F303630F2BCE
:10411000CFD14FF48013D0E7047900102020080499
:104120000070044008B50D4B98420ED003F5805343
:1041300098420CD003F5805398420AD0A3F5A033DF
:10414000984208D0064800F03DFF002008BD01203D
:10415000FCE70220FAE70320F8E700BF00800340F5
:10416000977D00102DE9F84F04460D4611B96A48B5
:1041700000F028FF4B6813F0F00F00F0CB80FFF742
:10418000D1FF664B0126DFF898E153F8203000207C
:10419000DFF89481B1461A0CDFF890A19BB2DFF8EA
:1041A00090B102F1804206FA03F302F58E22116803
:1041B0000B4313602B7B69685B0103F0600343F0E2
:1041C00005036365D4F858C0676E4CF00802744567
:1041D000C3B23DD0444530D054452ED05C4537D095
:1041E00008066766D4F88C3034D443F0B40311F079
:1041F000700F0DD0CF0643F4F81348BF4CF01802EF
:104200008E0648BF42F02002480648BF42F04002F6
:10421000A265C4F88C30424BA8689C4278D003F564
:1042200080539C421BD003F580539C4217D0A3F5CA
:10423000A0339C426CD03B489AE70126B34200F180
:104240000100CDDADB00053309FA03F31F43BEE7B3
:104250000426F3E743F4FD5343F01403C7E70221B8
:10426000D4F88C304FEA510C002643F00403C4F814
:104270008C300123676EF20001360532664503FA81
:1042800002F247EA0207F6D38B406766D4F898201B
:104290005B4213404FF0FF328A40C10520EA020220
:1042A00043EA0203C4F89830A36D4CBF43F0020305
:1042B00023F002038205AA7E4FF000004CBF43F0BA
:1042C000010323F00103A3652B7803F007032360A8
:1042D0006B789B01DBB243EA42232A69C4F884303D
:1042E00002F03F022B7EE3656B7E23676B69E3661A
:1042F000AB7B9B01DBB21343A3666B7BE26F1B02BC
:1043000022F4706203F470631343E367BDE8F88F2F
:104310000821A5E70120F9E7C07D0010887800108A
:1043200000800340D87D00100090034000A00340AF
:104330000060024008B512B90A4800F043FE0123AC
:1043400003FA01F1137823B9436923EA01014161BA
:1043500008BD53781BB9816043691943F7E7416091
:10436000FAE700BFF97D0010C27810B5847802F03A
:10437000100304F02004234314BF034B034B1B68BA
:104380009847BFF34F8F10BDB8450020BC450020B3
:1043900008B5074B984206D003F58053984204D0E5
:1043A000044800F00FFE002008BD0120FCE700BF1C
:1043B000006006401A7E001010B5044610B9074888
:1043C00000F000FE0C22002102F094FE044B63601A
:1043D000002323720123238010BD00BF4D7E0010F7
:1043E000A0860100F0B500254FF0FF362C462F4681
:1043F000A446DFF844E000243EF8023BAB40B2FBA9
:10440000F3F38B4234BFCB1A5B1AB34203D283B1AE
:10441000A4462F461E460134402CEDD16446022DA1
:1044200002D00135002EE3D144EA8714E4B244708F
:10443000F0BD2F461E46F2E72279001070B5044603
:1044400016460D4611B9214800F0BCFD0AB92048B6
:10445000FAE7FFF79DFF1F4B012153F82020130CB3
:1044600092B203F180439140FF2203F58E23186836
:10447000014320461960002323706370A370E2702B
:1044800050226371A271E371A37803F07F03A370DC
:10449000A3791343A371A37913433246A371122363
:1044A000E3706968FFF79EFFA3796A7803F07F03E2
:1044B00043EAC2132A7A03F0F00302F00F02134317
:1044C000A3712B78DB01DBB2A37070BD737E00108B
:1044D000997E001098780010F0B5054685B00C461E
:1044E00011B96D4800F06EFD00278DF80F709DF832
:1044F0000F300133DBB28DF80F3002F072FD420451
:10450000064604F1040136D4F30415D5AB7943F023
:104510001003AB710023EB700223EB7010232371A7
:10452000A369DB0606D5E36923B1226A2846019117
:1045300098470199770637D50223F207EB7035D4F7
:10454000700661D5012016F0040620702071AB784A
:104550004AD043F01003AB7006462279A3691A4291
:1045600006D0E36923B1226A284601919847019950
:10457000002E4DD118E0AB7943F04003AB7102231C
:10458000EF70EB7023786BB12023276127702371C4
:10459000A3699F0606D5E36923B1226A28460191E3
:1045A000984701997006AFD405B0F0BDAB7803F021
:1045B000E703AB702B79DBB28DF80F30E368002B8B
:1045C000F2D02023237140F24E4323610023237055
:1045D000A3699E06E8D5E369002BE5D0226A284648
:1045E00005B0BDE8F040184703F0E703AB702B7946
:1045F000DBB28DF80F309DF80F3003F0FF00002B79
:10460000ABD140232371A7E7320640D573070CD501
:10461000E368A2683ABB02232371E36913B1226AFB
:1046200028469847002363611FE0E368A26802B14F
:1046300043B904232371E36913B1226A28469847DA
:10464000002363612B79E268DBB2002AACD0A26858
:10465000511CA1601370E368013BE360636901339F
:104660006361E368A0E7002BD5D0E3685BB1A36882
:104670005A1CA2601B782B71E368013BE3606369FD
:104680000133636190E7AB7803F0E703AB702B79FC
:10469000DBB28DF80F3087E7BC7E00102DE9F041CA
:1046A000044616460D4611B9404800F08BFCFFF752
:1046B0006FFE3F4B012253F820100B0C89B203F11F
:1046C00080438A4003F58E23186802431A60002352
:1046D000FF2223706370A370E27050226371A27195
:1046E000E3712B7A002B47D0022B4AD02B78002085
:1046F000A978A278DB01DFF8C08043EA410302F029
:10470000FD021343DBB2A3706A78E9786379D201C2
:1047100003F06F0342EA0112014613434FF47A7229
:10472000DBB2B6FBF2F263710646EF684FF0FF357D
:104730008C46DFF888E000213EF8023B834008FB0E
:1047400003F3B3FBF2F39F428CBFFB1ADB1BAB42BC
:1047500003D23BB38C4606461D4601314029EBD1BE
:104760006146022802D00130002DE1D141EA8611D4
:10477000C9B26170BDE8F0812B795B00DBB22370B8
:10478000B4E7AA88EB889A4201D30A488DE7520021
:104790005B00D2B2DBB22270E371637943F00803AD
:1047A0006371A3E706461D46DBE700BFE07E00100D
:1047B00098780010067F001020A1070022790010D1
:1047C00010B5044610B9074800F0FCFB1022002188
:1047D00002F090FC002323724FF47A63E36001231C
:1047E000236010BD4E7F0010F8B517461E460C46DC
:1047F00011B9104800F0E6FBFFF7CAFD2422054678
:104800000021204602F076FC0B4B0C4A43F8254071
:104810000B4B1A600B4B5B57002BC4E9077608DB88
:104820005909012203F01F0302FA03F3064A42F872
:104830002130F8BD747F0010B0450020D94400102D
:10484000BC450020B67F001000E100E0F8B504464A
:1048500017460D4611B9134800F0B4FB0B7803F06E
:10486000FF06E3B9602147F0460702F0ADFB1422D2
:104870003146281D02F03EFC0123AF6120462B701B
:104880006021A37943F05003A371A37943F050034F
:10489000A3711223E37002F088FB3046F8BD40F2AA
:1048A0004C40FBE7957F0010024B03481968FFF767
:1048B0005BBD00BFB045002000600640024B0348CE
:1048C0005968FFF751BD00BFB04500200070064099
:1048D00008B5044B984202D0034800F073FB002057
:1048E00008BD00BF00000440B87F001038B5054681
:1048F0000C4611B9144800F065FBFFF7E9FF134AB5
:10490000136843F0010313602378A2785B00D200A0
:1049100003F0020302F008021343E27843EA820341
:104920006278120102F03002134322792B6063791E
:1049300003F0030343EA8203A279D20002F0780273
:1049400013436B6038BD00BFEE7F00103880044019
:1049500010B5044610B9084800F034FB07220021C6
:1049600002F0C8FB0023012223706370A370E37080
:1049700022716271A37110BD0F80001008B5044B45
:10498000984202D0034800F01DFB002008BD00BF84
:10499000007003403180001038B504460D4611B94F
:1049A000124800F00FFBFFF7E9FF114A136843F4C8
:1049B00000031360236823F002032360002304EB49
:1049C00003110133D1F80821042B22F00102C1F8B0
:1049D0000821F4D12B7823B1236823F0010323604D
:1049E00038BD236843F00103F9E700BF638000107E
:1049F0003C80044008B5134B984216D003F5805311
:104A0000984214D003F58053984212D003F5805396
:104A1000984210D003F5FA2398420ED003F5805344
:104A200098420CD0084800F0CDFA002008BD0120C3
:104A3000FCE70220FAE70320F8E70420F6E7052068
:104A4000F4E700BF00A0064082800010F8B50446DD
:104A50000D4611B9544800F0B5FA0B680BB953482C
:104A6000F9E75349884217D001F58051884213D0A5
:104A700001F58051884211D001F5805188420DD056
:104A800001F5FA21884214BF4FF0FF310121A879C6
:104A9000884205DD4748DEE70821F8E70121F6E70F
:104AA000E879884201DD4448D5E71E01B2FBF6F6FD
:104AB0005200B6B2B2FBF3F7012E38BF0126A7EBC6
:104AC0004617BFB207EB4611B2FBF1F264219342E5
:104AD00034BFD21A9A1AB3FBF1F303EB43039342A8
:104AE0005FD3204607F01F07FFF784FF334B0122F7
:104AF00053F820100B0C89B203F180438A4003F570
:104B00008E23186802431A60E37803F0F303E3701E
:104B1000237803F0E00343EA1623F6B223706670AD
:104B2000A37A03F0E0031F43A772AA7AA378920046
:104B300003F0E80302F0040213432A7912B113438D
:104B400043F01003A3706B7922785B0102F0DF025F
:104B500003F0200313432370AB79E374EB7963759F
:104B6000237C43F088032374637C43F0C0036374A5
:104B70002B7A1BB1637B43F0080363736B7A1BB121
:104B8000637B43F001036373E378EA7ADBB20AB133
:104B900043F008032A7B0AB143F004030020E370CA
:104BA000F8BD40F2F530FBE7AE800010C780001082
:104BB00000A00640EE8000103D810010A07800109B
:104BC00010B5044610B9084800F0FCF91022002185
:104BD00002F090FA4FF080734FF4E132C4E9002301
:104BE0000023A360237310BD8C810010024B034A85
:104BF0001B68516902481847D8450020C04500206D
:104C000000B00E4008B510B9074800F0DBF94FF4CA
:104C10008033064AC0E9002300230372C3604FF6C5
:104C2000FF73036108BD00BFA581001001000001F2
:104C300038B511B91D4800F0C5F94B780A785B000A
:104C400003F002031343CA7943EA82030A7A43EA70
:104C5000C2038A7943EA02134A7943EA42130A7982
:104C600043EA8213CA7843EAC21343F48043EFF362
:104C7000108472B64CF220529BB2C2814DF62812BB
:104C8000C281002282828A78120202F4E062C28229
:104C9000CA68150C92B2058142810A69110C92B260
:104CA0008180C280038084F3108838BDBD810010EC
:104CB000254B4CF22051D3F8882042F4700270B595
:104CC000C3F88820214AD1814DF62811D1814FF4B3
:104CD000E9711180BFF34F8FBFF36F8F0021C3F8CD
:104CE0005012BFF34F8FBFF36F8F5A6942F40032F7
:104CF0005A61BFF34F8FBFF36F8FC3F88410BFF3B8
:104D00004F8FD3F8802043F6E074C2F3C900C2F39A
:104D10004E32520102EA0406014646EA8175013923
:104D2000C3F86052F9D2203A12F1200FF2D1BFF34A
:104D30004F8F5A6942F480325A61BFF34F8FBFF3ED
:104D40006F8F02F0BCF970BD00ED00E0002005405F
:104D500013B541F244031B4C1B4A1C48E250FEF7BA
:104D600051FD1B4B1B4A06211A6000221A4B1046AC
:104D70000093032301F093FF002202201146FEF767
:104D800001FD1648FEF7F4FB154B164A1A6004F5B0
:104D90008852136823F00203136041F20403E258BF
:104DA00022F0E002E250E25842F48052E25041F236
:104DB00068030022E250E25842F08052E25002B012
:104DC00010BD00BF0070044000001701B87800104B
:104DD0001C45002080F0FA02C1700010C07800105D
:104DE000E401002000E1F505044A80B201231168C6
:104DF00003FA00F008431060704700BF3880044099
:104E000030B5544885B0FFF7EFFF5348FFF7ECFF8C
:104E10005248FFF7E9FF5248FFF7E6FF5148FFF716
:104E2000E3FF514B6A4601251C8814214F48ADF819
:104E30000040FFF77FFA01AA05214D48ADF8045064
:104E4000FFF778FA02AA00214A48ADF80850FFF7A8
:104E500071FA03AA04214848ADF80C40FFF76AFA3A
:104E6000464A936823F4706343F4E0639360936865
:104E700023F0807323F003039360414B9A6A22F47A
:104E8000706242F440729A62DA6A22F4706242F40A
:104E90004072DA621A6D22F4706242F480721A650E
:104EA0005A6D22F4706242F400725A659A6D22F4CF
:104EB000706242F400729A65DA6D22F4706242F414
:104EC0000072DA65DA6822F4706242F48072DA60A5
:104ED00003F580539A6A22F4706242F400729A6277
:104EE000DA6A22F4706242F40072DA625A6922F4D9
:104EF000706242F480725A61224A136823F470632C
:104F000043F480731360204B5A6822F4706242F4B9
:104F100000725A609A6C22F4706242F480629A6461
:104F2000DA6C22F4706242F48062DA649A6822F4E5
:104F3000706242F400729A60DA6822F4706242F49D
:104F40000072DA601A6922F4706242F480721A61A7
:104F500005B030BD090038100A0038100B003810B9
:104F60000C0038100D003810D581001040F00F40B3
:104F700080F00F40C0F00F4000F10F40009004405F
:104F800000A0044000C0044000D004400A4808B516
:104F9000FFF72AFF00230721084A184661F30B2375
:104FA00061F30B2006491080938041F210028B5868
:104FB00023F00F038B5008BD0A00381000A00440F6
:104FC0000070044010B50F4904460F4802F095F9EF
:104FD0000C49204602F091F90C49D1F88030013B90
:104FE000002BC1F8803008DB8B6F5A1C8A670A22BD
:104FF0001A70BDE8104000F00BB878310A2002F0BA
:105000009BF8F6E754460020D7810010DC450020CD
:1050100018200149ABBE7047260002002DE9F0417F
:10502000D5685769EB0280460E46144605D53846CA
:1050300002F090FB45F01005A061124B2B408BB1A4
:10504000A169384602F098FB002806DAE36843F0CD
:105050008003E3604FF0FF3011E025F4003525F0C8
:105060001005E56032464146384602F091FB20F0DB
:105070000041761AA1690E44A6610028E6D1BDE878
:10508000F08100BF10000200F8B5304E34680028EF
:1050900051D10020F8BD2368B3F1805F39D1D4E944
:1050A000013252B11168B1F1805F06D1516803330A
:1050B0000B4463609368A360F1E7AB4207DB9E4556
:1050C00005DB20464FF0005340F80C3BE2E7634518
:1050D00011D920464FF00051656040F80C1B5B1B56
:1050E00000EB8501A160033B4FF0805440F8254060
:1050F000C1E90132CEE762B9A0EB830000F0E8FF1E
:105100000130C6D04FF00053C4E9003504F10C0063
:10511000C0E72746A468002CBDD10C3000F0D8FFB2
:10512000431CB6D04FF00053C0E90035846057B936
:1051300030600C30AEE7C31C9D08002705F10A0C57
:1051400005F1030EE7E7B860F3E700BF94460020DF
:1051500010B5FFF799FF044628B90449172202F059
:1051600017FBFFF755FF204610BD00BFEC81001074
:105170002DE9F843C6683D4B334004460D46904642
:105180001BB902273846BDE8F883D0F8149048468A
:1051900002F0E6FA07460028F3D1B8F1010F2CD04F
:1051A000B8F1020F2ED0B8F1000FEAD1002DE8DBE4
:1051B000B00404D52368E26A9A4238BFE362A16969
:1051C000A9420EDC2368E26A934238BF1346226983
:1051D0005818801AA84204DB206B01EB000CAC4588
:1051E00034DC0023C4E9013346F02006A56226F42E
:1051F000032626F04006E660C4E7204600F038F8B3
:105200000544D3E7484602F0A5FAB0F1000CE26885
:1052100004DA42F08002E2600127B3E7236818460F
:10522000A3691946E36A98422CBF0918C9180B46AE
:1052300021699206A3EB010303D5A26A9342B8BF8A
:1052400013466345ACBFED186544AFE76D1AB1076F
:1052500044BF281AA060F10744BF9B1AEB1A1544FB
:1052600048BF6360256026F02006C0E703001000F9
:10527000C3689A0705D10E4B21221A604FF0FF3008
:10528000704703F020021B0309D512B1806A013870
:1052900070470368826900691344181AF7E70AB176
:1052A000806A70470368826900691344181A70475E
:1052B0009846002010B5174A1749002002F0CCF894
:1052C0004FF480734FF480620021124802F04FF8CF
:1052D000124A1349012002F0BFF84FF480730F48BF
:1052E0004FF48062002102F042F80E4B1B68022B43
:1052F0000EDD0D4A0A49022002F0AEF8BDE810406A
:1053000009484FF480734FF48062002102F02FB8F7
:1053100010BD00BFDC4500200482001018460020AC
:1053200006820010C8780010544600202DE9F04F86
:105330009FB0CDE90823299F002304460793DDF899
:10534000A09019F8010B18B907981FB0BDE8F08FAD
:1053500025281CD0079BDDE908AB1946DA175E1C2F
:105360005145134673EB0B030A4608DAA368013B69
:10537000002BA36007DB23685A1C22601870079675
:10538000CDF8A090DBE7214601F0D6FEF7E74FF01D
:10539000000815E0BAF12D0F0FD0BAF1300F51D03F
:1053A0004FF0000B0A22AAF13003D9B2092926D8FE
:1053B00015F801AB02FB0B3BF5E748F00108A946E5
:1053C0004D4615F801ABBAF12B0F32D0E2D8BAF145
:1053D000200F31D0BAF1230F31D0BAF12A0FDFD12B
:1053E0003E4695F800A056F804BBBBF1000FBCBFC9
:1053F000CBF1000B88F00108374609F102052BEAD2
:10540000EB73BAF12E0F0C9340F0A38095F800A037
:10541000BAF12A0F19D001354FF000090A22AAF17A
:105420003003D9B2092917D815F801AB02FB0939A5
:10543000F5E748F00208C2E748F00408BFE748F083
:105440000808BCE748F40078B9E73E4695F801A0A3
:1054500056F8049B02353746B9F1000F79DB48F066
:105460001008BAF16C0F0DD195F800A0BAF16C0FCD
:1054700003BF95F801A048F060080235013518BF58
:1054800048F02008BAF14C0F02D0BAF1710F63D185
:1054900015F801AB48F06008BAF1780F0CDCBAF1EE
:1054A000570F7BDCBAF1410F00F0118300F3C0808D
:1054B000BAF1000F00F01A810C9B5E1E18F0010378
:1054C000049340F0F280079B18F4007F14BF302251
:1054D000202298464FEAE379013E40F1CB800C9BB5
:1054E000079ABBF1000F03F1FF33CCBF1846002031
:1054F00010440C9AC3F10003A2F10202D8BF0023AA
:105500009E18431C0793DDE90823C117904271EBF5
:1055100003030ADAA268013A002AA260C0F2C78037
:105520002268511C216082F800A0049B7BB1079B7C
:10553000B34698464FEAE3794FF0200ABBF1010BDE
:1055400040F1BA80079B002EA8BF9B1907933E46E7
:10555000D9E04FF0000984E7BAF1680F0ED195F851
:1055600000A0BAF1680F03BF95F801A048F4807855
:105570000235013518BF48F080088DE7BAF16A0F8F
:1055800004D148F0400815F801AB85E7BAF17A0F6D
:10559000F9D0BAF1740F7FF47FAFF4E7AAF15803A2
:1055A000202B89D801A252F823F000BF73580010B5
:1055B000B9540010B9540010B9540010B954001077
:1055C000B9540010B9540010B9540010B954001067
:1055D000CF5A0010B95400106B560010675A0010D3
:1055E0003B5600103B5600103B560010B9540010BB
:1055F000675A0010B9540010B9540010B954001083
:10560000B9540010F15600109F5900103359001082
:10561000B9540010B95400102D570010B95400109F
:10562000F3590010B9540010B9540010D3580010A9
:105630002AF00203452B7FF43FAFFE1D26F007063C
:10564000F6E8022318F0100FCDE914234FF0000103
:105650004FF000024FF00003CDE9042308BF4FF0E4
:10566000060948F4806808466CE13E4656F804ABEB
:10567000374621E7DDE90801804579EB010308DAC7
:10568000A16801390029A16008DB2168481C20605D
:105690000A7018F1010849F100091DE7104621467A
:1056A0000A9201F049FD0A9AF3E7079829E7214693
:1056B000504601F041FD38E7DDE90823904579EBDC
:1056C000030309DAA268013A002AA26009DB226812
:1056D000511C216082F800A018F1010849F100096D
:1056E0002CE72146202001F027FDF5E7013D2EE7BC
:1056F00018F0400F3B68079A07F1040607D01046E0
:10570000D117C3E900013746A946079E37E618F0CE
:10571000200F01D01A60F6E718F4807F01D01A70CC
:10572000F1E718F0800FF5D01A80ECE73E46C24B47
:1057300056F804BBBBF1000F08BF9B46584601F06A
:1057400065FE18F0100F824602D04845A8BFCA4631
:105750000C9BA3EB0A0718F00103049312D1079BDB
:1057600018F4007F4FEAE379984614BF30222022D4
:105770003B46013B26D5079A27EAE7731A44013FC7
:105780000792FF1A079B98464FEAE3790023534597
:1057900035DB079BBAF1000FA8BF53440793049B66
:1057A000002BB0D0079BBA4698464FEAE3794FF0FA
:1057B000200BBAF1010A42D5079B002FA8BFDB19C5
:1057C0000793A0E7DDE90801804579EB010108DADC
:1057D000A16801390029A16008DB2168481C20600C
:1057E0000A7018F1010849F10009C2E71046214684
:1057F0000C930A9201F0A0FC0C9B0A9AF1E7DDE9F8
:105800000812884579EB02020ADAA268013A002AF6
:10581000A2600CDB2268511C21601BF80310117080
:1058200018F1010803F1010349F10009AFE71BF882
:1058300003000A93214601F07FFC0A9BF0E7DDE9B3
:105840000823904579EB030309DAA368013B002B99
:10585000A36009DB23685A1C226083F800B018F1AA
:10586000010849F10009A4E72146202001F064FC69
:10587000F5E718F0400F1BD0FE1D26F00706F6E8EE
:105880000223CDE9042318F0800119D0BDF81010CF
:105890000491002305936949694818F0080F08BF6F
:1058A000084618F0100F01D028F40078654949E047
:1058B0003E46002156F8042B1046CDE90401E2E7EC
:1058C00018F4807FE7D0049B03F0FF00CDE90401CA
:1058D000E1E718F0400F1BD0FE1D26F00706F6E8A2
:1058E0000223CDE9042318F0800119D0BDF810106F
:1058F0000491002305935149534818F0080F08BF3D
:10590000084618F0100F01D028F400784F4919E02C
:105910003E46002156F8042B1046CDE90401E2E78B
:1059200018F4807FE7D0049B03F0FF00CDE9040169
:10593000E1E73E46002156F8042B1046CDE904016C
:1059400042494148079BDDE908BCBBEB030B6CEB0C
:10595000E37CCDE9109016AF4FF0FF30CDE90ABCE3
:10596000CDE91200BC4600204FF0550E0130202832
:105970000CF801EBFAD118F4826F04BF01201090EB
:10598000BAF16E0F00F3AB80BAF1470F00F3298133
:10599000BAF1400F00F3B6804FF00009BCE018F0F8
:1059A000400F15D0FE1D26F00706F6E80223CDE9CC
:1059B000042318F0800113D0BDF8101004910023C7
:1059C0000593234818F0080F1C4908BF084666E0F5
:1059D0003E46002156F8042B1046CDE90401E8E7C5
:1059E00018F4807FEDD0049B03F0FF00CDE90401A3
:1059F000E7E718F0400F16D0FE1D26F00706F6E880
:105A00000223CDE9042318F0800123D0BDF8101043
:105A100004910023059318F0100102D028F40078B7
:105A2000002106488EE73E46002156F8042B10461A
:105A3000CDE90401E7E700BF08820010567B0010A3
:105A40000F82001019820010128200102A820010AA
:105A50001582001018F4807FDDD0049B03F0FF0056
:105A6000CDE90401D7E718F0400F0BBF3E46FE1DFD
:105A700056F8042B26F0070614BFF6E80223D317C6
:105A800018F0800F13D012B2D317002A73F100015F
:105A900012DA524263EB4303CDE90423BF4818F006
:105AA00010013FF44FAF28F4007800214AE718F4C2
:105AB000807FEAD052B2E7E718F0020FCDE9042365
:105AC00003D1B74818F0040F7EE7B648E7E718F0AF
:105AD000100F04BF48F010084FF00D09ADE5AAF112
:105AE0006F0A4FF00009BAF1090F15D8DFE81AF074
:105AF000CF00B80014001400140014003B0114007F
:105B00001400B800AAF141004FF0010909FA00F9A8
:105B100019F0510940F02A8118F480630D9300F0C8
:105B2000358100231093129B002BC4BF03F1FF3378
:105B30001093139B002B03DD109A013B1344109329
:105B4000109F119801F062FC0C9B4F44DF1B3B1A25
:105B5000049308F001030C9340F2012318EA030FA9
:105B600000F046810027BA464FEAE77B119B5A1C9A
:105B700011921B78002B40F043810C9AA2B918F4C3
:105B8000007FDDF8108014BF30222022BA464FEA91
:105B9000E77BB8F1010840F14E81049A511E22EAD8
:105BA000E272891A049117440D9A002A00F060816C
:105BB0004FF03008994500F373810C9B73B1DDF809
:105BC00010A0B8464FEAE7794FF0200BBAF1010A6E
:105BD00040F10682049B002BA8BFFF18079B3B44A3
:105BE000EEE5AAF1580011283FF6D6AE11283FF68F
:105BF000D3AE01A353F820F06B5C0010995900104C
:105C0000995900109959001099590010995900108C
:105C10009959001099590010995900106D5D0010A4
:105C20009959001099590010635D00106D5D0010C6
:105C30006D5D00106D5D001099590010635D0010DE
:105C4000049B03F00F0009F10109085C07F8010B40
:105C50001809059B40EA03704FEA131CCDE9040CB8
:105C6000DDE904231343EBD156E74FF00009F7E7D2
:105C7000049B03F00701303107F8011BD908059B8D
:105C800041EA4371D808CDE9041009F10109DDE9C1
:105C900004231343ECD13FE7049B049A5908059B66
:105CA0004FEA530C41EAC371049B4FEA930E059BE4
:105CB0004EEA837E11EB0E014FEA93004CEB00009D
:105CC0004FEA111E4EEA007E11EB0E014FEA101C46
:105CD00040EB0C004FEA112E4EEA006E11EB0E0164
:105CE0004FEA102C40EB0C004FEA114C4CEA004CF0
:105CF00011EB0C014FEA104E40EB0E000918049B0B
:105D00004FF0000C40EB0C004FEAD10C13F1060BE6
:105D10004CEA407C059B4FEAD00EACFB0A0143F1F4
:105D200000030AFB0E11BBEB000B63EB01004FEA13
:105D30001B1343EA007313EB0C0C4FEA101141EBF9
:105D40000E0E30320CEB8C03A2EB4302CDE904CEF5
:105D500007F8012B09F10109DDE9042313439BD165
:105D6000DAE64FF000094FF00A0AF5E713AB0393A8
:105D700012AB029310AB019311AB00932A9F4346E1
:105D800016AA14A95046B8478146C5E6109B0D9A3D
:105D9000B3EB090348BF1346D1E600BFF07B001008
:105DA000EC7A001017820010DDE90A128A457BEBBD
:105DB000020208DAA268013A002AA26011DB226816
:105DC000511C216017701AF1010A4BF1000BA3EB73
:105DD0000A02002AE8DA049A22EAE277DB1B04933B
:105DE000C1E6214620200E9301F0A6F90E9BEAE7BA
:105DF000049B4FF0000A4FF0000B013B2027E6E721
:105E0000DDE90A128A457BEB020207F1010708DA95
:105E1000A268013A002AA26008DB2268511C2160B6
:105E200013701AF1010A4BF1000B9FE62146184648
:105E300001F082F9F5E7DDE90A0182457BEB01011A
:105E400008DAA16801390029A16008DB2168481C33
:105E500020600A701AF1010A4BF1000B99E6104616
:105E600021460F930E9201F067F9DDE90E23F1E769
:105E7000BA464FEAE77B4FF03008109B013B002BFE
:105E8000109375DABA464FEAE77B4B46002B03F1D5
:105E9000FF3800F38980B9F1000FA8BF4F448CE6AA
:105EA00016AABA46D05C3C284FEAE77B33D03E289E
:105EB00046D1139A013A002A139231DBDDE90A1226
:105EC0008A457BEB020207F1010709DAA268013A71
