:105C00006B422E41494F00000000000000000000E0
:105C10005F492403190D890BC05B68F4005D000027
:045C200070F0000020
:105D00000030002081780000917800009178000038
:105D10000000000000000000000000000000000083
:105D2000000000000000000000000000917800006A
:105D30000000000000000000917800009178000051
:105D400035D1000025D1000015D1000005D100009B
:105D5000917800009178000091780000917800001F
:105D6000FDD0000049D0000091780000917800003B
:105D7000917800009178000051D0000091780000E7
:105D800091780000917800009178000091780000EF
:105D9000917800009178000095D000009178000083
:105DA00091780000917800009178000091780000CF
:105DB000D5D0000091780000917800009178000023
:105DC000EEEEEEEEEEEEEEEEEEEEEEEEEEEEEEEEF3
:105DD000EEEEEEEEEEEEEEEEEEEEEEEEEEEEEEEEE3
:105DE000EEEEEEEEEEEEEEEEEEEEEEEEEEEEEEEED3
:105DF000EEEEEEEEEEEEEEEEEEEEEEEEEEEEEEEEC3
:1060F000EEEEEEEEEEEEEEEEEEEEEEEEEEEEEEFFAF
:10610000FFFFFFFFFFFFFFFFFFFFFFFFFE3DFFFF62
:1061100010B5064C2378002B07D1054B002B02D07D
:10612000044800E000BF0123237010BD60F1FF1F91
:1061300000000000ECEE000008B5084B002B03D077
:106140000748084900E000BF07480368002B03D058
:10615000064B002B00D0984708BDC0460000000049
:10616000ECEE000064F1FF1F58F1FF1F000000007B
:10617000164B002B00D1144B9D46402292029A1AD6
:10618000924600218B460F461348144A121A07F014
:106190000BF90F4B002B00D098470E4B002B00D073
:1061A00098470020002104000D000D48002802D06F
:1061B0000C4800E000BF07F0D1F82000290001F0F2
:1061C0001BFC07F0A3F8C0460000080000300020C8
:1061D000000000000000000060F1FF1F940100209B
:1061E000000000000000000002B4714649084900A8
:1061F000095C49008E4402BC7047C0468446081CB6
:106200006146FFE71FB500F0C7FB002801D400215D
:10621000C8421FBD10B500F04DFB4042013010BD1B
:1062200010B500F0B9FB002801DB002010BD0120F3
:1062300010BDC04610B500F0AFFB002801DD002006
:1062400010BD012010BDC04610B500F05DFB002858
:1062500001DC002010BD012010BDC04610B500F0CB
:1062600053FB002801DA002010BD012010BDC046FC
:10627000002B11D1002A0FD1002900D1002802D013
:106280000021C943081C07B4024802A1401802902B
:1062900003BDC0466117000003B4684601B502980B
:1062A00000F05CF8019B9E4602B00CBC7047C046F3
:1062B0009C460304F0B51B0C17043F0C150C1E1C68
:1062C000041C000C7E436B4347434543FB18300CD2
:1062D0001818874202D980235B02ED18030CED18D1
:1062E00063465C434A433604360CA1180004801907
:1062F0004919F0BD9E2110B5C905041CFFF7AEFF7A
:10630000002803D1201C00F033FE10BD9E21C905DA
:10631000201C00F0B7FC00F02BFE80231B06C018E9
:10632000F3E7C046F0B583B0161C1F1C0090019126
:1063300000F008FF041C0D1C221C2B1C301C391CF7
:10634000FFF7B6FF009A019B121A8B410899201C97
:106350000A604B60291C03B0F0BDC046F0B583B0A5
:10636000141C1D1C0090019101F0C8F8221C2B1C6C
:10637000061C0F1CFFF79CFF009A019B121A8B4111
:106380000899301C0A604B60391C03B0F0BDC04650
:10639000F8B543024400C50F4E024800240E2A1CE3
:1063A0009B09000EC90FB6098D425BD0221A002A44
:1063B00000DC89E000281DD1002E00D075E05807D0
:1063C00004D00F221A40042A00D004338021C904CB
:1063D00019402A1C00293AD00134FF2C00D17FE05B
:1063E0009B015B0A5B02E4B2E405580AD207204332
:1063F0001043F8BDFF2CE2D08021C9040E431B2AB4
:1064000000DD2DE1311C2020D140821A9640721E01
:1064100096410E439B1B5801D1D59B019F09381C07
:1064200000F072FE421F974094425BDC141B1F2356
:106430001B1B3A1C9F40611C3B1CCA405F1EBB419A
:1064400013430024BBE7131EB9D100230022DB084D
:10645000FF2C04D1002B43D08020C00303435B02F8
:106460005B0ABFE7211A002940DD002823D0FF2C5A
:10647000A5D08020C00406431B2900DDEEE0301CBF
:106480002027C840791A8E40711E8E4106439B1901
:10649000590100D493E70134FF2C55D071490122F2
:1064A0001A400B405B08134389E7013A002AB1D038
:1064B000FF2CA4D183E7002E00D180E70139002909
:1064C000E5D0FF2CD8D17AE7002A1BD1621CD2B2CA
:1064D000012A4BDD9F1B7A0123D5F71A0D1C9EE77D
:1064E00000237FE75F4BA41A3B4068E7002946D1B1
:1064F000611CC8B2012829DDFF2924D0F3185B08EC
:106500000C1C5CE7002C13D0FF2818D08024E40476
:10651000524223431B2A4DDD0123F31A041C0D1C98
:1065200079E7002F00D07AE70023002200248EE7CD
:10653000002B3BD0D243002AEFD0FF28EAD1331CF6
:10654000FF240D1C3BE7FF24002380E7002C5CD1D7
:10655000002B00D180E0002E00D130E79B195801BC
:1065600000D42CE73F4A0124134028E7002C15D122
:10657000002B40D1002E63D0331C0D1C1FE7002CD4
:1065800021D1002B54D0C943002904D0FF284CD07E
:106590001B2958DD01239B19041C79E7002B19D115
:1065A000002E48D0331C0D1CFF2408E7331C041CAC
:1065B0000D1C04E71C1C2025D440AA1A93405A1E27
:1065C00093412343A9E7FF282FD08024E4044942C4
:1065D0002343DDE7FF24002E00D1F0E68022DB0814
:1065E000D203134204D0F608164201D1331C0D1C0D
:1065F000DB00FF24E3E6002E00D1E0E69A1B500109
:1066000000D420E7F31A0D1CD9E6002B0DD0FF248F
:10661000002E00D1D3E68022DB08D2031342E7D05C
:10662000F6081642E4D1331CE2E7331CFF24C6E629
:10663000331C041CC3E6802300229B04FF2406E7CE
:10664000231C002203E71C1C2027CC40791A8B4016
:10665000591E8B4123439EE7331CB0E6012616E703
:106660000126D7E6FFFFFFFBF0B55F4656464D46D5
:106670004446F0B446024500C00F85B00F1C760AB0
:106680002D0E804641D0FF2D26D0802424040021E9
:106690002643F6007F3D89468B46F90F7C02780041
:1066A000640A000E00918A463CD0FF2834D0802333
:1066B0001B041C430023E4007F380193009F4346E2
:1066C000019A7B4049469C4611430F2900D971E04D
:1066D000764F89007F58BF46002E3ED10822022304
:1066E00091469B46D9E75A46341CC246019201990D
:1066F000022937D0032900D1CFE0012900D0ABE037
:1067000053460B400022002632E0002E19D104210E
:10671000012289469346C0E7221C531E9A41023249
:106720000192CBE701270197002CC7D0201C00F075
:10673000EBFC431F9C4076235B420021181A019119
:10674000BCE7301C00F0E0FC7625431F9E406D4204
:1067500000232D1A99469B469FE70C230321994657
:106760008B469AE7D446012367463B40FF2200262A
:106770007602D205700ADB071043184305B03CBC13
:1067800090469946A246AB46F0BD80260023F6030C
:10679000FF22EDE700220026EAE78020C003064240
:1067A0003BD0044239D1061C26437602760A009B70
:1067B000FF22DDE7281A039076016401A64239D34F
:1067C000361B1A2201230120311C5B0076000029B0
:1067D00001DBB44201D8361B0343013A002AF3DC43
:1067E000741EA641341C1C43039A7F32002A27DD05
:1067F000630704D00F232340042B00D00434270167
:1068000003D52B4B039A1C408032FE2A0BDD01235B
:1068100061460B40FF220026AAE706437602760A6D
:106820004346FF22A4E7A40101236746660AD2B2C9
:106830003B409DE7039F1B22013F03970023C2E7D4
:106840007E23039F5B42DB1B1B2B07DD012361467D
:106850000B40002200268BE7D446C5E7221CDA4015
:10686000039B9E339C40231C5C1EA34113435A0789
:1068700004D00F221A40042A00D004335F0105D54A
:10688000012361460B400122002671E79E0162460A
:1068900001231340760A00226AE78026F603264386
:1068A0007602760A5346FF2262E7C04670E3000094
:1068B000FFFFFFF74A02430270B55C0A550A430026
:1068C0004A001B0EC60F120EC90FFF2B05D0FF2A60
:1068D00008D0012093420BD070BD0120002CFBD1C9
:1068E000FF2AF6D10120002DF6D101209342F3D1E9
:1068F000AC42F1D18E4205D0002BEDD1201C441EBC
:10690000A041E9E70020E7E74A024302F0B55C0A4C
:10691000550A43004A001B0EC60F120EC90FFF2B6B
:1069200031D0FF2A34D0002B16D16042604184461A
:10693000002A14D0002820D18E4217D1934215DCB2
:1069400004DBAC4212D80020AC4212D2704270413B
:106950004042012318430CE0002AEDD194466F42D7
:106960006F416046002805D1002FE5D07042012319
:106970001843F0BD0020002FFBD14842484140425F
:1069800001231843F5E7002CCBD002204042F0E76A
:10699000002DC8D0F9E7C0464A024302F0B55C0AB0
:1069A000550A43004A001B0EC60F120EC90FFF2BDB
:1069B00027D0FF2A29D0002B10D0002A15D19446C9
:1069C0006F426F416046002815D00020002F04D18F
:1069D00048424841404201231843F0BD60426041B3
:1069E0008446002AECD00028F2D18E4211D07042A9
:1069F00001231843F1E7002FF7D070420123184319
:106A0000EBE70220002CE8D1D3E70220002DE4D1EF
:106A1000D1E79342EBDC04DBAC42E8D80020AC4287
:106A2000DBD270427041404201231843D5E7C04693
:106A3000F0B55F4656464D464446F0B44402460023
:106A400083B00F1C640A360EC50F002E41D0FF2EF6
:106A500022D080231B0400201C43E4007F3E82469A
:106A60008046391C4B007F02C90F7F0A1B0E8B46E4
:106A70003BD0FF2B34D0802212041743FF007F3B12
:106A800000215A466A40019252460A430F2A63D8AF
:106A90007A48920082589746002C3FD10822022360
:106AA00092469846DDE70195404602282AD1019A90
:106AB00001251540FF2300246402DB05600AED0771
:106AC0001843284303B03CBC90469946A246AB46C7
:106AD000F0BD002C27D10420012282469046C0E759
:106AE000391C4A1E91410231CBE70121002FC8D049
:106AF000381C00F009FB431F9F4076235B421B1AA2
:106B00000021BEE7032800D1AEE001284FD1019853
:106B100042461040C5B200230024CDE70C230320D9
:106B20009A4680469DE7201C00F0EEFA7626431F29
:106B30009C4076420023361A9A46984691E7802474
:106B40000025E403FF23B7E75B463C1C019388461E
:106B5000AAE73C1C8846A7E7250C24043A0C240C21
:106B60003F04F6183F0C211C231C794353436F4309
:106B70005543FB180A0C9B18B1469F4202D980224C
:106B80005202AD1809041A04090C521894011B0C86
:106B9000611E8C41920EED181443AD012C4323016C
:106BA00005D5012263080120144081441C434B4653
:106BB0007F33002B2DDD600704D00F222240042AF2
:106BC00000D00434220103D52D4B1C404B468033AA
:106BD000FE2B17DD019B01251D400024FF236BE7E1
:106BE0008020C003044208D0074206D1041C3C4365
:106BF0006402640A5D46FF235EE704436402640A9C
:106C0000FF2359E70198A4010125640ADBB205407E
:106C100052E77E235B424A469B1A1B2B05DD019BF4
:106C200001251D400024002346E7221CDA404B4684
:106C30009E339C40231C5C1EA3411343580704D081
:106C40000F221A40042A00D004335A0105D5019BB3
:106C500001251D40002401232EE701989C010125F8
:106C6000640A0540002327E78027FF03019B3C437C
:106C7000640201251D40640AFF231DE7B0E3000004
:106C8000FFFFFFF7F8B5C20F430244004D02480072
:106C9000240E161C9B09000EC90FAD09FF2800D158
:106CA00083E0012779408A425CD0221A002A00DC66
:106CB0008EE000281ED1002D00D07AE0580704D0C5
:106CC0000F221A40042A00D004338021C904012273
:106CD0001940324000293AD00134FF2C00D183E022
:106CE0009B015B0A5B02E4B2E405580AD207204329
:106CF0001043F8BDFF2CE1D08021C9040D431B2AAD
:106D000000DD31E1291C2020D140821A95406A1E05
:106D100095410D435B1B5801D0D59B019F09381C41
:106D200000F0F2F9421F974094425FDC141B1F23CE
:106D30001B1B3A1C9F40611C3B1CCA405F1EBB4191
:106D400013430024BAE7131EB8D100230022DB0846
:106D5000FF2C04D1002B47D08020C00303435B02EB
:106D60005B0ABFE7211A002944DD002827D0FF2C49
:106D7000A4D08020C00405431B2900DDF2E0281CBC
:106D80002027C840791A8D40691E8D4105435B1943
:106D9000590100D492E70134FF2C59D073490122E4
:106DA0001A400B405B08134388E7002D00D07AE7B8
:106DB00077E7013A002AADD0FF2CA0D17EE7002D65
:106DC00000D17BE701390029E1D0FF2CD4D175E750
:106DD000002A1BD1621CD2B2012A4BDD5F1B7A0153
:106DE00023D5EF1A0E1C9AE700237BE75F4BA41A0A
:106DF0003B4063E7002946D1611CC8B2012829DD68
:106E0000FF2924D0EB185B080C1C57E7002C13D08B
:106E1000FF2818D08024E404524223431B2A4DDD6E
:106E20000123EB1A041C0E1C75E7002F00D076E737
:106E30000023002200248AE7002B3BD0D243002A03
:106E4000EFD0FF28EAD12B1CFF240E1C36E7FF24CD
:106E500000237CE7002C5CD1002B00D180E0002DCA
:106E600000D12BE75B19580100D427E73F4A0124E2
:106E7000134023E7002C15D1002B40D1002D63D007
:106E80002B1C0E1C1AE7002C21D1002B54D0C94317
:106E9000002904D0FF284CD01B2958DD01235B19A1
:106EA000041C75E7002B19D1002D48D02B1C0E1C9B
:106EB000FF2403E72B1C041C0E1CFFE61C1C2026D1
:106EC000D440B21A93405A1E93412343A9E7FF28A6
:106ED0002FD08024E40449422343DDE7FF24002D22
:106EE00000D1EBE68022DB08D203134204D0ED0888
:106EF000154201D12B1C0E1CDB00FF24DEE6002D09
:106F000000D1DBE65A1B500100D41CE7EB1A0E1C23
:106F1000D4E6002B0DD0FF24002D00D1CEE6802238
:106F2000DB08D2031342E7D0ED081542E4D12B1C55
:106F3000E2E72B1CFF24C1E62B1C041CBEE68023C9
:106F400000229B04FF2402E7231C0022FFE61C1CF6
:106F50002027CC40791A8B40591E8B4123439EE752
:106F60002B1CABE6012512E70125D3E6FFFFFFFB53
:106F70004302590A4300C20F1B0E00207E2B0DDD79
:106F80009D2B0CDC802000040143952B0ADC96200D
:106F9000C31AD9404842002A00D1081C7047034B4D
:106FA000D018FBE7963B9940F4E7C046FFFFFF7F10
:106FB00070B5041E3CD0C60F00D04442201C00F027
:106FC000A3F89E23251C1B1A962B0CDC0838844042
:106FD0006402640ADBB2321C6402DB05600AD20779
:106FE0001843104370BD992B0ADD0522121A211C8B
:106FF000D1400A1C011C1B318D40691E8D41154377
:10700000052801DD421F9540164C2C406A0704D02C
:107010000F221540042D00D0043461010CD59F23AC
:10702000181AFF281AD0A401640AC3B2321CD3E78D
:10703000002200230024CFE7E408FF2B04D06402E1
:10704000640ADBB2321CC7E7002C04D08020C003E6
:1070500004436402640A321CFF23BDE7321CFF2391
:107060000024B9E7FFFFFFFB10B5041E33D000F08A
:107070004BF89E231B1A962B09DC083884406402C7
:10708000640ADBB26402DB05600A184310BD992B69
:107090000ADD0522121A211CD1400A1C011C1B31D9
:1070A0008C40611E8C411443052801DD421F944031
:1070B000144A2240610704D00F210C40042C00D058
:1070C000043251010AD59F23181AFF2816D09401C3
:1070D000640AC3B2D6E700230024D3E7D208FF2B0B
:1070E00003D05402640ADBB2CCE7002A06D0802425
:1070F000E40314436402640AFF23C3E7FF2300246C
:10710000C0E7C046FFFFFFFB1C2101231B04984280
:1071100001D3000C10391B0A984201D3000A083928
:107120001B09984201D30009043902A2105C4018DF
:107130007047C04604030202010101010000000083
:1071400000000000F0B544465F4656464D46F0B498
:107150001C1C85B0002900DADBE00F1C0021061C96
:107160008A46101C191C002C00DAC9E00196009018
:1071700089468046002951D1B84200D871E0FFF716
:10718000C3FF002809D020234546311C1B1A854027
:107190008740D940A8460F4386404246150C130449
:1071A0001B0C291C381C9B4600F076FB5B464343B6
:1071B000041C291C381C994600F0B2FB330C08044F
:1071C0001843814509D94044631E804500D978E1C0
:1071D000814500D875E1023C40444946411A894640
:1071E000081C291C00F058FB5A464243071C291C66
:1071F0004846934600F094FB36040904360C0E43CF
:10720000B34507D946447B1EB04502D8023FB3457B
:1072100000D81F1C24042743002403E0B94211D9DD
:10722000002400275246381C211C002A03D03B1C96
:1072300000215842A14105B03CBC90469946A24667
:10724000AB46F0BD081CFFF75FFF041E00D0BFE097
:10725000B94500D242E1019D0099071C8D4247418A
:10726000E0E7002804D10120002100F015FB804652
:107270004046FFF749FF002852D1414644460B04DF
:107280003C1B1B0CA3460D0C00930124291C5846E3
:1072900000F002FB009F81464743291C584600F03E
:1072A0003FFB330C090419438F4208D94B46414434
:1072B000013B884502D88F4200D91AE19946C91B83
:1072C0008B46081C291C00F0E7FA009B291C43434D
:1072D000071C5846009300F023FB3604009D090468
:1072E000360C0E43B54207D946447B1EB04502D842
:1072F000023FB54200D81F1C49460E04374391E7B0
:107300005246D243031C0C1C924600215842A14114
:107310002CE7002746428F41012149428A4620E757
:1073200020231B1A4246351C82403C1CDD40DC40B9
:1073300087402B1C150C3B43291C8640201C0093C6
:107340001704904600F0A8FA3F0C011C79438146CF
:107350008B46201C291C00F0E3FA009C0904230C36
:1073600019438B450CD94B464144013B884500D914
:10737000BDE08B4500D8BAE002225242914441441C
:107380005C460C1B201C291C019400F085FA391C5A
:107390004143041C8B460198291C00F0C1FA009A55
:1073A000090413041B0C19438B4509D94144631E7E
:1073B000884500D997E08B4500D894E0023C4144D1
:1073C0005B46CB1A49469B460B041C4300975DE77E
:1073D000009D20231B1A4A468240DD401543391C7C
:1073E000009AD94082408846311C0092D9403A1C0C
:1073F00082400B1C134301932F0C2B041B0C391CD4
:107400004046029300F048FA029A81464243391CF2
:107410004046934600F084FA019A0904130C19437C
:107420008B450AD94B464919013B8D425DD88B45A6
:107430005BD902235B42994449195A468A1A101CA7
:10744000391C039200F028FA029B80464343391C02
:1074500003989B4600F064FA019A090413041B0C7C
:1074600019438B450AD943464919013B8D4238D807
:107470008B4536D902235B42984449195D464D1B22
:10748000AB464946009D0F04424617432A04120C9E
:107490003B042D0C1B0C380C111C594342436B430D
:1074A0006843D3180D0C5B198C469A4202D980228E
:1074B000520280181D0C401983450CD303D00024C0
:1074C000B0E61C1C89E665462A041B04120C9B18B6
:1074D000A6409E42F3D2013F0024A3E600240127E8
:1074E000A0E69846CAE71C1C6AE79946A5E79946B4
:1074F00046E70222524291444144E0E6F0B55F463D
:1075000056464D464446F0B40D1C85B0061C9246C6
:1075100098460290019103921F1C141C8346A946B1
:10752000002B59D1AA4269D9101CFFF7EDFD0028A4
:107530000AD020231B1A311CD94085400B1C2B4339
:10754000864084409946B346250C23041B0C291C15
:107550004846984600F0A0F94646071C4643291CB9
:10756000484600F0DDF95A460904130C19438E42CF
:1075700009D909197B1E8C4200D957E18E4200D8E7
:1075800054E1023F0919891B8946081C291C00F097
:1075900083F943464343061C291C4846984600F09D
:1075A000BFF95A46130409041B0C1943884508D92E
:1075B0000919731E8C4200D936E1023E884500D875
:1075C00032E1380430430027391C05B03CBC9046FA
:1075D0009946A246AB46F0BD019A934262D8181C68
:1075E000FFF792FD041E60D1019B9F4200D22CE167
:1075F000029F03998F4260410027E5E7002A04D1EA
:107600000120002100F048F9041C201CFFF77CFD3C
:10761000002800D0B9E023042D1B1B0CA946260C22
:1076200098460127311C484600F036F9414641434F
:10763000051C8A464846311C00F072F95A46080477
:10764000130C1843824507D900196B1E844202D8D7
:10765000824500D910E11D1C5346C31A181C311C69
:107660009A4600F019F94146414381468846504602
:10767000311C00F055F95A46130409041B0C194338
:1076800088450BD94B460919013B8C4200D9CFE004
:10769000884500D8CCE002235B429944280449463F
:1076A000084391E7002700208EE720231B1A42465B
:1076B00057468240DF401743524682400192321CB7
:1076C000DA40291CD9408540131C2B4302933D0C02
:1076D0003B041B0C8846081C291C9A4600F0DCF869
:1076E000534643438146291C40469B4600F018F907
:1076F000029A0904130C19438B4506D94B46C91944
:10770000013B8F4200D8ABE099465A468A1A101CBA
:10771000291C934600F0C0F853464343291C804679
:1077200058469A4600F0FCF8029A090415042D0CFC
:1077300029438A4506D94346C919013B8F4200D8DF
:1077400086E098465746CF1BBA464946019F080433
:10775000424610433D042D0C03043F0C1B0C020C4D
:10776000291C594355437B437A43EB180F0CDB1913
:107770008C469D4202D980277F02D2191D0C5219D6
:1077800092455FD356D000271EE720231B1A311CD9
:107790002F1CD940DF4085400B1C84402B43864082
:1077A0000193B3462304260C1B0C381C311C98464D
:1077B00000F072F842464243051C311C381C9146C9
:1077C00000F0AEF8019F09043B0C1943894507D925
:1077D00009196B1E8C424DD889454BD9023D0919B8
:1077E0004A468A1A101C311C924600F055F843464E
:1077F0004343071C311C5046994600F091F8019A0A
:10780000090413041B0C1943894507D909197B1E68
:107810008C422DD889452BD9023F09194B46CB1AEA
:107820002D0499462F43FDE61E1CCAE61F1CAAE63E
:10783000994633E761460A041B04120C9B18A640C4
:107840009E42A0D201380027BEE600270120BBE6F9
:107850008A4500D875E702235B429844C91971E74D
:107860008B4500D850E702235B429944C9194CE785
:107870001F1CD3E71D1CB3E7023D0019ECE6C04610
:1078800072B605F0C9FC05F0CFFC62B6FEF770FCDD
:107890000048004791780000002934D001230022DD
:1078A00010B488422CD301242407A14204D281427F
:1078B00002D209011B01F8E7E400A14204D281428F
:1078C00002D249005B00F8E7884201D3401A1A430C
:1078D0004C08A04202D3001B5C0822438C08A04243
:1078E00002D3001B9C082243CC08A04202D3001BF9
:1078F000DC082243002803D01B0901D00909E3E773
:10790000101C10BC7047002801D00020C04307B4F1
:10791000024802A14018029003BDC046D9000000F1
:107920000029F0D003B5FFF7B9FF0EBC4243891A16
:107930001847C046002941D010B4041C4C40A4464E
:1079400001230022002900D54942002800D54042E9
:1079500088422CD301242407A14204D2814202D2BE
:1079600009011B01F8E7E400A14204D2814202D2DE
:1079700049005B00F8E7884201D3401A1A434C08DB
:10798000A04202D3001B5C0822438C08A04202D311
:10799000001B9C082243CC08A04202D3001BDC0839
:1079A0002243002803D01B0901D00909E3E7101C7A
:1079B0006446002C00D5404210BC7047002806D019
:1079C00003DB0020C043400801E08020000607B42C
:1079D000024802A14018029003BDC04619000000F1
:1079E0000029EBD003B5FFF7A7FF0EBC4243891A6D
:1079F0001847C0467047C046F0B5BD4BBD4DBE4AA6
:107A0000BE4CAB50BE4BA544997900211972802120
:107A10001976587801218843014359700221197061
:107A2000597899790C20014089080091F9D1802377
:107A30005B02AB502A68B34B802013402B60B24AE4
:107A4000B24B80001A60B24B80241A686400024373
:107A50001A6019688022D2000A431A6019688022CD
:107A600012010A431A601968802252010A431A60FF
:107A70001968802292010A431A60A64AA64B5168EF
:107A800006AF194021435160116B19402143116326
:107A9000516B194021435163916C19409164D16C31
:107AA0001940D1641169194021431161516919408C
:107AB0002143516199490A681A4022430A604A6881
:107AC0001A4022434A600A6C1A4022430A644A6CF4
:107AD0001A4022434A64CA6C1A402243CA648A6824
:107AE0001A4022438A60CA681A402243CA608C4AFC
:107AF00016681E402643166056681E402643566090
:107B0000966A1E4006439662D66A1E400643D662B7
:107B100096681E4026439660D6681E402643D6606F
:107B200016691E402643166156691E40064356617B
:107B300096691E4006439661D6691E403043D06167
:107B4000506A184020435062764A1068184020431B
:107B5000106050681840204350609668C0201E4056
:107B6000800006439660D6681E403043D06010699E
:107B70006D4E1840204310615069184020435061F9
:107B80009069184020439061D06918402043D0612B
:107B9000664A10681840204310605068184020431F
:107BA0005060106C18401064506C18405064906C19
:107BB00018409064D06C1840D064106D1840106567
:107BC000506D18405065906D18409065D06D18400C
:107BD000D065506E184020435066D06F1840204347
:107BE000D0678A6C134023438B6402F001FC326837
:107BF00080231B04134333604D4B02211A684D4808
:107C00008A431A601A68012102601A680A431A60DE
:107C10001B68009903600C22381C05F0C5FB032388
:107C2000BB71454B0122BB603A7003F0E1FB391C8C
:107C3000021C424802F0D2FD336802200343336045
:107C40003F4B1A6814431C6005F0BAFA0099882368
:107C50005B010C200691B980E850FC231B02394AD5
:107C600039481968D21812181160384A04339342FF
:107C7000F5D1FC231B021B6803AC052B0AD0344D45
:107C80000021281C202205F08FFB281C314905F01B
:107C900016FB6CE0FE231B021D68691C67D0201CCC
:107CA00000210A2205F080FB002D55D00926281C52
:107CB0000A21FFF735FE281CB9550A21FFF7ECFD14
:107CC000051C013EF3D20022131CF95C002902D0EE
:107CD000002A02D1DAB2002A02D0981A3031215497
:107CE00001330A2BF1D19B1A0022E25436E0C04640
:107CF000000007100070044044100000E4FCFFFF87
:107D000000400640FFFFF3FF006CDC0220F0FF1F85
:107D10003880044000900440FFF8FFFF00A00440BA
:107D200000B0044000C004403C80044000D0044047
:107D300000700340ECF7FF1F20A107000060074020
:107D40004080044098F9FF1F0004FFFF48FC00003A
:107D500058F0FF1F08E6000030232370D44DD549AA
:107D6000281C05F09FFA281C211C05F09BFA012312
:107D7000221CD14812212370637003F0E5FA221C03
:107D8000CE48022103F0E0FA221C0021CB4803F088
:107D9000DBFA381C04F0FAF806AB1B78C84C002557
:107DA0003D80381C237004F02EF9C64E3B78301C01
:107DB000637005F0DFF9C44805F0DCF97069A8428A
:107DC00026D0C24C001B4342584140B205F0C4F9D2
:107DD0006069431E984140B205F0BEF92069431E18
:107DE000984140B205F0B8F9A069431E984140B2ED
:107DF00005F0B2F96269082393426D4168B205F05B
:107E0000ABF92368B24898428041404205F0A4F99A
:107E10003069002837D0AF4C0025001B4342584141
:107E200040B205F099F9A07C0826431E984140B263
:107E300005F092F9207C4342584140B205F08CF99C
:107E4000607C4342584140B205F086F92068431EE9
:107E5000984140B205F080F9A37C80225B0152007A
:107E6000281C9A42684140B205F076F9A37C281C90
:107E70009E42684140B205F06FF9A37C9E426D417D
:107E800068B205F069F9944B944C1A68944B002140
:107E90001B6821708A4203D0012A06D10222227077
:107EA000012B02D12278134323702378D80701D500
:107EB00002F03AF92378990701D501F051FF2378B0
:107EC000002B27D0874A884B1A6003F091FA754B34
:107ED000734A0021FEF7ECF9734A744BFEF7C8F9B8
:107EE000824B022158605A6881480260DA688148F2
:107EF0000A43DA60C521804A890054582040802412
:107F00002404204350508021C9031160DA68012104
:107F10000A43DA60794A00251368013B022B42D8F4
:107F20000123654813213A1C3B707B7003F00CFA67
:107F3000032162483A1C03F007FA7049704C0E683E
:107F40006570281C04F09AF800280ED0032E2AD859
:107F5000301CFEF749F902040608002304E001235F
:107F600002E0022300E0032363700135EDB2042D2B
:107F7000E7D100232370281C04F080F800280ED0DD
:107F8000032E10D8301CFEF72FF902040608002338
:107F900004E0012302E0022300E003232370013503
:107FA000EDB2082DE7D1F8231B021B68534A00935A
:107FB00013680026013B022B01D8524AD65C524D71
:107FC0000024201C04F05AF8002801D02E7000E094
:107FD0002870201C03F0C8FF002802D004236B7017
:107FE00000E068700134E4B20235082CE9D1464D56
:107FF000201C03F0B9FF002802D006236B7400E0B8
:10800000687401340023E4B22B740235102CEFD1D4
:108010003E4B009898422BD13D4B3E481968FA18C8
:10802000121811603C4A04339342F6D1391C802265
:108030003A4805F020FF26A98022394805F01BFFA9
:1080400046A98022374805F016FF66A980223648E7
:1080500005F011FF86A98022344805F00CFF344852
:10806000A6A9802205F007FF324C0025261C02E05D
:1080700003F05EFCF8E7281C04F000F8002803D0A9
:1080800002232370A57001E02070A070281C03F06B
:108090006BFF002850D001236370E5704EE0C046AE
:1080A000D00700000000000040420F000000000068
:1080B00058F0FF1F0DE6000040F00F4080F00F4029
:1080C00024F0FF1F78F0FF1F30F0FF1F00F0FF1FAC
:1080D000CF070000A0F0FF1F1CFC000080F1FF1F75
:1080E00034FC0000B9C8000094F9FF1FFC70034085
:1080F000ECF7FF1FFFFF00FF00E100E044FC000081
:1081000050F7FF1F04E40000E0F8FF1FAAAAAAAA84
:1081100004F80000FC07FFFF04FB00005CF8FF1FF1
:1081200004F9FF1FCCF6FF1FC4F1FF1F6CFAFF1FFD
:1081300048F6FF1F81F1FF1F6070E0700135EDB25E
:108140000434082D97D1203600233370B370281CD7
:1081500003F00AFF002805D0022373702B1C083B94
:10816000F37001E07070F0700135EDB20436102D3F
:10817000EAD100240125E648211C3A1C3D707C70A0
:1081800003F0E2F8E34809213A1C03F0DDF8E04887
:1081900004213A1C03F0D8F8DD4805213A1C03F00D
:1081A000D3F8DB4806213A1C03F0CEF8D848072163
:1081B0003A1C03F0C9F8D848211C3A1C03F0C4F853
:1081C000D548291C3A1C03F0BFF8D34819213A1CA2
:1081D00003F0BAF8D0481F213A1C03F0B5F8CF4895
:1081E000291C3A1C03F0B0F8CC4805213A1C03F0D6
:1081F000ABF8CA480C213A1C03F0A6F8C7480D2179
:108200003A1C03F0A1F8C648211C3A1C03F09CF864
:10821000C348291C3A1C03F097F8C24BC24A1360AA
:10822000C24A1360C24BC34A1A8001F08FFE231C5E
:10823000C149DA000024545401338A1800215470D3
:108240005160102BF4D1BD4B01251D70B449802322
:10825000DB028B603A1C0421B0483D707D7003F056
:1082600073F805233B706B465C7648AB1C805C80E2
:1082700049AB1C709D70FA239B00B14A4A93B14BE5
:10828000B14F1A6003F0B4F89E4B9D4A211CFEF7D3
:108290000FF89D4A9D4BFDF7EBFFAC4B0221586157
:1082A0005A69AB4803AE0260DA690A43DA61C52253
:1082B0008A40B958A74B19408023DB031943B950B2
:1082C0003B60A54B7470924C1B68201C291C321C0F
:1082D0000193357003F038F80222A26003F088F8A9
:1082E000E1214903041CFFF7D7FA80B2009000286F
:1082F00000D10095009B64002025E12149026D42D8
:10830000201C5D43FFF7C8FA2D180098ADB241015B
:108310004919201CFFF7C0FAE1225202131A9042B9
:1083200001D98E494318D8228D4C120193421FD88F
:108330008C4B8022196852010A431A60E3780C22A0
:108340009343E370009B2178180A1F23994301434C
:10835000217000981D40C1B26170A17A99430D430C
:10836000A572A37817218B43A370E3781A43E270B8
:108370007D4B01251D7023782021DBB22370E3782B
:1083800008220B43E370A37908211343A3718023D0
:10839000DB013B60019A754B0020FF311A6002F04F
:1083A000FDFB734B8022197872480A431A70002132
:1083B00002F0BAFBC0239B003D60FA58FF218A43BC
:1083C00040210A43FA5002F07DFD6B4F00900021DE
:1083D000381C202204F0E8FF0098684AC3009C5033
:1083E000D318674A63487A60624A00247A61654A12
:1083F000022179775F608260C360634A634B3C7798
:10840000634F06A91A603960321C45480321357054
:10841000747002F099FF321C41481021357074705D
:1084200002F092FF3E4B3E485A695A4B02211340DC
:108430004361321C3570747002F086FF564B782110
:108440003170281C311C7360B56001F0B9FE534BCC
:1084500078225A70524A1D705A609C70DD70211C3F
:108460000A2002F049F8211C022002F045F8291CDC
:108470000D2002F041F80D20291C221C04F096FC6E
:108480003E1CEFF3108172B6464A474B5520D05040
:10849000AA20D05081F310883468231CFF335A7B04
:1084A000002A00D18AE000225A73013B5F89FBB2A7
:1084B000032B00D87EE0251C023F08356846E919E9
:1084C00002220A3005F0D7FC384BBFB21A1C013F1C
:1084D000BFB2974209D02878190A4340DBB234482A
:1084E0005B001B5A01354B40F1E76A460A3212889D
:1084F0009A425FD106A800F063F95FE0C046C0462B
:10850000D60600000000000040420F0000000000FE
:10851000C0F00F4080F00F4000F10F4000F00F401E
:1085200040F00F40499224002CF0FF1FB8F0FF1FCD
:108530001CF0FF1F55550000E4F9FF1F01F9FF1F54
:1085400005A7000044F6FF1F00E100E0FC700340B7
:10855000ECF7FF1FFFFF00FFB4F0FF1F003EFEFF20
:1085600000C006403480044060F7FF1FDCF8FF1FA6
:1085700000100240F0FAFF1F38F8FF1FD4F7FF1F6A
:1085800029B000004DAE000019B000008CF9FF1FAB
:108590004CF7FF1FFFFFFDFF09B2000058F7FF1F58
:1085A00025A600000070044004110000FFFF000039
:1085B00008E4000000236370FE3463816D4B1A7879
:1085C000002A3CD000251D7001F0BCFF6A4B041C42
:1085D00018706A4F01282AD0A84219D0052829D13D
:1085E000674B68481D700823836002F039FB2A1C22
:1085F00001210D2004F0DAFB291C2A1C022004F0C2
:10860000D5FB1E2003F00CF8782004F0BDFB11E030
:10861000B8785D4BC0B2187004F0B6FB5949082316
:108620004B60221C211C0D2004F0C0FB02E0BB7833
:1086300032681370381C0021142204F0B5FE534A2E
:10864000534B10680001C018834236D0DA7819798C
:10865000914223D0012A0AD15979012901D14D49EA
:1086600002E0002910D14C490C6801340BE0002ACB
:108670000AD15979012901D1464902E0002903D1E3
:1086800045490C68013C0C609978002903D04349A6
:108690000C6801340C60002199701A711A7B002A51
:1086A00009D09A78002A03D03C4A11680131116040
:1086B00000229A701A731033C6E7374B1B68002BE1
:1086C00003D0374B10229A600BE0324B1B68002B13
:1086D00004D0FA20800003F083FA02E0304B10222D
:1086E0005A602E4B1A6880235B02002A02D025486C
:1086F000436001E023498B602A4B1B78002B00D19B
:10870000BFE6294B1B78012B00D1BAE6274D2A681A
:10871000072A00D8B5E60024254FE3B2E000019314
:10872000C35D002203920090012B1DD12149A300BB
:10873000CB185978012907D002290AD1DA781E4BC3
:108740009200D358039305E0D87801F0A3FF03907B
:1087500000E003920099039A7B185978019803F07E
:10876000C5FFE300FF1878600134102CD4D100233A
:108770002B6086E684F9FF1F64FAFF1FF0F7FF1FE6
:1087800000F9FF1F40F00F40C8F6FF1F68FAFF1FF7
:1087900084F7FF1F88F9FF1F90F9FF1F7CF1FF1F6F
:1087A00000F00F4001F9FF1FE0F9FF1F58F8FF1F0D
:1087B000E4F9FF1F81F1FF1F30FBFF1FC046C046D9
:1087C000F0B5827A041C1102C27A9FB008345218A4
:1087D000029492B2047B437A0392427B24021419DE
:1087E000071CA4B2032B29D1039D1F2D00D9DAE069
:1087F0002B19202B02DD2024641BA4B2039E03232B
:108800007B7273106500DBB2EDB29C463B1CBD72FF
:1088100064080B330022A24241DA60468118C9B2D3
:10882000CE48C90041184E680132310E1970310C22
:108830005970310A9970DE700433ECE7042B35D19E
:10884000039D1F2D00D9AEE0E60701D5013CA4B27F
:10885000039D2B19202B02DD2024641BA4B2039E50
:1088600004237B7273106500DBB2EDB29C463B1CA7
:10887000BD7264080B330022A24210DA60468118F0
:10888000C9B2B648C90041184E680132310E19709C
:10889000310C5970310A9970DE700433ECE70335FE
:1088A000EDB2002D01D001F047F97DE00025102B3D
:1088B0007AD103991F2977D801231C4201D0E418EB
:1088C000A4B2039D1D4203D02B1C01339BB2039322
:1088D000039D2B19202B02DD2024641BA4B2650804
:1088E0000895039D9D4B6D10EA0006953D1C0F35C4
:1088F000D3180295069D0493994BAA00D3180593AB
:108900000699089A6B1A934244DA02983602027862
:10891000360A43781206B6B21B0416431E43914A28
:10892000837816401B021E43FF22C37896431E43E2
:108930008D4B07961B78002B21D004990B78022BC6
:108940001DD1864AEB00D3185868311CFDF762FC34
:10895000002814D1049AE8B25178079A02F088FEF0
:10896000011C05980378012B04D0022B07D18078D5
:1089700004F0B8FA794AEB000799D3185960049AC1
:10898000029B0598083204330430049202930135A7
:108990000590B5E710237B72039D0023BB72230A69
:1089A000FD723B731DE10025BB7AFA7A1B027E7AC9
:1089B000D3189BB27C7B042E64D16C4A934205D1C0
:1089C000022C4FD17E72BE72694B32E0694A9342EB
:1089D00010D1022C46D17E72BE72012003F030FE0F
:1089E000030EFB72030C3B73030A7B73B8730725FA
:1089F00001F0A2F8FC221201934210D10025022CB2
:108A000000D056E17E72BE72012003F05CFA030EC4
:108A1000FB72030C3B73030A7B73B87349E1564A3C
:108A2000934214D10025022C00D042E1534B7E72B8
:108A3000BE721B681B68042B01D901235B421A0E0E
:108A4000FA721A0C3A731A0A7A73BB73CFE74C4A5C
:108A5000934207D10025022C00D02AE17E72BE721B
:108A6000201CBBE7FD2212010025934200D020E12B
:108A7000022C00D01DE104237B72BB72201C03F08A
:108A800022FAADE7102E00D012E1384A93420DD100
:108A9000022C77D1F97B3B7C09061B04C918BB7CEF
:108AA0000120C9187B7C1B02C91837E0314A934268
:108AB0000DD1022C66D1F97B3B7C09061B04C91839
:108AC000BB7C0120C9187B7C1B02C9183EE0FC223C
:108AD0001201934211D1022C00D084E0F97B3B7C3F
:108AE00009061B04C918BB7C0120C9187B7C1B022A
:108AF000C91804F0F1F87E726EE01F4A934214D157
:108B0000022C00D0B9E0F97B3B7C09061B04C91894
:108B1000BB7C201CC9187B7C1B02C91804F034F8EC
:108B20000F23BB727E72B82359E0154A934229D1B4
:108B3000022C00D0BCE0F97B3B7C09061B04C91861
:108B4000BB7C201CC9187B7C1B02C91804F0E2F80E
:108B50000F23BB727E72BC2341E0C046E4F9FF1FC5
:108B600081F1FF1FFF00FFFF01F9FF1FB80F000099
:108B700078F0FF1FBC0F0000C80F000030F0FF1F8F
:108B8000CC0F0000FD221201934211D10025022CCE
:108B900000D08EE0F97B3B7C09061B04C918BB7C26
:108BA000201CC9187B7C1B02C91804F095F811E041
:108BB000CA4A934217D10025022C7AD1F87B3B7C1C
:108BC00000061B04C018BB7CC0187B7C1B02C018AD
:108BD00003F0EEFF10237B720F23BB72C023FB72E6
:108BE0003D737C7361E0BE4A934246D10025022C5E
:108BF0005FD1FA7B3B7C12061B04D318BA7C9B180E
:108C00007A7C12029B18DAB2102A44D8B54E0121A0
:108C10003170B549DBB20A70B44A9B009B185A7890
:108C2000DC78012A0BD1082C35D8B14B1C70B14B24
:108C30006400E05C1C19617802F07EF82BE0082CDF
:108C400029D8AD4B1C7002F04BF8C0B2012822D0DD
:108C5000AA4BAB491A5D0DAB1D700D980E9103F038
:108C60001BF902F031F83378012B02D1A54A1360C9
:108C700011E0281C01F050FE0DE0A34A00259342AC
:108C800017D1012C15D1FB7B522B04D13B7C532BEC
:108C900001D102F04DFE10237B720F23BB72C02363
:108CA000FB7200233B7302237B73062500F044FF15
:108CB0000025BB7AF97A1B023E7BCB18797B360202
:108CC0007A7A8E1914AC9BB2B6B222726381A681F5
:108CD0002570022A18D18D498B4200D05AE1012E0D
:108CE00007D03B78BA723B7282237B72032500F077
:108CF00023FF03F0B1FF237ABE727B72431E9841BB
:108D00000423F872237045E1032A00D08AE0191C7D
:108D100040391F2905D84023E381012363740423CC
:108D20002EE0191C80391F290BD88023E3810123F1
:108D3000637404222274A374381C211C02F0DCFC2E
:108D400028E1191CC0391F2906D8C023E38101235B
:108D500063742274A574EFE7591EFF391F2905D8E3
:108D600080235B00E38101236374E3E7684E9A1973
:108D70001F2A07D8E0235B00E381012363740223E9
:108D80002374E7E763481A181F2A06D880239B003C
:108D9000E381012363740222CCE75F495A181F2A3A
:108DA00006D8A0235B00E38101236374052329E037
:108DB0005A4D5A191F2A06D8C0235B00E3810123AC
:108DC00063740522B6E7564E9A191F2A06D8D02397
:108DD0009B00E38102236374032313E051481A18B4
:108DE0001F2A06D8E0239B00E38102236374032338
:108DF00015E04D495A181F2A07D8F0239B00E3813C
:108E0000022363742374002395E7484A9B181F2BA1
:108E100000D9BFE08023DB00E38102236374237465
:108E2000012388E7102A00D0B4E01A1C403A1F2A18
:108E300005D84023E38101236374042328E01A1C2E
:108E4000803A1F2A05D88023E3810123637404221A
:108E500041E01A1CC03A1F2A05D8C023E381012330
:108E60006374032314E05A1EFF3A1F2A06D8802396
:108E70005B00E3810123637403222CE0244E9A19E2
:108E80001F2A08D8E0235B00E381012363740223D7
:108E90002374A5747AE01F481A181F2A06D8802365
:108EA0009B00E38101236374022214E01A495A18DB
:108EB0001F2A06D8A0235B00E381012363740523E6
:108EC00055E0164D5A191F2A32D8C0235B00E381A2
:108ED000012363740522227457E0C046D40F0000BA
:108EE000D80F0000E0F9FF1F70FBFF1F81F1FF1F8B
:108EF00071FBFF1F5AFBFF1F58FBFF1F24E60000FA
:108F00008DBA0000BCF0FF1FDC0F0000570400000A
:108F100040FEFFFF00FEFFFFC0FEFFFF80FEFFFFE1
:108F2000C0FCFFFF80FCFFFF40FCFFFF00FCFFFFD9
:108F3000B64E9A191F2A06D8D0239B00E38102233C
:108F40006374032313E0B2481A181F2A06D8E023DB
:108F50009B00E38102236374032314E0AD495A1894
:108F60001F2A07D8F0239B00E38102236374237434
:108F700000230AE0A84A9B181F2B0BD88023DB0094
:108F8000E3810223637423740123A374381C211C1E
:108F900002F032FC2578002D01D000F0CDFD7A7A68
:108FA000BB7AFE7A387B797B042A0ED0BB7AF97AB9
:108FB0001B023C7BCB18797B24027A7A0C199BB27A
:108FC000A4B2042A00D03FE23AE11B0200020818D2
:108FD000F31892499BB280B28B4237D1397A009014
:108FE000029802F023FD291CC6B22022201C04F0A6
:108FF000DBF9002363550135202DFAD1884A9A5CAC
:10900000002A01D1DAB204E0E2540133202BF5D179
:10901000002200239918202908DC8249595C002984
:1090200006D11EADEB189A18283A1170002305E0FE
:10903000A018C1540133142BECD1F7E7029DE15C79
:10904000AA19D1540133202BF8D189E0B6210901A6
:109050008B4265D1397A0090029802F0E7FC0FAE9E
:10906000C0B20390291C301C0A2204F09DF96E4BFB
:109070001D68681C13D14E2333706B463D334F225D
:109080001A7054225A7056229A7010AB41221A70EC
:109090004C225A7049229A704422DA7034E0002D32
:1090A0000FD1302333706B463D331D705D709D7062
:1090B00010AB1D705D709D70DD7011AB1D705D702B
:1090C00022E00926281C0A21FEF72AFC281CA155AB
:1090D0000A21FEF7E1FB051C013EF3D20022131C1E
:1090E000E15C002902D0002A02D1DAB2002A03D0C2
:1090F000981A30310FAD295401330A2BF0D19B1A45
:109100000FA9CB1800221A7000230FAA029C039DFE
:10911000995C6219D15401330A2BF6D10A356EE0FD
:1091200042498B421FD1397A0090029802F07EFCAE
:10913000291CC6B22022201C04F036F93C4B5B5D92
:109140006355002B01D1002303E00135202DF5D11B
:10915000F9E7029DE15CAA19D1540133202BF8D123
:10916000351C20354BE033498B4226D1397A0090AB
:10917000029802F05BFCC6B2B31CDBB20298039308
:10918000731C1222DBB28555291CC254201C2022DC
:1091900004F00AF9284AAB00D35863550135122D63
:1091A000F8D10023029D0398E15C2A18D1540133C1
:1091B000202BF7D1351C223521E0B92109018B4242
:1091C00000D0F3E6397A0090029802F02FFC291CB7
:1091D000C6B22822201C04F0E7F818496B189B003F
:1091E0001B6863550135132DF7D10023029DE15C07
:1091F000AA19D1540133282BF8D1351C2835EDB2EA
:10920000002D00D1D2E600F097FCC046C0FCFFFF65
:1092100080FCFFFF40FCFFFF00FCFFFF4F0B000046
:1092200075E60000C0F0FF1FF0FD0000680B0000B5
:1092300058F0FF1F7C0B000098F9FF1F123F000041
:10924000FA21C9008B425DD1397A0298009402F06C
:10925000EDFBCC4B029E1A68C4B2110A3155611C59
:10926000C9B2029D7254A21C0026D2B2AE54E21CB6
:10927000D2B2AE541B68221D190AD2B2A954621D83
:10928000D2B2AB5402F0B8FBA31D020ADBB2EA541F
:10929000E31DDBB2E854BC4B221C1B680832D2B27F
:1092A000190AA954221C0932D2B2AB54231C0A3326
:1092B000DBB2EE54231C0B33DBB2EE54231C0C3315
:1092C000DBB2EE54231C0D33DBB2EE54231C0E3301
:1092D000DBB2EE54231C0F33DBB2EE54231C1033ED
:1092E000DBB2EE54231C1133DBB2EE54231C1233D9
:1092F000DBB2EE540298251C13341435E4B2EDB2FF
:1093000006551CE1A14A93420CD0B97A7A7A080238
:109310008C46F97A3B7B081880B27E7B042A00D009
:1093200040E110E13C2CF0D8974B201C1D68072130
:10933000EDB20395FEF7FEFAC0B2A84202D8002DA6
:1093400000D00390039C07236343397A029800936B
:1093500004228E4B02F06AFBC5B2002C00D1EEE075
:10936000002601F07DFC2B1CB4460122039CA44581
:1093700063DA8749002A01D000220A600A6881491D
:1093800009680591059EB24210D282481401211845
:109390008E780132002EF5D1205A7D4E0890087942
:1093A00007904C7989680494326003E000210491AD
:1093B00007910891029C5E1C07980022F6B2E254C5
:1093C000A0559C1CE4B20594089C029E0598240AB2
:1093D0003454DC1C0898E4B23055181DC0B2325425
:1093E000049C581DC0B23454981DC0B23254D81DCC
:1093F000C0B23254181C0830C0B23254181C0930A4
:10940000C0B23254181C0A30C0B20C0E3454181CAE
:109410000B30C0B20C0C3454181C0D30C0B21C1CE4
:1094200004900C340298E4B20E0A0655049C0E33E4
:109430000126DBB20155B44498E70E236343ED18CF
:10944000EDB202F0EDF87AE0102A00D05DE7524A62
:1094500093422FD1FB7B232B00D056E73B7C432B41
:1094600000D052E77B7C4C2B00D04EE7BB7C532BCB
:1094700000D04AE701F0F4FB424B186800230001DA
:1094800083420FD0434A9A181179012908D1917863
:10949000002903D03C490D6801350D600021917011
:1094A0001033EDE702F0BCF8397A029800941022EC
:1094B000394B41E0394A934200D026E73B2C00D992
:1094C00023E76508039501F0CBFB2E4B00261B68B4
:1094D00004933B1C1033039DAE4226DA5A789978E8
:1094E0001202521892B2197894460022914219D170
:1094F000049DAA4216D0274D1001079040190188FB
:10950000614502D1013202D10CE00132F0E78278EC
:10951000012A03D01C4A1068013810600798012204
:109520002D18AA7001360433D5E702F079F80298B5
:109530001A4B397A1022009402F078FAC5B2002D45
:1095400000D1E2E6F8E2164C0025A0425CD11802F8
:10955000301880B2062857D10C23BB723023FB721F
:109560003B737B73BB73FB733B7445237B74522348
:10957000BB74FB744F227B7531233A75BB750F2585
:10958000DAE2C04668FAFF1F7CF1FF1FDA0700002D
:109590006CFBFF1F84F7FF1F98080000A208000063
:1095A000CC0B00000025102A2ED1B54CA0422BD1A7
:1095B000F87BA84228D1387C532825D1787C6528AF
:1095C00022D1B87C74281FD1F87C42281CD1387D68
:1095D0006F2819D1787D6F2816D1B87D742813D1E2
:1095E000F87D6C2810D1387E6F280DD1787E6128E7
:1095F0000AD1B87E642807D1F87E652804D1387F67
:10960000722801D103F0A6FB6446200209181B0250
:1096100089B2F6180391B6B2032A00D086E09948C1
:109620000C18A3B23F2B67D8164200D047E2039D27
:10963000154200D043E2A319402B02DD924B5B1B85
:109640009EB2397A029800960322039B02F0EEF94B
:10965000B608C0B2A410049605940390041C00261A
:10966000049DAE4242DA05983518EDB2281C01F08F
:109670006DF8C0B20690281C02F012FDC0B201289D
:109680000FD0022806D1814BED00E95C5D190791EE
:10969000687808E00338434258410022C0B207927C
:1096A00001E002230793029D611C069A0023C9B2C0
:1096B0002B556A54079D0136AA0392B2029D1043AE
:1096C000A21CD2B2010AA954E21CD2B2A854221D93
:1096D000D2B2AB54621DD2B2AB54A11DE21DD2B2C4
:1096E000C9B208346B54E4B2AB54B9E7039EEB0043
:1096F000F318DBB20493EDE1654B039C9C4200D070
:10970000DDE1012E00D9DAE1397A231C00960298B6
:1097100002F08CF9C0B2831C029EDBB204935D4B55
:1097200035541B780130C0B23354D3E10025102AE0
:1097300000D0D3E1039853494418A3B23F2B00D97A
:10974000AEE003231E4200D0B9E1184200D0B6E1DA
:10975000A319402B02DD4C4B1B1A9EB2397A02989A
:1097600000961022039B02F061F9A410B5080A9438
:109770003C1CC0B20B95113400250490059408954B
:10978000089C0B9DAC4200DB64E1089C0A982518FC
:1097900001340894059CEDB2237807956478079806
:1097A0009D09099402F07CFC041C079800F0CEFF90
:1097B000031C012D06D0002D02D0022D0BD017E086
:1097C000012216E0C1B2013900220B2911D82A1C4E
:1097D0008A40314807E0C1B2013900220F2908D878
:1097E00001222E488A400240511E8A41D2B200E036
:1097F00000220998052832D8FCF7F6FC2E03081140
:109800001B24DBB20A3B062B29D825E0DBB2013B47
:10981000072B24D8012199400B1CC7211AE0DBB289
:10982000013B082B1BD8012199400B1C4C21FF3117
:1098300010E0DBB2013B042B11D8012199400B1C35
:10984000132107E0DBB2013B052B08D80121994029
:109850000B1C23210B4202D0002A00D087E101F02B
:10986000FFF9079C032225022A430121022003F06D
:109870009DFA01F0D5FE059D0835059580E7C046A7
:10988000B80B000090E8FFFFB0170000E4F9FF1FDD
:10989000FC17000000F9FF1F3F0E0000C1F300009D
:1098A000CB4B039C9C4254D1012E00D907E1397A5D
:1098B000231C0096029802F0B9F83B7CC0B21A1C37
:1098C000531E9A41D2B204900592002A1BD1C14B7B
:1098D000EA00D31800225A60BF4A00241470E8B28C
:1098E0001C705C70211C221C013501F0E7FD102D5D
:1098F000EDD101F0B5F9211C221C0C2003F056FA21
:1099000001F08EFE21E0B54B1B78002B1DD100F03D
:109910001DFBB34B01221D60AF4B1A70AD4AEB002B
:10992000D3185A685978E8B201F0A2FEAD4BAA00EC
:10993000D3181A78011C012A04D0022A05D198787C
:1099400003F0D0FA0135102DE8D1A44B059D1D7010
:109950007CE0A54B039C9C4231D1052E00D9AEE0A2
:10996000397A231C0096029802F060F8FB7BC0B2A3
:109970000490012B03D19D4B04225A6004E0002B7C
:1099800002D19A4B04229A603B7C012B02D1974B67
:1099900008229A607B7C012B02D1782003F0F4F935
:1099A00001F05EF9012100220D2003F0FFF90021F2
:1099B0000A1C022003F0FAF901F032FE46E08C4B5B
:1099C000039C9C4211D1012E79D8397A231C009630
:1099D000029802F02BF83B7CC0B204900822012BC5
:1099E00015D00822002B31D117E0824B039C9C42FA
:1099F00016D1012E63D8397A231C0096029802F002
:109A000015F83B7CC0B20490012B03D10422774BA4
:109A10005A601BE0002B19D10422744B9A6015E0A8
:109A2000754B039C9C4210D1012E48D8397A231CD7
:109A30000096029801F0FAFFC0B20490387C43B25D
:109A4000002B47DD03F0A0F944E004956B4B039D28
:109A50009D4234D06A4B039C9C423BD1112E2ED8A0
:109A60003D7C00230395029CE218527A0FAC1A55F4
:109A70000133122BF7D1397A614B102200960298EC
:109A800001F0D4FF14ADC0B204900021281C2022A4
:109A900003F08AFC00235B499A00895814AA995460
:109AA0000133122BF7D1039E122E0AD10023E95C59
:109AB000E25C914205D10133122BF8D10AE0002576
:109AC0000CE001F0CDF802200121021C03F06EF938
:109AD00001F0A6FD049CE5B2002D2DD17A7ABB7A67
:109AE000FC7A387B797B042A26D11B02E318464C8A
:109AF0009BB2A34220D10002081880B203281BD1D8
:109B0000397A0090029801F091FFC0B2029E431C86
:109B1000DBB211223554F254831CDBB2F554C31C62
:109B2000DBB22222F254031DDBB2F554851D053051
:109B3000C0B23323EDB23354344E2A1C3368191C9F
:109B4000FF31487D002803D1C87B012800D1E7E020
:109B5000002D5FD1CA7B012A00D0E1E0597A802232
:109B600052420A435A7202229A72032252E0E4B22B
:109B7000022C00D07FE60799174B164C00221A7072
:109B8000CB00099A1D55E4186270081C291C01F0CD
:109B900095FC059DA978069D09062A02059D120AD5
:109BA000EB7892B21B040A431A4306922B79184AA7
:109BB000069D1B022A401A43059D06926B79069D5D
:109BC000FF2295432A1C1A430692069B636052E6C5
:109BD000FC170000E4F9FF1F01F9FF1F00F9FF1F48
:109BE00058F8FF1F81F1FF1F3818000040F00F40A8
:109BF00042180000431800004418000045180000F7
:109C00009C18000098F9FF1FA40600004CF7FF1FE6
:109C1000FF00FFFF08334649181C9C18A7B2BC463A
:109C200087B20D0ABC4509D00478ADB26140C9B213
:109C3000404C4900095B01306940EEE7995465707A
:109C4000931CFF2A6CD031683B4F0A1CFE32002067
:109C500050813A4D387802224A7008316A600028F3
:109C600002D001280DD046E0DBB2CB18994242D099
:109C7000334A107940B20028FADA08780131D071FD
:109C8000F4E7304C6769002F04D12F48DF212F4AB9
:109C90002F4B06E0DBB2002B05D12B482B4A2D4B76
:109CA000E22103F015FB277F012F24D023612077C9
:109CB000009214A8284A00F08BFF606914A900F0F4
:109CC00055FE6369002B01D101F0A2F81A681B79D7
:109CD0001B01D318FC3319698022D2050A431A618B
:109CE000174B8022D97A52421143C9B2D972D9781E
:109CF0000A43D2B2DA70104C2378002B06D0012B25
:109D000009D1164B1B78002B00D0FEE70C4B1A79BB
:109D10005B795706FAD502233068AB6000234370A5
:109D2000326800235370181CFE3253811FB0F0BDFF
:109D3000FFFF000008E4000060F7FF1FC0F00F40C5
:109D400000C0064038F8FF1F2CE600000FE60000B8
:109D500052E6000066E6000007C0064059FBFF1F00
:109D6000F0B587B001AA0123504804211370537045
:109D700001F0EAFA00F0B4FFC0B2012851D04C4B18
:109D800002AC0025257003936168206802F04EF84C
:109D9000061CFA20800001F051FC464B01359D4223
:109DA00031D00436F0D020686168062202F054F801
:109DB0002068616802F03AF8FA26B600071C0135FF
:109DC000301C01F03BFCB5421DD80437F0D061686F
:109DD00020680622402301F0D9FF6168206805222F
:109DE000002301F0D3FF6168206804228D2301F075
:109DF000CDFF206861680922012301F0C7FF03CC71
:109E0000002202F049F82C4B2C4A1B780021D25C2E
:109E100004AB197026490498059102F03DF800F052
:109E200053FF274E12210220FF3100F0B7FE80279A
:109E3000B3787F423B43DBB2224CB370224802210D
:109E400000F072FEC02504232360AD0062591F4B51
:109E500088211340802212041343635103204900D8
:109E600000F09CFEF37818481F43FFB21030F770E3
:109E7000032100F059FE0823236062599A40DA401A
:109E800080231B0613436351114B18680E2800D919
:109E90000A2002F08DFE02200E4902F027F8002869
:109EA00000D0022040B207B0F0BDC04680F00F40A5
:109EB0008DBA0000E903000058FBFF1F24E60000F4
:109EC0000010024000E100E010FBFF1FFFFF00FF59
:109ED00014FE000030FBFF1FF7B5174B061C1F5C7C
:109EE0000191381C154901F0E5FE154B9C5D002CD5
:109EF00003D1144B04229A6003E0012C01D1114BD1
:109F00009C600025104B9B5DAB4209D9019B381C1E
:109F1000591900220123013500F0F6FFEDB2F1E7F7
:109F2000002C03D1074B04225A6003E0012C01D11D
:109F3000044B5C600020FEBD86E60000D4F0FF1FED
:109F400080E6000080F00F4024F0FF1F30B585B0A0
:109F500000F0C6FE0125C0B2A84200D1D1E001AC9C
:109F6000201C02F013F8A84252D0207802A9002346
:109F70000B808B7003281CD8FCF736F91E020613E1
:109F8000614B1B680B7017E05F4B62781B68022AFD
:109F900003D11A0C0A701B0A01E01A0A0A704B70EE
:109FA0000AE0594B1B681A0C0A701A0A4A708B7027
:109FB00002E000F089FEA4E00020FFF78DFF201CE6
:109FC00002F021F8012823D0207803A900230B8078
:109FD0008B7003281CD8FCF707F91F0206134B4BA4
:109FE0001B680B7018E0494B62781B68022A03D18A
:109FF0001A0C0A701B0A01E01A0A0A704B700BE077
:10A00000424B1B681A0C0A701A0A4A708B7003E0E4
:10A0100000F05AFE012574E00120FFF75DFF00F01B
:10A0200053FE3B4B012218883A4B104249D19A60AB
:10A0300080218900384A840745D491601022410765
:10A0400043D55A602022040741D49A608022C10679
:10A050003FD49A60402284063DD49A6001212F4B60
:10A0600010423AD199600222010638D49A608022C7
:10A070009204C40535D49A6080221206810532D537
:10A080005A600222264B44052FD49A6020220105F3
:10A090002DD49A608022520110422AD19A608022E7
:10A0A0009201104227D19A6001221E4B440424D40D
:10A0B0009A60C50BED03ADB20222002D1FD19A604C
:10A0C0001FE05A60B4E75160B8E79A60BAE75A6097
:10A0D000BCE75A60BEE75A60C0E75960C3E75A6000
:10A0E000C5E75A60C8E79A60CBE75A60CEE75A6086
:10A0F000D0E75A60D3E75A60D6E75A60D9E75A608A
:10A100000025281C05B030BD2CF0FF1FB8F0FF1F44
:10A110001CF0FF1FC0F00F4080F00F4000F10F4017
:10A1200000F00F4040F00F4010B51E4C002323708C
:10A130001D4B8022196812050A431A601B4B6F22BF
:10A140009A60D9680F22914308221143D960196A95
:10A15000032081431962596A0A435A621A6A4021EC
:10A160008A431A62596A07220A435A6202F0B2F815
:10A170000123002814D10E4B4200D3180D4A825CF3
:10A180001A700D4A825C01305A700928F3D10120FF
:10A190000A4901F0ABFE0122031C227000D0022309
:10A1A00058B210BD280100203C80044000B003409C
:10A1B0005AFBFF1FACE600005EE80000FCFCFF1F3E
:10A1C000F0B5794B820087B0D4580F1C0E780190FF
:10A1D00001F0E6F8754A764BD158764A944205D09C
:10A1E000754B9C4200D095E0012300E00023734AA8
:10A1F0009B009D586D4A2B0C9B181A68ADB20092BB
:10A2000001229446AA40151C009A76002A431A603F
:10A210000025FF232570F6B26570A570E37050230A
:10A220006571A371E5712670A378022293438022A1
:10A230001343A370627990231343090F6371614440
:10A24000FDF72AFB012304905B420295039501224E
:10A250005B49AA405143009305910026594B720077
:10A26000D05A059B04995843FDF716FB5649574AA7
:10A270004318904202D8FA231B011B1A009A9342FA
:10A2800004D202950396002B04D000930136402E91
:10A29000E4D1009B022D1CD103993F230B4002996E
:10A2A0008A011343019ADBB26370002A15D0012A98
:10A2B00022D1B968464BC22292008801FF219D58E5
:10A2C00008404449000229400143995080229200ED
:10A2D00011E00135002BBAD1DEE73D4BC2229200DE
:10A2E000B9689D588801FF218D430840291C01430E
:10A2F0009950802252001A60374D2422281C0021D8
:10A3000003F052F87A682B4B00929C4204D02A4BFF
:10A310009C4203D000F0DCFF002600E0012624224E
:10A32000281C002103F040F8009BB200EB612B4B8E
:10A33000D5502B4A2B4B1A602B4B9B5D5AB2803267
:10A3400006D01F22134001229A40131C204A13609A
:10A350002978C9B2002921D1A3784026B343A3703C
:10A36000A37970229343A3711422281D03F01CF8D3
:10A3700001232B706623AB61A27950231A43A2718B
:10A38000A2791A43A2711222E270A2781643A67033
:10A39000A2799A43131C20221343A3713A78134BDA
:10A3A00000201A7007B0F0BD70E800000070044093
:10A3B00044100000006006400070064068E800009D
:10A3C0000065CD1DDEE6000060F0FFFF9F0F00007E
:10A3D00000E100E0FF00FFFF38FCFF1F7C010020D0
:10A3E000D5C000002CFCFF1F8CE600009AFBFF1F6D
:10A3F000F8B52D4C3422201C002102F0D5FF2B4B48
:10A400002B4AD3581B011B0F0F2B04D0294A5B008A
:10A410009B5A9B0201E080231B02274F63600123AC
:10A42000264D274E23728023DB00381C25490C2241
:10A43000E3606F60AE60E56103F01DFD224B301CF0
:10A4400022491C2201371F6003F015FD204B013605
:10A450001E6002232B6000232362636222681D4B6F
:10A4600003211A601C4B62681A60E2681B4B1A6079
:10A470001B4B9A781B4BD2B21140022901D11A4AC8
:10A4800006E03F218A43802A01D1184A00E0184A99
:10A490001A600023174A9900002088500133802257
:10A4A00052009342F6D1F8BD340100204C10000058
:10A4B000007004408EE60000A4FBFF1F5CFCFF1F41
:10A4C000ECFBFF1FB6E6000030FCFF1FC2E60000F9
:10A4D0009CFBFF1FA0FBFF1F34FCFF1F2C01002073
:10A4E00000000240DCF0FF1F3CC33CC3A55AA55A44
:10A4F000A53CC35A1CFDFF1F021C0120F0B5814280
:10A500001AD80E4800230568071CAB4208D00C4837
:10A510001C01005B904201D00133F6E701200BE003
:10A520000120052B08D0064C1D0166190133B070BF
:10A5300071713B602A530020F0BDC04668FAFF1FCE
:10A5400084F7FF1FF7B52E4B1A78002A04D12D4C43
:10A550002378002B28D029E000221A702A4B196892
:10A560002A4B5878081A032815D12948294C4078D5
:10A570004000C0B29F1801328DB296B2205CB54245
:10A5800002D03D786840F5E76A46D0710139D0794C
:10A590005A5C904208D15A78002A18D11A781E4B7A
:10A5A0001A601E4B01221A70062027E01C48002169
:10A5B000142202F0F9FE00232370174B03201B68BE
:10A5C000232B1BD006202A2B18D1042016E01A7842
:10A5D000232A12D01A78242A03D19A780520002A37
:10A5E0000CD01A78242A03D19A780020824205D10F
:10A5F0001B7802202A2BAAD100E00120FEBDC04614
:10A6000099FBFF1FE4FBFF1FE8FBFF1FF0F7FF1F95
:10A6100058F7FF1F5EE7000068FCFF1F72FBFF1F7B
:10A6200073FBFF1F38B5FFF78DFF144A144B1278E8
:10A6300018705A7003281ED11249134B012409685F
:10A640001A705C7009789970104948781049A040D8
:10A65000C5B24D5D20436A408C5C5A1C6040C0B25C
:10A66000085C5C1D551E0132A24203D02D78684063
:10A67000085CF7E7D870002038BDC04668FCFF1FB3
:10A6800064FAFF1F4CF7FF1F73FBFF1F58F7FF1FF4
:10A690005EE70000F8B5084D071C2B78002B07D0AB
:10A6A000064C0026267001F015FE01232E70237043
:10A6B000034BBF00F858F8BD2001002028010020FE
:10A6C000FCFCFF1F0C4BD8790C4BC0B21A685378B6
:10A6D000002B10D1111CFE314B89FE2B03D8D21850
:10A6E000013310724B81064B0122D9699143D96124
:10A6F000D9690A43DA61704700C006404CF7FF1F72
:10A70000FC7003400F4B0121DA6910B58A43DA610E
:10A710000D4B1B685878002813D11A1CFF32D47BCC
:10A72000197A002C09D01C78A14206D0002904D047
:10A73000002C02D0FE33588103E051750121517382
:10A74000597010BDFC7003404CF7FF1F00B500238B
:10A750000F2839D8C0B2032801D8043008E00728F0
:10A7600001D8083004E0031FDBB20B2801D80838F9
:10A77000C3B2164A1068164A1168164A12680828A9
:10A7800003D1082901D1082A1BD0134A9B189B002A
:10A79000186800230138072816D8FBF725FD140494
:10A7A00006080A0C0E1003230EE004230CE0052318
:10A7B0000AE0062308E0072306E0082304E0092353
:10A7C00002E0012300E00223181C00BD08FC000089
:10A7D00020FC000038FC0000143F0000F0B589B0F8
:10A7E000051C0C1C079201D0002A06D1E121444827
:10A7F0004900444A444B02F06BFD00F04DFD434BD1
:10A800008000C35842491A0C521899B201231E1CE9
:10A8100010688E40311C01431160EA784020824369
:10A82000EA702679A77808221E401021FF000E4307
:10A8300017403E43E7780196BF00BC4666460427B2
:10A840003740019E05923E43A7791F409F403E43FB
:10A85000EE706779E679BF01334038401843A37939
:10A860006778DB001940B600164001437F000223E1
:10A8700031431F403943A970A66807210127039679
:10A88000049100267F420222002302920193721C4F
:10A89000029B111C594307980692FCF7FDFF039990
:10A8A000814206D3081A874203D9019A071C0592F0
:10A8B0000496029B01995B000131029301910929E1
:10A8C00001D0002FE3D1072E03D0002F01D0069E28
:10A8D000D9E7049E70233201059E13403343DBB257
:10A8E0006B70281C00F0D8FC0A4BFF221A54237806
:10A8F000002B03D0EB7840221343EB7009B0F0BD7E
:10A9000032E90000A7E8000053E9000088ED0000EC
:10A9100000700440D8FCFF1F38B5C3B20D2B04D81B
:10A92000C0B20F4B8000C45801E0012464420D4BBB
:10A93000FA211C60201CC900FCF7F2FFFA208000FD
:10A94000094D6043002904D1FA21C900FCF7A4FF96
:10A9500004E0FA21C900FCF79FFF0130286038BDF0
:10A9600040EB0000E0F0FF1FBCF0FF1FF8B500282F
:10A9700005D1B62137484900374A384B06E000294F
:10A9800006D16E213348344A354BFF3102F0A0FC2A
:10A99000047902682301D318FC33DD688022920415
:10A9A0002A4054D1032C03D92A486D212D4A10E0A6
:10A9B000DD68802464042C43DC602B4C5A609A6070
:10A9C000DA601C6104790368032C04D92148274A02
:10A9D0009321274BDAE724011B190C68FC335C60D8
:10A9E0004D689D60CD682C02240ADC60CD7AC024BD
:10A9F0008F7AE4026D0425408024FF0424033C4048
:10AA00001E6925431B4C34404E7A2543C02436052D
:10AA1000A403344025430C7A8021C903A4050C40CB
:10AA2000291C2143196101790368032905D956219D
:10AA30001148FF31114A124BA8E709015B18FC339A
:10AA400018698021090601431961101C00E00D48B6
:10AA5000F8BDC04669E9000078E800008AE9000016
:10AA600099E90000D9EA00008000002007E9000011
:10AA7000A8E90000FFFF81FFD1E900001DE9000007
:10AA8000F2E9000088130000044B80211A680020BE
:10AA90008A4301210A431A607047C04600000440FF
:10AAA00010B51C1C184B081C1A60184B00211A68A2
:10AAB0000B1CFBF7FDFB134B114AFBF7D9FB0028DE
:10AAC00006D124211248FF31124A134B02F000FC38
:10AAD000124B013898601A6880218A4340210A434A
:10AAE0001A600F4AC7239B00D058FF21A401884356
:10AAF0000C400443D45080235B050020136010BD3C
:10AB000040420F00000000007801002080FCFF1F81
:10AB10001EEA0000DEE8000041EA000000000440F8
:10AB200000E100E0C046C04638B5041C0D1C0028FA
:10AB300004D11248E721124A124B05E0032905D936
:10AB40000E480F4A104BE82102F0C2FB10220021F0
:10AB500002F02AFC0D4BAA0023600D4B2571D45046
:10AB60000C4B5B5D5AB2803206D01F22134001228B
:10AB70009A40131C084A136038BDC04669E90000BA
:10AB80002CEB00008AE90000A8E9000000800040EA
:10AB90006801002078EB000000E100E010B5032818
:10ABA00005D907486C21074A074B02F091FB074B78
:10ABB0003F221C5C94430A4022431A5410BDC046F5
:10ABC0004BEA0000EAEA0000F2E90000001002404F
:10ABD000F7B5019308AB041C0F1C161C1D78002848
:10ABE00005D1882118484900184A194B06E0002968
:10ABF00006D112211448154A164BFF3102F068FBAA
:10AC0000002A05D1892110484900104A124BF5E766
:10AC10000021102202F0C8FB019B2760E3600123A2
:10AC200066606372E3729D4208D0002D04D0022D4D
:10AC300009D12372002305E0237203E0002323726D
:10AC4000A57200E0A372F7BD69E90000F3E8000017
:10AC500099E900006FEA00007FEA0000EEEEEEEEF8
:10AC600070B500F0D1FC164E002802D000F0C9FCEF
:10AC700015E000F0C6FC114D0F4C3368002B0ED1CF
:10AC800000F0BCFC642000F0D9FC00F0BAFC01220A
:10AC90005242D317A4185D41231C2B43EDD13368D6
:10ACA0000124002B01D00024346000F0A7FC201CFC
:10ACB00070BDC046C046C0462C0100000000000028
:10ACC000ECF0FF1FC046C04608B500F09DFC034BEA
:10ACD000012272B61A6062B6002008BDE4F0FF1FC0
:10ACE00070B500F091FC124E002801D072B612E04F
:10ACF00072B60E4D0C4C3368002B0CD162B664203A
:10AD000000F09CFC72B601225242D317A4185D4198
:10AD1000231C2B43EFD133680120002B01D00020EE
:10AD2000306062B670BDC046A08601000000000021
:10AD3000E4F0FF1FC046C0461F23194040231943BB
:10AD4000014B19607047C04600B00340031C013A34
:10AD50000843024030B56520002A0AD1054D66201F
:10AD60002C68A34205D35B1869686418A34200D815
:10AD7000101C30BD3401002038B520220C1C051CED
:10AD8000081C002102F010FB094B1A685868AD1A24
:10AD9000DA6825606260197AFCF77EFD0423A06002
:10ADA000E360002023616361A361E36138BDC046B5
:10ADB0003401002008B5002805D1CC210E484900F7
:10ADC0000E4A0F4B08E002790368032A06D9C42112
:10ADD0000C480D4A0D4BFF3102F07AFA12019B1814
:10ADE000FC33D968802252040A43DA608368002B5E
:10ADF00001D0C168984708BD69E90000FBEA00007E
:10AE00008AE90000D1E900008BE80000F2E90000C7
:10AE100008B503480349044A044B02F059FAC046F6
:10AE2000D1E900001A020000B6E800008AE900003B
:10AE3000B12108B502484900024A034B02F048FA22
:10AE4000D1E90000C8E80000F2E9000010B50B1CD1
:10AE5000002804D116486621164A174B05E0002940
:10AE600005D11348134A154B672102F031FA0A68DD
:10AE70007F21D4780C40D470D47A2140D1720179EA
:10AE80000268032901D9FFF7D3FF09015218FC32E8
:10AE90001169490049081161596800220A77596807
:10AEA0004C68944203D01868054A8B68A04710BDCF
:10AEB0002CE600007CEB000090EA000097EA00001E
:10AEC000EA0300000220704708B503480349044A1A
:10AED000044B02F0FDF9C046D1E900001A0200005F
:10AEE00009EB00008AE9000008B503480349044A59
:10AEF000044B02F0EDF9C046D1E900002902000040
:10AF00001BEB00008AE90000F0B585B00293354BD9
:10AF100080000E1C171CC458002901D1002A5ED0E5
:10AF2000A5786D06ED0F0135EDB2029B002B56D0D2
:10AF300023789906FCD5201C00F0AEF9A3780022F6
:10AF40005B06DB0F0133DBB203930092331C002B53
:10AF50000AD0A1781A78A271490603D5597802332C
:10AF6000E1710CE001330AE01F4A115C125C090236
:10AF70000A430192D2B2A271019A110AE1710099B9
:10AF8000039A89180091A942E1D3002E00D07619C6
:10AF900023785BB2002BFBDAA1783B1C4906C90F72
:10AFA0000131C9B28C460022002B0CD0A07841069A
:10AFB00005D5A0791870E0795870023305E0A079C2
:10AFC0001870013301E0A079E0796244AA42EBD322
:10AFD000002F00D07F19029A521B0292A5E7002091
:10AFE00005B0F0BDF0E30000D8FCFF1F084B0222C3
:10AFF0001878104004D19A791207920F012A05D1CE
:10B000005A7801231A40034B9200D0587047C0462B
:10B010000040064020ED0000002901D1014B1970CD
:10B020007047C04659FBFF1F084910B50C68002C3B
:10B030000BD007498A4204D006498A4202D1012234
:10B0400000E00022181C111CA04710BD8CF9FF1F46
:10B05000EA030000EB030000044910B50C68002C63
:10B0600002D0181C111CA04710BDC046B0FCFF1F29
:10B0700001207047101C7047002070474369002072
:10B080008B42404140B270470368026930B543606B
:10B090005343836000234269934206D29A008C187E
:10B0A000246885690133AC50F5E7C26843689A4269
:10B0B00006D38168002301318A4203D380231B0217
:10B0C000C360FE2358B230BD837C00208B424041D8
:10B0D00040B2704738B5846863181D788B00C1682A
:10B0E000CB18017C1C6869180568890069180D680F
:10B0F000641B1C600A6019688A181A60427C817C93
:10B100000132D2B24274914204D100224274027CD4
:10B11000013202748188027C8A4201D100220274C9
:10B120001868FCF7B9FB38BD70B583880022013B75
:10B130001E2B02D90823838001220023847CA34292
:10B1400006DA8568EC185D01EDB225700133F5E78C
:10B150000023847C6401A34208DA5C11A4000C196A
:10B16000256806689C00A5510133F2E70023847C22
:10B17000A34209DAC6689C0035190C192468868830
:10B18000013374432C60F2E70023037443749A4242
:10B1900000D0FE2358B270BD10B5054C012200232B
:10B1A0002068616812184B412260636010BDC04680
:10B1B00088FCFF1F07B5002300930193C3689978AB
:10B1C000DA780904120211431A790B1C1343009315
:10B1D000009A80231B04134006D0009B094AD31A0F
:10B1E000019380235B0001E0009A0192019A836041
:10B1F00052000192019A03690260002B00D0984727
:10B2000007BDC046FFFFFF000B7810B50C1C022BDA
:10B2100014D004D8012B2CD100234B601AE0042B4E
:10B220001AD0202B25D10A69124B13481A6000212D
:10B23000142202F0B9F80122104B19E0104B002241
:10B240001A70104B01221A700F4B5B6898470F4B16
:10B2500063602623A3600CE002790D4B1A600D4B4E
:10B2600001224B6026238B60054B1A70054B002290
:10B270001A7010BDE8FBFF1F3CFCFF1F84F9FF1F85
:10B2800099FBFF1FE4FBFF1F58F7FF1F73FBFF1F16
:10B2900068FCFF1FF0F7FF1F08B5084B984204D069
:10B2A000074B984203D1012007E0002005E0054844
:10B2B0008421054A054B02F00BF808BD00600740E9
:10B2C0000070074032E900005EED0000F1EB000085
:10B2D00008B50348B921034A034B01F0F9FFC04602
:10B2E00013EC0000D4EB000034EC0000C37807B589
:10B2F000DA0602D483789A0601D5044B00E0044BA9
:10B300001B689847BFF34F8F07BDC0466CFCFF1FFB
:10B310002CFCFF1F08B5034B03481968FFF7E6FF35
:10B3200008BDC0467C0100200060064008B5034807
:10B330005F21034A034B01F0CBFFC04656EC0000EF
:10B34000E4EB000078EC000010B5002A01D1FFF713
:10B35000EDFF14780123002C06D142698B40191CA3
:10B36000131C8B4343610CE052788B40002A01D1BF
:10B37000836000E04360012243698A40111C194345
:10B38000416110BD582108B50248FF31024A034B04
:10B3900001F09EFF69E90000C4EB00008AE90000AB
:10B3A00010B50E4CA3791B079B0F012B0CD0002B63
:10B3B00008D0022B0FD18C2109484900094A0A4BB9
:10B3C00001F086FF094807E0FFF710FE237A1B070C
:10B3D0005B0FD84000E0002010BDC0460040064092
:10B3E000A1EC0000B0EB0000C4EC0000006CDC023B
:10B3F00038B5084D084CFFF7D3FF2959090F013123
:10B40000FCF74AFA29594903490F0131FCF744FA7C
:10B4100038BDC046007004404410000038B5074BEA
:10B420001D7A1C7EFFF7E2FDEDB20723E4B22D0783
:10B430006D0F1C402C19E04038BDC046004006404E
:10B4400008B5064B1B785BB2002B05DA044889214E
:10B45000044A054B01F03CFF002008BD00500640A7
:10B46000A1EC000099EB0000C4EC00000F4B10B5FC
:10B470001C682403A40F022C0FD0032C02D0002C34
:10B4800011D102E0FA24A4000EE0FFF7D9FF8023D7
:10B490001B02984208D1041C06E005489D21054A7C
:10B4A000054B01F015FF0024201C10BD0070044066
:10B4B000A1EC000028ED0000D0EC000070B5031EE8
:10B4C000032B01D8484802E0072814D84748484CC5
:10B4D0000726E55C03246543AE40351C0668AE4391
:10B4E000444D0660ED5C44486D00AC40251C04886A
:10B4F000AC4304801AE00B280BD83D4C0325E45CD8
:10B5000039486C430725A5402C1C0568A5432C1C15
:10B510000BE00F280AD8364C0325E45C33486C4313
:10B5200006680725A540AE43341C0460012908D1F4
:10B53000062A56D8101CFAF757FE0D54160D101394
:10B540000D00012002294DD1022A0FD0032A0ED06E
:10B55000002A47D10122111C0AE00122002107E044
:10B560000122042104E00122022101E00022011C49
:10B57000032B08D81E4C0325E45C1B486C43A140F8
:10B580000468214309E0072B11D8194C0325E45C1A
:10B5900016486C430568A1402943016015481649C7
:10B5A000C35C5B009A400B881A430A800AE00B2BAD
:10B5B0000AD80F480C4AC35C0320434316689940DD
:10B5C0003143116000200DE000200F2B0AD8084CF9
:10B5D000064AE35C032463439940136819431160EE
:10B5E00000E0012070BDC0462CF0FF1FB8F0FF1F27
:10B5F0004EED00003EED00001CF0FF1F62B6002083
:10B60000704772B60020704782B0EFF305823F2387
:10B61000134001930198431E9841C0B202B0704795
:10B6200038B5FFF7F1FF044C0125FFF7EAFF25606D
:10B63000FFF7E4FF002038BDECF0FF1F0A4B13B505
:10B64000041C0A491868FCF727F90B216043FCF732
:10B6500023F900230193019B834203D2C046019B3F
:10B660000133F7E713BDC04620F0FF1F40420F0033
:10B6700038B54400031C1B48205C00240138C0B2CC
:10B68000052802D8184C80000459022903D0032948
:10B6900025D1164D00E0164DDB00E9185D59101C50
:10B6A0004968FAF775FE291CFBF7C2F9051C201C36
:10B6B000FBF7DAFC011C281CFBF7BAF90D49FAF775
:10B6C000D3FF0021041CFAF7ABFD002800D00024B2
:10B6D000201C02F0F5FDFAF70DFE80B200E000201C
:10B6E00038BDC046E0F8FF1FE4ED00006CFAFF1F14
:10B6F00048F6FF1F000020404B89CA89F0B58C89AD
:10B700009D1A2C19202C02DD2032D31A8B810B7A42
:10B71000002243728B895B008372031C0B33888980
:10B720004408A24256DA4E89CC898F7C341BE60F3E
:10B730003419641014194D7C087CE4B2002F1ED11A
:10B74000012D0FD10238032839D8E400FAF74CFD57
:10B7500008040602224810E022480EE022480CE0CD
:10B7600022480AE0022D2AD1022804D0032826D13B
:10B77000E4001F4801E01F48E40024581EE0012DAA
:10B780000FD1023803281AD8E400FAF72DFD080477
:10B790000602134810E013480EE013480CE013486B
:10B7A0000AE0022D0BD1022804D0032807D1E400BF
:10B7B0000F4801E00F48E400041964684C60C87940
:10B7C0000132187088795870487998700879D87063
:10B7D0000433A4E74000033008700020F0BDC046E9
:10B7E000C4F1FF1F5CF8FF1F04F9FF1FCCF6FF1F19
:10B7F0006CFAFF1F48F6FF1FF0B58B8985B0021C5D
:10B80000D80701D501338B814B89C8891C1AE507FC
:10B8100001D501334B814C898D89231A5D19202D67
:10B8200002DD2030041B8C818889141C40080290A2
:10B83000D80FC3185B10DBB203930F340025029FAF
:10B84000BD4257DA23788E7CCB716378039F8B716E
:10B85000A378B4464B71E3787F190B710197674663
:10B860004E7C087C4B68002F20D1019FFFB2012E37
:10B870000FD1023803283AD8FF00FAF7B5FC0804C4
:10B880000602254810E025480EE025480CE0254832
:10B890000AE0022E2BD1022804D0032827D1FF0072
:10B8A000214801E02148FF003B5020E0019FFFB20A
:10B8B000012E0FD10238032819D8FF00FAF794FCA3
:10B8C00008040602144810E014480EE014480CE086
:10B8D00014480AE0022E0AD1022804D0032806D117
:10B8E000FF00114801E01148FF00C7197B600135D6
:10B8F0000434A4E70B7A002053724B891B0A93721D
:10B900004B89D3728B891B0A13738B89537306235C
:10B910000B7005B0F0BDC046C4F1FF1F5CF8FF1FFF
:10B9200004F9FF1FCCF6FF1F6CFAFF1F48F6FF1F3C
:10B9300000231249FE22591892050A6000224A602B
:10B940000F491048591808604A600F490F485918A4
:10B9500008604A600E490F48591808600E48486050
:10B960000E490F48591808604A600E490E48591888
:10B97000083308604A60802BDBD1704704F9FF1F51
:10B980005CF8FF1F6666C240CCF6FF1F0AD7233C57
:10B99000C4F1FF1F0000FA44000020416CFAFF1FB1
:10B9A00007CE593E48F6FF1F1F05D942012803D094
:10B9B000022803D0002002E0014800E0014870475F
:10B9C00078F0FF1F30F0FF1F73B5161C0D1CFFF73A
:10B9D000EDFF036A041C9B68C069291C9847321C50
:10B9E000002806D0236AE0695B68291C984701900B
:10B9F000019A101C76BDEEEE054B1968054B1868D0
:10BA0000054B40181A68054B80181B68C018704712
:10BA100090F9FF1F54F7FF1FECFAFF1F88F9FF1F73
:10BA2000014B18687047C04670FCFF1F10B50170CD
:10BA300002AC511E24884270012906D807232340F6
:10BA40005A1E9341E4081C1903E0D11E012903D8B2
:10BA500064008470032017E0511F012904D81A0ADA
:10BA60008270C37004200FE0111C0F39012907D820
:10BA70001A0AC370230A827003714471062003E01E
:10BA8000203A012AEBD9002010BDEEEE012803D1A7
:10BA9000054B10229A6004E0002802D1024B1022CC
:10BAA0005A6000207047C04680F00F40F7B5164B33
