:1000000000300020650D0000750D0000750D00002A
:1000100000000000000000000000000000000000E0
:10002000000000000000000000000000750D00004E
:100030000000000000000000750D0000750D0000BC
:10004000852F0000752F0000652F0000552F000040
:10005000750D0000750D0000750D0000750D000098
:100060003D2F0000252F0000750D0000750D0000CC
:10007000750D0000750D0000792E0000750D000053
:10008000750D0000750D0000750D0000750D000068
:10009000750D0000750D0000BD2E0000750D0000EF
:1000A000750D0000750D0000750D0000750D000048
:1000B000FD2E0000750D0000750D0000750D00008F
:10040000FFFFFFFFFFFFFFFFFFFFFFFFFE3DFFFFBF
:1004100010B5064C2378002B07D1054B002B02D0DA
:10042000044800E000BF0123237010BDB8F0FF1F97
:10043000000000001859000008B5084B002B03D03D
:100440000748084900E000BF07480368002B03D0B5
:10045000064B002B00D0984708BDC04600000000A6
:1004600018590000BCF0FF1FB0F0FF1F0000000093
:10047000164B002B00D1144B9D46402292029A1A33
:10048000924600218B460F461348144A121A03F075
:10049000A7FC0F4B002B00D098470E4B002B00D031
:1004A00098470020002104000D000D48002802D0CC
:1004B0000C4800E000BF03F06DFC2000290000F0B4
:1004C0000DFD03F03FFCC046000008000030002096
:1004D0000000000000000000B8F0FF1FC8FBFF1F75
:1004E000000000000000000003B47146490840000D
:1004F0004900095E49008E4403BC7047002B11D1AE
:10050000002A0FD1002900D1002802D00021C943C0
:10051000081C07B4024802A14018029003BDC0465F
:10052000B909000003B4684601B5029800F044F828
:10053000019B9E4602B00CBC7047C0469C4603041B
:10054000F0B51B0C17043F0C150C1E1C041C000CF2
:100550007E436B4347434543FB18300C18188742D2
:1005600002D980235B02ED18030CED1863465C434F
:100570004A433604360CA118000480194919F0BD0D
:10058000F0B583B0161C1F1C0090019100F02EF8EE
:10059000041C0D1C221C2B1C301C391CFFF7CEFF29
:1005A000009A019B121A8B410899201C0A604B602B
:1005B000291C03B0F0BDC046F0B583B0141C1D1C4F
:1005C0000090019100F0EEF9221C2B1C061C0F1C60
:1005D000FFF7B4FF009A019B121A8B410899301C57
:1005E0000A604B60391C03B0F0BDC046F0B544460C
:1005F0005F4656464D46F0B41C1C85B0002900DA13
:10060000DBE00F1C0021061C8A46101C191C002C64
:1006100000DAC9E00196009089468046002951D150
:10062000B84200D871E000F07FFB002809D02023F9
:100630004546311C1B1A85408740D940A8460F43C8
:1006400086404246150C13041B0C291C381C9B4683
:1006500000F094FB5B464343041C291C381C99465C
:1006600000F0D0FB330C08041843814509D94044FD
:10067000631E804500D978E1814500D875E1023CD0
:1006800040444946411A8946081C291C00F076FB63
:100690005A464243071C291C4846934600F0B2FBC9
:1006A00036040904360C0E43B34507D946447B1E75
:1006B000B04502D8023FB34500D81F1C240427438D
:1006C000002403E0B94211D9002400275246381C07
:1006D000211C002A03D03B1C00215842A14105B037
:1006E0003CBC90469946A246AB46F0BD081C00F0C3
:1006F0001BFB041E00D0BFE0B94500D242E1019DC2
:100700000099071C8D424741E0E7002804D10120F1
:10071000002100F033FB8046404600F005FB002836
:1007200052D1414644460B043C1B1B0CA3460D0C06
:1007300000930124291C584600F020FB009F8146AD
:100740004743291C584600F05DFB330C090419434C
:100750008F4208D94B464144013B884502D88F421D
:1007600000D91AE19946C91B8B46081C291C00F0C8
:1007700005FB009B291C4343071C5846009300F0CF
:1007800041FB3604009D0904360C0E43B54207D9DF
:1007900046447B1EB04502D8023FB54200D81F1C1C
:1007A00049460E04374391E75246D243031C0C1CC2
:1007B000924600215842A1412CE7002746428F4132
:1007C000012149428A4620E720231B1A4246351C54
:1007D00082403C1CDD40DC4087402B1C150C3B4319
:1007E000291C8640201C00931704904600F0C6FA8E
:1007F0003F0C011C794381468B46201C291C00F0CC
:1008000001FB009C0904230C19438B450CD94B4672
:100810004144013B884500D9BDE08B4500D8BAE092
:1008200002225242914441445C460C1B201C291C6C
:10083000019400F0A3FA391C4143041C8B46019833
:10084000291C00F0DFFA009A090413041B0C194359
:100850008B4509D94144631E884500D997E08B45F3
:1008600000D894E0023C41445B46CB1A49469B4683
:100870000B041C4300975DE7009D20231B1A4A468A
:100880008240DD401543391C009AD9408240884699
:10089000311C0092D9403A1C82400B1C1343019337
:1008A0002F0C2B041B0C391C4046029300F066FAF7
:1008B000029A81464243391C4046934600F0A2FA10
:1008C000019A0904130C19438B450AD94B4649195F
:1008D000013B8D425DD88B455BD902235B42994435
:1008E00049195A468A1A101C391C039200F046FA1C
:1008F000029B80464343391C03989B4600F082FAD2
:10090000019A090413041B0C19438B450AD9434669
:100910004919013B8D4238D88B4536D902235B42B9
:10092000984449195D464D1BAB464946009D0F044E
:10093000424617432A04120C3B042D0C1B0C380CA6
:10094000111C594342436B436843D3180D0C5B1988
:100950008C469A4202D98022520280181D0C4019FE
:1009600083450CD303D00024B0E61C1C89E6654601
:100970002A041B04120C9B18A6409E42F3D2013F8E
:100980000024A3E600240127A0E69846CAE71C1C21
:100990006AE79946A5E7994646E702225242914402
:1009A0004144E0E6F0B55F4656464D464446F0B455
:1009B0000D1C85B0061C9246984602900191039248
:1009C0001F1C141C8346A946002B59D1AA4269D981
:1009D000101C00F0A9F900280AD020231B1A311C92
:1009E000D94085400B1C2B43864084409946B34632
:1009F000250C23041B0C291C4846984600F0BEF920
:100A00004646071C4643291C484600F0FBF95A4657
:100A10000904130C19438E4209D909197B1E8C4213
:100A200000D957E18E4200D854E1023F0919891BD1
:100A30008946081C291C00F0A1F943464343061CC3
:100A4000291C4846984600F0DDF95A46130409046B
:100A50001B0C1943884508D90919731E8C4200D90B
:100A600036E1023E884500D832E1380430430027A1
:100A7000391C05B03CBC90469946A246AB46F0BD39
:100A8000019A934262D8181C00F04EF9041E60D1FE
:100A9000019B9F4200D22CE1029F03998F4260414B
:100AA0000027E5E7002A04D10120002100F066F9C3
:100AB000041C201C00F038F9002800D0B9E0230401
:100AC0002D1B1B0CA946260C98460127311C4846B5
:100AD00000F054F941464143051C8A464846311C02
:100AE00000F090F95A460804130C1843824507D9C0
:100AF00000196B1E844202D8824500D910E11D1CEA
:100B00005346C31A181C311C9A4600F037F9414667
:100B10004143814688465046311C00F073F95A46DD
:100B2000130409041B0C194388450BD94B460919BA
:100B3000013B8C4200D9CFE0884500D8CCE00223AD
:100B40005B42994428044946084391E70027002066
:100B50008EE720231B1A424657468240DF40174348
:100B6000524682400192321CDA40291CD94085400D
:100B7000131C2B4302933D0C3B041B0C8846081CA2
:100B8000291C9A4600F0FAF8534643438146291C33
:100B900040469B4600F036F9029A0904130C1943AB
:100BA0008B4506D94B46C919013B8F4200D8ABE0B3
:100BB00099465A468A1A101C291C934600F0DEF802
:100BC00053464343291C804658469A4600F01AF97A
:100BD000029A090415042D0C29438A4506D9434677
:100BE000C919013B8F4200D886E098465746CF1B73
:100BF000BA464946019F0804424610433D042D0C65
:100C000003043F0C1B0C020C291C594355437B4326
:100C10007A43EB180F0CDB198C469D4202D98027D2
:100C20007F02D2191D0C521992455FD356D000276E
:100C30001EE720231B1A311C2F1CD940DF408540A2
:100C40000B1C84402B4386400193B3462304260C9F
:100C50001B0C381C311C984600F090F84246424369
:100C6000051C311C381C914600F0CCF8019F09048A
:100C70003B0C1943894507D909196B1E8C424DD885
:100C800089454BD9023D09194A468A1A101C311C64
:100C9000924600F073F843464343071C311C50460C
:100CA000994600F0AFF8019A090413041B0C19438C
:100CB000894507D909197B1E8C422DD889452BD926
:100CC000023F09194B46CB1A2D0499462F43FDE6E6
:100CD0001E1CCAE61F1CAAE6994633E761460A04B1
:100CE0001B04120C9B18A6409E42A0D2013800277C
:100CF000BEE600270120BBE68A4500D875E702233F
:100D00005B429844C91971E78B4500D850E702232C
:100D10005B429944C9194CE71F1CD3E71D1CB3E77C
:100D2000023D0019ECE6C0461C2101231B04984239
:100D300001D3000C10391B0A984201D3000A08396C
:100D40001B09984201D30009043902A2105C401823
:100D50007047C046040302020101010100000000C7
:100D60000000000072B602F079FF02F079FF62B66F
:100D7000FFF77EFB00480047750D0000002934D0C6
:100D80000123002210B488422CD301242407A1425D
:100D900004D2814202D209011B01F8E7E400A1421A
:100DA00004D2814202D249005B00F8E7884201D3B5
:100DB000401A1A434C08A04202D3001B5C0822438D
:100DC0008C08A04202D3001B9C082243CC08A042FE
:100DD00002D3001BDC082243002803D01B0901D0EA
:100DE0000909E3E7101C10BC7047002801D000205F
:100DF000C04307B4024802A14018029003BDC04698
:100E0000D90000000029F0D003B5FFF7B9FF0EBCF0
:100E10004243891A1847C046002941D010B4041C27
:100E20004C40A44601230022002900D54942002855
:100E300000D5404288422CD301242407A14204D289
:100E4000814202D209011B01F8E7E400A14204D269
:100E5000814202D249005B00F8E7884201D3401A80
:100E60001A434C08A04202D3001B5C0822438C08A2
:100E7000A04202D3001B9C082243CC08A04202D30C
:100E8000001BDC082243002803D01B0901D00909FC
:100E9000E3E7101C6446002C00D5404210BC7047AC
:100EA000002806D003DB0020C043400801E080207A
:100EB000000607B4024802A14018029003BDC046D4
:100EC000190000000029EBD003B5FFF7A7FF0EBC07
:100ED0004243891A1847C0467047C046BB4BF0B51D
:100EE0001A688024A40022431A6019688022D20064
:100EF0000A431A601968802212010A431A601968AD
:100F0000802252010A431A601968802292010A4322
:100F1000AF491A604868AF4B802252001840104316
:100F20004860086BDDB0184010430863486B1840F8
:100F300010434863886C18408864C86C1840C864C3
:100F40000869184010430861486918401043486117
:100F5000A1480168194011430160416819401143DB
:100F60004160016C194011430164416C1940114307
:100F70004164C16C19401143C16481681940114337
:100F80008160C16819401143C16094490D681D40DA
:100F900015430D604D681D4015434D608D6A1D4021
:100FA00025438D62CD6A1D402543CD628D681D406D
:100FB00015438D60CD681D401543CD600D691D4002
:100FC00015430D614D691D4025434D618D691D40DF
:100FD00025438D61CD691D402C43CC614C6A1C407A
:100FE00014434C627E490C681C4014430C604C68EE
:100FF0001C4014434C608D68C0241D40A400254350
:101000008D60CD681D402C43CC600C691C4014439E
:101010000C614C691C4014434C618C691C401443A6
:101020008C61CC691C401443CC616E490C681C4037
:1010300014430C604C681C4014434C600C6C1C4006
:101040000C644C6C1C404C648C6C1C408C64CC6CF0
:101050001C40CC640C6D1C400C654C6D1C404C65F8
:101060008C6D1C408C65CC6D1C40CC654C6E1C405E
:1010700014434C66CC6F1C401443CC67816C0B400E
:101080001A438264584B594A59498B50594B9879A5
:1010900000201872802018765C7801208443204359
:1010A0005870022018705878101C9A790C210A4048
:1010B0009208FAD14E4C80235B02235020684E4B9D
:1010C00017AD034023604D484D4B1692186088239E
:1010D0005B012A800220E15001F08AFD0E2001F020
:1010E00087FD0F2001F084FD01F08AFE02F028F850
:1010F000444B1A78012A07D01A78032A04D01B78A7
:10110000042B01D000F0B0FD3F4B8022196812047F
:101110000A431A603D4B02211A6801208A431A6073
:1011200019683B4A3B4C11601968314E0143196004
:101130001B68201C13600021342202F051FE364B44
:10114000F3581B011B0F0F2B04D0344A5B009B5A32
:101150009B0201E080231B02314F63600123314D6C
:10116000314E23728023DB00381C30490C22E360AF
:101170006F60AE60E56103F09AFB2D4B01372D499E
:101180001C22301C1F6003F092FB2B4B721C1A6058
:1011900002232B600023236263622768274B606869
:1011A0001F60274BE2681860264B03211A60264B0C
:1011B0009A78264BD2B21140022901D1244A4CE040
:1011C0003F218A43802A47D1224A46E038800440A2
:1011D00000900440FFF8FFFF00A0044000B004406E
:1011E00000C0044000D0044000000710441000007C
:1011F0000070044000400640FFFFF3FF006CDC027B
:101200001CF0FF1F18F0FF1F3C80044000700340DB
:10121000C4F6FF1FCCF6FF1F4C100000964D0000D7
:10122000F8F4FF1F98F6FF1F50F6FF1F8A4D0000CD
:10123000B0F6FF1FB44F0000B4F6FF1FE8F4FF1F25
:10124000A0F5FF1FB8F6FF1F0000024014F0FF1FBB
:101250003CC33CC3A55AA55ADC4A1A600023DC4AA9
:10126000990000248C500133802252009342F6D121
:10127000D84D012002F01CF810236B606A6916A992
:1012800013436B6105230B706B4659331C7058ABCD
:101290001C805C80012259AB1C709A70FA239B0061
:1012A000CD495A93201CCD4A092301F09DFFCC4B18
:1012B000CC4C1B6802930223A36062691A436261EB
:1012C000A36002F0B5FCE1214903071CFFF756FDBE
:1012D00086B2002E00D101267F00E1214902381C90
:1012E000FFF74CFD2024644274432418A4B271011A
:1012F0000919381CFFF742FDE1225202131A9042ED
:1013000001D9B94D4319D822120193421ED8B74BC7
:10131000802219685201B64F0A431A60FB780C22EA
:101320009343FB7039781F239943300A0143397086
:10133000F1B27970B97A1C4099430C43BC72BB7806
:1013400017218B43BB70FB781A43FA70A94BA8484E
:1013500000221A7003782022DBB20370C37816AD26
:101360001343C37083790822134383718022A24BF5
:10137000D2011A60029CA14B1C60A14B1D60FC2392
:101380001B02A04AA04E1968D218921911609F4AF8
:1013900004339342F5D1FC231B021B680CAD052BD3
:1013A0000AD09B4C0021201C202202F019FD201C99
:1013B000984902F0A0FC38E0FE231B021E68771C4F
:1013C00033D007AC201C00210A2202F009FD002EB8
:1013D00020D00927301C0A21FFF714FD301CE955E5
:1013E0000A21FFF7CBFC061C013FF3D20022131C9D
:1013F000E95C002902D0002A02D1DAB2002A02D028
:10140000981A3031215401330A2BF1D19B1A002252
:10141000E25401E0302323707D4E7F49301C02F0FE
:101420005DFC301C211C02F059FC7C4C0823A3609D
:10143000626901261343636180235B02A3606269D2
:101440007827134363616269754B291C13406361FC
:101450000423A3606269301C13436361714B2F70D6
:101460006B60AE6001F0ACFA6F4B704900221E70E9
:101470005F709A70DE7059606D4B1E70131C6D4961
:101480000022CA5480210133C9008B42F7D16A4B34
:101490001A806A4B1A806A4E3378012B00D0DBE346
:1014A000684A694B1178002906D16849086849687B
:1014B0001860596001211170644C1A685B682068DB
:1014C0006168801A9941002902D1614B984204D980
:1014D0000E200121032201F097FD494B1C68231CBB
:1014E000FF335A7B002A00D10BE300225A73013BE1
:1014F0005E89F3B2032B00D8FFE2251C023E0835BB
:10150000A91902220CA803F0D2F9524BB6B21A1C48
:10151000013EB6B2964209D02878190A4340DBB2A0
:101520004D485B001B5A01354B40F1E76E46358E46
:10153000ED1A2F1C7B1E9F410297002F00D0DCE28A
:101540006A466332107816AE19AA6B461478517841
:10155000727A62331B78042A16D06B4662331E7887
:1015600001331B7836029E196A4619AB1B78653227
:10157000127816AD1B026F7AD3189BB2B6B20393E2
:10158000042F00D0D3E182E11B0224020C19C318FE
:1015900032499BB2A4B28B4200D089E018A80178EE
:1015A000009402F0BBFA291CC4B220220CA802F05D
:1015B00017FC00230CAAAB540135202DF9D1284A81
:1015C0009A5C002A4ED1DAB252E0C046A53CC35A1A
:1015D000D4F0FF1F00F00F40D60600005536000083
:1015E00044F0FF1FC0F00F40003EFEFF3480044077
:1015F00000C00640D4F4FF1F00E100E018F6FF1F12
:10160000ECF4FF1FC8F5FF1F0004FFFF48FC0000BB
:1016100020F0FF1F3A4D00003F4D000040F00F400A
:10162000FFFFFDFF0D3700003CF5FF1F152D0000EB
:10163000C6F5FF1F00F7FF1FF4F4FF1FACF6FF1FF6
:1016400018F0FF1F4EF6FF1FD8F4FF1F98F5FF1F7D
:1016500010270000FFFF0000B44D00004F0B0000FA
:10166000184D00000CA95A540133202BA7D1002299
:1016700000239918202909DCCE49595C002907D19B
:101680005CA8C3189A18413AFF3A1170002306E08B
:101690000CADA818C1540133142BEAD1F6E70CA9FC
:1016A000595C3219D21801331172202BF7D198E00E
:1016B000B62109018B426DD118A80178009402F07F
:1016C0002DFA07AE291CC4B20A22301C02F088FB96
:1016D000B94B1D686F1C14D14E2333704F226B46DB
:1016E0005A7754226B469A7756226B46DA7708ABC4
:1016F00041221A704C225A7049229A704422DA70A0
:101700003CE0002D11D1029D302333706B465D7794
:101710006B469D776B46DD7708AB1D705D709D70E5
:10172000DD7009AB1D705D7028E00926281C0A21B8
:10173000FFF768FB0CAFF155281C0A21FFF71EFBD1
:10174000051C013EF2D20022131CF95C002902D0D4
:10175000002A02D1DAB2002A06D0981A5CAE3018FC
:101760005538FF383031017001330A2BEDD19B1A07
:101770005CAFFB18553BFF3B00221A70002316A8F4
:1017800007A9595C0219D218013311720A2BF6D13C
:101790000A3477E089498B4225D118A80178009452
:1017A00002F0BCF9291CC4B220220CA802F018FBDC
:1017B000834BEB5C002B06D15CA94D19413DFF3DED
:1017C0002B70002305E00CAAAB540135202DEFD17E
:1017D000F7E70CA9595C3219D21801331172202B8A
:1017E000F7D120344EE077498B4228D118A80178F0
:1017F000009402F093F9029FC4B233191F72631C64
:10180000DBB2F6181223A71C33720CA8291C202265
:10181000FFB202F0E5FA6C4BAA00D2580CABEA54C6
:101820000135122DF7D1002316A80CA9595CC21955
:10183000D21801331172202BF6D1223422E0B921C3
:1018400009018B4200D088E618A80178009402F0C4
:1018500065F9291CC4B228220CA802F0C1FA5B4920
:101860006B189B001A680CABEA540135132DF6D1A6
:1018700000230CA9595C3219D21801331172282B9C
:10188000F7D12834E4B2002C00D00CE165E6504BCF
:1018900000249E4200D049E3039A062A00D045E383
:1018A00018A80178331C00923A1C02F037F9C3B231
:1018B000EA1842211172591CC9B26F2269180A72C2
:1018C000991CC9B269180A72D91CC9B26918742066
:1018D0000872191DC9B269186C200872591DC9B265
:1018E00069180A729A1DD2B2AA1861211172DA1D02
:1018F000D2B2AA18642111721A1C0832D2B2AA18E4
:10190000652111721A1C0932D2B2AA187221117201
:101910001A1C1C1C0A320B33DBB2D2B2AA184F219C
:10192000ED180C344B231172E4B22B72A4E00024A6
:10193000102F00D0FAE2BE231B019E424CD1254B52
:101940001B78A34200D1F0E218A802F0D5F86B464C
:101950006A335978071C187802F0B0F81BAB597835
:101960000490C619187802F0A9F86B466E33F6B2E7
:10197000059036185978187802F0A0F8F6B23618A3
:10198000051CF6B2BC4207DA211C18A802F0BBF80D
:101990008619F6B20134F5E7083716AB7F00DF1978
:1019A000387A797A02F08AF84042C0B2864200D092
:1019B00083E186E100F0FF1FF0FD0000680B0000EE
:1019C00020F0FF1F7C0B0000C8F5FF1F123F000036
:1019D000CC0B0000C6F5FF1FBF4B9E4221D1039DDB
:1019E000042D00D0A2E201F00BFABC4BBC480C93D2
:1019F0000CA90122036801F081FC211C221C0E208D
:101A000001F002FBB74B01221A7001F099FBC0B242
:101A1000002800D08AE218A801783A1C0095331CEF
:101A200027E0B14B9E4200D080E2039E042E00D0FE
:101A30007CE26B4667331B78542B00D076E21AABFE
:101A40001B78452B00D071E26B4669331B78532B12
:101A500000D06BE26B466A331B78542B00D065E2F2
:101A6000A24F00233B7018A80423017800939E4BDB
:101A7000102202F053F8C4B2E4B2002C00D155E2B7
:101A80009B4D9C492A686B680A604B6000210A1CC8
:101A90000E2001F0B9FA06E0EC000419E4B2E4B259
:101AA000002C00D1C8E3251C934C2A1C2068031C81
:101AB000FF33597D002902D1D97B012917D0002D90
:101AC00001D000F0D3FDDB7B012B10D1427A8023C3
:101AD0005B421343437202238372032200F0C6FD6C
:101AE00083546E70931CFF2A01D000F0D5FD22684C
:101AF00000235370FE32538103E000236370FE34F1
:101B000063817B4B7D4C18685968226863689942F1
:101B100002D80AD1904208D9C820002112184B419E
:101B2000774F226063601023FB60764B1A78002A9F
:101B30003DD000251D7001F07DF8734B041C18701A
:101B4000724E01282AD0A84219D005282AD1704BFC
:101B500070481D700823836001F0FEFC2A1C0121DF
:101B60000D2001F051FA291C2A1C022001F04CFA28
:101B70001E2001F03BFF782001F03AFD12E0B07822
:101B8000654BC0B2187001F033FD624908234B6009
:101B9000221C211C0D2001F037FA03E0564BB278CD
:101BA0001B681A70301C0021142202F019F95B4ADC
:101BB0005B4B11680901C9188B4236D0DA78187965
:101BC000904223D0012A0AD15879012801D15548E1
:101BD00002E0002810D15448046801340BE0002AC8
:101BE0000AD15879012801D14E4802E0002803D1DA
:101BF0004D480468013C04609878002803D04B48A5
:101C0000046801340460002098701A711A7B002A5D
:101C100009D09A78002A03D0444A10680130106035
:101C200000229A701A731033C6E7404B1A6880235B
:101C30005B02002A02D0374A536001E0354CA360B2
:101C4000EFF3108272B63A4B3A4D5521E950AA2172
:101C5000E95082F310881EE43378032B00D11FE48F
:101C60003378042B00D11BE41E4B1B78012B08D1C9
:101C7000BFF34F8F304A314BDA60BFF34F8FC0460E
:101C8000FDE72F4B2F491A68043B0A6059781878F2
:101C9000090201439878DB78000401431B060B43DB
:101CA00083F30888904700231693169B0133FBE7C4
:101CB00001F02CFC002800D12FE1234B00221A70E8
:101CC00033E1052DF9D8281CFEF70EFC4000F2FF89
:101CD0000C01270119012701F40B0000BBBBDDDD5E
:101CE00004FE0000C4F5FF1FFE0B000018F0FF1FEC
:101CF00098F5FF1FD8F4FF1FECF4FF1F10F6FF1F2D
:101D000000F00F40C5F5FF1FBCF6FF1F28F6FF1FB0
:101D100020F6FF1F40F00F40E4F4FF1FC0F6FF1F46
:101D200044F5FF1F24F6FF1FA4F6FF1FA8F6FF1FB0
:101D300004110000007004400400FA0500ED00E00A
:101D4000045D00001CF6FF1FC6F5FF1F049C059DE7
:101D500026027619D24BD34D1B682F68B6B2F618FF
:101D6000002F4DD0002101220F2001F04DF918A8BD
:101D700001F0C2FECC4BB3423DD110283BD1CB4940
:101D800007220CA802F093FD684637300021192283
:101D900002F026F80024211C18A801F0B4FE07AFB9
:101DA000E0550134102CF6D10CA802F0CFFE041C33
:101DB000381C02F0CBFEE3B2071CC0B2984200D23E
:101DC000271CFFB20024E3B2BB4212D2211C18A888
:101DD00001F099FE01345CA90B19423BFF3B1B78D3
:101DE0008342F0D0B24B002201211A600F200A1C5E
:101DF00013E0012200E00022AD4B1A6000232B60AB
:101E0000AB4B1B68002B05D0A74B9E4202D3A94BBE
:101E10009E4205D90F200121022201F0F5F884E04D
:101E2000A54CB50A2388271C002B01D16B1C2380ED
:101E300001352388ADB2AB420ED12388012518A805
:101E4000ED1A01F059FEAD027519ADB29B4A281882
:101E5000904210DC002437E001F058FB002800D04D
:101E60002BE72580964B00221A5480230130DB009B
:101E70009842F7D1E1E70024261C18A801F03CFEA7
:101E800084424ADA8D482B19834210DD01F03EFB73
:101E9000002800D011E73B8801333B80884B0026A7
:101EA0001E5480230130DB009842F7D1351CA9195C
:101EB000049118A8211C01F026FE814B049A0136DA
:101EC0009854F6B20134D8E718A801F015FE844200
:101ED00023DA211C18A801F016FE794B66199855D3
:101EE0000134F1E7002118A801F00DFE0121041CC6
:101EF00018A801F008FE2402241824010BE0002198
:101F000018A801F000FE0121041C18A801F0FBFD37
:101F1000240204192404624B1C60039C18A8BE23ED
:101F20000178102200941B01A3E500246B46623364
:101F30001F7801331B783F02DF1919AB1D7801337D
:101F400016AE1B782D02727A5D19BFB2ADB2032AAC
:101F50005AD15C483B1899B23F293CD8154200D071
:101F60002EE1174200D034E15B19402B02DD564DC3
:101F7000ED1BADB218A801783B1C0095032201F0BF
:101F8000CDFDC0B2AD08031C0021A94200DB83E5F2
:101F90000022F41822725C1CE4B2341922729C1CD8
:101FA000E4B234192272DC1CE4B2341922721C1D12
:101FB000E4B2341922725C1DE4B2341922729F1DFE
:101FC000DC1DE4B2FFB2F719083334193A72DBB200
:101FD00022720131D9E73D4B9F4200D02BE1012D08
:101FE00000D9EDE018A801783B1C009501F096FDA2
:101FF000C0B233181C72364B841C0130C0B21B783F
:102000003018E4B203724AE50024102A00D013E12C
:102010002C483B1899B23F2917D80322154200D00B
:10202000CEE0174200D0D4E05B19402B02DD264DF4
:10203000ED1BADB201F090FA01210A1C022000F064
:10204000E3FF002401F0D2FCBDE0204B9F420FD102
:102050000298C4B2012D00D9EEE001F07DFA012111
:102060000A1C022000F0D0FF002401F0BFFCA4E015
:10207000184B9F4255D10299CCB2052D00D9DBE017
:1020800018A801783B1C009501F048FD6B466733AA
:102090001B78C4B2012B21D10F4A0423536022E0E4
:1020A00038F5FF1F40F0FF1F005C0000F84C0000F7
:1020B000E0F4FF1F00F80000ACF6FF1FFF03000074
:1020C00000F7FF1F90E8FFFFB0170000FC170000AB
:1020D00020F6FF1F3818000040F00F40002B02D1FF
:1020E000C448042383601AAB1B78012B02D1C14979
:1020F00008238B606B4669331B78012B02D1782053
:1021000001F076FA01F028FA012100220D2000F0FA
:102110007BFF00210A1C022000F076FF01F066FC24
:102120004BE0B54B9F4215D1029BDCB2012D00D98B
:1021300082E018A801783B1C009501F0EFFC1AAB77
:102140001B78C4B2012B01D1082316E0002B34D137
:10215000082318E0A94B9F4218D1029BDCB2012D45
:102160006AD818A801783B1C009501F0D7FC1AAB7F
:102170001B78C4B2012B03D104239E4843601CE0AA
:10218000002B1AD104239B498B6016E09C4B9F4285
:1021900013D1029BDCB2012D4ED818A801783B1C4C
:1021A000009501F0BBFC1AABC4B2187843B2002B07
:1021B00000DC74E401F01CFA71E4924B9F4202D1FE
:1021C000029DECB238E0904B9F4200D067E4112DA5
:1021D00002D9029FFCB22FE01AAB1B7802930023B6
:1021E000F218527C07AFDA550133122BF8D118A838
:1021F0000178854B0095102201F090FC0CADC4B223
:102200000021281C202201F0EBFD00237F4A9900C9
:102210008A58EA540133122BF8D10298122800D0C0
:1022200019E20023E95CFA5C914200D013E2013329
:10223000122BF7D133E400246B46623369461B78D6
:10224000633109781B02CB1819A90F78013109787D
:102250003F02727ACF199BB2BFB2042A00D041E18B
:10226000FA21C9008B426DD118A80178009701F0BE
:1022700055FC674BC7B21B68F1191A0AD2B20A7231
:10228000791CC9B2DBB271180B72B91CC9B27118D2
:102290000C72F91CC9B271180C72391DC9B27118CF
:1022A0000A727A1DD2B2B218137201F0B3FBBB1DD1
:1022B000DBB2F318020A1A72FB1DDBB2F3181872B4
:1022C000544B3A1C1B680832D2B2B218190A117268
:1022D0003A1C0932D2B2B21813723B1C0A33DBB279
:1022E000F3181C723B1C0B33DBB2F3181C723B1C43
:1022F0000C33DBB2F3181C723B1C0D33DBB2F3184A
:102300001C723B1C0E33DBB2F3181C723B1C0F33E8
:10231000DBB2F3181C723B1C1033DBB2F3181C72D7
:102320003B1C1133DBB2F3181C723B1C3D1C1233F7
:102330001337DBB2FFB2F3181435F6191C72EDB285
:10234000347250E1344A93420FD06A4663321078B7
:1023500016AD19AA6B46167851786A7A62331B78E3
:10236000042A01D0FFF79FFB42E13C2FEDD8294B17
:10237000381C1D680721EDB20295FEF74DFDC0B275
:10238000A84202D8002D00D00290029D07236B4383
:1023900018A80178042200931F4B01F0BFFB029E96
:1023A000C5B2002E00D11EE1002701F0D5F82B1C8C
:1023B000039701210398029EB04200DB8BE0174A8D
:1023C000002901D0002111601168114A126804929D
:1023D000049FB94226D212480E0182199778013122
:1023E000002FF5D1305A5679177904960B4E926822
:1023F00031601BE040F00F4042180000431800001D
:1024000044180000451800009C180000C8F5FF1F84
:10241000C0F6FF1FA8F6FF1FDA07000090F6FF1FA7
:1024200044F5FF1F00220492171C101C16A9C9189E
:102430008C466646002131725E1CF6B2B44616AE7A
:10244000B44466463772060A9F1CB446FFB216AE05
:10245000F71966463E72DF1C16AEFFB2F7193872E6
:10246000181DC0B230180172581D049FC0B2301838
:102470000772981DC0B230180172D81DC0B2301852
:102480000172181C0830C0B230180172181C0930D3
:10249000C0B230180172181C0A3016AFC0B238181A
:1024A000160E0672181C0B30C0B23818160C0672C5
:1024B000181C1E1C0D30C0B20C368446F6B216A88D
:1024C000170A8619604437720272039F0E33013770
:1024D000DBB203976EE70E237343ED18EDB201F004
:1024E00085FA80E0102A00D02FE7A34A934236D124
:1024F0006B4667331B78232B00D026E71AAB1B787B
:10250000432B00D021E76B4669331B784C2B00D05E
:102510001BE76B466A331B78532B00D015E701F09D
:102520001BF8964B18680023000183420FD0944A91
:10253000D2181179012908D19178002903D0914945
:102540000D6801350D60002191701033EDE701F049
:102550004DFA18A8017810220097874B40E08A4A6C
:10256000934200D0F1E63B2F00D9EEE67D080295BC
:1025700000F0F2FF814B00211B6803931AAB029D10
:10258000A94226DA5E789A783602B6181878B6B27A
:1025900000220496904219D10398824216D0784DB9
:1025A0001001465BB446049EB44502D1013202D10B
:1025B0000CE00132F0E72A189278012A03D0714A20
:1025C0001668013E1660281801228270013104331A
:1025D000D5E701F00BFA18A86B4B01781022009791
:1025E00001F09CFAC5B2002D00D1AEE6FFF75CFA0F
:1025F0001B02C31865489BB2834201D0FFF753FA10
:1026000036028E19B6B2032E01D0FFF74CFA18A885
:102610000178009601F082FAC0B22A1800231372E2
:10262000421CD2B2AA1811211172821CD2B2AA186D
:102630001372C21CD2B2AA1822211172021D841D6B
:10264000D2B20530AA18C0B213722D183323E4B2E7
:102650002B72FFF728FA00F07FFF02200121021CF5
:1026600000F0D2FC01F0C2F9FFF719FA0830484B2C
:10267000011C8518AEB2B4468FB21E0ABC4501D10A
:10268000FFF72EFA0D78B6B26B40DBB2414D5B001E
:102690005B5B01317340ECE721683F4E0A1CFE3260
:1026A000002050813D4F307802224A7008317A6014
:1026B000002802D001280ED047E0DBB2CB189942A7
:1026C00043D03748027952B2002AFADA0878344AFD
:1026D0000131D071F3E7334DDBB26F69002F04D1C4
:1026E0003148DF21314A324B05E0002B05D12E481D
:1026F0002E4A304BE22101F007FB2F7F012F24D01F
:102700002B61287700920CA82B4A01F047F86869E2
:102710000CA901F089F86B69002B01D101F02EFAA8
:102720001A681B791E481B01D318FC3319698022D3
:10273000D2050A431A61C27A80235B421A43D2B29D
:10274000C272C2781343DBB2C3703378002B06D059
:10275000012B09D1194B1B78002B00D0FEE7104943
:102760000B794A795A06FAD50C4D02232668AB60DC
:1027700000237370FFF7BBF998080000C0F6FF1F35
:1027800044F5FF1FA8F6FF1FA2080000A4060000E2
:10279000FFFF0000B44D0000D4F4FF1FC0F00F4055
:1027A00000C00640A4F5FF1F414D0000254D00006C
:1027B000674D00007B4D000007C0064094F6FF1FE8
:1027C000F0B5051C85B00C1E05D178487849794ACA
:1027D000794B01F099FA6F460F3700233B703B7835
:1027E0000133DBB23B70C6788379F6B25A0602D564
:1027F0008023DB011E43AB79DA0602D580235B011F
:102800001E43231D0193720402D4F3042BD51BE055
:10281000AB7940221343AB7102220023EB70EA70C4
:1028200022789A420DD023612370A369202222715D
:10283000134206D0E369002B03D0281C0199226AB9
:1028400098477206E1D4AEE0AA7910231A43AA7120
:102850000022EA700222EA70A26923711A4208D1AA
:10286000730600D49FE00223EB7001231E4208D1BF
:1028700023E0E369002BF3D0281C0199226A9847D2
:10288000EEE7AB7818229343AB702B79DBB23B7049
:10289000E368002B00D186E0484A20232261002211
:1028A0002270A26923711A427DD0E369002B7AD08D
:1028B000226A281C0199984775E04022164221D0CF
:1028C0000421237023710E4005D0AA7810210A43F9
:1028D000AA701E1C0AE0AB7818218B43AB702B79D1
:1028E000DBB23B703B78002B00D122712379A269C7
:1028F0001A4231D0E369002B2ED0281C0199226A9C
:10290000984729E033064BD5720703D5A368002BFF
:1029100025D127E0A368002B02D0E368002B0AD161
:1029200004232371E369002B03D0281C0199226A38
:102930009847002363612A79E368D2B2002B32D032
:10294000A368591CA1601A70E368013BE3606369E6
:1029500001336361E36826E0002ED7D123E0E3680A
:10296000002B0AD102232371E369002B03D0281C1A
:102970000199226A984700236361E368002B0BD01A
:10298000A3685A1CA2601B782B71E368013BE360CB
:1029900063690133636106E0AB7818229343AB703F
:1029A0002B79DBB23B7005B0F0BDC0466D50000026
:1029B000CE060000525000008E5000004E04000071
:1029C000F0B5794B820087B0D4580F1C0E78019077
:1029D00001F006F9754A764BD158764A944205D0F3
:1029E000754B9C4200D095E0012300E00023734A20
:1029F0009B009D586D4A2B0C9B181A68ADB2009233
:102A000001229446AA40151C009A76002A431A60B7
:102A10000025FF232570F6B26570A570E370502382
:102A20006571A371E5712670A37802229343802219
:102A30001343A370627990231343090F63716144B8
:102A4000FEF79CF9012304905B4202950395012255
:102A50005B49AA405143009305910026594B7200EF
:102A6000D05A059B04995843FEF788F95649574AAE
:102A70004318904202D8FA231B011B1A009A934272
:102A800004D202950396002B04D000930136402E09
:102A9000E4D1009B022D1CD103993F230B400299E6
:102AA0008A011343019ADBB26370002A15D0012A10
:102AB00022D1B968464BC22292008801FF219D585D
:102AC0000840444900022940014399508022920065
:102AD00011E00135002BBAD1DEE73D4BC222920056
:102AE000B9689D588801FF218D430840291C014386
:102AF0009950802252001A60374D2422281C002150
:102B000001F06EF97A682B4B00929C4204D02A4B5C
:102B10009C4203D001F042F8002600E00126242266
:102B2000281C002101F05CF9009BB200EB612B4BEB
:102B3000D5502B4A2B4B1A602B4B9B5D5AB28032DF
:102B400006D01F22134001229A40131C204A136012
:102B50002978C9B2002921D1A3784026B343A370B4
:102B6000A37970229343A3711422281D01F038F930
:102B700001232B706623AB61A27950231A43A27103
:102B8000A2791A43A2711222E270A2781643A670AB
:102B9000A2799A43131C20221343A3713A78134B52
:102BA00000201A7007B0F0BD4C51000000700440C6
:102BB0004410000000600640007006408052000093
:102BC0000065CD1DD24F000060F0FFFF9F0F000099
:102BD00000E100E0FF00FFFF10FBFF1FA4FBFF1F51
:102BE000C12700005CFBFF1FD04F000005FBFF1F4B
:102BF0000E4A70B514680023161CA34208D00C4A74
:102C00001901525A824201D00133F6E701200CE04B
:102C10000122052BFAD006491C010D19AA700133B7
:102C200000226A7133606052101C70BDC0F6FF1F35
:102C300044F5FF1FF7B52E4B1A78002A04D12D4C0E
:102C40002378002B28D029E000221A702A4B19681B
:102C50002A4B5878081A032815D12948294C40785E
:102C60004000C0B29F1801328DB296B2205CB542CE
:102C700002D03D786840F5E76A46D0710139D079D5
:102C80005A5C904208D15A78002A18D11A781E4B03
:102C90001A601E4B01221A70062027E01C480021F2
:102CA000142201F09DF800232370174B03201B68AA
:102CB000232B1BD006202A2B18D1042016E01A78CB
:102CC000232A12D01A78242A03D19A780520002AC0
:102CD0000CD01A78242A03D19A780020824205D198
:102CE0001B7802202A2BAAD100E00120FEBDC0469D
:102CF00060FBFF1F0CFBFF1F08FBFF1F28F6FF1FD9
:102D00003CF5FF1F7E51000000FBFF1F04FBFF1F6F
:102D100034FBFF1F38B5FFF78DFF144A144B1278B0
:102D200018705A7003281ED11249134B01240968E8
:102D30001A705C7009789970104948781049A04061
:102D4000C5B24D5D20436A408C5C5A1C6040C0B2E5
:102D5000085C5C1D551E0132A24203D02D786840EC
:102D6000085CF7E7D870002038BDC04600FBFF1FA5
:102D7000BCF6FF1FECF4FF1F34FBFF1F3CF5FF1FE9
:102D80007E51000010B50E4C702323700D4BDB6993
:102D9000002B02D01B68022B01D06D200FE00A4BE4
:102DA000201C1B68984723786720DBB29A0606D45C
:102DB0006820DA0603D40120184000D0692010BD35
:102DC00000000240CCF6FF1FB0F6FF1F094A10B505
:102DD000D269031C002A0BD01268022A08D10128EC
:102DE00006D1054A802114680448C9000A22A04778
:102DF00010BDC046CCF6FF1FB4F6FF1F0C3000F02C
:102E00000023044A9A181168034AD1500433242B32
:102E1000F7D17047005C000064FBFF1F08B5002875
:102E200005D1CC210E4849000E4A0F4B08E002792B
:102E30000368032A06D9C4210C480D4A0D4BFF3103
:102E400000F062FF12019B18FC33D9688022520403
:102E50000A43DA608368002B01D0C168984708BD37
:102E6000A550000070510000C6500000D550000071
:102E700054510000F650000008B50E4B19795A79EC
:102E800012020A4328210A4213D011070AD05A79A4
:102E900040218A435A711A79DA791A79DA791A79DA
:102EA0005B7906E0044A1268002A01D0904700E0EE
:102EB000DB7908BD00C0064018F6FF1F10B50C4CAA
:102EC000012322691340012B05D12361094B1B68A3
:102ED000002B00D09847226A01231340012B06D112
:102EE000034A1362044B1B68002B00D0984710BDA7
:102EF000FC700340ACFBFF1F88FBFF1F08B5074BAE
:102F000080211A680A431A60054B1B68002B00D009
:102F10009847BFF34F8FBFF36F8F08BD0000044089
:102F200090FBFF1F08B5034B0348596800F044FEAF
:102F300008BDC046A4FBFF1F0070064008B5034B48
:102F40000348196800F038FE08BDC046A4FBFF1F07
:102F50000060064008B5024BD868FFF75FFF08BD68
:102F600094FBFF1F08B5024B9868FFF757FF08BD99
:102F700094FBFF1F08B5024B5868FFF74FFF08BDD1
:102F800094FBFF1F08B5024B1868FFF747FF08BD09
:102F900094FBFF1F80B584B000AF01235B427B60D0
:102FA000184BDB69FB600023BB6014E0FB68181C56
:102FB00000F02EFD031C3B607B683A1C101C0421B2
:102FC0001A1C00F03BFD031C7B60FB680433FB60B4
:102FD000BB680133BB600B4B1A6A0A4BDB69D31A1F
:102FE0009A08BB689A42E1D87B68181C00F046FD3D
:102FF000031C7B607B68DB437B607B68181CBD46E1
:1030000004B080BD64FBFF1FF7B5051C01208142A1
:1030100000D98CE0464B00201B680193019B98422D
:1030200007D0444C03011E193788AF4204D0013049
:10303000F4E7012040427AE0471C78D000200129C3
:1030400001D0B06070E0B6680F2D57D004D8022DC3
:1030500005D00E2D45D05FE0323D0A2D5CD8D0B2B0
:10306000032805D004280BD0821E5042424108E0BC
:10307000120A04250832E0183543D2B2856000E018
:10308000032201209040021CE01885682A43022593
:103090008260AA4312D04279002A3DD00279012AE7
:1030A00007D1254A106801301060244A10680138A1
:1030B00010600020E2185071012010E04279012ACE
:1030C0002AD00279012A07D11B4A10680138106002
:1030D0001A4A106801301060E21801205071107314
:1030E0001AE0022A04D0D01E45426841400000E0A8
:1030F000081C01278740E5183743AF60012A03D039
:10310000022A02D1012000E00020E2180125976880
:103110008540281C38439060E218101C92680830E3
:10312000964201D001220271E318D9700020FEBD41
:10313000C0F6FF1F44F5FF1FA4F6FF1F24F6FF1F74
:10314000224B37B51B68224A224C934201D10123FE
:1031500005E0214A934201D1002300E002232370BD
:1031600000F024FC012816D01C4B1B78012B12D038
:1031700000F01CFC0138431E984180B26B46D88099
:1031800006331B88002B06D0012103230E200A1CC6
:103190002370FFF739FF00F08BFC002813D1104D8E
:1031A0000323EA691A4207D12A6A1A4204D1FFF7B7
:1031B000F1FE6B69984206D004230E200121022201
:1031C0002370FFF721FF2078C0B23EBD04FE00004F
:1031D000BBBBBBBB18F0FF1FBBBBDDDDC4F5FF1FD6
:1031E00064FBFF1F0000000070B5051C0E1C1C1CBA
:1031F000002822D0012848D1274BA4011A6000F0F2
:1032000017FD0021321C0B1CFDF798F9214B204AB9
:10321000FDF774F9214B224A586159692148116020
:10322000DA6902210A43DA611F4BC5228A409D58A0
:10323000FF210C4021042C1C1FE01C4BA4011A6030
:1032400000F0F6FC321C2B1C291CFDF777F9114B02
:103250000F4AFDF753F9114B114A5860596811484C
:103260001160DA6802210A43DA600F4BC5228A40F6
:103270009E58FF210C402104341C04400C439C50F8
:103280008022D2031A60002000E0012070BDC046F9
:1032900040420F000000000088FBFF1FFC7003404D
:1032A000C4F6FF1FFFFF00FF00E100E0ACFBFF1FC3
:1032B00090B583B000AFFB1D00221A70FC1DFA23ED
:1032C0009A000D4B0120111C1A1C0223FFF78CFFE2
:1032D000031C2370FC1D012000F072FB031C2370F3
:1032E000FB1D1B78002B01D0012300E00023181CDC
:1032F000BD4603B090BDC046C53600007B4BF0B55F
:10330000141C1A688DB001321A60830A9B02029362
:103310000023029E9D00AA191668754A0133AE501B
:1033200080256D00AB42F4D1029E0023801B8008F3
:10333000A34206D09E001D188E59AD005651013390
:10334000F6E701241C401C19A400644200F04BFB6A
:103350000394684C684A2168039E8D18AD1B04A92C
:10336000029800F005FB0298291C089A00F0EAFA7E
:10337000071E26D1049C059E631E5D19281C311C66
:10338000FDF740FD002906D0281C311CFDF7F6FC96
:10339000451C7543013D0020FFF718FDAC420DD8D8
:1033A000230290221B0A12051A43544B1A60FFF79E
:1033B000E9FC002801D1A419F0E7071C0120FFF760
:1033C00005FD002F01D001208EE04A494A4A0968D4
:1033D000039E8C18A41B04A9029800F0C9FA029855
:1033E000211C099A00F0AEFA00282ED1029804A9F7
:1033F00000F0BEFA069E049D734203966E421E4084
:103400007642AE421ED1039976181BE0771BA74285
:1034100000D9271C0999381CFDF7B0FC2B0280222B
:103420001B0A52041A43354B00041A60344B1843EC
:10343000344B1860FFF7A6FC002806D1039AE41B62
:10344000ED19B618002CE1D101E00028BBD1294EBE
:1034500004A93568029800F08BFA0298291C079A93
:1034600000F070FA041EAED1049EFFF7AFFC204BB3
:10347000002D22D0234A19681F1D1160079A042AC3
:1034800003D133021B0AC02209E0082A0BD15A6873
:103490001F1C1D4B08371A6033021B0AE022D2049E
:1034A0001A43164B1A60FFF76DFC002804D1079BE6
:1034B000F618ED1A3B1CDBE7041C0120FFF786FC25
:1034C000002C00D07FE700F08BFA029EA3009A192F
:1034D000074E1268F3589A4200D074E780230134F3
:1034E0005B009C42F1D100200DB0F0BD8CFBFF1FB2
:1034F000D4F0FF1FB8F6FF1F00FCFFFF04000240DE
:10350000FF010000080002400C0002400F4A08B50D
:103510001388012001339BB213809622824093428C
:1035200012D80B4B1888802301388002DB00C218A8
:10353000031C02CB9342FCD1802206495200FFF7C4
:10354000DDFE431E9841C0B208BDC046F4F4FF1F23
:10355000ACF6FF1F00F7FF1FF7B5EFF305823F231F
:1035600013400093009B1E4E002B26D100F03BFA27
:103570001A4D194C3768002F21D100F031FA194B40
:1035800019491868FDF7FAFB642358430B21FDF72E
:10359000F5FB0197019B834204D2C046019B013396
:1035A0000193F7E700F01FFA01225242D317A41843
:1035B0005D41231C2B43DDD101E000F014FA336898
:1035C0000124002B01D00024346000F009FA201CF3
:1035D000FEBDC046C046C0462C01000000000000F1
:1035E00048F0FF1F1CF0FF1F40420F00C046C046BE
:1035F0001FB5064B01A9064A5870087018784A6032
:10360000FFF7DEF9002005B000BDC0463CF5FF1F06
:103610000D3700000C4BD8790C4BC0B21A685378A8
:10362000002B10D1111CFE314B89FE2B03D8D21870
:10363000013310724B81064B0122D9689143D96046
:10364000D9680A43DA60704700C00640ECF4FF1FF7
:10365000FC7003400F4B0121DA6810B58A43DA6031
:103660000D4B1B685878002813D11A1CFF32D47BED
:10367000197A002C09D01C78A14206D0002904D068
:10368000002C02D0FE33588103E0517501215173A3
:10369000597010BDFC700340ECF4FF1F02010009DB
:1036A0000243D2B23321131C0B408A4392109B0079
:1036B0001343181C5522104093435B1040001843DD
:1036C0007047000010B5054C012200232068616896
:1036D00012184B412260636010BDC04698F5FF1F71
:1036E000084B02221878104004D19A791207920FE1
:1036F000012A05D15A7801231A40034B9200D05871
:103700007047C04600400640885200000B7810B554
:103710000C1C022B14D004D8012B2CD100234B609D
:103720001AE0042B1AD0202B25D10A69124B13481A
:103730001A600021142200F053FB0122104B19E003
:10374000104B00221A70104B01221A700F4B5B684D
:1037500098470F4B63602623A3600CE002790D4B62
:103760001A600D4B01224B6026238B60054B1A70AB
:10377000054B00221A7010BD08FBFF1F14FBFF1F32
:10378000C5F5FF1F60FBFF1F0CFBFF1F3CF5FF1F74
:1037900034FBFF1F00FBFF1F28F6FF1FF7B5019347
:1037A00008AB041C0F1C161C1D78002805D18821AD
:1037B00018484900184A194B06E0002906D1122181
:1037C0001448154A164BFF3100F09EFA002A05D125
:1037D000892110484900104A124BF5E700211022B8
:1037E00000F0FEFA019B2760E360012366606372CC
:1037F000E3729D4208D0002D04D0022D09D123721E
:10380000002305E0237203E000232372A57200E089
:10381000A372F7BDA55000002C580000B45600005C
:10382000C3560000D3560000F8B5002805D1B621D4
:1038300037484900374A384B06E0002906D16E2147
:103840003348344A354BFF3100F05EFA04790268A0
:103850002301D318FC33DD68802292042A4054D11E
:10386000032C03D92A486D212D4A10E0DD688024FD
:1038700064042C43DC602B4C5A609A60DA601C6153
:1038800004790368032C04D92148274A9321274B44
:10389000DAE724011B190C68FC335C604D689D60FD
:1038A000CD682C02240ADC60CD7AC0248F7AE40231
:1038B0006D0425408024FF0424033C401E692543F9
:1038C0001B4C34404E7A2543C0243605A4033440B3
:1038D00025430C7A8021C903A4050C40291C2143EF
:1038E000196101790368032905D956211148FF316F
:1038F000114A124BA8E709015B18FC3318698021B3
:10390000090601431961101C00E00D48F8BDC046CE
:10391000A550000019580000C6500000B456000021
:10392000E057000080000020F15700002251000005
:10393000FFFF81FFD5500000CB570000F65000007C
:1039400088130000031C013A0843024030B565208B
:10395000002A0AD1054D66202C68A34205D35B18C6
:1039600069686418A34200D8101C30BDCCF6FF1F54
:1039700038B520220C1C051C081C002100F030FA70
:10398000094B1A685868AD1ADA6825606260197ABE
:10399000FDF7F4F90423A060E36000202361636174
:1039A000A361E36138BDC046CCF6FF1F034B187816
:1039B0005B788006C00F01307047C04600F00740BA
:1039C000012808D8054B0001C018C3680122134321
:1039D000C360002000E001207047C046FC70034037
:1039E00062B60020704772B60020704737B5EFF31B
:1039F00005823F231340054C01930125019BFFF7EE
:103A0000F2FF2560FFF7ECFF00203EBD48F0FF1FEE
:103A100000687047054B1968054B1868054B40183E
:103A20001A68054B80181B68C0187047A4F6FF1F62
:103A3000F0F4FF1FC8F6FF1F24F6FF1FF7B5061CA2
:103A40000F1C141C051CAB1BBB4213DA2878013574
:103A5000C0B2FFF723FE6B4698719A796B46120647
:103A60006240120EDA71DA79034B9200D3582402C5
:103A70005C40E8E7201CFEBDA0520000F8B5041C25
:103A8000C0B2FFF70BFE071C2004000EFFF706FE76
:103A9000061C2002000EFFF701FE051C200EFFF79A
:103AA000FDFD3F0636043E4330432D022843F8BD5A
:103AB000014B18687047C046B0FBFF1F031C303B2A
:103AC000DBB2092B06D9031C413B052B03D8373841
:103AD000C0B200E0181C0B1C303BDBB2092B06D92E
:103AE0000B1C413B052B03D83739C9B200E0191C28
:103AF00000014018C0B2704708B5031C597A007A1B
:103B0000FFF7DCFF08BD08B50A1C08325200031C91
:103B10009B18805C5978FFF7D1FF08BD10B5017084
:103B200002AC511E24884270012906D80723234085
:103B30005A1E9341E4081C1903E0D11E012903D841
:103B400064008470032017E0511F012904D81A0A69
:103B50008270C37004200FE0111C0F39012907D8AF
:103B60001A0AC370230A827003714471062003E0AD
:103B7000203A012AEBD9002010BD000008B5034807
:103B80000349044A044B00F0BFF8C046D55000007A
:103B90001A02000007580000C650000008B503488C
:103BA000B921034A034B00F0AFF8C0466D50000046
:103BB0009052000044570000C37807B5DA0602D4DB
:103BC00083789A0601D5044B00E0044B1B689847A4
:103BD000BFF34F8F07BDC046B4FBFF1F5CFBFF1F49
:103BE00010B50E4CA3791B079B0F012B0CD0002B9B
:103BF00008D0022B0FD18C2109484900094A0A4BF1
:103C000000F082F8094807E0FFF76AFD237A1B07F6
:103C10005B0FD84000E0002010BDC04600400640C9
:103C20008F570000A0560000B2570000006CDC0265
:103C300038B5084D084CFFF7D3FF2959090F01315A
:103C4000FDF79CF829594903490F0131FDF796F812
:103C500038BDC046007004404410000070470000AA
:103C6000154B164930B51A1E8A420CD0144C00234D
:103C7000A408A34204D098000D5801331550F8E76A
:103C8000104B9A6001E00F4A93600F4A0F490023DE
:103C9000891A8B4204D0D45C0D48C4540133F8E730
:103CA0000C4A0D490023891A8B4204D0D0180024F5
:103CB00004700133F8E730BD000000000000000090
:103CC0000000000000ED00E040590000F459000041
:103CD00000F0FF1FB8F0FF1FC8FBFF1F10B5021C4C
:103CE0001378002B01D00132FAE7CC5CD4540133B5
:103CF000002CFAD110BD031C0A7801311A7001336F
:103D0000002AF9D1704700007FB5061C09480068F9
:103D1000C068002A02D0151C074C01E0074C251C86
:103D20001A1C0091331C06490194029500F020F8FA
:103D300000F0E2FBACF0FF1F405800007B58000091
:103D40004D580000084B10B5041C002B02D0002178
:103D500000E000BF054B1868836A002B00D098472D
:103D6000201C00F0C7FFC046000000008058000083
:103D70000EB403B503AB04CB054A011C1068039ACB
:103D8000019300F05DF802B008BC03B01847C046CC
:103D9000ACF0FF1F70B50E4B0E4D0024ED1AAD10A8
:103DA0001E1CAC4204D0A300F35898470134F8E736
:103DB00001F0B2FD084B094D0024ED1AAD101E1C98
:103DC000AC4204D0A300F35898470134F8E770BD23
:103DD0003859000038590000385900003C5900009B
:103DE000031C8218934202D019700133FAE770471E
:103DF000936810B5013B9360002B05DA9469A342E8
:103E000008DBCBB20A2B05D01368581C1060197060
:103E1000C8B201E000F0A6FA10BDF8B5061C0F1CF0
:103E2000141CD518AC4208D02178301C3A1CFFF77E
:103E3000DFFF0134431CF5D100E00020F8BD000095
:103E4000F0B59FB0061C0F1C03920593002804D008
:103E50008169002901D100F05FFC754B9F4201D1BF
:103E6000776808E0734B9F4201D1B76803E0724B5B
:103E70009F4200D1F768BB891A070AD53B69002B1E
:103E800007D006AD00236B6120236B763023AB7621
:103E90003BE0301C391C00F0BDFA0028F1D00120B5
:103EA0004042C2E0059A111D12680591002A76DB96
:103EB0000992013423782E2B00D181E021785F48CC
:103EC000032200F0E9FC002807D05C492A68431A65
:103ED000402098401043286001342178631C5848E2
:103EE00006220393297600F0D7FC002800D18AE04F
:103EF000544B002B7ED1059B072207339343083395
:103F000005936A69049953186B61039C2378002B0D
:103F100004D10399611A029110D003E0252BF8D047
:103F20000134F3E7301C391C039A029BFFF775FF3D
:103F3000013075D06A69029953186B612378002BA0
:103F40006ED0012252426A606A4600235B3201341D
:103F50002B60EB60AB601370AB6521783A480522AB
:103F600000F09AFC002808D0374A0134831A012057
:103F700098402B6818432860EFE72B68D90603D5D3
:103F80006A4620215B3211701A0703D56A462B213D
:103F90005B32117022782A2A84D0099B05E05242B4
:103FA000EA60022213432B6083E72278303A092A21
:103FB00004D80A214B4301349B18F6E7099379E7AB
:103FC00063782A2B09D1059B02341A1D1B680592C0
:103FD000002B0DDA01235B420AE001340023227832
:103FE000303A092A04D80A214B4301349B18F6E7DA
:103FF000079363E705AB0093301C291C3A1C134B55
:1040000000E000BF07E005AB0093301C291C3A1C00
:104010000E4B00F091F804900499013100D070E744
:10402000BB895A0600D53AE70B981FB0F0BDC046D1
:10403000B8580000D8580000F85800008A5800000E
:104040008E58000000000000845800001B3E000055
:10405000F7B5151C01930A698B68061C0C1C93426A
:1040600000DA131C221C2B6043321278002A01D084
:1040700001332B602068800602D52B6802332B6049
:10408000216806270F401FD0231C43331B785A1E7C
:104090009341226892061FD5E11840313020C87044
:1040A000211C5A1C45310978A21840320233D170C4
:1040B00012E0221C301C019919320123089FB847D5
:1040C000013011D0009F01370097E0682968009FF8
:1040D000431A9F42EDDBD7E7221C301C0199433283
:1040E000089FB847013002D10120404223E02068F8
:1040F00006212B68E26801400025042903D1D51A66
:10410000EB43DB171D40A26823699A4201DDD31AF5
:10411000ED1800270097009FAF420BDA221C301CDD
:1041200001991A320123089FB8470130DCD0009F63
:104130000137EFE70020FEBDF0B50D1C8BB0433515
:1041400006920590079304950B7E0C1C109A6E2B1B
:1041500000D1A7E011D8632B22D009D8002B00D1C1
:10416000B0E0582B00D0C0E045310B707B4D4EE0E5
:10417000642B1CD0692B1AD0B7E0732B00D1A5E0BB
:1041800009D86F2B29D0702B00D0AEE00E68202309
:1041900033430B6036E0752B1FD0782B32D0A4E070
:1041A00013680D1C191D423511601B689FE02168C2
:1041B00013680E0603D5191D11601E6805E0480638
:1041C000F9D5191D116000215E5E644B002E3BDAAB
:1041D000049D2D2276422A7036E0216813680E066F
:1041E00003D5191D11601E6804E04806F9D5191D94
:1041F0001E881160594B227E039308276F2A1ED018
:104200000A271CE0231C78214533554D197011688D
:104210002368081D039510601E0601D50E6802E094
:104220005806FBD50E88D90702D5202213432360F8
:104230001027002E03D1226820239A432260231CDA
:10424000002243331A7001E003930A276368A360D6
:10425000002B03DB2568042295432560002E02D144
:10426000049D002B0ED0049D301C391CFCF7CAFDA8
:104270000398013D435C301C2B70391CFCF77EFD1C
:10428000061EF1D1082F09D12168C90706D5626839
:1042900023699A4202DC013D30232B70049E731B7C
:1042A00023612AE0086813684969050604D5181DCA
:1042B00010601B68196005E04606F8D5181D1060EF
:1042C0001B68198000232361049D16E01368191DE3
:1042D00011601D68281C00F039FC63682061984259
:1042E00000D923612069606004E0251C42352B70F1
:1042F00001232361049E00233370079E05980096D6
:10430000211C09AA069BFFF7A3FE013002D1012060
:10431000404221E02A1C059806992369079DA84779
:104320000130F4D02668B60705D4099BE0689842AE
:1043300012DA181C10E00025E0680999431A9D4222
:10434000F3DA221C0598069919320123079EB0471B
:104350000130DCD00135EFE70BB0F0BD955800001F
:10436000A658000070B5051C0E1C141C002804D0B3
:104370008269002A01D100F0CFF9234B9C4201D180
:104380006C6808E0214B9C4201D1AC6803E0204BF3
:104390009C4200D1EC68A369A360A3891A070AD5DF
:1043A0002369002B07D022682369F6B2D01A62690C
:1043B00090420FDB08E0281C211C00F02BF800289D
:1043C000F1D0012040421DE0281C211C00F024F9FE
:1043D0000028F6D1A3680130013BA36023685A1C72
:1043E00022601E706369984205D0A389301CDA07E9
:1043F00008D50A2E06D1281C211C00F00DF9002832
:10440000DFD1301C70BDC046B8580000D85800003D
:10441000F8580000344B70B51D68061C0C1C002DAC
:1044200005D0A969002902D1281C00F075F92F4B8D
:104430009C4201D16C6808E02D4B9C4201D1AC68D4
:1044400003E02C4B9C4200D1EC68A28993B219077F
:1044500021D4D90605D40923336040231A43A2810D
:104460003FE05A0713D5616B002908D0231C443361
:10447000994202D0301C00F023FA00236363A38921
:1044800024229343A3810023636023692360A389CB
:1044900008221343A381216900290BD1A389A022FB
:1044A00092001A4080239B009A4203D0301C211CAA
:1044B00000F0A2F9A38901221A4005D06169002207
:1044C000A2604A42A26103E0990700D46269A26037
:1044D00022690020824206D1190604D540221343E6
:1044E000A3810120404270BDACF0FF1FB85800000E
:1044F000D8580000F858000008B5062000F0BAFAB5
:10450000012000F0F7FBF7B58B89051C0C1C19077F
:104510005ED46268002A02DC276C002F1ADDE76A8D
:10452000002F17D000222E682A60802252011A40E4
:1045300001D0626D15E0281C216A0123B847021CD6
:10454000411C0ED12B68002B0BD01D2B01D0162B3C
:1045500002D12E6000205EE0A38940210B43A3819D
:1045600059E0A3895F0706D56168636B521A002B77
:1045700001D0276CD21B281C216A0023E76AB847A8
:10458000A289411C06D12B68002B03D01D2B01D022
:10459000162B19D10023636023692360D70405D546
:1045A000411C02D12A68002A00D16065616B2E602F
:1045B0000029CFD0231C4433994202D0281C00F09C
:1045C0007FF90020606326E040231A43A28122E0A5
:1045D0002669002EBED027680022BF1B01972660E7
:1045E000990700D16269A260019F002FB2DD281CEB
:1045F000216A321C019BA76AB847002806DCA38900
:10460000402213430120A381404204E0019F361859
:104610003F1A0197E8E7FEBD0A6938B5051C0C1C76
:10462000002A01D100201CE0002804D08369002B5F
:1046300001D100F071F80B4B9C4201D16C6808E08D
:10464000094B9C4201D1AC6803E0084B9C4200D16D
:10465000EC680C22A35E002BE4D0281C211CFFF781
:1046600052FF38BDB8580000D8580000F858000074
:10467000F8B5041C071C4834002C12D0A5686668E5
:10468000013E0CD4AB89012B07D90E22AB5E01335E
:1046900003D0381C291CFFF7BFFF6835F0E72468FA
:1046A000EAE7F8BD002310B5041C03604360836093
:1046B00081814366C281036143618361191C0822C1
:1046C0005C30FFF78DFB054B24626362044BA362F1
:1046D000044BE362044B236310BDC046B54A00009F
:1046E000DD4A0000154B0000414B000070B54B1E29
:1046F00068255D430E1C291C743100F029F9041E45
:1047000008D00021016046602A1C0C30A06068328D
:10471000FFF766FB201C70BD836913B5041C002BDA
:1047200027D18364C3640365124B134A1B688262FA
:10473000984201D101238361201C00F01FF86060C2
:10474000201C00F01BF8A060201C00F017F80421CA
:10475000E06000226068FFF7A5FFA0680921012240
:10476000FFF7A0FFE06812210222FFF79BFF012361
:10477000A36113BD8058000071460000F8B51D4BC1
:10478000071C1E68B269002A02D1301CFFF7C4FF63
:104790004836B4687368013B05D40C22A55E002D31
:1047A00010D06834F7E73368002B06D1381C042199
:1047B000FFF79CFF3060002801D03668E9E70C2342
:1047C0003B6016E001235B42E381201C0123A381AF
:1047D00065662560A560656025616561A5615C30E1
:1047E000291C0822FFF7FCFA6563A563A564E5644C
:1047F000201CF8BD80580000F0B58B8991B0051CD5
:104800000C1C9A0725D40E23C95E002906DAA78955
:1048100080231F400FD0002740260EE001AA00F0A1
:10482000C3F90028F3DB029BF0273F02184A1F4020
:10483000BF187B425F418026F600281C311C00F027
:1048400087F800280CD1A3899A051FD402221343AC
:10485000A381231C4733236023610123636115E097
:104860000C4B8022AB62A38920601343A38120619B
:104870006661002F0AD00E23E15E281C00F0A6F925
:10488000002803D0A38901221343A38111B0F0BDF6
:1048900000E0FFFF71460000C9B28218904204D0C8
:1048A00003788B4202D00130F8E70020704710B542
:1048B0000023934203D0CC5CC4540133F9E710BD0C
:1048C00030B5002940D004390B68002B00DAC91834
:1048D0001E4A1368141C002B02D14B60116033E098
:1048E00099420FD208680A189A4205D11368526893
:1048F000C01808604A6000E04B60216024E08A42F2
:1049000003D8131C5A68002AF9D11D685C198C421F
:104910000BD10968691858181960904214D11468AD
:104920005268091919605A600EE08C4202D90C23B2
:10493000036009E008680C18944203D114685268B7
:10494000001908604A60596030BDC046BCFBFF1FBB
:1049500070B50323CD1C9D430835061C0C2D01D2D8
:104960000C2501E0002D3FDB8D423DD3204B1C6820
:104970001A1C211C002913D00868431B0DD40B2BD3
:1049800002D90B60CC181EE08C4202D16368136020
:104990001AE0486860600C1C16E00C1C4968E9E7E6
:1049A000144C2068002803D1301C00F025F820604A
:1049B000301C291C00F020F8431C15D0C41C032314
:1049C0009C4384420AD12560201C0B300722231D02
:1049D0009043C31A0BD05A42E25008E0211A301C0F
:1049E00000F00AF80130EED10C233360002070BDD6
:1049F000BCFBFF1FB8FBFF1F38B5074C0023051C8D
:104A0000081C236000F054F9431C03D12368002BD9
:104A100000D02B6038BDC046C4FBFF1F38B5041C56
:104A20000D1E1F2D04D916230360012040421FE0F4
:104A3000436C002B04D08A009A181368002B08D10D
:104A4000201C00F033F82A1C011C201C00F01CF86C
:104A50000EE0012B0BD0591C03D11623036001205B
:104A600006E00024281C14609847201C00E0002069
:104A700038BD000008B5034B011C1868FFF7CEFFD6
:104A800008BDC046ACF0FF1F38B5074C0023051C1D
:104A9000081C111C236000F0F3F8431C03D12368A9
:104AA000002B00D02B6038BDC4FBFF1F08B500F001
:104AB000D7F808BD38B50C1C0E25495F00F0ACF8DE
:104AC000002803DB626D1318636503E0A289024BC3
:104AD0001340A38138BDC046FFEFFFFFF8B51E1C91
:104AE0008B89051C0C1C171CDA0505D50E23C95E25
:104AF0000022022300F07CF8A289054B281C1340F9
:104B0000A3810E22A15E331C3A1C00F027F8F8BDE9
:104B1000FFEFFFFF38B50C1C0E25495F00F068F869
:104B2000A389421C03D1054A1340A38104E08022DB
:104B300052011343A381606538BDC046FFEFFFFFFC
:104B400008B50E23C95E00F01DF808BD0023C25C45
:104B50000133002AFBD1581E7047000038B5084CBD
:104B6000051C00202060081C111C1A1C00F0BAF85B
:104B7000431C03D12368002B00D02B6038BDC046F6
:104B8000C4FBFF1F38B5074C0023051C081C23601D
:104B900000F056F8431C03D12368002B00D02B6093
:104BA00038BDC046C4FBFF1F38B5074C0023051CA9
:104BB000081C111C236000F04BF8431C03D1236830
:104BC000002B00D02B6038BDC4FBFF1F38B5074C4D
:104BD0000023051C081C236000F04AF8431C03D185
:104BE0002368002B00D02B6038BDC046C4FBFF1FDC
:104BF00038B5084C051C00202060081C111C1A1C2C
:104C000000F046F8431C03D12368002B00D02B6032
:104C100038BDC046C4FBFF1F38B5084C051C00203A
:104C20002060081C111C1A1C00F03AF8431C03D128
:104C30002368002B00D02B6038BDC046C4FBFF1F8B
:104C4000024B5822012040421A607047C4FBFF1FEC
:104C5000024B5822012040421A607047C4FBFF1FDC
:104C6000024B5822012040421A607047C4FBFF1FCC
:104C7000024B582200201A607047C046C4FBFF1F39
:104C8000024B5822012040421A607047C4FBFF1FAC
:104C9000024B5822012040421A607047C4FBFF1F9C
:104CA000024B5822012040421A607047C4FBFF1F8C
:104CB000094A1368002B0CD018186946884202D89C
:104CC0001060181C7047054B0C2201201A604042EE
:104CD000F8E7034B1360EFE7C0FBFF1FC4FBFF1FA8
:104CE000C8FBFF1F024B5822012040421A60704748
:104CF000C4FBFF1FFEE7C0466B422E41494F000038
:104D000000000000000000000000000000000000A3
:104D100000000000000000006B422E41494F20625D
:104D20006F6F742000554152545F5472616E736608
:104D3000657253656E64444D41006B422E58002DE0
:104D4000002E2E2F536F75726365732F6E78702F40
:104D5000447269766572732F66736C5F75617274E5
:104D60005F646D612E630068616E646C652D3E74D6
:104D700078446D6148616E646C6500786665722D7B
:104D80003E6461746153697A650080210170027824
:104D90000A42FCD0704708001000180020003000C4
:104DA000400060008000C00000018001000200039C
:104DB000000400060000C1C081C1400101C3C0035E
:104DC000800241C201C6C006800741C70005C1C5B7
:104DD00081C4400401CCC00C800D41CD000FC1CF77
:104DE00081CE400E000AC1CA81CB400B01C9C00967
:104DF000800841C801D8C018801941D9001BC1DB07
:104E000081DA401A001EC1DE81DF401F01DDC01DB6
:104E1000801C41DC0014C1D481D5401501D7C017D6
:104E2000801641D601D2C012801341D30011C1D1E6
:104E300081D0401001F0C030803141F10033C1F326
:104E400081F240320036C1F681F7403701F5C035B6
:104E5000803441F4003CC1FC81FD403D01FFC03F76
:104E6000803E41FE01FAC03A803B41FB0039C1F966
:104E700081F840380028C1E881E9402901EBC02BC6
:104E8000802A41EA01EEC02E802F41EF002DC1EDB6
:104E900081EC402C01E4C024802541E50027C1E7D6
:104EA00081E640260022C1E281E3402301E1C021E6
:104EB000802041E001A0C060806141A10063C1A3E6
:104EC00081A240620066C1A681A7406701A5C065B6
:104ED000806441A4006CC1AC81AD406D01AFC06F76
:104EE000806E41AE01AAC06A806B41AB0069C1A966
:104EF00081A840680078C1B881B9407901BBC07B06
:104F0000807A41BA01BEC07E807F41BF007DC1BDB5
:104F100081BC407C01B4C074807541B50077C1B7D5
:104F200081B640760072C1B281B3407301B1C071E5
:104F3000807041B00050C190819140510193C053A5
:104F4000805241920196C056805741970055C195B5
:104F500081944054019CC05C805D419D005FC19F75
:104F6000819E405E005AC19A819B405B0199C05965
:104F7000805841980188C04880494189004BC18BC5
:104F8000818A404A004EC18E818F404F018DC04DB5
:104F9000804C418C0044C184818540450187C047D5
:104FA000804641860182C042804341830041C181E5
:104FB0008180404010B5002905D004688C4393409F
:104FC000194021430160BFF36F8FBFF34F8F10BDB6
:104FD00008091400160018001A001C001E00220008
:104FE00028001C002000240028002C00300038007D
:104FF000440030003800400048005000580068006D
:10500000800050006000700080009000A000C00090
:10501000F000A000C000E00000012001400180017C
:10502000E00140018001C001000240028002000353
:10503000C003800200038003000480040005000612
:10504000800700050006000700080009000A000CA0
:10505000000F4932435F536C6176655472616E7321
:1050600066657248616E646C65495251002E2E2F40
:10507000536F75726365732F6E78702F4472697603
:105080006572732F66736C5F6932632E63006932D9
:105090006348616E646C650068616E646C65007085
:1050A0006172616D002E2E2F536F75726365732FC1
:1050B0006E78702F447269766572732F66736C5FB9
:1050C000646D612E630068616E646C6520213D2013
:1050D0004E554C4C002E2E2F536F75726365732FF7
:1050E0006E78702F447269766572732F66736C5F89
:1050F000646D612E68006368616E6E656C203C2093
:1051000046534C5F464541545552455F444D414DD1
:1051100055585F4D4F44554C455F4348414E4E45B1
:105120004C006368616E6E656C203C2046534C5F9A
:10513000464541545552455F444D415F4D4F44559E
:105140004C455F4348414E4E454C000000600640D0
:1051500000700640444D415F436C65617243686175
:105160006E6E656C537461747573466C6167730021
:10517000444D415F48616E646C65495251000007BF
:105180000E091C1B1215383F363124232A2D707747
:105190007E796C6B6265484F464154535A5DE0E737
:1051A000EEE9FCFBF2F5D8DFD6D1C4C3CACD9097A7
:1051B0009E998C8B8285A8AFA6A1B4B3BABDC7C097
:1051C000C9CEDBDCD5D2FFF8F1F6E3E4EDEAB7B007
:1051D000B9BEABACA5A28F88818693949D9A2720F7
:1051E000292E3B3C35321F18111603040D0A575067
:1051F000595E4B4C45426F68616673747D7A898E47
:10520000878095929B9CB1B6BFB8ADAAA3A4F9FEC6
:10521000F7F0E5E2EBECC1C6CFC8DDDAD3D4696EB6
:10522000676075727B7C51565F584D4A4344191E26
:10523000171005020B0C21262F283D3A33344E4916
:10524000404752555C5B7671787F6A6D64633E3986
:10525000303722252C2B0601080F1A1D1413AEA976
:10526000A0A7B2B5BCBB9691989F8A8D8483DED9E6
:10527000D0D7C2C5CCCBE6E1E8EFFAFDF4F30000ED
:10528000060034100700341080841E0000127A00DB
:105290004932435F476574496E7374616E6365009C
:1052A00000000000B71DC1046E3B8209D926430DE2
:1052B000DC7604136B6BC517B24D861A0550471E7A
:1052C000B8ED08260FF0C922D6D68A2F61CB4B2B1A
:1052D000649B0C35D386CD310AA08E3CBDBD4F38C2
:1052E00070DB114CC7C6D0481EE09345A9FD524162
:1052F000ACAD155F1BB0D45BC2969756758B5652FA
:10530000C836196A7F2BD86EA60D9B6311105A6799
:1053100014401D79A35DDC7D7A7B9F70CD665E7441
:10532000E0B6239857ABE29C8E8DA19139906095A1
:105330003CC0278B8BDDE68F52FBA582E5E66486B9
:10534000585B2BBEEF46EABA3660A9B7817D68B3D9
:10535000842D2FAD3330EEA9EA16ADA45D0B6CA001
:10536000906D32D42770F3D0FE56B0DD494B71D921
:105370004C1B36C7FB06F7C32220B4CE953D75CA39
:1053800028803AF29F9DFBF646BBB8FBF1A679FF59
:10539000F4F63EE143EBFFE59ACDBCE82DD07DEC81
:1053A00077708634C06D4730194B043DAE56C53911
:1053B000AB0682271C1B4323C53D002E7220C12A49
:1053C000CF9D8E1278804F16A1A60C1B16BBCD1F49
:1053D00013EB8A01A4F64B057DD00808CACDC90C91
:1053E00007AB9778B0B6567C69901571DE8DD47591
:1053F000DBDD936B6CC0526FB5E6116202FBD066C9
:10540000BF469F5E085B5E5AD17D1D576660DC53C8
:1054100063309B4DD42D5A490D0B1944BA16D84010
:1054200097C6A5AC20DB64A8F9FD27A54EE0E6A150
:105430004BB0A1BFFCAD60BB258B23B69296E2B208
:105440002F2BAD8A98366C8E41102F83F60DEE8788
:10545000F35DA9994440689D9D662B902A7BEA9450
:10546000E71DB4E0500075E4892636E93E3BF7EDD0
:105470003B6BB0F38C7671F7555032FAE24DF3FE88
:105480005FF0BCC6E8ED7DC231CB3ECF86D6FFCB08
:105490008386B8D5349B79D1EDBD3ADC5AA0FBD8D0
:1054A000EEE00C6959FDCD6D80DB8E6037C64F6430
:1054B0003296087A858BC97E5CAD8A73EBB04B77E8
:1054C000560D044FE110C54B383686468F2B4742A8
:1054D0008A7B005C3D66C158E4408255535D435170
:1054E0009E3B1D252926DC21F0009F2C471D5E28B0
:1054F000424D1936F550D8322C769B3F9B6B5A3B68
:1055000026D6150391CBD40748ED970AFFF0560E27
:10551000FAA011104DBDD014949B93192386521DEF
:105520000E562FF1B94BEEF5606DADF8D7706CFCEF
:10553000D2202BE2653DEAE6BC1BA9EB0B0668EF27
:10554000B6BB27D701A6E6D3D880A5DE6F9D64DA67
:105550006ACD23C4DDD0E2C004F6A1CDB3EB60C9AF
:105560007E8D3EBDC990FFB910B6BCB4A7AB7DB06F
:10557000A2FB3AAE15E6FBAACCC0B8A77BDD79A3A7
:10558000C660369B717DF79FA85BB4921F467596E7
:105590001A163288AD0BF38C742DB081C33071852F
:1055A00099908A5D2E8D4B59F7AB085440B6C9507F
:1055B00045E68E4EF2FB4F4A2BDD0C479CC0CD4397
:1055C000217D827B9660437F4F460072F85BC176F7
:1055D000FD0B86684A16476C93300461242DC5651F
:1055E000E94B9B115E565A1587701918306DD81CFF
:1055F000353D9F0282205E065B061D0BEC1BDC0F17
:1056000051A69337E6BB52333F9D113E8880D03A76
:105610008DD097243ACD5620E3EB152D54F6D4299E
:105620007926A9C5CE3B68C1171D2BCCA000EAC8BE
:10563000A550ADD6124D6CD2CB6B2FDF7C76EEDB56
:10564000C1CBA1E376D660E7AFF023EA18EDE2EE36
:105650001DBDA5F0AAA064F4738627F9C49BE6FDDE
:1056600009FDB889BEE0798D67C63A80D0DBFB843E
:10567000D58BBC9A62967D9EBBB03E930CADFF97D6
:10568000B110B0AF060D71ABDF2B32A66836F3A2B6
:105690006D66B4BCDA7B75B8035D36B5B440F7B15E
:1056A000434C4F434B5F4765744F7574436C6B4677
:1056B00072657100636F6E66696720213D204E55EB
:1056C0004C4C007372634164647220213D204E553E
:1056D0004C4C00646573744164647220213D204E1B
:1056E000554C4C002E2E2F536F75726365732F6EC1
:1056F00078702F447269766572732F66736C5F647D
:105700006D616D75782E68002E2E2F536F75726344
:1057100065732F6E78702F447269766572732F6689
:10572000736C5F756172742E6300696E7374616E61
:105730006365203C20756172744172726179436FB8
:10574000756E7400696E7374616E6365203C2041F0
:10575000525241595F53495A4528735F6932634237
:105760006173657329002E2E2F536F7572636573F5
:105770002F6E78702F447269766572732F66736C22
:105780005F6770696F2E6300636F6E666967002ED6
:105790002E2F536F75726365732F6E78702F44725E
:1057A00069766572732F66736C5F636C6F636B2EC3
:1057B0006300675F7874616C304672657100675F83
:1057C0007874616C33324672657100444D415F45B7
:1057D0006E61626C65496E74657272757074730087
:1057E000444D415F52657365744368616E6E656CCC
:1057F00000444D415F5365745472616E7366657207
:10580000436F6E66696700444D415F537461727403
:105810005472616E7366657200444D415F537562E8
:105820006D69745472616E7366657200444D415FB8
:10583000507265706172655472616E736665720054
:105840002C2066756E6374696F6E3A200061737305
:10585000657274696F6E2022257322206661696CFF
:1058600065643A2066696C6520222573222C206CC1
:10587000696E65202564257325730A0043000000C6
:105880004CF0FF1F232D302B2000686C4C00656608
:105890006745464700303132333435363738394181
:1058A0004243444546003031323334353637383997
:1058B0006162636465660000000000000000000093
:1058C00000000000000000000000000000000000D8
:1058D00000000000000000000000000000000000C8
:1058E00000000000000000000000000000000000B8
:1058F00000000000000000000000000000000000A8
:105900000000000000000000000000000000000097
:105910000000000000000000F8B5C046F8BC08BC5C
:105920009E467047F8B5C046F8BC08BC9E46704716
:0859300040ABFF7F0100000005
:04593800390400002E
:04593C001104000052
:1059400076332E302E302E30000000000000000094
:10595000000000003CC33CC30100000000127A00BC
:105960006B422E41494F0000000000000000000083
:105970000000000000000000000000000000000027
:1059800001000000153600000100000000000000CA
:10599000B8580000D8580000F85800000000000077
:1059A0000000000000000000000000007C58000023
:1059B00000000000000000000000000000000000E7
:1059C00000000000000000000000000000000000D7
:1059D00000000000000000000000000000000000C7
:1059E0000000000000000000000000004CF0FF1F5D
:0459F00000000000B3
:0400000300000D6587
:00000001FF
