:105C00006B422E44494F5F50444F0000000000009B
:105C10005F492403FFCDEA4A7158659D005D00008D
:045C200014DF00008D
:105D000000300020E9610000F9610000F961000045
:105D10000000000000000000000000000000000083
:105D2000000000000000000000000000F961000019
:105D30000000000000000000F9610000F9610000AF
:105D4000E98C0000F18C0000F98C0000018D00004E
:105D5000F9610000F9610000F9610000F9610000DB
:105D6000AD8F0000B58F0000F9610000F9610000FF
:105D7000F9610000F9610000D5930000F9610000AD
:105D8000F9610000F9610000F9610000F9610000AB
:105D9000F9610000F961000069910000F9610000FB
:105DA000F9610000F9610000F9610000F96100008B
:105DB000E58F0000F9610000F9610000F961000061
:105DC000EEEEEEEEEEEEEEEEEEEEEEEEEEEEEEEEF3
:105DD000EEEEEEEEEEEEEEEEEEEEEEEEEEEEEEEEE3
:105DE000EEEEEEEEEEEEEEEEEEEEEEEEEEEEEEEED3
:105DF000EEEEEEEEEEEEEEEEEEEEEEEEEEEEEEEEC3
:1060F000EEEEEEEEEEEEEEEEEEEEEEEEEEEEEEFFAF
:10610000FFFFFFFFFFFFFFFFFFFFFFFFFE3DFFFF62
:1061100010B5064C2378002B07D1054B002B02D07D
:10612000044800E000BF0123237010BDD0F0FF1F22
:10613000000000001CDE000008B5084B002B03D057
:106140000748084900E000BF07480368002B03D058
:10615000064B002B00D0984708BDC0460000000049
:106160001CDE0000D4F0FF1FCCF0FF1F0000000079
:10617000164B002B00D1144B9D46402292029A1AD6
:10618000924600218B460F461348144A121A05F016
:1061900098FE0F4B002B00D098470E4B002B00D0E1
:1061A00098470020002104000D000D48002802D06F
:1061B0000C4800E000BF05F055FE2000290005F066
:1061C0007DFD05F027FEC0460000080000300020DD
:1061D0000000000000000000D0F0FF1F78F8FF1F53
:1061E000000000000000000072B603F08BFD03F019
:1061F00047FD62B6FFF7BCFF014800470148004772
:10620000F96100008DAF0000002934D00123002285
:1062100010B488422CD301242407A14204D2814225
:1062200002D209011B01F8E7E400A14204D2814235
:1062300002D249005B00F8E7884201D3401A1A43B2
:106240004C08A04202D3001B5C0822438C08A042E9
:1062500002D3001B9C082243CC08A04202D3001B9F
:10626000DC082243002803D01B0901D00909E3E719
:10627000101C10BC7047002801D00020C04307B498
:10628000024802A14018029003BDC046D900000098
:106290000029F0D003B5FFF7B9FF0EBC4243891ABD
:1062A0001847C046002941D010B4041C4C40A446F5
:1062B00001230022002900D54942002800D5404290
:1062C00088422CD301242407A14204D2814202D265
:1062D00009011B01F8E7E400A14204D2814202D285
:1062E00049005B00F8E7884201D3401A1A434C0882
:1062F000A04202D3001B5C0822438C08A04202D3B8
:10630000001B9C082243CC08A04202D3001BDC08DF
:106310002243002803D01B0901D00909E3E7101C20
:106320006446002C00D5404210BC7047002806D0BF
:1063300003DB0020C043400801E08020000607B4D2
:10634000024802A14018029003BDC0461900000097
:106350000029EBD003B5FFF7A7FF0EBC4243891A13
:106360001847C0467047C046002B11D1002A0FD1F4
:10637000002900D1002802D00021C943081C07B41D
:10638000024802A14018029003BDC046D9FFFFFF9A
:1063900003B4684601B5029800F044F8019B9E469C
:1063A00002B00CBC7047C0469C460304F0B51B0C01
:1063B00017043F0C150C1E1C041C000C7E436B4381
:1063C00047434543FB18300C1818874202D98023F5
:1063D0005B02ED18030CED1863465C434A43360438
:1063E000360CA118000480194919F0BDF0B583B02E
:1063F000161C1F1C0090019100F02EF8041C0D1CAF
:10640000221C2B1C301C391CFFF7CEFF009A019B6D
:10641000121A8B410899201C0A604B60291C03B09A
:10642000F0BDC046F0B583B0141C1D1C0090019156
:1064300000F0EEF9221C2B1C061C0F1CFFF7B4FF0A
:10644000009A019B121A8B410899301C0A604B601C
:10645000391C03B0F0BDC046F0B544465F46564611
:106460004D46F0B41C1C85B0002900DADBE00F1C9F
:106470000021061C8A46101C191C002C00DAC9E0F9
:106480000196009089468046002951D1B84200D833
:1064900071E000F07FFB002809D020234546311C25
:1064A0001B1A85408740D940A8460F438640424684
:1064B000150C13041B0C291C381C9B46FFF7A4FE6B
:1064C0005B464343041C291C381C9946FFF7E0FE39
:1064D000330C08041843814509D94044631E8045A4
:1064E00000D978E1814500D875E1023C4044494635
:1064F000411A8946081C291CFFF786FE5A4642436A
:10650000071C291C48469346FFF7C2FE36040904BF
:10651000360C0E43B34507D946447B1EB04502D81E
:10652000023FB34500D81F1C24042743002403E086
:10653000B94211D9002400275246381C211C002AD8
:1065400003D03B1C00215842A14105B03CBC904601
:106550009946A246AB46F0BD081C00F01BFB041E8A
:1065600000D0BFE0B94500D242E1019D0099071C6F
:106570008D424741E0E7002804D101200021FFF7C8
:1065800043FE8046404600F005FB002852D14146BC
:1065900044460B043C1B1B0CA3460D0C009301242A
:1065A000291C5846FFF730FE009F81464743291CAF
:1065B0005846FFF76DFE330C090419438F4208D982
:1065C0004B464144013B884502D88F4200D91AE12D
:1065D0009946C91B8B46081C291CFFF715FE009B1A
:1065E000291C4343071C58460093FFF751FE36040D
:1065F000009D0904360C0E43B54207D946447B1E64
:10660000B04502D8023FB54200D81F1C49460E04CF
:10661000374391E75246D243031C0C1C924600219B
:106620005842A1412CE7002746428F4101214942AF
:106630008A4620E720231B1A4246351C82403C1C18
:10664000DD40DC4087402B1C150C3B43291C864059
:10665000201C009317049046FFF7D6FD3F0C011C49
:10666000794381468B46201C291CFFF711FE009CB4
:106670000904230C19438B450CD94B464144013B7B
:10668000884500D9BDE08B4500D8BAE002225242CD
:10669000914441445C460C1B201C291C0194FFF7CB
:1066A000B3FD391C4143041C8B460198291CFFF79C
:1066B000EFFD009A090413041B0C19438B4509D9FB
:1066C0004144631E884500D997E08B4500D894E08B
:1066D000023C41445B46CB1A49469B460B041C4393
:1066E00000975DE7009D20231B1A4A468240DD404B
:1066F0001543391C009AD94082408846311C0092CB
:10670000D9403A1C82400B1C134301932F0C2B04DD
:106710001B0C391C40460293FFF776FD029A814616
:106720004243391C40469346FFF7B2FD019A0904E3
:10673000130C19438B450AD94B464919013B8D422D
:106740005DD88B455BD902235B42994449195A466F
:106750008A1A101C391C0392FFF756FD029B8046D3
:106760004343391C03989B46FFF792FD019A0904A5
:1067700013041B0C19438B450AD943464919013BA5
:106780008D4238D88B4536D902235B42984449194B
:106790005D464D1BAB464946009D0F0442461743DC
:1067A0002A04120C3B042D0C1B0C380C111C5943F1
:1067B00042436B436843D3180D0C5B198C469A42D5
:1067C00002D98022520280181D0C401983450CD337
:1067D00003D00024B0E61C1C89E665462A041B048D
:1067E000120C9B18A6409E42F3D2013F0024A3E660
:1067F00000240127A0E69846CAE71C1C6AE79946D0
:10680000A5E7994646E70222524291444144E0E618
:10681000F0B55F4656464D464446F0B40D1C85B073
:10682000061C924698460290019103921F1C141C6C
:106830008346A946002B59D1AA4269D9101C00F001
:10684000A9F900280AD020231B1A311CD940854001
:106850000B1C2B43864084409946B346250C2304E9
:106860001B0C291C48469846FFF7CEFC4646071CE1
:106870004643291C4846FFF70BFD5A460904130CF2
:1068800019438E4209D909197B1E8C4200D957E160
:106890008E4200D854E1023F0919891B8946081C21
:1068A000291CFFF7B1FC43464343061C291C4846FC
:1068B0009846FFF7EDFC5A46130409041B0C1943D4
:1068C000884508D90919731E8C4200D936E1023E69
:1068D000884500D832E1380430430027391C05B020
:1068E0003CBC90469946A246AB46F0BD019A934205
:1068F00062D8181C00F04EF9041E60D1019B9F4223
:1069000000D22CE1029F03998F4260410027E5E706
:10691000002A04D101200021FFF776FC041C201C72
:1069200000F038F9002800D0B9E023042D1B1B0C1F
:10693000A946260C98460127311C4846FFF764FCFF
:1069400041464143051C8A464846311CFFF7A0FCDE
:106950005A460804130C1843824507D900196B1EC8
:10696000844202D8824500D910E11D1C5346C31A47
:10697000181C311C9A46FFF747FC414641438146AB
:1069800088465046311CFFF783FC5A46130409041D
:106990001B0C194388450BD94B460919013B8C4206
:1069A00000D9CFE0884500D8CCE002235B4299446F
:1069B00028044946084391E7002700208EE720235A
:1069C0001B1A424657468240DF40174352468240D8
:1069D0000192321CDA40291CD9408540131C2B43FC
:1069E00002933D0C3B041B0C8846081C291C9A464C
:1069F000FFF70AFC534643438146291C40469B4609
:106A0000FFF746FC029A0904130C19438B4506D97B
:106A10004B46C919013B8F4200D8ABE099465A4614
:106A20008A1A101C291C9346FFF7EEFB534643437A
:106A3000291C804658469A46FFF72AFC029A090408
:106A400015042D0C29438A4506D94346C919013B33
:106A50008F4200D886E098465746CF1BBA46494633
:106A6000019F0804424610433D042D0C03043F0CD3
:106A70001B0C020C291C594355437B437A43EB18EA
:106A80000F0CDB198C469D4202D980277F02D21958
:106A90001D0C521992455FD356D000271EE72023C4
:106AA0001B1A311C2F1CD940DF4085400B1C844031
:106AB0002B4386400193B3462304260C1B0C381C41
:106AC000311C9846FFF7A0FB42464243051C311C8F
:106AD000381C9146FFF7DCFB019F09043B0C19436E
:106AE000894507D909196B1E8C424DD889454BD968
:106AF000023D09194A468A1A101C311C9246FFF7BA
:106B000083FB43464343071C311C50469946FFF71D
:106B1000BFFB019A090413041B0C1943894507D9CB
:106B200009197B1E8C422DD889452BD9023F0919A2
:106B30004B46CB1A2D0499462F43FDE61E1CCAE690
:106B40001F1CAAE6994633E761460A041B04120C8F
:106B50009B18A6409E42A0D201380027BEE600271F
:106B60000120BBE68A4500D875E702235B429844C2
:106B7000C91971E78B4500D850E702235B4299445D
:106B8000C9194CE71F1CD3E71D1CB3E7023D0019D0
:106B9000ECE6C0461C2101231B04984201D3000CE3
:106BA00010391B0A984201D3000A08391B09984280
:106BB00001D30009043902A2105C40187047C04696
:106BC00004030202010101010000000000000000B6
:106BD00010B5054C206861680122002312184B4152
:106BE0002260636010BDC046F0F0FF1F90B583B017
:106BF00000AFFB1D00221A70FC1D0120102102F0C5
:106C000005FA031C2370FC1DFA239A000C4B00208C
:106C1000111C1A1C022302F057FA031C2370FC1DDE
:106C2000002002F095FA031C2370FB1D1B78002B3B
:106C300001D0012300E00023181CBD4603B090BD25
:106C4000D16B0000014B186859687047F0F0FF1FC6
:106C500010B50C1C0B78022B0ED0DAB2022A02D827
:106C6000012B05D031E0042B14D0202B20D02CE0B8
:106C700000234B608B6028E00022144B1A70012225
:106C8000134B1A70134B5B689847134B63602623B2
:106C9000A3601AE00279114B1A60114B4B60262356
:106CA0008B600122094B1A700022094B1A700CE00C
:106CB0000A690C4B1A600C4B00221A605A609A60E9
:106CC000DA601A610122094B1A7010BDBEF7FF1F6E
:106CD000BCF7FF1FF8F0FF1F2CF7FF1FC0F7FF1FC7
:106CE00054F7FF1F00F1FF1F20F8FF1F04F1FF1FE3
:106CF0000123037078234370002383700022C27045
:106D00004360704730B585B0041C8378002B11D1E7
:106D100001AD281C02F0DCF863782B700E4B6B6021
:106D2000E378AB602078291C02F0D6F80B4B03CC3B
:106D300003C30DE0012B0BD101A802F0BFF8E378EB
:106D40000293207801A902F0C1F8044B03CC03C3DD
:106D5000002005B030BDC046516C0000F8F0FF1FA8
:106D600070B584B0061C084D687001AC201C02F0A0
:106D7000AFF82670054B63602878211C02F0ACF850
:106D8000002004B070BDC046F8F0FF1F516C000039
:106D9000014B58787047C046F8F0FF1F08B5021C39
:106DA0000248002105F08DF808BDC0462CF7FF1FF2
:106DB00008B5021C0248002105F083F808BDC04652
:106DC00054F7FF1F30B5041C03A80578002D04D12B
:106DD0005200D2B2104B985C0EE00020012D0BD176
:106DE0000D485500EDB2455D6B40520001252A4328
:106DF000C35C5340DBB2C05C4D1EADB200290AD06B
:106E0000013565190449631C22785040085CAB4287
:106E100001D01C1CF7E730BDE0CD000010B584B0F8
:106E2000104B1968104B5B78CB1A0020032B16D13E
:106E30000D4C013989B20D4B5A780D4B1B780090DF
:106E4000201CFFF7BFFF6B46D8730F33054A12684B
:106E5000013AA05C1B78C01A431E9841C0B204B02E
:106E600010BDC04600F1FF1F54F7FF1FF8F0FF1FD1
:106E7000C0F7FF1F08B502F00DFD002008BDC04699
:106E800070B5061E03D1012002F014FD1AE00E4B6E
:106E9000984203D1002002F00DFD13E0FFF7D2FE6F
:106EA0000A4B1A685B68994202D80BD1904209D903
:106EB000341C002512196B4104490A604B60022002
:106EC00002F0F8FC70BDC046E9FD000008F1FF1FAC
:106ED000014B18707047C04610F1FF1F014B187826
:106EE0007047C04610F1FF1F38B5141C1D1C02F07E
:106EF0001DFE012C06D0002C02D0022C0DD016E075
:106F0000012319E0FF230340002B12DD062B02DDD5
:106F10000A3B022B0DD801230EE0FF230340102B68
:106F200009D89B00244AD3589F46012304E000233C
:106F300002E0002300E00023052D32D8AD001F4AF7
:106F400052599746FF221040021C0A3A0020062A96
:106F500030D822E0FF221040002824DD03281CDD69
:106F6000073801281FD818E0FF22104009281CD834
:106F70008000134A12589746FF221040002816DD61
:106F800002280ADD052808D011E0FF221040002861
:106F90000FDD022801DD06280BD1181C431E984185
:106FA00008E0002006E0002004E0002002E00020CD
:106FB00000E0002038BDC046E0CE000024CF000035
:106FC0003CCF000008B502F0B1FDFF2318401028A7
:106FD00003D88000054B1B589F46002004E0032087
:106FE00002E0012000E0022008BDC04664CF00009E
:106FF00006230370002343708422520083528522AB
:107000005200835286235B000022C2540122872350
:107010005B00C254FA22920088235B00C250704782
:10702000407A7047837A1B02C07AC01880B27047DA
:10703000037B1B02407BC01880B2704708B500205C
:1070400002F0F8FD094B1B685A78002A0DD1842202
:1070500052009A5AFE2A05D89918087201328421E2
:1070600049005A52002002F0A3F908BDC4F7FF1FDF
:1070700070B5041C0D1C161C0120012C1BD80968BE
:107080009623DB01994204D80B48FFF7BDF8411C59
:1070900000E00A49A4000A4BE2580020092302F04C
:1070A00073F9084BE358AB600020291C02F0DCFDAB
:1070B000054BE650002070BDA0764B02D6060000BE
:1070C00004F0FF1F00F0FF1FC4F7FF1F38B54B1E71
:1070D000FF2B11D8094C85002B5900208422520027
:1070E000985202225A702B590833CAB2191C02F066
:1070F00091FD2B5900225A7038BDC046C4F7FF1FBE
:107100008000074BC358862252009A5C0020002A58
:1071100004D0002186225200995401207047C046B5
:10712000C4F7FF1F044A8000002381584B70815828
:10713000842252008B527047C4F7FF1F08B500200D
:1071400002F02CF90F4B1B685A78002A19D18722BC
:1071500052009A5C002A0BD01A7A19788A4207D01A
:10716000002A05D0002903D00020FFF7DBFF08E04C
:10717000197A8A22520099540122862149005A54D0
:107180005A7008BDC4F7FF1F10B502AC2488017007
:107190004270511E012908D8072323405A1E9341EB
:1071A000E4081C198470032122E0D11E012903D8B0
:1071B0006400847003211BE0511F012904D81A0ABE
:1071C0008270C370042113E0111C0F39012907D804
:1071D0001A0A8270C370230A03714471062107E002
:1071E000203A0021012A03D81A0A8270C3700421B0
:1071F000081C10BD30B54D1EADB200290FD0031CC8
:10720000451901350748084C020A19784840C0B2B0
:107210004000005B50400133AB42F5D100E0014833
:1072200030BDC046FFFF0000A8CF000070B582B09F
:1072300080000E4BC35884225200995ACAB20120D2
:10724000032A11D91D1C08356C4606348E1EA91957
:10725000201C022204F02CFEB1B2281CFFF7CAFF4A
:107260002388181A431E984102B070BDC4F7FF1F4F
:1072700038B5051C0C1CFFF7BDFF28552C19000A5A
:10728000607038BD38B5051C0C1C154B8200D258F7
:1072900019688A235B00CB5C002B04D187235B0039
:1072A000D35C012B1AD0002C0DD187235B00D35C5B
:1072B000012B13D1517A80235B420B43537202237B
:1072C0009372032401E0002C08DD101C0830A1B2E9
:1072D000FFF7CEFFA11C281CFFF7F8FE002038BDE9
:1072E000C4F7FF1F08B5264B1B78002B2CD00022BB
:1072F000234B1A70FFF792FD00283AD1214B5B789F
:10730000002B08D11F4B1A781F4B1A6001221F4B0C
:107310001A70062032E01B4B1B78232B2BD0194B05
:107320001B78242B03D1174B9B78002B25D0154BB2
:107330001B78242B03D1134B9B78002B1ED1114BB0
:107340001B7802202A2B19D0114B1B780620002B0A
:1073500014D01420FFF722FD00220D4B1A700A4BA7
:107360001B680320232B09D006202A2B06D10420DA
:1073700004E0062002E0012000E0052008BDC04630
:10738000BEF7FF1F54F7FF1FC0F7FF1FBDF7FF1F1A
:10739000BCF7FF1F70B582B00378032B13D10B4EDF
:1073A00033780B4C2370012565700A4B1B681B78E2
:1073B000A370FFF7EDFC021C33780095201C03211D
:1073C000FFF700FDE070002002B070BDC0F7FF1FA6
:1073D0002CF7FF1FC4F7FF1F08B50378012B2DD032
:1073E000002B1BD0052B2ED10020FFF771FD0020B4
:1073F00002F0E2F91E2001F08DFA0D200121002299
:1074000001F0D0F902200021002201F0CBF91E206A
:1074100001F0C4FA7820FFF7A3FC14E00B4B987836
:10742000C0B20B4B1870FFF79BFC012002F0C4F9AF
:107430000D200021002201F0B5F904E0054B1B6886
:10744000024A92781A70002008BDC04654F7FF1F08
:1074500011F1FF1FC4F7FF1FF0B55F4656464D46BA
:107460004446F0B489B0061C041C0834FFF7D8FD6C
:10747000071C301CFFF7D6FD8146301CFFF7D8FDF6
:107480008046042F00D0F9E0FA22D200914566D15F
:10749000317A0090201C0422FA23DB00FFF774FEEF
:1074A000C6B2012001F0ECF8030AA355731CDBB24D
:1074B000E054022001F0E4F8B31CDBB2020AE2540B
:1074C000F31CDBB2E054002001F0DAF8331DDBB22C
:1074D000020AE254731DDBB2E054032001F0D0F83D
:1074E000B31DDBB2020AE254F31DDBB2E054082004
:1074F00001F0C6F8331C0833DBB2020AE254331C35
:107500000933DBB2E054321C0A32D2B20023A35456
:10751000321C0B32D2B2A354321C0C32D2B2A3545E
:10752000321C0D32D2B2A354321C0E32D2B2A3544A
:10753000321C0F32D2B2A354321C1032D2B2A35436
:10754000321C1132D2B2A354321C1232D2B2A35422
:10755000351C1435EDB21336F6B2A355ECE0002518
:10756000794A914500D0E7E03C2800D9E4E00820C2
:1075700001F086F8C5B2424650000E21FEF792FE99
:10758000C0B2854203D3002D00D1C5E0051C2B1CE1
:107590000A2D00D90A23DBB203939B46317ADB0024
:1075A0005A469B1A9BB20093201C0422664BFFF79D
:1075B000EBFDC5B2039B002B00D1BDE01E2001F006
:1075C000A9F95A46002A56DD2E1C00239A460121AD
:1075D00005AF9846D1464B463B607B60BB60381C8C
:1075E00001F012F8BB78A355731CDBB2FA78E254B1
:1075F0003B88B21CD2B2190AA154F21CD2B2A354D5
:10760000331DDBB24246E254731DDBB23A79E254D9
:10761000B31DDBB24246E254F31DDBB2E254331C2D
:107620000833DBB2E254331C0933DBB2E254BB68EB
:10763000321C0A32D2B2190EA154321C0B32D2B211
:10764000190CA154321C0D32D2B2311C0C31C9B20A
:10765000180A60540E36F6B2A35401239A44D34557
:1076600001DD4146B7E70E35039B013BDA00D31A33
:107670005B00ED18EDB201F091F95DE00025102FEF
:107680005AD1324A91451CD1F37B232B54D1337C00
:10769000432B51D1737C4C2B4ED1B37C532B4BD10C
:1076A0001E2001F037F901F02BF801F077F9317A5B
:1076B00042460092201C1022244BFFF765FDC5B204
:1076C0003AE00025224A914536D13B2834D81E2085
:1076D00001F020F942465308DBB29946002B0FDD3A
:1076E000351C10350027287869780902AB78C9184D
:1076F00089B2012201F046F8013704354F45F2DB2B
:1077000001F04CF9317A43460093201C1022104BB3
:10771000FFF73AFDC5B20FE0317A2B1C0A2D00D9D4
:107720000A23DBB2DA00D31A9BB20093201C042296
:10773000054BFFF729FDC5B2281C09B03CBC90469B
:107740009946A246AB46F0BDDA0700009808000053
:10775000A208000070B5041CFFF762FC051C201C89
:10776000FFF760FC061C201CFFF762FC031C042DC5
:107770001AD10020264A964249D1062B47D10C2324
:10778000A3723023E37223736373A373E3732374CD
:10779000452363745223A374E3744F2222756375E7
:1077A0003123A3750F2032E00020102D2FD1194B6B
:1077B0009E422CD1E37B002B29D1237C532B26D155
:1077C000637C652B23D1A37C742B20D1E37C422BDB
:1077D0001DD1237D6F2B1AD1637D6F2B17D1A37D14
:1077E000742B14D1E37D6C2B11D1237E6F2B0ED122
:1077F000637E612B0BD1A37E642B08D1E37E652BC6
:1078000005D1237F722B02D100F024FE002070BD31
:10781000CC0B0000B80B0000F0B55F4656464D4655
:107820004446F0B483B0061C051C0835FFF7F8FB8E
:10783000041C301CFFF7F6FB8046071C301CFFF7CA
:10784000F7FB8146012C49D10023072F00D9C9E05D
:107850004044082803DD0823DB1B9BB2994601F056
:107860005DFF4A460192002A2ADD002407239B4639
:107870005946214206D1E3175B0F1B19DB10EB18A9
:107880000022DA70E3175B0F9946A246CA445146BC
:10789000CB1003335B1998461A780092E019C0B2F6
:1078A00001F008FF5B4651460B404A469B1A984040
:1078B000009B1843414608700134019A9442D7DB7B
:1078C00001237372019B013BDA17520FD318DB10AF
:1078D000DBB25A1CB2720433DBB283E0022C48D113
:1078E0000023072F7ED84044082803DD0823DB1B34
:1078F0009BB2994601F012FF4B460193002B2ADD03
:10790000002407218B465A46224206D1E3175B0F1B
:107910001B19DB10EB180021D970E3175B0F994698
:10792000A246CA445146CB1003335B1998461A78D5
:107930000092E019C0B201F0BDFE5B4651460B401B
:107940004A469B1A9840009B1843414608700134F0
:10795000019A9442D7DB02237372019B013BDA1731
:10796000520FD318DB10DBB25A1CB2720433DBB2F5
:1079700038E000230F2C35D1072F32D84044082897
:1079800003DD0823DB1B9BB29946CA464A46002A00
:1079900019DD002407239B46E019C0B2E3175B0FF3
:1079A00019198C46C9106918C9790091624659465F
:1079B0000A40D31A009919410122114001F072FEC8
:1079C00001345445E8DB01F07FFE0F23737241461A
:1079D0000B0AB372F1724A46130A337372730623A9
:1079E00000E00023181C03B03CBC90469946A24618
:1079F000AB46F0BD70B58CB0051CFFF711FB041C45
:107A0000281CFFF70FFB061C281CFFF711FB0023A7
:107A1000042C00D0B5E02C1C08345B4B9E421ED1D8
:107A2000297A0090201C0422FFF7AEFBC5B2002388
:107A30000293039304930593069307930893099382
:107A400002A800F08FFC0023621902A9595CD154EE
:107A50000133202BF8D12B1C2033DBB291E0B6236D
:107A60001B019E421BD1297A0090201C0422B623C0
:107A70001B01FFF789FBC6B202A8002302934360F3
:107A8000038100F01DFC0022A11902AD555D8D544B
:107A900001320A2AF8D1331C0A33DBB271E03B4BC6
:107AA0009E421ED1297A0090201C0422FFF76CFB15
:107AB000C5B200230293039304930593069307939F
:107AC0000893099302A800F08DFC0023621902A913
:107AD000595CD1540133202BF8D12B1C2033DBB25D
:107AE0004FE02B4B9E4225D1297A0090201C042286
:107AF000FFF74AFBC6B20023A355B51CEDB2721CBA
:107B0000D2B20A21A15402930393049305930693DE
:107B100007930893099302A800F07EFC00236219E2
:107B200002A9595CD1540133202BF8D1331C2233E4
:107B3000DBB226E00023B9221201964221D1297A34
:107B40000090201C0422B9231B01FFF71DFBC5B2C6
:107B500000230293039304930593069307930893DA
:107B600009930A930B9302A800F062FC00236219A8
:107B700002A9595CD1540133282BF8D12B1C28338E
:107B8000DBB2181C0CB070BD4F0B0000680B00007E
:107B90007C0B0000F0B55F4656464D464446F0B4B7
:107BA00083B0051C061C0836FFF73AFA041C281C93
:107BB000FFF738FA071C8346281CFFF739FA80467E
:107BC000012C50D13A1C203A92B20023032A00D94A
:107BD00088E03B1C203B1818042803DD2423DF1B0E
:107BE000BFB2B84601F08AFF42460092002A2CDD5F
:107BF000002407239A4659462039019152462242D1
:107C000006D1E3175B0F1B19DB10F3180021D970A5
:107C1000E3175B0F9846A146C1444B46DF1003377C
:107C2000F71939788B46019A1019C0B201F0EEFEAF
:107C3000534649460B4042469B1A98405B461843C0
:107C40003870013400998C42D8DB01236B72009BA1
:107C5000013BDA17520FD318DB10DBB25A1CAA72A1
:107C60000433DBB23EE000230F2C3BD13A1C203A18
:107C700092B2032A36D83B1C203B1818042803DD97
:107C80002423DB1B9BB29846C1464246002A1DDDD9
:107C9000002420235B429B4407218A465A46101940
:107CA000C0B2E3175B0F19198C46C9107118C97956
:107CB0000091624651460A40D31A009919410122A7
:107CC000114001F08DFE01344C45E7DB01F0A8FEC8
:107CD0000F236B723B0AAB72EF7241460B0A2B7398
:107CE00069730623181C03B03CBC90469946A24613
:107CF000AB46F0BDF0B55F4656464D464446F0B43F
:107D000099B0051C041C0834FFF78AF9061C281CCE
:107D1000FFF788F9071C8046281CFFF789F9031C28
:107D20008246032E00D0A8E0D6483A1892B22F2AF5
:107D300000D985E00020990700D06BE2BA0700D097
:107D400068E2D0483E18F318302B04DDBD235B01F8
:107D5000DB1B9BB29A46297A52460092201C0322D2
:107D60003B1CFFF711FAC0B28346504683089BB212
:107D700005930493002B00DC3DE2F3179B0F9E1943
:107D8000B6100396331C043BDBB299465D460027D0
:107D9000002603997B18DBB29846181C01F0C6FE3A
:107DA000C0B282464046FFF70DF9C0B2012811D09B
:107DB000022807D1484603F07DFF8046484603F07D
:107DC0007BFF0DE0032809D1484601F0F3FB804614
:107DD000012005E001200222904601E0301CB0465F
:107DE00066556B1CDBB25146E154424693039BB28D
:107DF000184380B2AB1CDBB2020AE254EB1CDBB2CC
:107E0000E0542B1DDBB2E6546B1DDBB2E654EB1DD8
:107E1000DBB2AA1DD2B2A6540835EDB2E654013742
:107E20004B460133DBB29946049B9F42B1DB5A4675
:107E30000832059B013BDB00D318DBB29B46DAE13D
:107E400000208346904A974200D0D4E1012B00D90C
:107E5000E0E1297A0093201C03228B4BFFF794F971
:107E6000C0B200232354831CDBB29B460130C0B256
:107E70002418FFF733F82070BDE100229346102E3E
:107E800000D0B8E17F483A1892B22F2A00D9A9E071
:107E90000020990700D0BDE1BA0700D0BAE17948C7
:107EA0003E18F318302B04DDBD235B01DB1B9BB2B6
:107EB0009A46297A52460092201C10223B1CFFF75A
:107EC00063F9C0B28346504683089BB20493F3170C
:107ED0009B0F9E19B6100596331C043BDEB2102191
:107EE000491900275B4607930890099443460A9373
:107EF000B3460C1C0B9569E005983D18EDB20137AF
:107F00000394267863789B099946A1788846281CB3
:107F1000FFF758F88246281C311C4A464346FEF7B4
:107F2000E3FF002841D05246D3B2022B22D158465B
:107F30004946424603F0BCFE039CE3781B060698C4
:107F40000202120A1A4323791B0450490A401A43B9
:107F500063791B024E4802401A430692A379FF221E
:107F6000069991430A1C1A4306925846069901F055
:107F7000DBFD26E0032B0DD158464946424601F071
:107F80001FFB039A91794B1E9941C9B2584601F0E3
:107F900089FB16E0012E14D1039B99794B1E994160
:107FA000C9B2281C01F01CFD0BE01E2000F0B2FC41
:107FB0002A02032002430220012100F0F3FB00F01B
:107FC000EDFC5B460133DBB29B46083404998F42DB
:107FD00092DB079A9346089B9A46099C0A9880462A
:107FE0000B9DB5E0284A974235D10020012B00D9DE
:107FF00010E1297A0093201C1022234BFFF7C4F8CC
:10800000C0B283462E7C731E9E41F6B2002E10D164
:1080100001F076FD01F084FD01F0A0FB1E2000F0D0
:1080200079FC0C200021002200F0BCFB00F0B6FC23
:108030000DE0FEF753FF002809D103F037FE01F0F1
:1080400071FD01F0C7FA01F03FFB01F0E9FC301CC3
:10805000FEF73EFF92E00F4A97423ED10020052BEB
:1080600000D9D7E0297A0093201C1022094BFFF792
:108070008BF8C0B28346EB7B012B0DD1012001F0C0
:10808000FBFB0EE090E8FFFFFC170000FFFF00FF86
:10809000FF00FFFF38180000002B02D1002001F084
:1080A000EBFB2B7C012B02D1002001F085FB6B7CCC
:1080B000012B02D17820FEF753FE1E2000F02AFC8F
:1080C0000D200121002200F06DFB02200021002282
:1080D00000F068FB00F062FC50E0524A974219D170
:1080E0000020012B00D995E0297A0093201C102252
:1080F0004C4BFFF749F8C0B283462B7C012B03D1D0
:10810000012001F059FB39E0002B37D1002001F0AC
:1081100053FB33E000229346434A974218D1002094
:10812000012B77D8297A0093201C10223E4BFFF7B1
:108130002BF8C0B283462B7C012B03D1012001F028
:108140009BFB1BE0002B19D1002001F095FB15E0F3
:10815000364B984512D100205246012A5AD8297A26
:108160000092201C1022FFF70FF8C0B28346287C33
:1081700043B2002B3FDDFEF7F3FD3CE02C4B98456E
:108180003BD02C4B984536D153460020112B41D87B
:108190002E7C0023E218517A0DAA995401330A2B40
:1081A000F8D1297A50460090201C1022214BFEF76E
:1081B000EBFFC0B2834600231093119312931393E5
:1081C000149315931693179310A800F025F90A2E0F
:1081D00015D110AB1A780DAB1B789A420FD1002342
:1081E00010AAD1180DA8C21849785278914206D128
:1081F0000133092BF4D158460CE000200AE01E2080
:1082000000F088FB02200121022200F0CBFA00F0EE
:10821000C5FBF0E719B03CBC90469946A246AB4678
:10822000F0BDC0464218000043180000441800008A
:10823000451800009C18000070B582B0041CFEF7C1
:10824000EFFE051C201CFEF7EDFE061C201CFEF7B1
:10825000EFFE0023042D25D1144A964222D1032893
:1082600020D1251C0835217A03230093281C0422E1
:108270000E4BFEF789FFC0B200232B54421CD2B232
:108280001121A954821CD2B2AB54C21CD2B22221F9
:10829000A954021DD2B2AB54831DDBB20530C0B26B
:1082A00033222A54181C02B070BDC046A406000038
:1082B00008B501F015FB01F02BFB002008BDC046FE
:1082C000F0B585B0061C264800F0F6FD051C431CE1
:1082D00012D14E2333704F2373705423B37056233F
:1082E000F370412333714C2373714923B3714423D9
:1082F000F371002333722FE0002808D1302333704C
:1083000001230022F25401330A2BFBD124E06C46F6
:108310000D346F460337281C0A21FDF7B9FF217081
:10832000281C0A21FDF770FF051C013CBC42F2D15C
:108330000023002101AA9A5C002A02D0002902D160
:10834000D9B2002902D0581A3032325401330A2BE4
:10835000F0D1591A00237354002005B0F0BDC04677
:10836000F0FD000030B500230022C2540133202B61
:10837000FBD11A4B1B78002B29D10DE0CA5C002AD7
:1083800004D1FF221340202B07DD24E0C254013327
:10839000202BF3D1002300E00023114A1278002A99
:1083A0000FD105E0131E202B15DC0C78002C02D118
:1083B0000022C2540FE0845401320131A942F1D1AC
:1083C00009E0C2545A1C064D691C1435EAE70370D3
:1083D00001230249D2E7002030BDC04624F0FF1F30
:1083E00008F0FF1F0B4B1B78002B0DD103E0CA5C7C
:1083F000002A04D100E000230022C25408E0C25445
:108400000133202BF3D103E0037001230149EEE790
:108410000020704734F0FF1F002304499A008A5857
:10842000C25401330A2BF9D10020704744F8FF1FD2
:1084300070B5051C054C064E201C00F03DFD287053
:1084400004340135B442F7D1002070BD28FC00008F
:1084500064FC000000B583B0074B0193074801A9F5
:10846000012200F095FCBFF34F8F054A054BDA60FF
:10847000BFF34F8FC046FDE7BBBBBBBB04FE000094
:108480000400FA0500ED00E0012301292ED80301C4
:10849000174AD3185B798B4227D000290DD10301ED
:1084A000D3181B79012B18D1124B1A6801321A60AC
:1084B000114B1A68013A1A600FE001290DD103012E
:1084C0000B4AD3181B79012B07D10A4B1A68013AC2
:1084D0001A60094B1A6801321A600001044B18181F
:1084E000417101230373022300E00323181C70472A
:1084F000CCF7FF1F24F1FF1F30F1FF1F0123012ADA
:108500001BD80123002818D10B010D48C3189B78F4
:1085100093420CD0002A04D10A4B1868013018602D
:1085200005E0012A03D1074B1868013818600901DA
:10853000034B59188A700023FFE7181C7047C04688
:10854000CCF7FF1F14F1FF1FF8B52B4B1B68002B56
:1085500050D000240025294F2B01DB19DE782301A0
:10856000FB181B79B3422FD0012E11D12301234ACE
:10857000D3185B79012B04D1214B1A6801321A60A0
:1085800019E0002B17D11F4B1A6801321A6012E054
:10859000002E10D12301194AD3185B79012B04D185
:1085A000174B1A68013A1A6005E0002B03D1154BEE
:1085B0001A68013A1A600020211C0022FFF79EFF72
:1085C00023010E4AD3181E7123010C4AD3181B7BBA
:1085D000002B09D00020211C0022FFF78FFF24016F
:1085E000064B1C190023237301352C1C024B1B68FE
:1085F0009D42B1D30020F8BD28F1FF1FCCF7FF1F2B
:1086000030F1FF1F24F1FF1F30B5002902D00022F6
:10861000174B1A60164B1B68164A1168164A1468E5
:108620000C19A3421FD21A01144D52190232994259
:1086300014D91578002D11D1002282700F491A012A
:10864000545A04808A181179C17051790171926865
:1086500082600133064A1360002007E001331032C4
:10866000A342E4D301E0012000E0012030BDC04678
:1086700018F1FF1F28F1FF1F20F1FF1FCCF7FF1F8C
:1086800008282AD88000164B1B589F46154B18689F
:10869000154B1B68C01821E0124B18681EE0124BE6
:1086A00018681BE0114B1968114B1868114B1A68B8
:1086B000114B1B6840188018C0180FE00B4B18684E
:1086C0000CE00B4B186809E00B4B186806E0094BEF
:1086D000186803E0094B186800E000207047C046A6
:1086E000A8D1000028F1FF1F20F1FF1F24F1FF1F78
:1086F0001CF1FF1F2CF1FF1F30F1FF1F14F1FF1FB2
:1087000070B50C4B1B68002B11D0002100240A4EC1
:10871000084D23019B191B79012B03D10020002256
:10872000FFF7ECFE0134211C2B689C42F1D30020A2
:1087300070BDC04628F1FF1FCCF7FF1F10B5002801
:1087400013D10E4B1A68002A12D00D4B1B888B4296
:1087500011D00B4C03E00301E35A8B420CD00130E3
:108760009042F8D10120404206E00120404203E05F
:108770000120404200E0002010BDC04628F1FF1F4C
:10878000CCF7FF1F38B5041C151CFFF7D7FF011CE1
:10879000431C04D0201C2A1CFFF7B0FE01E001207E
:1087A000404238BDF0B5474680B4051C0C1C171C70
:1087B0000120012900D981E00020291CFFF7BEFF1C
:1087C000061C701C78D0002C02D0012C06D06DE065
:1087D00033013C4AD31800229A6067E03301394ADA
:1087E000D318996888460F2D45D004D8022D05D09E
:1087F0000E2D2FD050E0323D0A2D4DD8FF233B40A7
:10880000032B05D0042B0ED0023B5A4253410BE000
:108810003B0A0833DBB232012A498A180421404658
:108820000143916000E0032301229A40131C3201AE
:1088300024498A1891680B4393600222934304D021
:10884000301C0021FFF720FE26E0301C0121FFF73D
:108850001BFE21E0022F04D0FB1E5A4253415B0055
:1088600000E00123320117498A180121994040464E
:108870000143916000E00023012F03D0022F02D1B9
:10888000012300E0002332010E498A18012199409A
:108890000B1C91680B43936033010A4AD3189B6801
:1088A000434503D03301D31801221A733601054B17
:1088B0009E19F470002001E00123584204BC904648
:1088C000F0BDC046CCF7FF1F70B5051C0E1C141C74
:1088D0000123012A18D8FFF731FF0123013013D1FA
:1088E0000123002D10D1094B1B68052B0BD0084A22
:1088F000190150180125857044718E520133034AC5
:108900001360002300E00123181C70BD28F1FF1F35
:10891000CCF7FF1FF0B5474680B4041C00F04EFBB7
:1089200000280ED000F056FB1B4B1B680124002BC7
:1089300003D00022184B1A60002400F04FFB201CCB
:1089400027E000F047FBA3001B195C000025124A3A
:10895000904601267642F7170BE0A4197D4100F0FE
:108960003DFB642000F032F800F034FB231C2B4365
:1089700003D042461368002BEFD0074B1B6801243D
:10898000002B03D00022044B1A60002400F026FBC9
:10899000201C04BC9046F0BD1CF0FF1F08B500F081
:1089A0000DFB002807D000F015FB0122064B1A60D2
:1089B00000F014FB06E000F00DFB0122024B1A60F0
:1089C00000F00CFB002008BD1CF0FF1F10B582B0AA
:1089D000041C0B4B18680B49FDF716FC60430B2178
:1089E000FDF712FC00230193019B984206D9C04673
:1089F000019B01330193019B9842F8D802B010BD4E
:108A000064F0FF1F40420F0010B509490C68002CAC
:108A10000CD008498A4203D007498A4203D101E0B9
:108A2000002200E00122181C111CA04710BDC04606
:108A300034F1FF1FEA030000EB03000008B504480F
:108A400001F046FD034801F035FB002008BDC0469B
:108A5000001002400080004038B5041C8378012BD0
:108A600037D0002B05D0022B64D0032B00D192E02D
:108A7000BFE0614B1978C0788000604A82583F207F
:108A8000024081430A431A70A378032B05D95C483E
:108A90004E215C4A5C4B03F09FF9574AD05C802121
:108AA0000143D154A27813015848C018584901F025
:108AB0007BFB584B01221A60C022920098582479FF
:108AC000A401FF210C408843211C01439950002040
:108AD00090E0494B5978C0788000484A82583F203E
:108AE000024081430A435A70A378032B05D94448B6
:108AF0004E21444A444B03F06FF93F4AD05C802139
:108B00000143D154A27813014048C018404901F0F4
:108B10004BFB404B02221A60C02292009D582079E4
:108B20008001FF21084000023B4929400143995040
:108B300000205FE0304B9978C07880002F4A82583F
:108B40003F20024081430A439A70A378032B05D942
:108B50002B484E212B4A2C4B03F03EF9264AD05C81
:108B600080210143D154A27813012848C018284914
:108B700001F01AFB274B04221A60C02292009D5874
:108B800020798001FF210840000424492940014345
:108B9000995000202EE0184BD978C0788000174AF1
:108BA00082583F20024081430A43DA70A378032BA6
:108BB00005D913484E21134A134B03F00DF90E4A01
:108BC000D05C80210143D154A27813010F48C01812
:108BD0000F4901F0E9FA0F4B08221A60C0229200F7
:108BE0009958207980070902090A01439950002009
:108BF00000E0FF2040B238BD0010024034D2000037
:108C0000E4D10000CCD1000008D2000038F1FF1FF1
:108C10000080004000E100E0FF00FFFFFFFF00FFD9
:108C200010B582B0041C437A5AB2042A24DC027ABA
:108C300051B2042922DC013104D052B2120112498E
:108C40008A1800E0002259B2013104D05BB21B0146
:108C50000D49CB1800E000232178022910D10092A1
:108C600001930A480A490B4AE36802F0A5FD6268CD
:108C7000094B1A60002004E0FF2002E0FF2000E022
:108C8000FF2040B202B010BD38F1FF1F00C0064007
:108C900078F1FF1F098A000034F1FF1F00B583B08F
:108CA00043680093037A01930378022B13D1437A2C
:108CB000002B06D10A480B496A4602F0C5FD002088
:108CC0000AE00020012B07D1054806496A4602F058
:108CD0003BFE002000E0FF2040B203B000BDC046D4
:108CE00000C0064078F1FF1F08B501F0BDFB08BDCC
:108CF00008B501F0C1FB08BD08B501F0C5FB08BD12
:108D000008B501F0C9FB08BD10B51B48002303607E
:108D100043608360C360036143618361C361036235
:108D200043628362C362036301F070FC0123002885
:108D300020D1114C201C0421104A01F02BFD201CD5
:108D400001210F4A01F026FD201C00210D4A01F0EF
:108D500021FD201C0C4901F097FC0223002809D1B9
:108D600000230A4C802149009A00105101338B42A4
:108D7000FAD10023181C10BD9CF1FF1FD8F5FF1F6E
:108D8000D4F1FF1FD0F1FF1F20F0FF1FD8F1FF1F0C
:108D9000F8B54F464646C0B49046002974D0002A24
:108DA00005D0021C002310CA01334345FBD1012327
:108DB000820770D13A4B1A6801321A60830A9B020B
:108DC00099461C1C0023374A80277F0040CC9D0019
:108DD000AE500133BB42F9D14346002B13D04A4673
:108DE000801A80084746002200232E4E1518920054
:108DF0005458AA00945101331A1EBA42F6D10123E5
:108E000042461340984400F0E5F843469C00644213
:108E1000254B1A68254BD218121B25484946254B6D
:108E200001F018FD0123002835D11F4B1A681F4B94
:108E3000D218121B1E484946012301F04DFC0123A4
:108E4000002828D1184B1B6819484946154A01F0DB
:108E500059FD012300281ED100F0C0F84A461368CE
:108E6000104A12689A4211D14A46043201230D4C2D
:108E700080256D00116898000059884208D101339F
:108E80000432AB42F6D105E0012304E0012302E005
:108E9000012300E00023181C0CBC90469946F8BD45
:108EA00098F1FF1FD8F1FF1FD0F1FF1F00FCFFFF5B
:108EB0009CF1FF1F6B66656B00687047024B036097
:108EC000002343607047C046A8610000002070473F
:108ED000782303707047C04670B584B0051C0E1C23
:108EE000684601F0B5FF002368460372327882803D
:108EF000C38001234370C370AA00274BD4580020BD
:108F000000F0D8FF021C201C694601F0E1FE002D94
:108F100002D0012D10D01FE0204BC22292009C589D
:108F2000B1688801FF2108408C43211C01439950FE
:108F3000802252001A600FE0184BC22292009C5807
:108F4000B0688101FF20084000021549214001431B
:108F50009950802292001A60124C002323606360B3
:108F6000A360E36023616361A361E3612362AD00F9
:108F7000094BED58281C211C7268002301F084FF66
:108F8000281C211C202201F0BBFF3278064B1A70EE
:108F9000002004B070BDC04658D2000000E100E0DF
:108FA000FF00FFFF1CF8FF1FDCF5FF1F08B501F0F5
:108FB000E1FF08BD08B501F0E9FF08BD82B0EFF39D
:108FC00005833F22134001930198431E9841C0B28C
:108FD00002B0704772B600207047C04662B60020EB
:108FE0007047C04608B5074B196880220A431A60CB
:108FF000054B1B68002B00D09847BFF34F8FBFF382
:109000006F8F08BD00000440E4F5FF1F30B583B04A
:10901000041C0D1C684602F015F800236A46137004
:10902000D3700F2D04D9012313710023937103E032
:1090300000236A4613719571012C12D0002C04D0C4
:10904000022C1AD0032C24D036E00C2000F032FF82
:109050000F2D02D91A4B186026E0E840184B186013
:1090600022E0132000F026FF0F2D02D9144B1860C8
:109070001AE0E840124B186016E0072000F01AFFD3
:109080000F2D02D90E4B18600EE0E8400C4B186013
:109090000AE00A2000F00EFF0F2D02D9084B1860DD
:1090A00002E0E840064B18606B465C710548694673
:1090B00001F08CFF002000E0012003B030BDC0466D
:1090C000E0F5FF1F0000044010B51C1C184B1A608F
:1090D000184B1A68081C00210023FDF765F9134B93
:1090E000114AFDF741F9002806D113482421FF3128
:1090F000124A134B02F070FE0138124A9060136856
:1091000080218B4340210B4313600F4AC721890004
:109110005358A401FF20044083431C435450802330
:109120005B051360002010BD40420F0000000000EE
:10913000E4F5FF1FE0F5FF1F60D2000090D20000B1
:1091400084D200000000044000E100E0C046C046B8
:10915000044B1A6880218A4301210A431A600020C7
:109160007047C0460000044008B586235B000F4AE4
:10917000D358DA0709D5012186235B000B4AD15069
:109180000B4B1B68002B00D098478E235B00074ACF
:10919000D358DA0709D501218E235B00034AD15049
:1091A000044B1B68002B00D0984708BD007003409B
:1091B000E8F5FF1FECF5FF1F00B583B001A9002300
:1091C0000B70034801F06CFF002003B000BDC046E7
:1091D00000700340EEEEEEEE38B50D1C1C1C0028AE
:1091E00002D001282DD059E02F4B1A60022000F048
:1091F00061FE00212A1C0023FDF7D6F8294B284ADE
:10920000FDF7B2F8294B8022520098509958284A0D
:109210001160842252009858022101439950254B35
:10922000C52292009D58A401FF210C402104224830
:109230002C1C04400C439C508022D2031A60002056
:109240002DE01E4B1A60022000F034FE00212A1C83
:109250000023FDF7A9F8134B114AFDF785F8134BCE
:109260008822520098509958114A11608C2252005D
:1092700098580221014399500E4BC52292009D58E7
:10928000A401FF210C4021040B482C1C04400C437A
:109290009C508022D2031A60002000E0012038BDDB
:1092A00040420F0000000000E8F5FF1F007003407F
:1092B00040F8FF1F00E100E0FFFF00FFECF5FF1F9B
:1092C000012808D80001054BC01803680122934308
:1092D0000360002000E001207047C0460871034091
:1092E00001280BD80001064BC018026801239A43DD
:1092F0000260026813430360002000E00120704711
:109300000871034000B585B001A801F05FFF02209D
:1093100000F0D0FD021C034801A901F0C9FF05B00F
:1093200000BDC0460060074070B584B00D1C8000D1
:109330000C4BC658301C01F059FF01AC201C01F049
:1093400045FF2B68A3606B79E3702B79A370022033
:1093500000F0B0FD021C301C211C01F0A9FF002010
:1093600004B070BDA8D2000000B585B00091019294
:1093700002938000034BC058694602F033F8002086
:1093800005B000BDA8D2000010B50124012802D804
:10939000FFF722FF0024201C10BDC04608B50123A2
:1093A000012802D8FFF78CFF0023181C08BDC04617
:1093B00008B50123012802D8FFF792FF0023181CEB
:1093C00008BDC046002902D10022014B1A70704727
:1093D000F0F5FF1F08B50B4802F026F928230342D9
:1093E0000ED0030704D007480F2102F023F907E04D
:1093F000054B1B68002B01D0984701E0014BDB793E
:1094000008BDC04600C00640F4F5FF1FE1235B0223
:109410000360002303714371837183600922027327
:109420008373704730B589B00D1C06AC201C02F068
:10943000CFF82A6806920123A371E371022000F09D
:1094400039FD021C2348211C02F02CF8AB7B002BB9
:1094500002D0012B10D036E000221F4B1A701D489D
:109460008221090302F0CEF88022D2011B4B1A6040
:10947000AA681B4B1A6028E00124174B1C70154882
:109480008221090302F0BEF88022D201134B1A6038
:10949000AA68134B1A6000256B461D705D709C70A6
:1094A0001C7107236A46D3706846FFF7D5FA02A8F5
:1094B0000C4B4360022303700472C560FF234372A8
:1094C000FFF7AEFB01E0FF2000E0002040B209B052
:1094D00030BDC04600C00640F1F5FF1F00E100E0CE
:1094E000F4F5FF1FC593000000B585B00D4B1B7848
:1094F000002B02D0012B04D00DE00B4802F0B8F88D
:109500000BE001A800234372027241600223037042
:10951000FFF7C4FB01E0FF2000E0002040B205B0EF
:1095200000BDC046F1F5FF1F00C0064038B50D4B29
:109530001B78002B02D0012B03D00DE00A4D4024F4
:1095400004E00A4B1B78002BF8D0FEE7281C02F041
:109550006BF80442FAD001E0FF2000E0002040B2A6
:1095600038BDC046F1F5FF1F00C00640F0F5FF1FF3
:10957000014BD879C0B2704700C0064000B583B037
:10958000684600F02DFD002369464B7003224A71A6
:10959000CB70034800F03EFD002003B000BDC04684
:1095A0000070044008B5024800F062FD08BDC046E6
:1095B00000700440014B185C7047C04638F6FF1F2E
:1095C000031C0120072B02D8014AD1540020704708
:1095D00038F6FF1FF0B5474680B484B000242A4F08
:1095E0002A4E2B488046221CE35D022B04D103AB9C
:1095F00001215970197004E0012B02D1002103AB45
:109600001970935D4546515D9B008A0021481858AA
:1096100082181068844620486546284080256D00E1
:10962000284310601D4A985803AA01F0CBF9013471
:10963000082CD8D100231448195C02394A42514100
:1096400001AA99540133082BF6D100210023144DAF
:1096500001245A5D201C9040814301A8185C904071
:109660000A1C0243D2B20133082B01D0111CF0E7CF
:10967000694603310A70032000F09AFA002004B012
:1096800004BC9046F0BDC04638F6FF1FC4D20000AF
:10969000D4D20000B0D20000FFF8FFFFDCD20000FF
:1096A000CCD200008000024BC15000207047C04661
:1096B00018F6FF1F8000034BC058431E9841C0B2EC
:1096C0007047C046F8F5FF1FF0B500230E490F4E56
:1096D00001205A5C022A11D10D4CE25C9200925991
:1096E0000C4DEF5C9C000C4D6459002C03D0041C05
:1096F000BC40946002E0051CBD4055600133082B5E
:10970000E7D10020F0BDC04638F6FF1FDCD20000D4
:10971000C4D20000D4D2000018F6FF1FF0B5002319
:109720000A4F0B4E0B4D01240B489A5D9200D25903
:1097300011695A5DD1400A1C211C91439A001150B5
:109740000133082BF1D10020F0BDC046DCD200006F
:10975000C4D20000D4D20000F8F5FF1F30B50023BA
:10976000064D0022064C074899004A510A511A54E6
:109770000133082BF8D1002030BDC04618F6FF1F7A
:10978000F8F5FF1F38F6FF1F08B5FFF7E7FFFFF7F3
:109790009BFF002008BDC04600B583B001AA01238D
:1097A0001370002353700348022101F00BF90020CD
:1097B00003B000BD80F00F40012804D0002806D07F
:1097C000022808D00AE00422054B5A6006E0042271
:1097D000034B9A6002E00422014BDA607047C046F6
:1097E00080F00F4000B583B001AA0123137000235D
:1097F000537003480D2101F0E5F8002003B000BDCF
:1098000000F00F40012804D180229201044B5A60DD
:1098100005E0002803D180229201014B9A60704735
:1098200000F00F4000B583B001AA00231370034875
:109830000C2101F0C7F8002003B000BD00F00F407C
:1098400000B583B001AA01231370002353700348AD
:10985000022101F0B7F8002003B000BD40F00F4036
:1098600008B5FFF799FFFFF7BDFFFFF7DBFFFFF735
:10987000E7FF002008BDC046012803D10422044BA5
:109880005A6004E0002802D10422014B9A6070471C
:1098900040F00F4000B583B001AA0123137053704C
:1098A0000348042101F08EF8002003B000BDC0463B
:1098B00000F00F40012808D0002802D0022808D06C
:1098C0000AE01022054B5A6006E01022034B9A6012
:1098D00002E01022014BDA607047C04600F00F40F2
:1098E00070B5FC242402074E074D201CFFF7E4FA54
:1098F000A319064A9B1818600434AC42F5D1002025
:1099000070BDC04644F8FF1F28FC00000004FFFFA4
:1099100070B586B0FC200002FFF7CEFA06280FD003
:109920002C4B00225A609A60DA601A615A619A617F
:10993000DA61294A1168196012791A71012047E029
:10994000FE200002FFF7B8FA051C421C3FD000239E
:10995000009301936C462381002826D015346E466F
:109960000B36281C0A21FCF793FC2170281C0A21C5
:10997000FCF74AFC051C013CB442F2D10023002153
:1099800003AA9A5C002A02D0002902D1D9B2002988
:1099900003D0581A30326C46225401330A2BEFD1CF
:1099A000591A00236A46535402E030236C46237050
:1099B000084C201C02F09AFA20180849022202F0F2
:1099C00077FA201C694602F084FA002000E00020AB
:1099D00006B070BD34F0FF1FF0D20000F8D20000D6
:1099E00003280AD8074B1B5C8B4209D0054B19543E
:1099F0000122054B1A70002003E00120404200E0E4
:109A00000020704744F6FF1F40F6FF1F0123032884
:109A100001D8024B1B5C181C7047C04644F6FF1F60
:109A20001A4B1B78002B2ED0194B1B78002B03D020
:109A30001022184B5A6002E01022164B9A60144B09
:109A40005B78002B03D02022124B5A6002E02022C8
:109A5000104B9A600E4B9B78002B03D040220D4B8D
:109A60005A6002E040220B4B9A60094BDB78002BD6
:109A700003D08022074B5A6002E08022054B9A6097
:109A80000022024B1A7000207047C04640F6FF1FAC
:109A900044F6FF1FC0F00F4030B583B001AC012386
:109AA000237000236370134D281C0621221C00F034
:109AB00089FF281C0721221C00F084FF281C042198
:109AC000221C00F07FFF281C0521221C00F07AFFD9
:109AD0000024201C0021FFF783FF0134E4B2042C92
:109AE000F7D10122044B1A70FFF79AFF002003B050
:109AF00030BDC046C0F00F4040F6FF1F0020704749
:109B0000054B00221A705A709A70DA700122034BCA
:109B10001A7000207047C04644F6FF1F40F6FF1F32
:109B200000207047002070470020704708B50023D0
:109B30000B2829D8032810D8144BC0188000FFF731
:109B4000BBF9022805D0032805D001281BD000232B
:109B50001AE00F2318E0102316E00D4BC018800008
:109B6000FFF7AAF902280CD003D80A2301280BD04A
:109B700005E00C23032807D00D23042804D000237C
:109B800002E00B2300E00E23181C08BD0B3F000071
:109B90000D3F000000B583B001AA0123137053707C
:109BA0000248032100F00EFF03B000BD40F00F405B
:109BB000F0B5474680B4041C0E1C051C114B185C04
:109BC0001149FFF7B1FB0822104B9A60104B1B5D47
:109BD000002B0FD000240B4B98460D4F4346585D89
:109BE000311900220123FFF7BFFB0134E4B27B5D92
:109BF000A342F3D80822054B5A60002004BC9046CB
:109C0000F0BDC04648F6FF1F54F0FF1F40F00F4064
:109C10005CF0FF1F38B5064C022565600020FFF799
:109C200063FC0020FFF782FCA560002038BDC04621
:109C3000C0F00F4008B50020FFF79AFC08BDC046F1
:109C400010B582B001AA0123137000235370054C94
:109C5000201C012100F0B6FE0223A360002002B008
:109C600010BDC046C0F00F4010B50C1C0020FFF71F
:109C7000E7FF0020211CFFF7D5FB002010BDC046E8
:109C800030B5174B174A9A4210D01749890809D0A6
:109C900000230022134C1248C558E550013204330A
:109CA0008A42F9D1114B0F4A9A6002E00F4B0C4ADD
:109CB0009A600F4B0F49C91A07D000230E4C0C486D
:109CC000C25CE25401339942FAD10C4B0C49C91AD7
:109CD00005D0591800221A7001338B42FBD130BDD8
:109CE000005D0000005D00000000000000ED00E0ED
:109CF00044DE000014DF000000F0FF1FD0F0FF1F63
:109D000078F8FF1F002188235B01014AD15070477A
:109D100000700440094B1B789A0706D4074B9B79C7
:109D20001B079B0F0020012B06D1044B5A780123FF
:109D30001A409200024BD0587047C046004006407F
:109D4000E0D3000008B5084B1B785BB20020002B65
:109D500009DA064B1B68181E05D105488921054AFA
:109D6000054B02F039F808BD0050064070F8FF1F9F
:109D700090D30000E8D30000B4D3000008B5114B25
:109D80001B681B039B0F022B10D0032B03D000205A
:109D9000002B15D102E0FA20800011E0FFF7D2FF7E
:109DA000094BC01843425841C00309E0074B1868EB
:109DB000002805D106489D21064A074B02F00CF801
:109DC00008BDC046007004400080FFFF6CF8FF1F14
:109DD00090D3000060D30000C0D3000010B5074B43
:109DE000074A416899501C6801788904C02212030F
:109DF0001140044A22400A431A6010BD007004401A
:109E000044100000FFFFF3FF38B5074B1D7AEDB299
:109E10001C7EE4B2FFF77EFF2D076D0F07231C4069
:109E20002C19E04038BDC04600400640074B1B7E61
:109E30005BB2002B06DB054B9B791B079B0F03D105
:109E4000034802E0024800E000207047004006405E
:109E5000006CDC0208B5114B9B791B079B0F012B93
:109E600006D0002B02D0022B0AD014E00C4813E0DD
:109E7000FFF750FF094B1B7A1B075B0FD8400BE025
:109E8000084B1868002807D107488C214900074A69
:109E9000074B01F0A1FF002008BDC046004006406E
:109EA000006CDC0270F8FF1F90D300004CD3000060
:109EB000B4D3000038B513282CD88000164B1B589B
:109EC0009F46FA20800026E0FFF7C4FF134B144A98
:109ED000D158090F0131FCF797F91CE0FFF7BAFFE1
:109EE0000F4D0E4C2959090F0131FCF78DF92959F5
:109EF0004903490F0131FCF787F90CE0FFF73EFFFA
:109F000009E0FFF71FFF06E0FFF77EFF03E0FFF722
:109F10008DFF00E0002038BDFCD20000441000009E
:109F20000070044010B5002806D129484421FF31B3
:109F3000284A294B01F050FF284B9B791B079B0FA8
:109F4000012B13D10378012B10D1244B5A78012314
:109F50001A4083789A4209D0204B19783F220A4050
:109F60001A70191C0C228B791342FCD1C278520052
:109F70000E231A40194B1A724179C901027907243C
:109F800022400A43D2B21A765978827801242240BC
:109F9000A1430A435A700278920141780A43D2B22F
:109FA0001A705B785A0702D50378022B03D0007829
:109FB0000A490C2205E0094902228B791342FCD0A0
:109FC000F5E78B7913409B089842FAD1002010BD29
:109FD00090D3000078D30000D0D3000000400640AA
:109FE00008B5002805D108482721084A084B01F088
:109FF000F3FE00230370012242708370C37003716B
:10A000000323437108BDC04600D400002CD40000D7
:10A0100024D4000010B5002905D112484B21124A62
:10A02000124B01F0D9FE4A78520002231A404B79B4
:10A030009B000C2423401A430B781A438B781B0196
:10A04000102423401A43CB785B01202423401A4379
:10A050000B799B01FF210B401A4388235B01C250FF
:10A0600010BDC04600D4000044D4000024D4000039
:10A07000EFF3108272B6044B5521C150AA21C15092
:10A0800082F310887047C0460411000008B5054BE4
:10A09000984205D004484121044A054B01F09CFE3A
:10A0A000002008BD00800040BCD4000020D6000085
:10A0B000E0D4000008B5FFF7E9FF034B19688022E0
:10A0C00052000A431A6008BD4080044008B50329C5
:10A0D00005D90D486D210D4A0D4B01F07DFE09019A
:10A0E00040188422520083181968802252040A43BF
:10A0F0001A600022802149004250822149004250CA
:10A100001A60044A5A6008BDBCD4000050D4000054
:10A1100004D500008000002038B5032905D91D486A
:10A1200093211D4A1D4B01F057FE002A05D1194805
:10A130009421194A1A4B01F04FFE0901401880235F
:10A140005B001168C15082235B005168C150D16827
:10A150000B021B0A0930FF3003604468D17A4904BE
:10A16000C023DB021940957AED0480231B032B40AA
:10A170000B430C4921400B43547A2405C021890329
:10A1800021400B43117A89058022D2030A401343F0
:10A19000436038BDBCD4000064D4000004D5000086
:10A1A00030D50000FFFF81FF70B5041C0E1C151C8C
:10A1B000002805D11448E721144A154B01F00CFE84
:10A1C000032A05D91048E821104A124B01F004FE79
:10A1D0000021102201F075FE26602571301CFFF76A
:10A1E00055FF80004519AA000B4BD45045190B4B65
:10A1F000EB5C5AB2803206D01F22134001229A40F3
:10A20000131C074A136070BDBCD40000A8D4000022
:10A2100040D5000004D5000050F6FF1FA4D4000074
:10A2200000E100E0F8B54F464646C0B4041C89463C
:10A23000161C9846089D0AAB1F78002806D138489E
:10A2400088214900374A384B01F0C6FD002906D164
:10A2500033481221FF31334A344B01F0BDFD4346F0
:10A26000002B06D12E48892149002E4A304B01F09F
:10A27000B3FD531E012B08D9042A06D02848142107
:10A28000FF31284A2B4B01F0A7FD6B1E012B08D98B
:10A29000042D06D022488A214900224A264B01F08B
:10A2A0009BFD201C0021102201F00BFE4B46236079
:10A2B00043466360099BE360022E06D0042E07D05C
:10A2C000012E07D10123637204E00223637201E0CF
:10A2D00000236372022D06D0042D07D0012D07D173
:10A2E0000123E37204E00223E37201E00023E3723E
:10A2F000012F08D0002F02D0022F09D00CE001233B
:10A300002372A37208E0002323720123A37203E0E7
:10A31000012323720023A3720CBC90469946F8BD1A
:10A32000BCD4000030D6000030D5000050D500006D
:10A3300060D5000074D50000B0D5000008B5002835
:10A3400006D105485821FF31044A054B01F044FD70
:10A350008160C26008BDC046BCD4000010D60000B9
:10A3600040D5000070B5041C0D1C161C002806D139
:10A370001D48B62149001D4A1D4B01F02DFD002945
:10A3800006D119486E21FF31184A1A4B01F024FDFD
:10A39000006821790B01C3180933FF331B689A0148
:10A3A0001FD4FFF793FE217920682A1CFFF7B4FE23
:10A3B0000020F30716D523682279032A06D90E4810
:10A3C0005621FF310D4A0E4B01F006FD12019B187C
:10A3D0000933FF335968802212060A435A6000206D
:10A3E00000E0084870BDC046BCD4000060D6000044
:10A3F00040D5000030D50000ECD500008CD4000022
:10A4000008D200008813000008B5002806D11048C3
:10A41000CC2149000F4A104B01F0DEFC03680279A1
:10A42000032A06D90D48C421FF310D4A0D4B01F016
:10A43000D3FC12019B180933FF33196880225204A0
:10A440000A431A608368002B01D0C168984708BD91
:10A45000BCD400007CD4000040D50000ECD5000046
:10A4600044D6000008D2000008B5024B1868FFF778
:10A47000CBFF08BD50F6FF1F08B5024B5868FFF729
:10A48000C3FF08BD50F6FF1F08B5024B9868FFF7E1
:10A49000BBFF08BD50F6FF1F08B5024BD868FFF799
:10A4A000B3FF08BD50F6FF1F08B5054B984205D015
:10A4B00004483B21044A054B01F08EFC002008BDF6
:10A4C0000010024074D60000C0D6000098D60000EC
:10A4D00008B5FFF7E9FF034B196802220A431A6027
:10A4E00008BDC0463C800440002807D0C369002B4B
:10A4F00006D01B68022B05D06D2004E0042002E08A
:10A500006D2000E00020704710B570220C4B1A70CF
:10A51000FFF7EAFF031C002B11D1094C094B1B6804
:10A52000201C98472378DBB267209A0607D468205E
:10A53000DA0604D4DA0701D5692000E0002010BD56
:10A5400000000240A0F6FF1F30B500280FD0013BED
:10A5500065240D1C15431D420CD1036866249942E5
:10A5600008D38A1841685B189A4202D902E0042491
:10A5700000E00024201C30BD70B5051C0E1C141C0E
:10A58000002819D00420002A17D0101C00212022F6
:10A5900001F097FC2B68F61A2660EB686360297A55
:10A5A0006868FBF731FEA0600423E3602361636108
:10A5B000A361E361002000E0042070BD38B50028ED
:10A5C00019D0C4690420002C16D06568281C0B49DA
:10A5D0000C2201F06DFC0135094B1D60A568281C9B
:10A5E00008491C2201F064FC0135074B1D60022361
:10A5F0002360002000E0042038BDC0461CD70000C6
:10A60000A0F6FF1F28D70000B0F6FF1F10B5041EEC
:10A610002CD0174B174AD3581B011B0F0F2B04D0FC
:10A620005B00154A9A5A920201E08022120200232E
:10A6300023606260012222728022D200E2606361A4
:10A64000A361201CFFF750FF00280AD00B4B00220B
:10A650001A600B4A5A600B4A9A60E361201CFFF7AC
:10A66000ADFF002323626362002000E0042010BDE0
:10A670004C10000000700440FCD60000A4F6FF1F40
:10A68000B4F6FF1F60F6FF1F002818D0002918D06D
:10A690000D4B9B78DBB203221A40022A03D10B4BED
:10A6A0000B6000200EE03F229343802B03D1084B28
:10A6B0000B60002006E0074B0B60002002E0042046
:10A6C00000E004207047C046000002403CC33CC389
:10A6D000A55AA55AA53CC35AF0B55F4656464D4605
:10A6E0004446F0B48BB080460C1C151C9A4602AA56
:10A6F000FFF742FF079B4046211C2A1CFFF724FF5F
:10A70000021C002A3BD14046211C02AAFFF734FF5D
:10A71000029E049A9146534277421F407F42B742BD
:10A7200000D14F44002D27D053461A02FF231A436D
:10A730000192164A9346164B9A46BC1BAC4200D96E
:10A740002C1C201C0799FBF75FFD33021B0A80229B
:10A75000520413435A4613600004019B18435246A7
:10A7600010604046FFF7D0FE002808D12D1B361997
:10A770004F44002DE1D101E0002000E000200BB0AB
:10A780003CBC90469946A246AB46F0BD0400024050
:10A790000800024010B5141C002832D0002A32D024
:10A7A000092932D889001A4B5B589F46C06810604F
:10A7B00000202BE040681060002027E0017A40680C
:10A7C000FBF722FD2060002020E0037A13600020C8
:10A7D0001CE000681060002018E0002313600020D7
:10A7E00014E040691060002010E0806910600020D3
:10A7F0000CE0006A1060002008E0406A1060002051
:10A8000004E0042002E0042000E06A2010BDC046FD
:10A81000D4D6000010B5044B1C6804488021C90040
:10A820000A220123A04710BDB0F6FF1F0C3000F034
:10A8300010B50C1CFFF758FE002803D1012C01D1E4
:10A84000FFF7E8FF10BDC04608B50121FFF7F0FF94
:10A8500008BDC046F0B557464E464546E0B488B000
:10A86000061C0C1C171C98466A46FFF785FE049BC5
:10A87000301C211C3A1CFFF767FE051C002D36D149
:10A880006B201E4B984532D125E0381C4146FBF722
:10A89000BBFC471C42465743013F301C0021FFF7D9
:10A8A000C7FFA74212D390231B059A46144B994623
:10A8B00023021B0A524613434A461360301CFFF71B
:10A8C00023FE051E02D14444A742F1D2301CFFF7FB
:10A8D000BBFF281C0BE0009C019B9846631EDF1900
:10A8E000381C4146FBF7D4FC0029CED1D5E708B08F
:10A8F0001CBC90469946A246F0BDC0466B66656B8F
:10A9000004000240F0B55F4656464D464446F0B45A
:10A9100089B081460E1C141C1D1C0420002A44D042
:10A9200048466A46FFF728FE039B4846311C2A1C0E
:10A93000FFF70AFE061C002E37D1009F4846002173
:10A94000FFF776FF002D2CD01B4A92461B4B9B46EF
:10A95000221D9046236852461360039B042B07D1A7
:10A960003B021B0AC022D2041A43154B1A600DE0A9
:10A97000082B0BD11B19984663685A4613603A029C
:10A98000120AE023DB041A430D4B1A604846FFF716
:10A99000BBFD061E05D1039BFF18ED1A01D04446EE
:10A9A000D6E74846FFF750FF301C09B03CBC904644
:10A9B0009946A246AB46F0BD080002400C0002409A
:10A9C0000400024008B5002A05D110485F21104A52
:10A9D000104B01F001FA1378002B05D143690122D5
:10A9E0008A40934343610FE05378002B03D1012346
:10A9F0008B40836002E001238B4043604369012266
:10AA00008A40111C1943416108BDC04654D700005B
:10AA100044D7000024D4000008B5C378DA0602D475
:10AA200083789A0603D5054B1B68984702E0044BD0
:10AA30001B689847BFF34F8F08BDC046FCF6FF1F49
:10AA400000F7FF1F08B5084B984204D0074B984207
:10AA500003D1012007E0002005E00548B921054A9F
:10AA6000054B01F0B9F908BD0060064000700640D2
:10AA70003CD8000030D9000060D800004B0603D558
:10AA800082784023134383708B0605D58379502247
:10AA900093432022134383717047C0464B0603D56E
:10AAA00083784022934383708B0603D58379702289
:10AAB000934383717047C046031CC078C0B29A7933
:10AAC000510602D58022D20110439B79DA0602D5C5
:10AAD00080235B0118437047F0B583B0051C0C1E42
:10AAE00005D176487649774A774B01F075F96B4680
:10AAF0000022DA71DA790132D2B2DA71FFF7DCFFC3
:10AB0000271D0604360C72041CD5AA794023134372
:10AB1000AB710023EB700223EB702378002B0ED077
:10AB200020232371002222612270A2691A4206D0DA
:10AB3000E369002B03D0281C391C226A984773064E
:10AB400000D4B8E0F20416D5A979102310220A43E4
:10AB5000AA710022EA700222EA702371A2691A42E5
:10AB600006D0E369002B03D0281C391C226A9847C1
:10AB7000730600D49FE00223EB70F2071ED5AB787A
:10AB800018229343AB702A79D2B26B46DA71E3682C
:10AB9000002B00D18FE0202323714C4A2261002238
:10ABA0002270A2691A4200D185E0E369002B00D12E
:10ABB00081E0226A281C391C98477CE0730625D561
:10ABC000012323702371720705D5AA78102313433C
:10ABD000AB7001260EE0AB7818229343AB702A7954
:10ABE000D2B26B46DA7107331B780026002B01D1F5
:10ABF000402323712379A2691A4232D0E369002BE2
:10AC00002FD0281C391C226A98472AE0330623D506
:10AC1000720728D4A368002B02D0E368002B0AD166
:10AC200004232371E369002B03D0281C391C226AFA
:10AC30009847002363612B79D9B2E368002B3AD09F
:10AC4000A268531CA3601170E368013BE360636971
:10AC500001336361E3682EE02A79D2B26B46DA7180
:10AC600029E0002E27D0A368002B02D0E368002B38
:10AC70000AD102232371E369002B03D0281C391C5D
:10AC8000226A984700236361E368002B0BD0A36816
:10AC90005A1CA2601B782B71E368013BE360636977
:10ACA0000133636107E0AB7818229343AB702A79D4
:10ACB000D2B26B46DA7103B0F0BDC0463CD800009A
:10ACC000CE0600001CD80000B0D800004E040000E2
:10ACD000F0B55F4656464D464446F0B483B0019009
:10ACE0000C1C914605D150485049514A514B01F036
:10ACF00073F80198FFF7A6FE80004F4BC258130C63
:10AD00004E495B1819681204120C01209040021C75
:10AD10000A431A600023019A137053709370FF2244
:10AD20000199CA704B7150228A71CB71237A002B22
:10AD300002D0022B06D01BE0A3885B00DBB2019A95
:10AD4000137015E0A388E2889A4205D836483C493A
:10AD5000374A3C4B01F040F85B00DBB201990B70C5
:10AD6000E3885B00DBB2CB714A79082313434B7154
:10AD7000019B9A782378DB0102218A431A43A37846
:10AD80005B000B401343DBB201998B704979637808
:10AD9000DB016F220A401A43D2B2E3781B01102173
:10ADA0000B40134301994B71E5680022924693468C
:10ADB0000021009101267642234A904601275346FE
:10ADC0009F4022494F43002463004246985A7843EB
:10ADD0004946FBF719FA431B854200D92B1AB342A7
:10ADE00005D252460092A346002B0CD01E1C013403
:10ADF000402CE9D15146022905D052460132002E9D
:10AE000001D09246DAE73F235A46134000998A015F
:10AE10001343DBB2019A537003B03CBC9046994691
:10AE2000A246AB46F0BDC0463CD800007F050000FE
:10AE300040D90000CCD800008CD90000007004403C
:10AE40009C050000D8D800009CD700000065CD1DEF
:10AE500008B5002806D10948B921C900084A094B9C
:10AE600000F0BAFF0023037243708370C370FA23AB
:10AE70001B01C3600123037008BDC0463CD800001D
:10AE800070D90000CCD80000F8B50C1C171C1E1C93
:10AE9000002905D111481249124A134B00F09CFFBA
:10AEA000FFF7D0FD051C201C0021242201F009F829
:10AEB000E7612662AA000D4BD4500D4A0D4B1A6073
:10AEC0000D4B5B5D5AB2803206D01F221340012227
:10AED0009A40131C094A1360F8BDC0463CD80000D4
:10AEE0006E06000010D90000C4D80000F4F6FF1F61
:10AEF000D9AA000000F7FF1F38D8000000E100E0E9
:10AF000070B5051C0C1C161C002905D114481549E8
:10AF1000154A164B00F060FF0B78002B1DD1602105
:10AF2000FFF7BCFD201D0021142200F0CAFF012301
:10AF3000237046231E43A661AA7950231A43D2B236
:10AF4000AA71AA791343DBB2AB711223EB70281CF0
:10AF50006021FFF793FD002000E0054870BDC0466A
:10AF60003CD800008606000050D90000C4D800007C
:10AF70004C04000008B5034B19680348FFF74CFD6B
:10AF800008BDC046F4F6FF1F0060064008B5034B3D
:10AF900059680348FFF740FD08BDC046F4F6FF1F9F
:10AFA0000070064008B5054B984205D00448422180
:10AFB000044A054B00F010FF002008BD00000440CB
:10AFC00094D9000000DA0000B8D9000038B5051C9B
:10AFD0000C1E05D117485221174A184B00F0FCFEF1
:10AFE000FFF7E0FF164B196801220A431A60E17867
:10AFF00089000423194022785200022002400A43AB
:10B00000A178C900082001400A4361780901302075
:10B0100001400A432A60A279D20078210A402179AE
:10B0200089000B401343627903210A4013436B608C
:10B0300038BDC04694D90000DCD9000024D40000FB
:10B040003880044008B5002805D108489521084AF1
:10B05000084B00F0C1FE0023037043708370C3707F
:10B06000012202714271837108BDC04694D900006B
:10B07000E8D9000024D4000008B5054B984205D05B
:10B0800004484E21044A054B00F0A6FE002008BDEE
:10B090000070034030DA000020DA000054DA0000CB
:10B0A00038B5041C0D1E05D114485521144A154B02
:10B0B00000F092FEFFF7E0FF134B196880221204A4
:10B0C0000A431A6023680222934323602B78002BE3
:10B0D00009D022680D4B1A60226801218A43226040
:10B0E00022681A6008E02268084B1A602168012271
:10B0F0000A43226022681A6038BDC04630DA000078
:10B1000014DA000024D400003C80044040F8FF1F03
:10B1100008B5084B984204D0074B984203D1012050
:10B1200007E0002005E005488421054A054B00F0B2
:10B1300053FE08BD0060074000700740B4DA00000D
:10B1400088DA0000D8DA0000F8B54F464646C0B4A9
:10B15000051C0C1C161CFFF7DBFF8146AA78520663
:10B16000D20F0132D2B2002E20D000234027002C73
:10B170000CD0A978394205D02178A9716178E9719C
:10B18000023410E02178A97101340CE009484946E5
:10B19000405C80460748405C414609020143C8B212
:10B1A000A871090AE9719B189E42E0D80CBC904630
:10B1B0009946F8BD04F7FF1F10B50C1CFFF7A8FF58
:10B1C000014B1C5410BDC04604F7FF1F0023012291
:10B1D000027043708370C37003714371C3710323A2
:10B1E0008371014B8360704720A1070008B5C378C5
:10B1F00040229343C370FFF78BFF8000064BC25879
:10B20000130C06495B1819681204120C01209040B7
:10B210008143196008BDC04644DB00000070044053
:10B22000F0B55F4656464D464446F0B485B00390AF
:10B230008846924600218B460722019201277F42D1
:10B24000082302931DE0B1465046291C7143FAF7CA
:10B25000DBFF804507D34146081AB84203D2071CDA
:10B2600002945B4601936D000134092C02D0002F3B
:10B27000E9D10BE04946082908D0002F06D005D0B7
:10B28000CB46022500245E460136DCE7019A130115
:10B29000702213400F2202990A401343039A5370FD
:10B2A00005B03CBC90469946A246AB46F0BDC046B0
:10B2B000F8B5051C0C1C161C002901D0002A06D16B
:10B2C0002A48E12149002A4A2A4B00F085FDFFF770
:10B2D0001FFF8000284BC258130C28495B181968BF
:10B2E0001204120C01209040021C0A431A60EB78F1
:10B2F00040229343EB70217901231940102211431E
:10B30000A078C000082210400143E07880000427A4
:10B3100038400143A079184040000143C9B2E970A8
:10B32000E17960798001402738400B400343A079E0
:10B33000C00010273840034389000A401A43607850
:10B340004000022108400243AA70281CA168321C58
:10B35000FFF766FF281CFF21FFF72EFF2378002B45
:10B3600003D0EA7840231343EB70F8BDB4DA000051
:10B3700078DA0000FCDA000044DB000000700440D2
:10B380008379C079000218437047C046F8B54F462C
:10B390004646C0B4061C0C1C171C83785B06DB0FEA
:10B3A0000133DBB29846002A18D00025402291468E
:10B3B000002C0DD0B3784A46134205D0B3792370E0
:10B3C000F3796370023406E0B3792370013402E04C
:10B3D000301CFFF7D5FF4544AF42E9D80CBC90467E
:10B3E0009946F8BDF8B5041C0E1E05D11D481E492E
:10B3F0001E4A1F4B00F0F0FC0A68002A02D14B687D
:10B40000002B28D0A7787F06FF0F0137FFB2B26864
:10B41000002A22D0202523782B42FCD0201C316822
:10B420003A1CFFF791FE3368002B01D0DB19336023
:10B4300023785BB2002BFBDA201C71683A1CFFF703
:10B44000A5FF7368002B01D0DB197360B268D31BB2
:10B45000B360E0D103E0042002E0002000E000201F
:10B46000F8BDC046B4DA00007F03000098DA00009F
:10B47000BCD8000008B5002808D0064B984207D079
:10B480000548A521054A064B00F0A6FC002000E077
:10B49000022008BD00C0064070DB000000DC000098
:10B4A00094DB0000F8B54F464646C0B4071C0E1C9E
:10B4B000904605D13F48D0213F4A404B00F08CFCDC
:10B4C0000C68002C05D13B48D1213B4A3C4B00F095
:10B4D00083FC2101101CFAF797FE85B2002D00D1E4
:10B4E000012540464000804620235B426B4399463D
:10B4F000211CFAF789FE484480B28146690149441B
:10B500004046FAF781FE211A8846844201D2001B88
:10B510008046201C6421FAF777FE43001818804506
:10B5200043D8381CFFF7A6FF8000264BC258130CE7
:10B5300025481B1819681204120C01209040021CA7
:10B540000A431A60FB780C229343FB703A78290A6D
:10B550001F239A430A433A70EDB27D70B97A1F22D5
:10B560004846024099430B1C1343BB72BA78172319
:10B570009A4373799B0004210B4013433279002ACC
:10B5800003D010210A431343DBB2BB70FB78DBB25C
:10B59000B279002A01D008221343F279002A01D09F
:10B5A00004221343FB70002000E008480CBC9046C6
:10B5B0009946F8BD70DB00004CDB000024D400008D
:10B5C000B0DB000014DC000000700440F503000054
:10B5D00008B5002806D108487021FF31074A084BFA
:10B5E00000F0FAFBE1235B02036000230371437167
:10B5F0008371C37108BDC04670DB000058DB0000DA
:10B6000024D40000074B194003780B43DBB20370CE
:10B61000C2780B0A1343DBB2C3708379090C194358
:10B620008171704740F00F000379407900021843A0
:10B630007047C04610B543790A0A4024A343134318
:10B64000DBB2437117230B4201D00379C3790B0797
:10B6500001D50379C379027943791B021343194257
:10B6600001D0024800E0002010BDC046EE030000FB
:10B6700010B5002A0AD00C1C8A1803795BB2002B83
:10B68000FBDA2378C37101349442F6D110BDC04671
:10B6900010B5002805D11B487C211B4A1B4B00F02C
:10B6A0009BFB002905D117487D21174A184B00F054
:10B6B00093FB0B68DC7A20229443DC72DC789443A1
:10B6C000DC7002680379032B06D91248B1214900C6
:10B6D000114A124B00F080FB1B01D3180933FF33D2
:10B6E0005A68520052085A6002234A6853774A68DF
:10B6F0005468002C04D008689368111C084AA047BD
:10B7000010BDC046C4DC000040DC0000C4D800000E
:10B71000ECDC0000ECD5000094DC000008D2000056
:10B72000EB03000010B5002805D11B4866211B4A19
:10B730001B4B00F051FB002905D117486721174A20
:10B74000184B00F049FB0B68DC787F221440DC705A
:10B75000DC7A2240DA7202680379032B06D9124898
:10B76000B1214900114A124B00F036FB1B01D318DE
:10B770000933FF335A68520052085A6000234A685E
:10B7800013774A685468002C04D008689368111C29
:10B79000084AA04710BDC046C4DC000020DC000001
:10B7A000C4D80000ECDC0000ECD5000094DC000004
:10B7B00008D20000EA030000F0B5474680B4804696
:10B7C0000C1C151C1E1C002905D11948A121194A61
:10B7D000194B00F001FBFFF74DFE071C201C002158
:10B7E000202200F06EFB154BF9004246CA50591852
:10B7F0004C6002236377002323776560A660079B74
:10B80000A361069A6261002A04D00A1C06980C49BA
:10B81000FEF794FD079B002B06D0FF00074AD219C4
:10B82000181C0849FEF78AFD04BC9046F0BDC046CE
:10B83000C4DC000074DC0000C4D8000008F7FF1F5F
:10B8400025B7000091B6000030B589B0051C0C1E6C
:10B8500005D13248DE21324A324B00F0BDFA4B6945
:10B86000002B05D12D48DF212D4A2F4B00F0B4FAD3
:10B87000002A05D12948E021294A2C4B00F0ACFAD6
:10B880001368002B05D12548E121254A284B00F0FB
:10B89000A3FA5368002B05D12048E221204A254B0A
:10B8A00000F09AFA0B7F012B33D001200877536800
:10B8B0000B611168EB1D0090526801920222029206
:10B8C00004A80122FEF7AEFC606904A90122FEF77C
:10B8D00049FD6369002B05D117481849184A194BCF
:10B8E00000F07AFA1A681B791B01D3180933FF3369
:10B8F00059688022D2050A435A60EA7A80235B4263
:10B900001A43D2B2EA72EA781343DBB2EB7000203A
:10B9100001E0FA20800009B030BDC046C4DC000060
:10B92000ACDC0000C4D80000F4DC0000BCD800008F
:10B93000ECDB0000DCDB0000ECD500001A020000AC
:10B9400060DC000040D5000030B589B0051C0C1E3D
:10B9500006D133481221FF31324A334B00F03CFA12
:10B960008B69002B06D12E48892149002D4A2F4B87
:10B9700000F032FA002A06D129481421FF31294A61
:10B980002B4B00F029FA1368002B06D124488A219A
:10B990004900244A274B00F01FFA5368002B06D1B8
:10B9A0001F481621FF311F4A234B00F015FA4B7F29
:10B9B000032B32D003234B775368CB60C11D136830
:10B9C0000120009052680192029004A80122FEF723
:10B9D00029FCA06904A90122FEF7C4FCA369002B7D
:10B9E00005D116481649174A174B00F0F5F91A68A1
:10B9F0001B791B01D3180933FF3359688022D20504
:10BA00000A435A60EA7A20231A43D2B2EA72EA78E9
:10BA10001343DBB2EB70002000E00C4809B030BDEE
:10BA2000C4DC00001CDD0000C4D8000008DD0000FC
:10BA3000BCD80000ECDB0000DCDB0000ECD5000033
:10BA40001A02000060DC000040D50000E90300009D
:10BA500008B50749074B084AD1500848FEF762FA73
:10BA60000748FEF7BBF9074A074B1A6008BDC046F6
:10BA700000000710441000000070044034DD000096
:10BA80003CDD0000006CDC0264F0FF1F10B5494B88
:10BA90001A688020800002431A6019688022D20050
:10BAA0000A431A601968802212010A431A60196851
