:1000000000300020650D0000750D0000750D00002A
:1000100000000000000000000000000000000000E0
:10002000000000000000000000000000750D00004E
:100030000000000000000000750D0000750D0000BC
:10004000750D0000750D0000750D0000750D0000A8
:10005000750D0000750D0000750D0000750D000098
:10006000B531000049320000750D0000750D00002B
:10007000750D0000750D000009310000750D0000C0
:10008000750D0000750D0000750D0000750D000068
:10009000750D0000750D00004D310000750D00005C
:1000A000750D0000750D0000750D0000750D000048
:1000B0008D310000750D0000750D0000750D0000FC
:10040000FFFFFFFFFFFFFFFFFFFFFFFFFE3DFFFFBF
:1004100010B5064C2378002B07D1054B002B02D0DA
:10042000044800E000BF0123237010BDB8F0FF1F97
:1004300000000000E052000008B5084B002B03D07C
:100440000748084900E000BF07480368002B03D0B5
:10045000064B002B00D0984708BDC04600000000A6
:10046000E0520000BCF0FF1FB0F0FF1F00000000D2
:10047000164B002B00D1144B9D46402292029A1A33
:10048000924600218B460F461348144A121A03F075
:10049000A7FA0F4B002B00D098470E4B002B00D033
:1004A00098470020002104000D000D48002802D0CC
:1004B0000C4800E000BF03F06DFA2000290000F0B6
:1004C00011FD03F03FFAC046000008000030002094
:1004D0000000000000000000B8F0FF1F80FBFF1FBD
:1004E000000000000000000003B47146490840000D
:1004F0004900095E49008E4403BC7047002B11D1AE
:10050000002A0FD1002900D1002802D00021C943C0
:10051000081C07B4024802A14018029003BDC0465F
:10052000C109000003B4684601B5029800F044F820
:10053000019B9E4602B00CBC7047C0469C4603041B
:10054000F0B51B0C17043F0C150C1E1C041C000CF2
:100550007E436B4347434543FB18300C18188742D2
:1005600002D980235B02ED18030CED1863465C434F
:100570004A433604360CA118000480194919F0BD0D
:10058000F0B583B0161C1F1C0090019100F02EF8EE
:10059000041C0D1C221C2B1C301C391CFFF7CEFF29
:1005A000009A019B121A8B410899201C0A604B602B
:1005B000291C03B0F0BDC046F0B583B0141C1D1C4F
:1005C0000090019100F0EEF9221C2B1C061C0F1C60
:1005D000FFF7B4FF009A019B121A8B410899301C57
:1005E0000A604B60391C03B0F0BDC046F0B544460C
:1005F0005F4656464D46F0B41C1C85B0002900DA13
:10060000DBE00F1C0021061C8A46101C191C002C64
:1006100000DAC9E00196009089468046002951D150
:10062000B84200D871E000F07FFB002809D02023F9
:100630004546311C1B1A85408740D940A8460F43C8
:1006400086404246150C13041B0C291C381C9B4683
:1006500000F098FB5B464343041C291C381C994658
:1006600000F0D4FB330C08041843814509D94044F9
:10067000631E804500D978E1814500D875E1023CD0
:1006800040444946411A8946081C291C00F07AFB5F
:100690005A464243071C291C4846934600F0B6FBC5
:1006A00036040904360C0E43B34507D946447B1E75
:1006B000B04502D8023FB34500D81F1C240427438D
:1006C000002403E0B94211D9002400275246381C07
:1006D000211C002A03D03B1C00215842A14105B037
:1006E0003CBC90469946A246AB46F0BD081C00F0C3
:1006F0001BFB041E00D0BFE0B94500D242E1019DC2
:100700000099071C8D424741E0E7002804D10120F1
:10071000002100F037FB8046404600F005FB002832
:1007200052D1414644460B043C1B1B0CA3460D0C06
:1007300000930124291C584600F024FB009F8146A9
:100740004743291C584600F061FB330C0904194348
:100750008F4208D94B464144013B884502D88F421D
:1007600000D91AE19946C91B8B46081C291C00F0C8
:1007700009FB009B291C4343071C5846009300F0CB
:1007800045FB3604009D0904360C0E43B54207D9DB
:1007900046447B1EB04502D8023FB54200D81F1C1C
:1007A00049460E04374391E75246D243031C0C1CC2
:1007B000924600215842A1412CE7002746428F4132
:1007C000012149428A4620E720231B1A4246351C54
:1007D00082403C1CDD40DC4087402B1C150C3B4319
:1007E000291C8640201C00931704904600F0CAFA8A
:1007F0003F0C011C794381468B46201C291C00F0CC
:1008000005FB009C0904230C19438B450CD94B466E
:100810004144013B884500D9BDE08B4500D8BAE092
:1008200002225242914441445C460C1B201C291C6C
:10083000019400F0A7FA391C4143041C8B4601982F
:10084000291C00F0E3FA009A090413041B0C194355
:100850008B4509D94144631E884500D997E08B45F3
:1008600000D894E0023C41445B46CB1A49469B4683
:100870000B041C4300975DE7009D20231B1A4A468A
:100880008240DD401543391C009AD9408240884699
:10089000311C0092D9403A1C82400B1C1343019337
:1008A0002F0C2B041B0C391C4046029300F06AFAF3
:1008B000029A81464243391C4046934600F0A6FA0C
:1008C000019A0904130C19438B450AD94B4649195F
:1008D000013B8D425DD88B455BD902235B42994435
:1008E00049195A468A1A101C391C039200F04AFA18
:1008F000029B80464343391C03989B4600F086FACE
:10090000019A090413041B0C19438B450AD9434669
:100910004919013B8D4238D88B4536D902235B42B9
:10092000984449195D464D1BAB464946009D0F044E
:10093000424617432A04120C3B042D0C1B0C380CA6
:10094000111C594342436B436843D3180D0C5B1988
:100950008C469A4202D98022520280181D0C4019FE
:1009600083450CD303D00024B0E61C1C89E6654601
:100970002A041B04120C9B18A6409E42F3D2013F8E
:100980000024A3E600240127A0E69846CAE71C1C21
:100990006AE79946A5E7994646E702225242914402
:1009A0004144E0E6F0B55F4656464D464446F0B455
:1009B0000D1C85B0061C9246984602900191039248
:1009C0001F1C141C8346A946002B59D1AA4269D981
:1009D000101C00F0A9F900280AD020231B1A311C92
:1009E000D94085400B1C2B43864084409946B34632
:1009F000250C23041B0C291C4846984600F0C2F91C
:100A00004646071C4643291C484600F0FFF95A4653
:100A10000904130C19438E4209D909197B1E8C4213
:100A200000D957E18E4200D854E1023F0919891BD1
:100A30008946081C291C00F0A5F943464343061CBF
:100A4000291C4846984600F0E1F95A461304090467
:100A50001B0C1943884508D90919731E8C4200D90B
:100A600036E1023E884500D832E1380430430027A1
:100A7000391C05B03CBC90469946A246AB46F0BD39
:100A8000019A934262D8181C00F04EF9041E60D1FE
:100A9000019B9F4200D22CE1029F03998F4260414B
:100AA0000027E5E7002A04D10120002100F06AF9BF
:100AB000041C201C00F038F9002800D0B9E0230401
:100AC0002D1B1B0CA946260C98460127311C4846B5
:100AD00000F058F941464143051C8A464846311CFE
:100AE00000F094F95A460804130C1843824507D9BC
:100AF00000196B1E844202D8824500D910E11D1CEA
:100B00005346C31A181C311C9A4600F03BF9414663
:100B10004143814688465046311C00F077F95A46D9
:100B2000130409041B0C194388450BD94B460919BA
:100B3000013B8C4200D9CFE0884500D8CCE00223AD
:100B40005B42994428044946084391E70027002066
:100B50008EE720231B1A424657468240DF40174348
:100B6000524682400192321CDA40291CD94085400D
:100B7000131C2B4302933D0C3B041B0C8846081CA2
:100B8000291C9A4600F0FEF8534643438146291C2F
:100B900040469B4600F03AF9029A0904130C1943A7
:100BA0008B4506D94B46C919013B8F4200D8ABE0B3
:100BB00099465A468A1A101C291C934600F0E2F8FE
:100BC00053464343291C804658469A4600F01EF976
:100BD000029A090415042D0C29438A4506D9434677
:100BE000C919013B8F4200D886E098465746CF1B73
:100BF000BA464946019F0804424610433D042D0C65
:100C000003043F0C1B0C020C291C594355437B4326
:100C10007A43EB180F0CDB198C469D4202D98027D2
:100C20007F02D2191D0C521992455FD356D000276E
:100C30001EE720231B1A311C2F1CD940DF408540A2
:100C40000B1C84402B4386400193B3462304260C9F
:100C50001B0C381C311C984600F094F84246424365
:100C6000051C311C381C914600F0D0F8019F090486
:100C70003B0C1943894507D909196B1E8C424DD885
:100C800089454BD9023D09194A468A1A101C311C64
:100C9000924600F077F843464343071C311C504608
:100CA000994600F0B3F8019A090413041B0C194388
:100CB000894507D909197B1E8C422DD889452BD926
:100CC000023F09194B46CB1A2D0499462F43FDE6E6
:100CD0001E1CCAE61F1CAAE6994633E761460A04B1
:100CE0001B04120C9B18A6409E42A0D2013800277C
:100CF000BEE600270120BBE68A4500D875E702233F
:100D00005B429844C91971E78B4500D850E702232C
:100D10005B429944C9194CE71F1CD3E71D1CB3E77C
:100D2000023D0019ECE6C0461C2101231B04984239
:100D300001D3000C10391B0A984201D3000A08396C
:100D40001B09984201D30009043902A2105C401823
:100D50007047C046040302020101010100000000C7
:100D60000000000072B602F073FA02F073FA62B685
:100D7000FFF77EFB0148004701480047750D000062
:100D800031320000002934D00123002210B48842FF
:100D90002CD301242407A14204D2814202D20901AA
:100DA0001B01F8E7E400A14204D2814202D24900CB
:100DB0005B00F8E7884201D3401A1A434C08A0426E
:100DC00002D3001B5C0822438C08A04202D3001B04
:100DD0009C082243CC08A04202D3001BDC0822431B
:100DE000002803D01B0901D00909E3E7101C10BC3F
:100DF0007047002801D00020C04307B4024802A178
:100E00004018029003BDC046D90000000029F0D070
:100E100003B5FFF7B9FF0EBC4243891A1847C04615
:100E2000002941D010B4041C4C40A44601230022E8
:100E3000002900D54942002800D5404288422CD3E1
:100E400001242407A14204D2814202D209011B01DC
:100E5000F8E7E400A14204D2814202D249005B00DB
:100E6000F8E7884201D3401A1A434C08A04202D343
:100E7000001B5C0822438C08A04202D3001B9C0884
:100E80002243CC08A04202D3001BDC0822430028E6
:100E900003D01B0901D00909E3E7101C6446002CAC
:100EA00000D5404210BC7047002806D003DB00206C
:100EB000C043400801E08020000607B4024802A1B8
:100EC0004018029003BDC046190000000029EBD075
:100ED00003B5FFF7A7FF0EBC4243891A1847C04667
:100EE0007047C046EA4B80201A6880000243F0B584
:100EF0001A6019688022D2000A431A601968802299
:100F000012010A431A601968802252010A431A60CA
:100F10001968802292010A43DE491A604C68DE4B50
:100F2000802252001C4014434C600C6BDBB01C4010
:100F300014430C634C6B1C4014434C638C6C1C407E
:100F40008C64CC6C1C40CC640C691C4014430C6158
:100F50004C691C4014434C61D0490C681C4014433C
:100F60000C604C681C4014434C600C6C1C401443D7
:100F70000C644C6C1C4014434C64CC6C1C401443FB
:100F8000CC648C681C4014438C60CC681C401443B7
:100F9000CC60C3490C681C4014430C604C681C4076
:100FA00014434C608C6A1C4004438C62CC6A1C4025
:100FB0000443CC628C681C4014438C60CC681C4099
:100FC0001443CC600C691C4014430C614C691C40F8
:100FD00004434C618C691C4004438C61CC691C4007
:100FE0002043C861486A184010434862AD49086808
:100FF00018401043086048681840104348608C68E7
:10100000C0201C40800004438C60CC681C402043FE
:10101000C8600869184010430861486918401043C7
:1010200048618869184010438861C86918401043B6
:10103000C8619D4908681840104308604868184016
:1010400010434860086C18400864486C18404864B5
:10105000886C18408864C86C1840C864086D1840D3
:101060000865486D18404865886D18408865C86DEA
:101070001840C865486E184010434866C86F034062
:101080001A43CA67894B8A4A8A498B508A4B987996
:1010900000201872802018765C7801208443204359
:1010A0005870022018705878101C9A790C210A4048
:1010B0009208FAD17F4C80235B02235020687F4B3B
:1010C00015AD034023607E487E4B14921860882340
:1010D0005B012A800220E15001F06EFC0E2001F03D
:1010E0006BFC0F2001F068FC01F06EFD02F08CF942
:1010F000754B1A78012A07D01A78032A04D01B7876
:10110000042B01D000F055FE704B802219681204A8
:101110000A431A606E4B02211A6801208A431A6042
:1011200019686C4A6C4C11601968624E0143196071
:101130001B68201C13600021342202F051FC674B15
:10114000F3581B011B0F0F2B04D0654A5B009B5A01
:101150009B0201E080231B02624F63600123624D0A
:10116000624E23728023DB00381C61490C22E3604D
:101170006F60AE60E56103F09AF95E4B0137301C99
:101180005D491C221F6003F092F95C4B01361E6022
:1011900002232B600023236263622768584B606838
:1011A0001F60584BE2681860574B03211A60574B79
:1011B0009A78574BD2B21140022901D1554A06E024
:1011C0003F218A43802A01D1534A00E0534A1A60E2
:1011D0000023534A99000020885001338022520096
:1011E0009342F6D102F0C8F94E4A10235360516978
:1011F0000B435361FC231B024B4A4C4C1968D21819
:10120000121911604A4A04339342F5D1FC231B02A0
:101210001B68062B0AD0474C0021201C202202F01C
:10122000DFFB201C444902F066FB92E0FE231B0218
:101230001D686E1C00D18CE00AAC201C00210A2223
:1012400002F0CEFB002D79D00926281C0A21FFF7D9
:10125000DDFD14AFB955281C0A21FFF793FD051CCD
:10126000013EF2D20022131C14A8C15C002902D056
:10127000002A02D1DAB2002A02D0981A3031215461
:1012800001330A2BF0D19B1A0022E25458E0C046E9
:101290003880044000900440FFF8FFFF00A00440A5
:1012A00000B0044000C0044000D00440000007101B
:1012B000441000000070044000400640FFFFF3FFB0
:1012C000006CDC0220F0FF1F1CF0FF1F3C8004407C
:1012D000007003409CFAFF1F08F6FF1F4C1000002F
:1012E0003C4B000048F6FF1FECF4FF1FFCF4FF1F0F
:1012F0005A4B000050F5FF1F204B000048F5FF1F20
:10130000D8F0FF1FC8FAFF1F3CF6FF1F0000024085
:1013100018F0FF1F3CC33CC3A55AA55AA53CC35AAD
:1013200090F6FF1F00F00F40B4F5FF1F0004FFFF11
:1013300028FC000024F0FF1F184900003023237010
:10134000E04DE149281C02F0C9FA281C211C02F0DA
:10135000C5FA062314A90B706B4600205133187090
:1013600056AB18805880012757AB18709F70FA232E
:101370009B00D6495893D64A092302F099F8D54BD9
:10138000D54D1B6802930223AB606A691A436A61F8
:10139000AB6001F08BFDE1214903061CFFF7F2FC75
:1013A00084B2002C00D13C1C7600E1214902301CA3
:1013B000FFF7E8FC20256D4265432D18ADB26101B1
:1013C0004919301CFFF7DEFCE1225202131A904249
:1013D00001D9C24A8318D822120193421ED8C04BA9
:1013E000802219685201BF4E0A431A60F3780C221A
:1013F0009343F37031781F23200A99430143E4B2E9
:1014000031707470B17A1D4099430D43B572B37851
:1014100017218B43B370F3781A43F270B24BB14883
:1014200000271F7003782022DBB20370C378AF4E11
:101430001343C37083790822134383718022AC4B1A
:10144000D2011A60029CAB4B14AD1C60AA4BAB4896
:101450001D600423B3607269A94D1A437261802232
:1014600092018260416901240A4342614169A54AAF
:101470000A404261AB606A690AA913436B61782232
:10148000A14B0A70201C4B608C6001F025FD9F4B26
:101490009F4A78201C7058709F70DC705A609D4B7A
:1014A0001C709D4A0023D35580220137D2009742F9
:1014B000F7D19A4A13809A4A13809A4C2378012BC9
:1014C00001D000F06CFC984A984B1178002906D1A5
:1014D000974D01212C686D681C605D601170944E01
:1014E0001A685B6830687168801A9941002902D1D6
:1014F000904B984204D90E200121032201F0E8FE0E
:101500007D4B1C68231CFF335A7B002A00D19AE3D1
:1015100000225A73013B5E89F3B2032B00D88EE39D
:10152000251C023E0835A91902220AA802F0BFFFB5
:10153000814BB6B21A1C013EB6B2964209D0287849
:10154000190A4340DBB27D485B001B5A01354B4012
:10155000F1E76F463D8DED1A2E1C731E9E410296DB
:10156000002E00D06BE36A465B32107814AE17AAE7
:101570006B4614785178727A5A331B78042A16D045
:101580006B465A331E7801331B7836029E196A4621
:1015900017AB1B785D32127814AD1B026F7AD3182B
:1015A0009BB2B6B20393042F00D0D3E182E11B02B9
:1015B00024020C19C31862499BB2A4B28B423CD1DD
:1015C00016A80178009401F0F9FB291CC4B220226E
:1015D0000AA802F005FA00230AAAAB540135202D0F
:1015E000F9D1584A9A5C002A01D1DAB205E00AA979
:1015F0005A540133202BF4D10022002399182029BA
:1016000009DC5149595C002907D15AAFFB189A18D7
:10161000413AFF3A1170002306E00AADA818C15400
:101620000133142BEAD1F6E70AA9595C3219D21812
:1016300001331172202BF7D1E6E0B62109018B426C
:1016400000D0BAE016A80178009401F0B7FB06AE0E
:10165000291CC4B20A22301C02F0C2F93B4B1D689F
:101660006F1C17D14E2333704F226B465A7654228B
:101670006B469A7656226B46DA76412207AB1A7091
:101680004C226B465A7749226B469A7744226B4626
:10169000DA7786E0002D5BD1029D302333706B46F4
:1016A0005D766B469D766B46DD7607AB1D706B46AF
:1016B0005D776B469D776B46DD7708AB1D705D707F
:1016C0006FE0C04624F0FF1F1D490000D606000051
:1016D0005126000044F0FF1FC0F00F40003EFEFF07
:1016E0003480044000C0064054F5FF1F80F00F40D6
:1016F00000E100E000F6FF1FF8F4FF1F00F00F40CC
:1017000040F00F40FFEFFFFF2529000040F5FF1FCD
:10171000DD2A00003CF5FF1FE4F0FF1FF8F5FF1F76
:10172000D4F0FF1F1CF0FF1F88F6FF1FF0F5FF1F0E
:10173000A8F5FF1F10270000FFFF00002049000050
:101740004F0B0000664B000000F0FF1FF0FD000093
:101750000926281C0A21FFF759FB0AAFF155281C5E
:101760000A21FFF70FFB051C013EF2D20022131CD9
:10177000F95C002902D0002A02D1DAB2002A06D090
:10178000981A5AAE30185138FF3830310170013391
:101790000A2BEDD19B1A5AAFFB18513BFF3B00229D
:1017A0001A70002314A806A9595C0219D218013333
:1017B00011720A2BF6D10A3477E0B8498B4225D151
:1017C00016A80178009401F0F9FA291CC4B220226D
:1017D0000AA802F005F9B24BEB5C002B06D15AA91E
:1017E0004D19413DFF3D2B70002305E00AAAAB5483
:1017F0000135202DEFD1F7E70AA9595C3219D2182B
:1018000001331172202BF7D120344EE0A5498B42D1
:1018100028D116A80178009401F0D0FA029FC4B232
:1018200033191F72631CDBB2F6180A23A71C33722C
:101830000AA8291C2022FFB202F0D2F89A4BAA0073
:10184000D2580AABEA5401350A2DF7D1002314A867
:101850000AA9595CC219D21801331172202BF6D192
:10186000223422E0B92109018B4200D088E616A873
:101870000178009401F0A2FA291CC4B228220AA817
:1018800002F0AEF889496B189B001A680AABEA545B
:101890000135102DF6D100230AA9595C3219D2184E
:1018A00001331172282BF7D12834E4B2002C00D078
:1018B0009CE165E67E4B00249E4200D065E1039AE0
:1018C000062A00D061E116A80178331C00923A1C68
:1018D00001F074FAC3B2EA1842211172591CC9B25C
:1018E0006F2269180A72991CC9B269180A72D91C48
:1018F000C9B2691874200872191DC9B269186C2020
:101900000872591DC9B269180A729A1DD2B2AA1872
:1019100061211172DA1DD2B2AA18642111721A1C47
:101920000832D2B2AA18652111721A1C0932D2B239
:10193000AA18722111721A1C1C1C0A320B33DBB25A
:10194000D2B2AA184F21ED180C344B231172E4B215
:101950002B7292E00024102F00D016E1BE231B0151
:101960009E423AD1534B1B78A34200D10CE116A8FA
:1019700001F012FA6B4662335978071C187801F0AF
:10198000EDF919AB59780490C619187801F0E6F909
:101990006B466633F6B2059036185978187801F020
:1019A000DDF9F6B23618051CF6B2BC4207DA211C86
:1019B00016A801F0F8F98619F6B20134F5E70837F0
:1019C00014AB7F00DF19387A797A01F0C7F9404209
:1019D000C0B2864200D015E218E2374B9E4221D1B8
:1019E000039D042D00D0D0E001F0EEF8334B3448D5
:1019F0000A930AA90122036801F0E4FD211C221CBC
:101A00000E2001F065FC2F4B01221A7001F0FCFC46
:101A1000C0B2002800D0B8E016A801783A1C0095A2
:101A2000331C27E0284B9E4200D0AEE0039E042EDC
:101A300000D0AAE06B465F331B78542B00D0A4E0A3
:101A400018AB1B78452B00D09FE06B4661331B78A9
:101A5000532B00D099E06B4662331B78542B00D097
:101A600093E01A4F00233B7016A8042301780093DB
:101A7000154B102201F0A2F9C4B2E4B2002C00D13F
:101A800083E0134D13492A686B680A604B6000219C
:101A90000A1C0E2001F01CFCA8E0C046680B0000E8
:101AA00024F0FF1F7C0B0000B4F5FF1F0A3F00006D
:101AB000CC0B00003CF5FF1FF40B0000BBBBDDDDD1
:101AC00004FE0000E0F0FF1FFE0B00001CF0FF1FF3
:101AD000A8F5FF1FF0F5FF1F049C059D260276194F
:101AE000D04BD14D1B682F68B6B2F618002F00D12D
:101AF000D9E1002101220F2001F0EAFB16A801F034
:101B00004BF9CA4BB34200D0C8E1102800D0C5E160
:101B1000C7490B220AA802F0CAFC684633300021EC
:101B2000152201F05DFF0024211C16A801F03BF9ED
:101B300006AFE0550134102CF6D10AA802F006FEDB
:101B4000041C381C02F002FEE3B2071CC0B298422B
:101B500000D2271CFFB20024E3B2BB4200D39BE1BA
:101B6000211C16A801F01FF901345AA90B19423B98
:101B7000FF3B1B788342EFD0AE4B002201211A605D
:101B80000F200A1C01F0A4FB00245A276F446B4667
:101B90003E785B331B7836029E1917AB1F780133F2
:101BA00014AD1B783F026A7ADF19B6B2BFB2032ABE
:101BB00000D00BE2A04B9E4200D009E3012F00D9D8
:101BC000A7E216A80178331C009701F0F7F8C0B21D
:101BD0002B181C72994B841C0130C0B21B7828183A
:101BE000E4B20372E4B2002C00D1F2E2944D231C63
:101BF0002868021CFF32517D002902D1D17B0129C6
:101C000017D0002C01D000F0A3FCD37B012B10D106
:101C1000427A80235B42134343720223837203237D
:101C200000F096FCC254991C6670FF2B01D000F0A6
:101C3000B7FC2A6800235370FE32538103E000236F
:101C40006370FE3463817F4B7F4C1868596822684B
:101C50006368994202D80AD1904208D9C82000216D
:101C600012184B417949226063601023CB60784B96
:101C70001A78002A3DD000251D7000F0BFFE754B7C
:101C8000041C1870744E01282AD0A84219D00528C7
:101C90002AD16A4B714A1D700423936001F0C0FD84
:101CA0002A1C01210D2001F013FB291C2A1C0220F3
:101CB00001F00EFB1E2000F0EBFF782001F0FCFD90
:101CC00012E0B078664BC0B2644D187001F0F4FDBC
:101CD00004236B60211C221C0D2001F0F9FA03E0A3
:101CE000574BB2781B681A70301C0021142201F087
:101CF00077FE5C4A5C4B11680901C9188B4236D0EB
:101D0000DA781879904223D0012A0AD1587901282B
:101D100001D1564802E0002810D15548046801342A
:101D20000BE0002A0AD15879012801D14F4802E07E
:101D3000002803D14E480468013C046098780028CC
:101D400003D04C48046801340460002098701A7174
:101D50001A7B002A09D09A78002A03D0454A1068D5
:101D60000130106000229A701A731033C6E7414B9D
:101D70001A6880239B01002A02D0344E736001E070
:101D8000324FBB60EFF3108272B63B4B3B4855219C
:101D9000C150AA21C15082F31088FFF78EFB23782F
:101DA000032B01D1FFF78FFB2378042B01D1FFF721
:101DB0008AFB334B1B78012B08D1BFF34F8F314A7D
:101DC000314BDA60BFF34F8FC046FDE72F4B3049F0
:101DD0001A68043B0A605978187809020143987818
:101DE000DB78000401431B060B4383F3088890470C
:101DF00000231493149B0133FBE701F0EBFC002854
:101E000000D1DBE0234B00221A70BDE6052DF9D886
:101E1000281CFEF769FB61FEF2FFB800D300C50085
:101E2000D300C04644F6FF1F14F0FF1F005C000003
:101E3000F8480000B0F5FF1FFC17000004F6FF1F74
:101E4000F8F4FF1FA8F5FF1FE0F5FF1F00F00F409B
:101E5000E8F5FF1F94FAFF1FA0FAFF1F80F00F4064
:101E6000E4F4FF1F98FAFF1F58F5FF1FFCF5FF1F52
:101E70008CF6FF1F40F6FF1F0411000000700440A5
:101E8000E0F0FF1F0400FA0500ED00E0045D000033
:101E9000E8F4FF1F3CF5FF1F012200E00022BB4BCE
:101EA0001A6000232B60B94B1B68002B05D0B84B80
:101EB0009E4202D3B74B9E4203D90F20012102223A
:101EC00060E6B54CB50A2388271C002B01D16B1C9A
:101ED000238001352388ADB2AB420ED12388012582
:101EE00016A8ED1A00F058FFAD027519ADB2AB4A55
:101EF0002818904210DC002437E001F06BFC002829
:101F000000D07FE72580A64B00221A5480230130A1
:101F1000DB009842F7D1E1E70024261C16A800F068
:101F20003BFF84424ADA9D482B19834210DD01F0C1
:101F300051FC002800D065E73B8801333B80984B7B
:101F400000261E5480230130DB009842F7D1351C57
:101F5000A919049116A8211C00F025FF904B049AA2
:101F600001369854F6B20134D8E716A800F014FFF1
:101F7000844223DA211C16A800F015FF884B66194D
:101F800098550134F1E7002116A800F00CFF01215B
:101F9000041C16A800F007FF2402241824010BE0FB
:101FA000002116A800F0FFFE0121041C16A800F075
:101FB000FAFE2402041924047A4B1C60039C16A820
:101FC000BE230178102200941B0153E50024102A3F
:101FD00000D0FEE0744B9E420ED1029EF4B2012F5F
:101FE00000D9F6E001F01CFC01210A1C022001F0DE
:101FF0006FF900F04DFEEBE06C4B9E4237D102983A
:10200000C4B2052F00D9E4E016A80178331C00976C
:1020100000F0D4FE6B465F331B78C4B2012B03D1B2
:10202000634904234B6004E0002B02D1604A04237F
:10203000936018AB1B78012B02D15E4804238360A8
:102040006B4661331B78012B02D1782001F034FC00
:1020500001F0E6FB012100220D2001F039F90021F9
:102060000A1C022001F034F900F012FE4EE0524B3F
:102070009E4217D10299CCB2012F00D9A9E016A82F
:102080000178331C009700F099FE18AB1B78C4B29E
:10209000012B02D10423474A19E0002B36D1042337
:1020A00044481AE0454B9E4219D10299CCB2012F07
:1020B00000D98EE016A80178331C009700F07EFE50
:1020C00018AB1B78C4B2012B03D1394A04235360E7
:1020D0001CE0002B1AD136480423836016E0384BED
:1020E0009E4213D10299CCB2012F72D816A8017862
:1020F000331C009700F062FE18ABC4B2187843B2EC
:10210000002B00DC6EE501F0D7FB6BE52D4B9E420A
:1021100002D1029EF4B25CE02B4B9E4200D061E5FE
:10212000112F02D9029FFCB253E018AB1B78029327
:102130000023EA18527C06AE9A5501330A2BF8D1D7
:1021400016A80178204B0097102200F037FE0AAF46
:10215000C4B20021381C202201F042FC00231B4A9B
:10216000990089580AAA995401330A2BF7D1029889
:102170000A2800D0E1E10023F95CF25C914200D032
:10218000DBE101330A2BF7D12CE5C046B0F5FF1F88
:10219000005C000000F80000D4F0FF1FFF03000007
:1021A000E4F0FF1F44F6FF1FFC1700003818000082
:1021B00040F00F4080F00F4042180000431800002C
:1021C00044180000451800009C180000B4F5FF1FDB
:1021D00000245A2169440B7869465B3109781B0257
:1021E000CB1817A90E780131097836026A7A8E1950
:1021F0009BB2B6B2042A00D018E1FA21C9008B4282
:102200006ED116A80178009600F0D8FDDB4BC6B25F
:102210001B68A9191A0AD2B20A72711CC9B2DBB2C0
:1022200069180B72B11CC9B269180C72F11CC9B2E1
:1022300069180C72311DC9B269180A72721DD2B2C6
:10224000AA18137200F036FDB31DDBB2EB18020AB8
:102250001A72F31DDBB2EB181872C94B321C1B68E3
:102260000832D2B2AA18190A1172321C0932D2B23B
:10227000AA181372331C0A33DBB2EB181C72331C1E
:102280000B33DBB2EB181C72331C0C33DBB2EB18D4
:102290001C72331C0D33DBB2EB181C72331C0E3373
:1022A000DBB2EB181C72331C0F33DBB2EB181C7261
:1022B000331C1033DBB2EB181C72331C1133DBB24E
:1022C000EB181C72331C1233DBB2EB181C72341C7B
:1022D0001336F6B21434AD190023E4B22B7285E440
:1022E000A84A934200D081E43C2E00D97EE4A44B5E
:1022F000301C07211D68FEF793FDEDB2C0B2A84265
:1023000002D8002D00D0051C07236B4316A80178C6
:10231000042200939B4B00F051FDC4B2002D00D16C
:1023200064E401F07DFA0022231C0292012102984C
:10233000A84273DA944A002901D000211160116883
:102340008E4A12680392039FB9420ED28F480E0143
:10235000821997780131002FF5D1305A56791779C3
:102360000396894E9268316003E000220392171CA5
:10237000101C14A9C9188C466646002131725E1CD7
:10238000F6B2B44614AEB44466463772060A9F1CD1
:10239000B446FFB214AEF71966463E72DF1C14AEA7
:1023A000FFB2F7193872181DC0B230180172581DEB
:1023B000039FC0B230180772981DC0B23018017266
:1023C000D81DC0B230180172181C0830C0B23018C5
:1023D0000172181C0930C0B230180172181C0A3082
:1023E00014AFC0B23818160E0672181C0B30C0B2EB
:1023F0003818160C0672181C1E1C0D30C0B20C3694
:102400008446F6B214A8170A86196044377202721D
:10241000029F0E330137DBB2029788E70E235D433C
:102420006419E4B200F034FCFFF7E0FB102A01D09D
:10243000FFF7DCFB564A93423AD16B465F331B7879
:10244000232B01D0FFF7D2FB18AB1B78432B01D015
:10245000FFF7CCFB6B4661331B784C2B01D0FFF7A9
:10246000C5FB6B4662331B78532B01D0FFF7BEFBD5
:1024700001F0D6F9414B18680023000183420FD0C8
:10248000424AD2181179012908D19178002903D044
:102490003B490C6801340C60002191701033EDE76A
:1024A00000F0F6FB16A8017810220096384B3FE0AA
:1024B000384A934201D0FFF799FB3B2E01D9FFF731
:1024C00095FB7408029401F0ABF92C4B00211B68BA
:1024D000039318AB029CA14223DA5F789A783F02FB
:1024E0001878BF180022BFB2904217D103988242D9
:1024F00014D0264C1001055BBD4202D1013202D13D
:102500000CE00132F2E722189278012A03D01C4A2B
:102510001768013F176020180122827001310433CF
:10252000D8E700F0B5FB16A81A4B017810220096E8
:1025300000F044FCC4B2FFF759FB01F071F902202E
:102540000121021C00F0C4FE00F0A2FBFFF74AFBD1
:102550000830114A011CC418A6B2B4468FB2160A3C
:10256000BC4501D1FFF75EFB0C78B6B26240D2B237
:102570000A4C5200125B01317240ECE798FAFF1FDF
:1025800040F6FF1FDA0700004CF5FF1F58F5FF1F4C
:1025900098080000A2080000FFFF0000204900008A
:1025A0002A680020131CFE33154F588102235370F4
:1025B0007B60144B1B7883420FD1131C0833C9B2C4
:1025C000C9188B4210D0104C207940B20028FADA9A
:1025D0001C780D480133C471F3E7012B09D10B4B73
:1025E0001B78002B00D0FEE7074E337971795F0628
:1025F000FAD503480223836000235370FFF719FBC9
:10260000C0F00F4054F5FF1F00C00640DCF5FF1F6F
:102610000C4BD8790C4BC0B21A685378002B10D1F0
:10262000111CFE314B89FE2B03D8D21801331072D6
:102630004B81064B0122D9689143D960D9680A437E
:10264000DA60704700C00640F8F4FF1FFC700340DA
:102650000F4B0121DA6810B58A43DA600D4B1B6815
:102660005878002813D11A1CFF32D47B197A002C19
:1026700009D01C78A14206D0002904D0002C02D039
:10268000FE33588103E0517501215173597010BD1B
:10269000FC700340F8F4FF1F020100090243D2B2AC
:1026A0003321131C0B408A4392109B001343181CC8
:1026B0005522104093435B104000184370470000C0
:1026C00010B5054C012200232068616812184B41A7
:1026D0002260636010BDC046A8F5FF1F084B0222B0
:1026E0001878104004D19A791207920F012A05D167
:1026F0005A7801231A40034B9200D0587047C046C5
:1027000000400640EC500000F0B5051C85B00C1EE2
:1027100005D178487849794A794B01F0F5F86F4648
:102720000F3700233B703B780133DBB23B70C67838
:102730008379F6B25A0602D58023DB011E43AB79BA
:10274000DA0602D580235B011E43231D0193720428
:1027500002D4F3042BD51BE0AB7940221343AB71B9
:1027600002220023EB70EA7022789A420DD0236196
:102770002370A36920222271134206D0E369002B43
:1027800003D0281C0199226A98477206E1D4AEE072
:10279000AA7910231A43AA710022EA700222EA7071
:1027A000A26923711A4208D1730600D49FE0022364
:1027B000EB7001231E4208D123E0E369002BF3D024
:1027C000281C0199226A9847EEE7AB7818229343B8
:1027D000AB702B79DBB23B70E368002B00D186E055
:1027E000484A2023226100222270A26923711A42E2
:1027F0007DD0E369002B7AD0226A281C0199984782
:1028000075E04022164221D00421237023710E402E
:1028100005D0AA7810210A43AA701E1C0AE0AB78E2
:1028200018218B43AB702B79DBB23B703B78002BCC
:1028300000D122712379A2691A4231D0E369002BB9
:102840002ED0281C0199226A984729E033064BD5DF
:10285000720703D5A368002B25D127E0A368002BBE
:1028600002D0E368002B0AD104232371E369002B13
:1028700003D0281C0199226A9847002363612A79B2
:10288000E368D2B2002B32D0A368591CA1601A7041
:10289000E368013BE360636901336361E36826E059
:1028A000002ED7D123E0E368002B0AD10223237145
:1028B000E369002B03D0281C0199226A9847002362
:1028C0006361E368002B0BD0A3685A1CA2601B78DD
:1028D0002B71E368013BE36063690133636106E0E8
:1028E000AB7818229343AB702B79DBB23B7005B009
:1028F000F0BDC046944F0000CE06000046500000D8
:10290000B54F00004E04000008B50348B921034A42
:10291000034B00F0F9FFC046944F0000774B0000D6
:10292000BF4F00000B7810B50C1C022B15D004D83B
:10293000012B2DD100234B601BE0042B1BD0202B3F
:1029400026D10A69134B14481A600430142200215E
:1029500001F046F80122114B19E0114B00221A70C8
:10296000104B01221A70104B5B6898470F4B636045
:102970002623A3600CE002790D4B1A600D4B012257
:102980004B6026238B60064B1A70064B00221A7090
:1029900010BDC04618FBFF1FF4FAFF1FE8F5FF1F2C
:1029A00030FBFF1FF3FAFF1F40F5FF1FCCFAFF1F9C
:1029B0002CFBFF1FA0FAFF1F0E4A70B514680023FE
:1029C000161CA34208D00C4A1901525A824201D067
:1029D0000133F6E701200CE00122052BFAD006496D
:1029E0001C010D19AA70013300226A713360605214
:1029F000101C70BD98FAFF1F58F5FF1FF7B52E4B3E
:102A00001A78002A04D12D4C2378002B28D029E0F5
:102A100000221A702A4B19682A4B5878081A032882
:102A200015D12948294C40784000C0B29F18013286
:102A30008DB296B2205CB54202D03D786840F5E791
:102A40006A46D0710139D0795A5C904208D15A78DF
:102A5000002A18D11A781E4B1A601E4B01221A70D8
:102A6000062027E01C480021142200F0B9FF0023B3
:102A70002370174B03201B68232B1BD006202A2B07
:102A800018D1042016E01A78232A12D01A78242AA2
:102A900003D19A780520002A0CD01A78242A03D171
:102AA0009A780020824205D11B7802202A2BAAD1D5
:102AB00000E00120FEBDC04630FBFF1FF3FAFF1F00
:102AC00018FBFF1FA0FAFF1F40F5FF1F0851000071
:102AD0002CFBFF1F24FBFF1FCCFAFF1F38B5FFF7AD
:102AE0008DFF144A144B127818705A7003281ED1A7
:102AF0001249134B012409681A705C7009789970A7
:102B0000104948781049A040C5B24D5D20436A4045
:102B10008C5C5A1C6040C0B2085C5C1D551E0132C2
:102B2000A24203D02D786840085CF7E7D8700020F7
:102B300038BDC0462CFBFF1F94FAFF1FF8F4FF1F9F
:102B4000CCFAFF1F40F5FF1F0851000010B50E4CD6
:102B5000702323700D4BDB69002B02D01B68022B06
:102B600001D06D200FE00A4B201C1B68984723788A
:102B70006720DBB29A0606D46820DA0603D4012067
:102B8000184000D0692010BD0000024008F6FF1F69
:102B900050F5FF1F094A10B5D269031C002A0BD05B
:102BA0001268022A08D1012806D1054A802114683A
:102BB0000448C9000A22A04710BDC04608F6FF1FFE
:102BC00048F5FF1F0C3000F00023044A9A181168E2
:102BD000034AD1500433242BF7D17047005C000026
:102BE00034FBFF1F00687047031C013A0843024092
:102BF00030B56520002A0AD1054D66202C68A34215
:102C000005D35B1869686418A34200D8101C30BD56
:102C100008F6FF1F38B520220C1C051C081C0021DB
:102C200000F0DEFE094B1A685868AD1ADA682560B4
:102C30006260197AFEF7A6F80423A060E360002022
:102C400023616361A361E36138BDC04608F6FF1FDD
:102C5000034B18785B788006C00F01307047C04680
:102C600000F00740012808D8054B0001C018C368D0
:102C700001221343C360002000E001207047C046DA
:102C8000FC70034062B60020704772B600207047A7
:102C900037B5EFF305823F231340054C019301251F
:102CA000019BFFF7F2FF2560FFF7ECFF00203EBD20
:102CB00048F0FF1F054B1968054B1868054B401875
:102CC0001A68054B80181B68C01870478CF6FF1FE8
:102CD000DCF0FF1F90FAFF1FFCF5FF1FF7B5061C85
:102CE0000F1C141C051CAB1BBB4213DA28780135E2
:102CF000C0B2FFF7D1FC6B4698719A796B46120609
:102D00006240120EDA71DA79034B9200D358240232
:102D10005C40E8E7201CFEBD944B0000F8B5041CA5
:102D2000C0B2FFF7B9FC071C2004000EFFF7B4FC8B
:102D3000061C2002000EFFF7AFFC051C200EFFF75B
:102D4000ABFC3F0636043E4330432D022843F8BD1A
:102D5000014B18687047C04628FBFF1F031C303B1F
:102D6000DBB2092B06D9031C413B052B03D83738AE
:102D7000C0B200E0181C0B1C303BDBB2092B06D99B
:102D80000B1C413B052B03D83739C9B200E0191C95
:102D900000014018C0B2704708B5031C597A007A88
:102DA000FFF7DCFF08BD08B50A1C08325200031CFF
:102DB0009B18805C5978FFF7D1FF08BD10B50170F2
:102DC00002AC511E24884270012906D807232340F3
:102DD0005A1E9341E4081C1903E0D11E012903D8AF
:102DE00064008470032017E0511F012904D81A0AD7
:102DF0008270C37004200FE0111C0F39012907D81D
:102E00001A0AC370230A827003714471062003E01A
:102E1000203A012AEBD9002010BD0000C37807B585
:102E2000DA0602D483789A0601D5044B00E0044BFD
:102E30001B689847BFF34F8F07BDC04620FBFF1F9D
:102E40001CFBFF1F08B5034B03481968FFF7E6FF9B
:102E500008BDC04658FBFF1F0060064010B50E4C71
:102E6000A3791B079B0F012B0CD0002B08D0022B42
:102E70000FD18C2109484900094A0A4B00F044FD52
:102E8000094807E0FFF72AFC237A1B075B0FD840AD
:102E900000E0002010BDC046004006400A5000007F
:102EA000F45000002D500000006CDC0238B5084DD5
:102EB000084CFFF7D3FF2959090F0131FDF762FFD5
:102EC00029594903490F0131FDF75CFF38BDC04660
:102ED0000070044044100000F0B5794B820087B0C8
:102EE000D4580F1C0E780190FFF7B8FF754A764B47
:102EF000D158764A944205D0754B9C4200D095E05B
:102F0000012300E00023734A9B009D586D4A2B0C5F
:102F10009B181A68ADB2009201229446AA40151C73
:102F2000009A76002A431A600025FF232570F6B226
:102F30006570A570E37050236571A371E57126700B
:102F4000A3780222934380221343A37062799023D3
:102F50001343090F63716144FDF714FF01230490CB
:102F60005B420295039501225B49AA4051430093BD
:102F700005910026594B7200D05A059B049958437D
:102F8000FDF700FF5649574A4318904202D8FA23EA
:102F90001B011B1A009A934204D202950396002B40
:102FA00004D000930136402EE4D1009B022D1CD1A9
:102FB00003993F230B4002998A011343019ADBB224
:102FC0006370002A15D0012A22D1B968464BC2226B
:102FD00092008801FF219D58084044490002294081
:102FE000014399508022920011E00135002BBAD1A3
:102FF000DEE73D4BC2229200B9689D588801FF214F
:103000008D430840291C01439950802252001A60C8
:10301000374D2422281C002100F0E2FC7A682B4B5B
:1030200000929C4204D02A4B9C4203D0FFF76CFCD8
:10303000002600E001262422281C002100F0D0FCFC
:10304000009BB200EB612B4BD5502B4A2B4B1A60E7
:103050002B4B9B5D5AB2803206D01F2213400122B7
:103060009A40131C204A13602978C9B2002921D143
:10307000A3784026B343A370A37970229343A3712E
:103080001422281D00F0ACFC01232B706623AB61D9
:10309000A27950231A43A271A2791A43A271122273
:1030A000E270A2781643A670A2799A43131C2022DC
:1030B0001343A3713A78134B00201A7007B0F0BD88
:1030C000E45000000070044044100000006006401E
:1030D00000700640884B00000065CD1D6250000066
:1030E00060F0FFFF9F0F000000E100E0FF00FFFF26
:1030F000F4FAFF1F58FBFF1F092700001CFBFF1FEE
:10310000904B0000F2FAFF1F08B50E4B19795A795F
:1031100012020A4328210A4213D011070AD05A7911
:1031200040218A435A711A79DA791A79DA791A7947
:103130005B7906E0044A1268002A01D0904700E05B
:10314000DB7908BD00C0064000F6FF1F10B50C4C2F
:10315000012322691340012B05D12361094B1B6810
:10316000002B00D09847226A01231340012B06D17F
:10317000034A1362044B1B68002B00D0984710BD14
:10318000FC70034064FBFF1F6CFBFF1F08B5074B7F
:1031900080211A680A431A60054B1B68002B00D077
:1031A0009847BFF34F8FBFF36F8F08BD00000440F7
:1031B00068FBFF1F08B5FFF745FE08BD80B584B06A
:1031C00000AF01235B427B60184BDB69FB6000238F
:1031D000BB6014E0FB68181CFFF704FD031C3B6098
:1031E0007B683A1C101C04211A1CFFF777FD031C96
:1031F0007B60FB680433FB60BB680133BB600B4B37
:103200001A6A0A4BDB69D31A9A08BB689A42E1D85A
:103210007B68181CFFF782FD031C7B607B68DB4327
:103220007B607B68181CBD4604B080BD34FBFF1F6B
:1032300008B5034B03485968FFF7F0FD08BDC046C9
:1032400058FBFF1F0070064008B5FFF7F1FF08BDEF
:1032500070470000154B164930B51A1E8A420CD033
:10326000144C0023A408A34204D098000D58013345
:103270001550F8E7104B9A6001E00F4A93600F4A2F
:103280000F490023891A8B4204D0D45C0D48C454E2
:103290000133F8E70C4A0D490023891A8B4204D008
:1032A000D018002404700133F8E730BD000000009E
:1032B000000000000000000000ED00E008530000E6
:1032C000BC53000000F0FF1FB8F0FF1F80FBFF1F82
:1032D000F7B5051C0120814200D98CE0464B002047
:1032E0001B680193019B984207D0444C03011E19AF
:1032F0003788AF4204D00130F4E7012040427AE041
:10330000471C78D00020012901D0B06070E0B66879
:103310000F2D57D004D8022D05D00E2D45D05FE0DB
:10332000323D0A2D5CD8D0B2032805D004280BD03A
:10333000821E5042424108E0120A04250832E01879
:103340003543D2B2856000E0032201209040021C88
:10335000E01885682A4302258260AA4312D0427988
:10336000002A3DD00279012A07D1254A1068013090
:103370001060244A1068013810600020E218507173
:10338000012010E04279012A2AD00279012A07D1CE
:103390001B4A1068013810601A4A1068013010602A
:1033A000E2180120507110731AE0022A04D0D01ED6
:1033B00045426841400000E0081C01278740E518AD
:1033C0003743AF60012A03D0022A02D1012000E076
:1033D0000020E218012597688540281C384390603A
:1033E000E218101C92680830964201D00122027146
:1033F000E318D9700020FEBD98FAFF1F58F5FF1F93
:103400008CF6FF1FFCF5FF1F224B37B51B68224AC5
:10341000224C934201D1012305E0214A934201D17C
:10342000002300E002232370FFF712FC012816D0CE
:103430001C4B1B78012B12D0FFF70AFC0138431EEE
:10344000984180B26B46D88006331B88002B06D08B
:10345000012103230E200A1C2370FFF739FFFFF719
:1034600077FC002813D1104D0323EA691A4207D1D3
:103470002A6A1A4204D1FFF7A1FE6B69984206D06E
:1034800004230E20012102222370FFF721FF207860
:10349000C0B23EBD04FE0000BBBBBBBB1CF0FF1FA7
:1034A000BBBBDDDDE0F0FF1F34FBFF1F00000000B1
:1034B00070B5051C0E1C1C1C002822D0012848D108
:1034C000274BA4011A60FFF7F1FC0021321C0B1CF2
:1034D000FDF734F8214B204AFDF710F8214B224A22
:1034E0005861596921481160DA6902210A43DA6199
:1034F0001F4BC5228A409D58FF210C4021042C1CE3
:103500001FE01C4BA4011A60FFF7D0FC321C2B1CDF
:10351000291CFDF713F8114B0F4AFCF7EFFF114B75
:10352000114A5860596811481160DA6802210A434B
:10353000DA600F4BC5228A409E58FF210C402104BF
:10354000341C04400C439C508022D2031A6000209B
:1035500000E0012070BDC04640420F0000000000A6
:103560006CFBFF1FFC7003409CFAFF1FFFFF00FF76
:1035700000E100E064FBFF1F90B583B000AFFB1DCE
:1035800000221A70FC1DFA239A000D4B0120111C19
:103590001A1C0223FFF78CFF031C2370FC1D012063
:1035A000FFF760FB031C2370FB1D1B78002B01D071
:1035B000012300E00023181CBD4603B090BDC046A7
:1035C000C12600007B4BF0B5141C1A688DB0013287
:1035D0001A60830A9B0202930023029E9D00AA198F
:1035E0001668754A0133AE5080256D00AB42F4D1A8
:1035F000029E0023801B8008A34206D09E001D1857
:103600008E59AD0056510133F6E701241C401C19B8
:10361000A4006442FFF739FB0394684C684A2168B0
:10362000039E8D18AD1B04A90298FFF7F3FA0298C8
:10363000291C089AFFF7D8FA071E26D1049C059E7C
:10364000631E5D19281C311CFDF7E0FB002906D024
:10365000281C311CFDF796FB451C7543013D0020DD
:10366000FFF798FAAC420DD8230290221B0A1205EC
:103670001A43544B1A60FFF769FA002801D1A419C4
:10368000F0E7071C0120FFF785FA002F01D0012089
:103690008EE04A494A4A0968039E8C18A41B04A973
:1036A0000298FFF7B7FA0298211C099AFFF79CFAD3
:1036B00000282ED1029804A9FFF7ACFA069E049DBB
:1036C000734203966E421E407642AE421ED103996B
:1036D00076181BE0771BA74200D9271C0999381CD4
:1036E000FDF750FB2B0280221B0A52041A43354B74
:1036F00000041A60344B1843344B1860FFF726FA65
:10370000002806D1039AE41BED19B618002CE1D16C
:1037100001E00028BBD1294E04A935680298FFF7C3
:1037200079FA0298291C079AFFF75EFA041EAED1B7
:10373000049EFFF72FFA204B002D22D0234A196850
:103740001F1D1160079A042A03D133021B0AC022ED
:1037500009E0082A0BD15A681F1C1D4B08371A6054
:1037600033021B0AE022D2041A43164B1A60FFF7F9
:10377000EDF9002804D1079BF618ED1A3B1CDBE796
:10378000041C0120FFF706FA002C00D07FE7FFF7AA
:1037900079FA029EA3009A19074E1268F3589A42CA
:1037A00000D074E7802301345B009C42F1D10020FB
:1037B0000DB0F0BD60FBFF1F90F6FF1F3CF6FF1F32
:1037C00000FCFFFF04000240FF010000080002406F
:1037D0000C0002400F4A08B51388012001339BB248
:1037E000138096228240934212D80B4B1888802374
:1037F00001388002DB00C218031C02CB9342FCD1CB
:10380000802206495200FFF7DDFE431E9841C0B2F8
:1038100008BDC046F8F5FF1FD4F0FF1FE4F0FF1FFE
:10382000F7B5EFF305823F2313400093009B1E4E34
:10383000002B26D1FFF729FA1A4D194C3768002FB3
:1038400021D1FFF71FFA194B19491868FDF79AFAA9
:10385000642358430B21FDF795FA0197019B83429E
:1038600004D2C046019B01330193F7E7FFF70DFA3D
:1038700001225242D317A4185D41231C2B43DDD1F2
:1038800001E0FFF702FA33680124002B01D0002485
:103890003460FFF7F7F9201CFEBDC046C046C046A5
:1038A0002C0100000000000048F0FF1F20F0FF1F67
:1038B00040420F00C046C0461FB5064B01A9064A4C
:1038C0005870087018784A60FFF706FB002005B0B2
:1038D00000BDC04640F5FF1F2529000010B5021CA1
:1038E0001378002B01D00132FAE7CC5CD4540133B9
:1038F000002CFAD110BD031C0A7801311A70013373
:10390000002AF9D1704700007FB5061C09480068FD
:10391000C068002A02D0151C074C01E0074C251C8A
:103920001A1C0091331C06490194029500F020F8FE
:1039300000F0E2FBACF0FF1F085200004352000011
:1039400015520000084B10B5041C002B02D00021BA
:1039500000E000BF054B1868836A002B00D0984731
:10396000201C00F0C7FFC0460000000048520000C5
:103970000EB403B503AB04CB054A011C1068039ACF
:10398000019300F05DF802B008BC03B01847C046D0
:10399000ACF0FF1F70B50E4B0E4D0024ED1AAD10AC
:1039A0001E1CAC4204D0A300F35898470134F8E73A
:1039B00001F096FC084B094D0024ED1AAD101E1CB9
:1039C000AC4204D0A300F35898470134F8E770BD27
:1039D0000053000000530000005300000453000097
:1039E000031C8218934202D019700133FAE7704722
:1039F000936810B5013B9360002B05DA9469A342EC
:103A000008DBCBB20A2B05D01368581C1060197064
:103A1000C8B201E000F0A6FA10BDF8B5061C0F1CF4
:103A2000141CD518AC4208D02178301C3A1CFFF782
:103A3000DFFF0134431CF5D100E00020F8BD000099
:103A4000F0B59FB0061C0F1C03920593002804D00C
:103A50008169002901D100F05FFC754B9F4201D1C3
:103A6000776808E0734B9F4201D1B76803E0724B5F
:103A70009F4200D1F768BB891A070AD53B69002B22
:103A800007D006AD00236B6120236B763023AB7625
:103A90003BE0301C391C00F0BDFA0028F1D00120B9
:103AA0004042C2E0059A111D12680591002A76DB9A
:103AB0000992013423782E2B00D181E021785F48D0
:103AC000032200F0E9FC002807D05C492A68431A69
:103AD000402098401043286001342178631C5848E6
:103AE00006220393297600F0D7FC002800D18AE053
:103AF000544B002B7ED1059B072207339343083399
:103B000005936A69049953186B61039C2378002B11
:103B100004D10399611A029110D003E0252BF8D04B
:103B20000134F3E7301C391C039A029BFFF775FF41
:103B3000013075D06A69029953186B612378002BA4
:103B40006ED0012252426A606A4600235B32013421
:103B50002B60EB60AB601370AB6521783A480522AF
:103B600000F09AFC002808D0374A0134831A01205B
:103B700098402B6818432860EFE72B68D90603D5D7
:103B80006A4620215B3211701A0703D56A462B2141
:103B90005B32117022782A2A84D0099B05E05242B8
:103BA000EA60022213432B6083E72278303A092A25
:103BB00004D80A214B4301349B18F6E7099379E7AF
:103BC00063782A2B09D1059B02341A1D1B680592C4
:103BD000002B0DDA01235B420AE001340023227836
:103BE000303A092A04D80A214B4301349B18F6E7DE
:103BF000079363E705AB0093301C291C3A1C134B59
:103C000000E000BF07E005AB0093301C291C3A1C04
:103C10000E4B00F091F804900499013100D070E748
:103C2000BB895A0600D53AE70B981FB0F0BDC046D5
:103C300080520000A0520000C0520000525200000A
:103C400056520000000000004C5200001B3A0000D9
:103C5000F7B5151C01930A698B68061C0C1C93426E
:103C600000DA131C221C2B6043321278002A01D088
:103C700001332B602068800602D52B6802332B604D
:103C8000216806270F401FD0231C43331B785A1E80
:103C90009341226892061FD5E11840313020C87048
:103CA000211C5A1C45310978A21840320233D170C8
:103CB00012E0221C301C019919320123089FB847D9
:103CC000013011D0009F01370097E0682968009FFC
:103CD000431A9F42EDDBD7E7221C301C0199433287
:103CE000089FB847013002D10120404223E02068FC
:103CF00006212B68E26801400025042903D1D51A6A
:103D0000EB43DB171D40A26823699A4201DDD31AF9
:103D1000ED1800270097009FAF420BDA221C301CE1
:103D200001991A320123089FB8470130DCD0009F67
:103D30000137EFE70020FEBDF0B50D1C8BB0433519
:103D400006920590079304950B7E0C1C109A6E2B1F
:103D500000D1A7E011D8632B22D009D8002B00D1C5
:103D6000B0E0582B00D0C0E045310B707B4D4EE0E9
:103D7000642B1CD0692B1AD0B7E0732B00D1A5E0BF
:103D800009D86F2B29D0702B00D0AEE00E6820230D
:103D900033430B6036E0752B1FD0782B32D0A4E074
:103DA00013680D1C191D423511601B689FE02168C6
:103DB00013680E0603D5191D11601E6805E048063C
:103DC000F9D5191D116000215E5E644B002E3BDAAF
:103DD000049D2D2276422A7036E0216813680E0673
:103DE00003D5191D11601E6804E04806F9D5191D98
:103DF0001E881160594B227E039308276F2A1ED01C
:103E00000A271CE0231C78214533554D1970116891
:103E10002368081D039510601E0601D50E6802E098
:103E20005806FBD50E88D90702D5202213432360FC
:103E30001027002E03D1226820239A432260231CDE
:103E4000002243331A7001E003930A276368A360DA
:103E5000002B03DB2568042295432560002E02D148
:103E6000049D002B0ED0049D301C391CFCF7CEFFA6
:103E70000398013D435C301C2B70391CFCF782FF1A
:103E8000061EF1D1082F09D12168C90706D562683D
:103E900023699A4202DC013D30232B70049E731B80
:103EA00023612AE0086813684969050604D5181DCE
:103EB00010601B68196005E04606F8D5181D1060F3
:103EC0001B68198000232361049D16E01368191DE7
:103ED00011601D68281C00F039FC6368206198425D
:103EE00000D923612069606004E0251C42352B70F5
:103EF00001232361049E00233370079E05980096DA
:103F0000211C09AA069BFFF7A3FE013002D1012064
:103F1000404221E02A1C059806992369079DA8477D
:103F20000130F4D02668B60705D4099BE0689842B2
:103F300012DA181C10E00025E0680999431A9D4226
:103F4000F3DA221C0598069919320123079EB0471F
:103F50000130DCD00135EFE70BB0F0BD5D52000061
:103F60006E52000070B5051C0E1C141C002804D0F5
:103F70008269002A01D100F0CFF9234B9C4201D184
:103F80006C6808E0214B9C4201D1AC6803E0204BF7
:103F90009C4200D1EC68A369A360A3891A070AD5E3
:103FA0002369002B07D022682369F6B2D01A626910
:103FB00090420FDB08E0281C211C00F02BF80028A1
:103FC000F1D0012040421DE0281C211C00F024F902
:103FD0000028F6D1A3680130013BA36023685A1C76
:103FE00022601E706369984205D0A389301CDA07ED
:103FF00008D50A2E06D1281C211C00F00DF9002836
:10400000DFD1301C70BDC04680520000A0520000BD
:10401000C0520000344B70B51D68061C0C1C002DEE
:1040200005D0A969002902D1281C00F075F92F4B91
:104030009C4201D16C6808E02D4B9C4201D1AC68D8
:1040400003E02C4B9C4200D1EC68A28993B2190783
:1040500021D4D90605D40923336040231A43A28111
:104060003FE05A0713D5616B002908D0231C443365
:10407000994202D0301C00F023FA00236363A38925
:1040800024229343A3810023636023692360A389CF
:1040900008221343A381216900290BD1A389A022FF
:1040A00092001A4080239B009A4203D0301C211CAE
:1040B00000F0A2F9A38901221A4005D0616900220B
:1040C000A2604A42A26103E0990700D46269A2603B
:1040D00022690020824206D1190604D540221343EA
:1040E000A3810120404270BDACF0FF1F8052000050
:1040F000A0520000C052000008B5062000F0BAFA35
:10410000012000F0F7FBF7B58B89051C0C1C190783
:104110005ED46268002A02DC276C002F1ADDE76A91
:10412000002F17D000222E682A60802252011A40E8
:1041300001D0626D15E0281C216A0123B847021CDA
:10414000411C0ED12B68002B0BD01D2B01D0162B40
:1041500002D12E6000205EE0A38940210B43A381A1
:1041600059E0A3895F0706D56168636B521A002B7B
:1041700001D0276CD21B281C216A0023E76AB847AC
:10418000A289411C06D12B68002B03D01D2B01D026
:10419000162B19D10023636023692360D70405D54A
:1041A000411C02D12A68002A00D16065616B2E6033
:1041B0000029CFD0231C4433994202D0281C00F0A0
:1041C0007FF90020606326E040231A43A28122E0A9
:1041D0002669002EBED027680022BF1B01972660EB
:1041E000990700D16269A260019F002FB2DD281CEF
:1041F000216A321C019BA76AB847002806DCA38904
:10420000402213430120A381404204E0019F36185D
:104210003F1A0197E8E7FEBD0A6938B5051C0C1C7A
:10422000002A01D100201CE0002804D08369002B63
:1042300001D100F071F80B4B9C4201D16C6808E091
:10424000094B9C4201D1AC6803E0084B9C4200D171
:10425000EC680C22A35E002BE4D0281C211CFFF785
:1042600052FF38BD80520000A0520000C052000032
:10427000F8B5041C071C4834002C12D0A5686668E9
:10428000013E0CD4AB89012B07D90E22AB5E013362
:1042900003D0381C291CFFF7BFFF6835F0E72468FE
:1042A000EAE7F8BD002310B5041C03604360836097
:1042B00081814366C281036143618361191C0822C5
:1042C0005C30FFF78DFB054B24626362044BA362F5
:1042D000044BE362044B236310BDC046B5460000A7
:1042E000DD460000154700004147000070B54B1E39
:1042F00068255D430E1C291C743100F029F9041E49
:1043000008D00021016046602A1C0C30A060683291
:10431000FFF766FB201C70BD836913B5041C002BDE
:1043200027D18364C3640365124B134A1B688262FE
:10433000984201D101238361201C00F01FF86060C6
:10434000201C00F01BF8A060201C00F017F80421CE
:10435000E06000226068FFF7A5FFA0680921012244
:10436000FFF7A0FFE06812210222FFF79BFF012365
:10437000A36113BD4852000071420000F8B51D4B07
:10438000071C1E68B269002A02D1301CFFF7C4FF67
:104390004836B4687368013B05D40C22A55E002D35
:1043A00010D06834F7E73368002B06D1381C04219D
:1043B000FFF79CFF3060002801D03668E9E70C2346
:1043C0003B6016E001235B42E381201C0123A381B3
:1043D00065662560A560656025616561A5615C30E5
:1043E000291C0822FFF7FCFA6563A563A564E56450
:1043F000201CF8BD48520000F0B58B8991B0051C17
:104400000C1C9A0725D40E23C95E002906DAA78959
:1044100080231F400FD0002740260EE001AA00F0A5
:10442000C3F90028F3DB029BF0273F02184A1F4024
:10443000BF187B425F418026F600281C311C00F02B
:1044400087F800280CD1A3899A051FD402221343B0
:10445000A381231C4733236023610123636115E09B
:104460000C4B8022AB62A38920601343A38120619F
:104470006661002F0AD00E23E15E281C00F0A6F929
:10448000002803D0A38901221343A38111B0F0BDFA
:1044900000E0FFFF71420000C9B28218904204D0D0
:1044A00003788B4202D00130F8E70020704710B546
:1044B0000023934203D0CC5CC4540133F9E710BD10
:1044C00030B5002940D004390B68002B00DAC91838
:1044D0001E4A1368141C002B02D14B60116033E09C
:1044E00099420FD208680A189A4205D11368526897
:1044F000C01808604A6000E04B60216024E08A42F6
:1045000003D8131C5A68002AF9D11D685C198C4223
:104510000BD10968691858181960904214D11468B1
:104520005268091919605A600EE08C4202D90C23B6
:10453000036009E008680C18944203D114685268BB
:10454000001908604A60596030BDC04674FBFF1F07
:1045500070B50323CD1C9D430835061C0C2D01D2DC
:104560000C2501E0002D3FDB8D423DD3204B1C6824
:104570001A1C211C002913D00868431B0DD40B2BD7
:1045800002D90B60CC181EE08C4202D16368136024
:104590001AE0486860600C1C16E00C1C4968E9E7EA
:1045A000144C2068002803D1301C00F025F820604E
:1045B000301C291C00F020F8431C15D0C41C032318
:1045C0009C4384420AD12560201C0B300722231D06
:1045D0009043C31A0BD05A42E25008E0211A301C13
:1045E00000F00AF80130EED10C233360002070BDDA
:1045F00074FBFF1F70FBFF1F38B5074C0023051C21
:10460000081C236000F054F9431C03D12368002BDD
:1046100000D02B6038BDC0467CFBFF1F38B5041CA2
:104620000D1E1F2D04D916230360012040421FE0F8
:10463000436C002B04D08A009A181368002B08D111
:10464000201C00F033F82A1C011C201C00F01CF870
:104650000EE0012B0BD0591C03D11623036001205F
:1046600006E00024281C14609847201C00E000206D
:1046700038BD000008B5034B011C1868FFF7CEFFDA
:1046800008BDC046ACF0FF1F38B5074C0023051C21
:10469000081C111C236000F0F3F8431C03D12368AD
:1046A000002B00D02B6038BD7CFBFF1F08B500F04D
:1046B000D7F808BD38B50C1C0E25495F00F0ACF8E2
:1046C000002803DB626D1318636503E0A289024BC7
:1046D0001340A38138BDC046FFEFFFFFF8B51E1C95
:1046E0008B89051C0C1C171CDA0505D50E23C95E29
:1046F0000022022300F07CF8A289054B281C1340FD
:10470000A3810E22A15E331C3A1C00F027F8F8BDED
:10471000FFEFFFFF38B50C1C0E25495F00F068F86D
:10472000A389421C03D1054A1340A38104E08022DF
:1047300052011343A381606538BDC046FFEFFFFF00
:1047400008B50E23C95E00F01DF808BD0023C25C49
:104750000133002AFBD1581E7047000038B5084CC1
:10476000051C00202060081C111C1A1C00F0BAF85F
:10477000431C03D12368002B00D02B6038BDC046FA
:104780007CFBFF1F38B5074C0023051C081C236069
:1047900000F056F8431C03D12368002B00D02B6097
:1047A00038BDC0467CFBFF1F38B5074C0023051CF5
:1047B000081C111C236000F04BF8431C03D1236834
:1047C000002B00D02B6038BD7CFBFF1F38B5074C99
:1047D0000023051C081C236000F04AF8431C03D189
:1047E0002368002B00D02B6038BDC0467CFBFF1F28
:1047F00038B5084C051C00202060081C111C1A1C30
:1048000000F046F8431C03D12368002B00D02B6036
:1048100038BDC0467CFBFF1F38B5084C051C002086
:104820002060081C111C1A1C00F03AF8431C03D12C
:104830002368002B00D02B6038BDC0467CFBFF1FD7
:10484000024B5822012040421A6070477CFBFF1F38
:10485000024B5822012040421A6070477CFBFF1F28
:10486000024B5822012040421A6070477CFBFF1F18
:10487000024B582200201A607047C0467CFBFF1F85
:10488000024B5822012040421A6070477CFBFF1FF8
:10489000024B5822012040421A6070477CFBFF1FE8
:1048A000024B5822012040421A6070477CFBFF1FD8
:1048B000094A1368002B0CD018186946884202D8A0
:1048C0001060181C7047054B0C2201201A604042F2
:1048D000F8E7034B1360EFE778FBFF1F7CFBFF1F3C
:1048E00080FBFF1F024B5822012040421A60704794
:1048F0007CFBFF1FFEE7C0466B422E44494F5F50D2
:10490000444F000000000000000000000000000014
:1049100000000000000000006B422E58002D000037
:104920000000C1C081C1400101C3C003800241C277
:1049300001C6C006800741C70005C1C581C4400447
:1049400001CCC00C800D41CD000FC1CF81CE400EF7
:10495000000AC1CA81CB400B01C9C009800841C807
:1049600001D8C018801941D9001BC1DB81DA401A77
:10497000001EC1DE81DF401F01DDC01D801C41DC47
:104980000014C1D481D5401501D7C017801641D677
:1049900001D2C012801341D30011C1D181D0401087
:1049A00001F0C030803141F10033C1F381F2403277
:1049B0000036C1F681F7403701F5C035803441F447
:1049C000003CC1FC81FD403D01FFC03F803E41FEF7
:1049D00001FAC03A803B41FB0039C1F981F8403807
:1049E0000028C1E881E9402901EBC02B802A41EA77
:1049F00001EEC02E802F41EF002DC1ED81EC402C47
:104A000001E4C024802541E50027C1E781E6402676
:104A10000022C1E281E3402301E1C021802041E086
:104A200001A0C060806141A10063C1A381A2406276
:104A30000066C1A681A7406701A5C065806441A446
:104A4000006CC1AC81AD406D01AFC06F806E41AEF6
:104A500001AAC06A806B41AB0069C1A981A8406806
:104A60000078C1B881B9407901BBC07B807A41BA76
:104A700001BEC07E807F41BF007DC1BD81BC407C46
:104A800001B4C074807541B50077C1B781B6407676
:104A90000072C1B281B3407301B1C071807041B086
:104AA0000050C190819140510193C0538052419276
:104AB0000196C056805741970055C1958194405446
:104AC000019CC05C805D419D005FC19F819E405EF6
:104AD000005AC19A819B405B0199C0598058419806
:104AE0000188C04880494189004BC18B818A404A76
:104AF000004EC18E818F404F018DC04D804C418C46
:104B00000044C184818540450187C0478046418675
:104B10000182C042804341830041C1818180404085
:104B200010B5002905D004688C43934019402143F7
:104B30000160BFF36F8FBFF34F8F10BD08001000EF
:104B4000180020003000400060008000C00000011C
:104B50008001000200030004000680210170027839
:104B60000A42FCD070476B422E44494F5F50444F7D
:104B700020626F6F7420004932435F476574496E4D
:104B80007374616E63650000060034100700341012
:104B90000809000000000000B71DC1046E3B820937
:104BA000D926430DDC7604136B6BC517B24D861AFC
:104BB0000550471EB8ED08260FF0C922D6D68A2F19
:104BC00061CB4B2B649B0C35D386CD310AA08E3C38
:104BD000BDBD4F3870DB114CC7C6D0481EE09345B1
:104BE000A9FD5241ACAD155F1BB0D45BC296975680
:104BF000758B5652C836196A7F2BD86EA60D9B63EB
:104C000011105A6714401D79A35DDC7D7A7B9F707B
:104C1000CD665E74E0B6239857ABE29C8E8DA19171
:104C2000399060953CC0278B8BDDE68F52FBA582C7
:104C3000E5E66486585B2BBEEF46EABA3660A9B754
:104C4000817D68B3842D2FAD3330EEA9EA16ADA473
:104C50005D0B6CA0906D32D42770F3D0FE56B0DDA2
:104C6000494B71D94C1B36C7FB06F7C32220B4CE83
:104C7000953D75CA28803AF29F9DFBF646BBB8FB6E
:104C8000F1A679FFF4F63EE143EBFFE59ACDBCE8EF
:104C90002DD07DEC77708634C06D4730194B043DC4
:104CA000AE56C539AB0682271C1B4323C53D002EDB
:104CB0007220C12ACF9D8E1278804F16A1A60C1BA0
:104CC00016BBCD1F13EB8A01A4F64B057DD0080857
:104CD000CACDC90C07AB9778B0B6567C69901571F0
:104CE000DE8DD475DBDD936B6CC0526FB5E611625F
:104CF00002FBD066BF469F5E085B5E5AD17D1D57A2
:104D00006660DC5363309B4DD42D5A490D0B19441A
:104D1000BA16D84097C6A5AC20DB64A8F9FD27A534
:104D20004EE0E6A14BB0A1BFFCAD60BB258B23B626
:104D30009296E2B22F2BAD8A98366C8E41102F835B
:104D4000F60DEE87F35DA9994440689D9D662B9012
:104D50002A7BEA94E71DB4E0500075E4892636E921
:104D60003E3BF7ED3B6BB0F38C7671F7555032FA62
:104D7000E24DF3FE5FF0BCC6E8ED7DC231CB3ECF25
:104D800086D6FFCB8386B8D5349B79D1EDBD3ADC8E
:104D90005AA0FBD8EEE00C6959FDCD6D80DB8E602A
:104DA00037C64F643296087A858BC97E5CAD8A73AC
:104DB000EBB04B77560D044FE110C54B38368646A5
:104DC0008F2B47428A7B005C3D66C158E440825588
:104DD000535D43519E3B1D252926DC21F0009F2C6D
:104DE000471D5E28424D1936F550D8322C769B3F30
:104DF0009B6B5A3B26D6150391CBD40748ED970AF7
:104E0000FFF0560EFAA011104DBDD014949B9319CB
:104E10002386521D0E562FF1B94BEEF5606DADF89D
:104E2000D7706CFCD2202BE2653DEAE6BC1BA9EBF7
:104E30000B0668EFB6BB27D701A6E6D3D880A5DE60
:104E40006F9D64DA6ACD23C4DDD0E2C004F6A1CD43
:104E5000B3EB60C97E8D3EBDC990FFB910B6BCB43E
:104E6000A7AB7DB0A2FB3AAE15E6FBAACCC0B8A7B3
:104E70007BDD79A3C660369B717DF79FA85BB492FA
:104E80001F4675961A163288AD0BF38C742DB081BF
:104E9000C330718599908A5D2E8D4B59F7AB0854BC
:104EA00040B6C95045E68E4EF2FB4F4A2BDD0C470B
:104EB0009CC0CD43217D827B9660437F4F4600722C
:104EC000F85BC176FD0B86684A16476C9330046127
:104ED000242DC565E94B9B115E565A15877019182C
:104EE000306DD81C353D9F0282205E065B061D0B8F
:104EF000EC1BDC0F51A69337E6BB52333F9D113EAE
:104F00008880D03A8DD097243ACD5620E3EB152DEA
:104F100054F6D4297926A9C5CE3B68C1171D2BCCE0
:104F2000A000EAC8A550ADD6124D6CD2CB6B2FDFD6
:104F30007C76EEDBC1CBA1E376D660E7AFF023EA67
:104F400018EDE2EE1DBDA5F0AAA064F4738627F962
:104F5000C49BE6FD09FDB889BEE0798D67C63A803D
:104F6000D0DBFB84D58BBC9A62967D9EBBB03E9312
:104F70000CADFF97B110B0AF060D71ABDF2B32A6B1
:104F80006836F3A26D66B4BCDA7B75B8035D36B5DE
:104F9000B440F7B12E2E2F536F75726365732F6E69
:104FA00078702F447269766572732F66736C5F69CF
:104FB00032632E630069326348616E646C65006918
:104FC0006E7374616E6365203C2041525241595F9B
:104FD00053495A4528735F69326342617365732987
:104FE000002E2E2F536F75726365732F6E78702F9E
:104FF000447269766572732F66736C5F6770696F50
:105000002E6300636F6E666967002E2E2F536F75D7
:10501000726365732F6E78702F4472697665727350
:105020002F66736C5F636C6F636B2E6300675F78D2
:1050300074616C304672657100675F7874616C33BF
:105040003246726571004932435F536C6176655434
:1050500072616E7366657248616E646C6549525127
:1050600000001400160018001A001C001E00220088
:1050700028001C002000240028002C0030003800EC
:1050800044003000380040004800500058006800DC
:10509000800050006000700080009000A000C00000
:1050A000F000A000C000E0000001200140018001EC
:1050B000E00140018001C0010002400280020003C3
:1050C000C003800200038003000480040005000682
:1050D000800700050006000700080009000A000C10
:1050E000000F0000006006400070064080841E0033
:1050F00000127A00434C4F434B5F4765744F757401
:10510000436C6B467265710000070E091C1B12157B
:10511000383F363124232A2D70777E796C6B626597
:10512000484F464154535A5DE0E7EEE9FCFBF2F587
:10513000D8DFD6D1C4C3CACD90979E998C8B828577
:10514000A8AFA6A1B4B3BABDC7C0C9CEDBDCD5D267
:10515000FFF8F1F6E3E4EDEAB7B0B9BEABACA5A257
:105160008F88818693949D9A2720292E3B3C353247
:105170001F18111603040D0A5750595E4B4C454237
:105180006F68616673747D7A898E878095929B9C27
:10519000B1B6BFB8ADAAA3A4F9FEF7F0E5E2EBEC17
:1051A000C1C6CFC8DDDAD3D4696E676075727B7C07
:1051B00051565F584D4A4344191E171005020B0CF7
:1051C00021262F283D3A33344E49404752555C5BE7
:1051D0007671787F6A6D64633E39303722252C2BD7
:1051E0000601080F1A1D1413AEA9A0A7B2B5BCBBC7
:1051F0009691989F8A8D8483DED9D0D7C2C5CCCBB7
:10520000E6E1E8EFFAFDF4F32C2066756E6374694D
:105210006F6E3A2000617373657274696F6E20223D
:10522000257322206661696C65643A2066696C6545
:1052300020222573222C206C696E6520256425733D
:1052400025730A00430000004CF0FF1F232D302B74
:105250002000686C4C006566674546470030313277
:1052600033343536373839414243444546003031CE
:10527000323334353637383961626364656600002D
:10528000000000000000000000000000000000001E
:10529000000000000000000000000000000000000E
:1052A00000000000000000000000000000000000FE
:1052B00000000000000000000000000000000000EE
:1052C00000000000000000000000000000000000DE
:1052D00000000000000000000000000000000000CE
:1052E000F8B5C046F8BC08BC9E467047F8B5C04645
:0852F000F8BC08BC9E467047A3
:0852F80078B1FF7F0100000006
:04530000390400006C
:045304001104000090
:1053080076332E302E302E300000000000000000D2
:1053180000000000010000003CC33CC30100000085
:1053280000127A006B422E44494F5F50444F0000F0
:105338000000000000000000000000000000000065
:10534800000000001126000001000000000000001D
:1053580080520000A0520000C0520000000000006F
:10536800000000000000000000000000445200009F
:105378000000000000000000000000000000000025
:105388000000000000000000000000000000000015
:105398000000000000000000000000000000000005
:1053A8000000000000000000000000004CF0FF1F9B
:0453B80000000000F1
:0400000300000D6587
:00000001FF
