:105C00006B422E44494F00000000000000000000DD
:105C10005F492403234DC5548A455900005D0000A7
:045C200030D300007D
:105D000000300020E9610000F9610000F961000045
:105D10000000000000000000000000000000000083
:105D2000000000000000000000000000F961000019
:105D30000000000000000000F9610000F9610000AF
:105D4000458700004D870000558700005D870000F3
:105D5000F9610000F9610000F9610000F9610000DB
:105D6000A1890000A9890000F9610000F961000023
:105D7000F9610000F9610000458D0000F961000043
:105D8000F9610000F9610000F9610000F9610000AB
:105D9000F9610000F9610000118B0000F961000059
:105DA000F9610000F9610000F9610000F96100008B
:105DB000F1890000F9610000F9610000F96100005B
:105DC000EEEEEEEEEEEEEEEEEEEEEEEEEEEEEEEEF3
:105DD000EEEEEEEEEEEEEEEEEEEEEEEEEEEEEEEEE3
:105DE000EEEEEEEEEEEEEEEEEEEEEEEEEEEEEEEED3
:105DF000EEEEEEEEEEEEEEEEEEEEEEEEEEEEEEEEC3
:1060F000EEEEEEEEEEEEEEEEEEEEEEEEEEEEEEFFAF
:10610000FFFFFFFFFFFFFFFFFFFFFFFFFE3DFFFF62
:1061100010B5064C2378002B07D1054B002B02D07D
:10612000044800E000BF0123237010BDE0F0FF1F12
:10613000000000002CD2000008B5084B002B03D053
:106140000748084900E000BF07480368002B03D058
:10615000064B002B00D0984708BDC0460000000049
:106160002CD20000E4F0FF1FD8F0FF1F0000000059
:10617000164B002B00D1144B9D46402292029A1AD6
:10618000924600218B460F461348144A121A05F016
:106190007EF90F4B002B00D098470E4B002B00D000
:1061A00098470020002104000D000D48002802D06F
:1061B0000C4800E000BF05F03BF92000290005F085
:1061C0006FF805F00DF9C04600000800003000200F
:1061D0000000000000000000E0F0FF1FA4F8FF1F17
:1061E000000000000000000072B603F05FF903F049
:1061F0001FF962B6FFF7BCFF01480047014800479E
:10620000F961000005A6000002B471464908490082
:10621000095C49008E4402BC7047C046002934D056
:106220000123002210B488422CD301242407A14268
:1062300004D2814202D209011B01F8E7E400A14225
:1062400004D2814202D249005B00F8E7884201D3C0
:10625000401A1A434C08A04202D3001B5C08224398
:106260008C08A04202D3001B9C082243CC08A04209
:1062700002D3001BDC082243002803D01B0901D0F5
:106280000909E3E7101C10BC7047002801D000206A
:10629000C04307B4024802A14018029003BDC046A3
:1062A000D90000000029F0D003B5FFF7B9FF0EBCFC
:1062B0004243891A1847C046002941D010B4041C33
:1062C0004C40A44601230022002900D54942002861
:1062D00000D5404288422CD301242407A14204D295
:1062E000814202D209011B01F8E7E400A14204D275
:1062F000814202D249005B00F8E7884201D3401A8C
:106300001A434C08A04202D3001B5C0822438C08AD
:10631000A04202D3001B9C082243CC08A04202D317
:10632000001BDC082243002803D01B0901D0090907
:10633000E3E7101C6446002C00D5404210BC7047B7
:10634000002806D003DB0020C043400801E0802085
:10635000000607B4024802A14018029003BDC046DF
:10636000190000000029EBD003B5FFF7A7FF0EBC12
:106370004243891A1847C0467047C046002B11D1C6
:10638000002A0FD1002900D1002802D00021C943E2
:10639000081C07B4024802A14018029003BDC04681
:1063A000D9FFFFFF03B4684601B5029800F044F836
:1063B000019B9E4602B00CBC7047C0469C4603043D
:1063C000F0B51B0C17043F0C150C1E1C041C000C14
:1063D0007E436B4347434543FB18300C18188742F4
:1063E00002D980235B02ED18030CED1863465C4371
:1063F0004A433604360CA118000480194919F0BD2F
:10640000F0B583B0161C1F1C0090019100F02EF80F
:10641000041C0D1C221C2B1C301C391CFFF7CEFF4A
:10642000009A019B121A8B410899201C0A604B604C
:10643000291C03B0F0BDC046F0B583B0141C1D1C70
:106440000090019100F0EEF9221C2B1C061C0F1C81
:10645000FFF7B4FF009A019B121A8B410899301C78
:106460000A604B60391C03B0F0BDC046F0B544462D
:106470005F4656464D46F0B41C1C85B0002900DA34
:10648000DBE00F1C0021061C8A46101C191C002C86
:1064900000DAC9E00196009089468046002951D172
:1064A000B84200D871E000F07FFB002809D020231B
:1064B0004546311C1B1A85408740D940A8460F43EA
:1064C00086404246150C13041B0C291C381C9B46A5
:1064D000FFF7A4FE5B464343041C291C381C994665
:1064E000FFF7E0FE330C08041843814509D9404406
:1064F000631E804500D978E1814500D875E1023CF2
:1065000040444946411A8946081C291CFFF786FE6B
:106510005A464243071C291C48469346FFF7C2FED1
:1065200036040904360C0E43B34507D946447B1E96
:10653000B04502D8023FB34500D81F1C24042743AE
:10654000002403E0B94211D9002400275246381C28
:10655000211C002A03D03B1C00215842A14105B058
:106560003CBC90469946A246AB46F0BD081C00F0E4
:106570001BFB041E00D0BFE0B94500D242E1019DE3
:106580000099071C8D424741E0E7002804D1012013
:106590000021FFF743FE8046404600F005FB00283F
:1065A00052D1414644460B043C1B1B0CA3460D0C28
:1065B00000930124291C5846FFF730FE009F8146B6
:1065C0004743291C5846FFF76DFE330C0904194355
:1065D0008F4208D94B464144013B884502D88F423F
:1065E00000D91AE19946C91B8B46081C291CFFF7E4
:1065F00015FE009B291C4343071C58460093FFF7D8
:1066000051FE3604009D0904360C0E43B54207D9ED
:1066100046447B1EB04502D8023FB54200D81F1C3D
:1066200049460E04374391E75246D243031C0C1CE3
:10663000924600215842A1412CE7002746428F4153
:10664000012149428A4620E720231B1A4246351C75
:1066500082403C1CDD40DC4087402B1C150C3B433A
:10666000291C8640201C009317049046FFF7D6FD96
:106670003F0C011C794381468B46201C291CFFF7E7
:1066800011FE009C0904230C19438B450CD94B4681
:106690004144013B884500D9BDE08B4500D8BAE0B4
:1066A00002225242914441445C460C1B201C291C8E
:1066B0000194FFF7B3FD391C4143041C8B4601983C
:1066C000291CFFF7EFFD009A090413041B0C194362
:1066D0008B4509D94144631E884500D997E08B4515
:1066E00000D894E0023C41445B46CB1A49469B46A5
:1066F0000B041C4300975DE7009D20231B1A4A46AC
:106700008240DD401543391C009AD94082408846BA
:10671000311C0092D9403A1C82400B1C1343019358
:106720002F0C2B041B0C391C40460293FFF776FDFF
:10673000029A81464243391C40469346FFF7B2FD18
:10674000019A0904130C19438B450AD94B46491980
:10675000013B8D425DD88B455BD902235B42994456
:1067600049195A468A1A101C391C0392FFF756FD24
:10677000029B80464343391C03989B46FFF792FDDA
:10678000019A090413041B0C19438B450AD943468B
:106790004919013B8D4238D88B4536D902235B42DB
:1067A000984449195D464D1BAB464946009D0F0470
:1067B000424617432A04120C3B042D0C1B0C380CC8
:1067C000111C594342436B436843D3180D0C5B19AA
:1067D0008C469A4202D98022520280181D0C401920
:1067E00083450CD303D00024B0E61C1C89E6654623
:1067F0002A041B04120C9B18A6409E42F3D2013FB0
:106800000024A3E600240127A0E69846CAE71C1C42
:106810006AE79946A5E7994646E702225242914423
:106820004144E0E6F0B55F4656464D464446F0B476
:106830000D1C85B0061C9246984602900191039269
:106840001F1C141C8346A946002B59D1AA4269D9A2
:10685000101C00F0A9F900280AD020231B1A311CB3
:10686000D94085400B1C2B43864084409946B34653
:10687000250C23041B0C291C48469846FFF7CEFC28
:106880004646071C4643291C4846FFF70BFD5A465F
:106890000904130C19438E4209D909197B1E8C4235
:1068A00000D957E18E4200D854E1023F0919891BF3
:1068B0008946081C291CFFF7B1FC43464343061CCC
:1068C000291C48469846FFF7EDFC5A461304090474
:1068D0001B0C1943884508D90919731E8C4200D92D
:1068E00036E1023E884500D832E1380430430027C3
:1068F000391C05B03CBC90469946A246AB46F0BD5B
:10690000019A934262D8181C00F04EF9041E60D11F
:10691000019B9F4200D22CE1029F03998F4260416C
:106920000027E5E7002A04D101200021FFF776FCCB
:10693000041C201C00F038F9002800D0B9E0230422
:106940002D1B1B0CA946260C98460127311C4846D6
:10695000FFF764FC41464143051C8A464846311C0A
:10696000FFF7A0FC5A460804130C1843824507D9C8
:1069700000196B1E844202D8824500D910E11D1C0B
:106980005346C31A181C311C9A46FFF747FC414670
:106990004143814688465046311CFFF783FC5A46E6
:1069A000130409041B0C194388450BD94B460919DC
:1069B000013B8C4200D9CFE0884500D8CCE00223CF
:1069C0005B42994428044946084391E70027002088
:1069D0008EE720231B1A424657468240DF4017436A
:1069E000524682400192321CDA40291CD94085402F
:1069F000131C2B4302933D0C3B041B0C8846081CC4
:106A0000291C9A46FFF70AFC534643438146291C3A
:106A100040469B46FFF746FC029A0904130C1943B3
:106A20008B4506D94B46C919013B8F4200D8ABE0D4
:106A300099465A468A1A101C291C9346FFF7EEFB0A
:106A400053464343291C804658469A46FFF72AFC82
:106A5000029A090415042D0C29438A4506D9434698
:106A6000C919013B8F4200D886E098465746CF1B94
:106A7000BA464946019F0804424610433D042D0C86
:106A800003043F0C1B0C020C291C594355437B4348
:106A90007A43EB180F0CDB198C469D4202D98027F4
:106AA0007F02D2191D0C521992455FD356D0002790
:106AB0001EE720231B1A311C2F1CD940DF408540C4
:106AC0000B1C84402B4386400193B3462304260CC1
:106AD0001B0C381C311C9846FFF7A0FB4246424372
:106AE000051C311C381C9146FFF7DCFB019F090493
:106AF0003B0C1943894507D909196B1E8C424DD8A7
:106B000089454BD9023D09194A468A1A101C311C85
:106B10009246FFF783FB43464343071C311C504614
:106B20009946FFF7BFFB019A090413041B0C194394
:106B3000894507D909197B1E8C422DD889452BD947
:106B4000023F09194B46CB1A2D0499462F43FDE607
:106B50001E1CCAE61F1CAAE6994633E761460A04D2
:106B60001B04120C9B18A6409E42A0D2013800279D
:106B7000BEE600270120BBE68A4500D875E7022360
:106B80005B429844C91971E78B4500D850E702234E
:106B90005B429944C9194CE71F1CD3E71D1CB3E79E
:106BA000023D0019ECE6C0461C2101231B0498425B
:106BB00001D3000C10391B0A984201D3000A08398E
:106BC0001B09984201D30009043902A2105C401845
:106BD0007047C046040302020101010100000000E9
:106BE0000000000010B5054C0122002320686168F8
:106BF00012184B412260636010BDC04600F1FF1FB8
:106C000090B583B000AFFB1D00221A70FC1D01205F
:106C1000102101F001FF031C2370FC1DFA239A00D0
:106C20000C4B0020111C1A1C022301F02DFF031C29
:106C30002370FC1D002001F05FFF031C2370FB1D6F
:106C40001B78002B01D0012300E00023181CBD4657
:106C500003B090BDE56B0000014B186859687047A0
:106C600000F1FF1F0B7810B50C1C022B14D004D8B8
:106C7000012B2CD100234B601AE0042B1AD0202BBF
:106C800025D10A69124B13481A600021142204F01E
:106C9000FEFB0122104B19E0104B00221A70104B22
:106CA00001221A700F4B5B6898470F4B63602623D5
:106CB000A3600CE002790D4B1A600D4B01224B6072
:106CC00026238B60054B1A70054B00221A7010BDED
:106CD00010F1FF1F5CF8FF1F14F1FF1FFAF7FF1FF1
:106CE000F8F7FF1F08F1FF1F6CF7FF1FFCF7FF1FEE
:106CF00092F7FF1F012303707823437000238370F2
:106D0000C37043607047EEEE30B5837885B0041CE5
:106D1000002B0ED101AD281C01F0E0FD6378207836
:106D20002B700C4B291C6B60E378AB6001F0DAFD33
:106D30000AE0012B0BD101A801F0C6FDE378207811
:106D400001A9029301F0C8FD034B03CC03C300204B
:106D500005B030BD656C000008F1FF1F7FB5084D20
:106D600001AC061C6870201C01F0B8FD054B2878AA
:106D7000211C2670636001F0B5FD002004B070BDD9
:106D800008F1FF1F656C0000014B58787047C04642
:106D900008F1FF1F08B5021C0021024804F077FB30
:106DA00008BDC0466CF7FF1F08B5021C0021024851
:106DB00004F06DFB08BDC04692F7FF1F70B5041CC0
:106DC00004A80578002D04D152000E4BD2B2985C75
:106DD0000CE00020012D09D10A485200D6B2865D90
:106DE0002A437340C55C6A40D2B2805C0139064BCD
:106DF00089B2994205D0237801345840014B185C80
:106E0000F4E770BDBCC30000FFFF000030B50F4DBC
:106E10000F4C2968637885B0CB1A0020032B13D15F
:106E20000C4B01395A780C4B89B21B780090201C0E
:106E3000FFF7C4FF6B46D873D87B2B68013BE35C3C
:106E4000C01A431E9841C0B205B030BD10F1FF1FFB
:106E500092F7FF1F08F1FF1FFCF7FF1F08B502F0B4
:106E6000BDF9002008BDEEEE38B5041C0120002C51
:106E700014D00C4B00209C4210D0FFF7EDFE0A4DC1
:106E80002A686B68994202D80AD1904208D9201C1E
:106E9000002112184B412A606B60022002F0ACF90D
:106EA00038BDC046E9FD000018F1FF1F014B187006
:106EB0007047C04620F1FF1F014B18787047C0464D
:106EC00020F1FF1F70B5161C1D1C02F01DFA011CDD
:106ED000012E06D0002E02D0022E0BD017E0012486
:106EE00016E0C3B2013B00240B2B11D8341C9C408C
:106EF000264A07E0C3B2013B00240F2B08D8012427
:106F0000234A9C401440631E9C41E4B200E00024EC
:106F10000020052D38D8281CFFF776F93303091314
:106F20001E28C9B20A39002006292DD829E0C9B285
:106F300001390020072927D801238B40191CC723BA
:106F40001DE0C9B20139002008291DD801238B405A
:106F5000191C4C23FF3312E0C9B201390020042967
:106F600012D801238B40191C132308E0C9B2013940
:106F70000020052908D801238B40191C232319421E
:106F800002D0201C441EA04170BDC0463F0E000030
:106F9000C1F3000008B502F0B7F9C3B2013B00200D
:106FA0000F2B10D80120021C9A40131CE022120261
:106FB000134208D1F02252010320134203D1DB0512
:106FC000581E8341580008BD0723021CFE3203707F
:106FD0000023538193819373437001231374031C23
:106FE000FA22FC3392005A617047407A7047837AE4
:106FF000C07A1B02C01880B27047037B407B1B0223
:10700000C01880B27047EEEE08B5002002F0EEF92D
:10701000084B1A685378002B0BD1111CFE314B8999
:10702000FE2B03D8D218013310724B81002001F0DF
:1070300077FE08BD00F8FF1F70B5041C01200D1C71
:10704000161C84421BD809689623DB01994204D898
:107050000B48FFF7E3F8411C00E00A490A4BA40083
:10706000E2580020092301F049FE084B0020E358B4
:10707000291CAB6002F0D0F9054B0020E65070BD32
:10708000A0764B02D606000004F0FF1F00F0FF1FA1
:1070900000F8FF1F4B1E70B50A1CFF2B10D8094DBE
:1070A000860073590024191CFE314C81022159704D
:1070B000191C0831D2B2201C02F088F973595C7097
:1070C00070BDC04600F8FF1F054B8000C35800206C
:1070D000FF335A7B824201D0587301207047C0466B
:1070E00000F8FF1F034B8000C25800235370FE328C
:1070F0005381704700F8FF1F10B5002001F007FE14
:107100000C4B1B685878002813D11A1CFF32D47B13
:10711000197A002C09D01C78A14206D0002904D08D
:10712000002C02D0FFF7DEFF03E0517501215173FF
:10713000597010BD00F8FF1F10B5017002AC511E50
:1071400024884270012906D8072323405A1E934100
:10715000E4081C1903E0D11E012903D864008470DF
:10716000032017E0511F012904D81A0A8270C37046
:1071700004200FE0111C0F39012907D81A0AC37027
:10718000230A827003714471062003E0203A012A29
:10719000EBD9002010BDEEEE30B5031C0848021CF0
:1071A000013989B2914209D01D78040A6840C0B201
:1071B000044D4000405B01336040F1E730BDC04604
:1071C000FFFF0000BCC400000E4B73B58000C55823
:1071D00001202B1CFE335E89F3B2032B10D96C46C1
:1071E00008350634023EA9190222201C04F046F993
:1071F000B1B2281CFFF7D0FF2388181A431E98410C
:1072000076BDC04600F8FF1F38B5051C0C1CFFF703
:10721000C3FF28552C19000A607038BD38B5164ACE
:1072200083009B581268051CFF32527D0C1C002AFB
:1072300004D11A1CFF32D27B012A1AD0002C0DD1A6
:107240001A1CFF32D27B012A13D1597A8022524272
:107250000A435A7202229A72032401E0002C08DDCC
:10726000181C0830A1B2FFF7CFFFA11C281CFFF7A4
:1072700011FF002038BDC04600F8FF1F10B5214B9C
:107280001A78002A04D1204C2378002B11D026E054
:1072900000221A70FFF7BAFD00280AD11B4B59785B
:1072A0001A1C002907D11A78194B1A60194B0122B0
:1072B0001A70062025E0197823291FD0197824296F
:1072C00002D19B78002B1BD01378242B02D193780A
:1072D000002B16D1137802202A2BD4D111E01420D0
:1072E000FFF758FD00232370094B03201B68232B55
:1072F00007D006202A2B04D1042002E0012000E060
:10730000052010BDFAF7FF1FF8F7FF1F92F7FF1FC8
:10731000FCF7FF1FF9F7FF1FF7B50578032D13D111
:107320000A4F0B4C3B78012623700A4B66701B6892
:107330001B78A370FFF728FD3B78021C0096201CE9
:10734000291CFFF73BFDE0700020FEBDFCF7FF1F8E
:107350006CF7FF1F00F8FF1F10B50478012C2DD02B
:10736000002C1BD0052C2ED10020FFF79FFD002004
:1073700001F0CEFE1E2001F053F8012100220D2065
:1073800000F0B8FF00210A1C022000F0B3FF1E200D
:1073900001F074F87820FFF7E1FC14E00B4B9878CB
:1073A0000B4BC0B21870FFF7D9FC012001F0B0FE02
:1073B000211C221C0D2000F09DFF04E0034B9A7855
:1073C000044B1B681A70002010BDC04692F7FF1FC7
:1073D00021F1FF1F00F8FF1FF0B58BB0051C041C46
:1073E000FFF703FE0490281CFFF701FE071C281C72
:1073F000FFF703FE049A0834061C042A00D0EAE0D2
:10740000FA23DB009F4265D1297A3B1C0090201CA7
:10741000FFF792FEC5B2012000F0F2FE030A6355A9
:107420006B1CDBB2E054022000F0EAFEAB1C020A47
:10743000DBB2E254EB1CDBB2E054002000F0E0FED3
:107440002B1D020ADBB2E2546B1DDBB2E0540320B9
:1074500000F0D6FEAB1D020ADBB2E254EB1DDBB23C
:10746000E054082000F0CCFE2B1C0833DBB2020AEB
:10747000E2542B1C2A1C0933DBB20A32E054D2B28C
:107480000023A3542A1C0B32D2B2A3542A1C0C3260
:10749000D2B2A3542A1C0D32D2B2A3542A1C0E32EB
:1074A000D2B2A3542A1C0F32D2B2A3542A1C1032D7
:1074B000D2B2A3542A1C1132D2B2A3542A1C1232C3
:1074C000D2B2A3542A1C14321335D2B2EDB20392B5
:1074D0006355CBE000230393664B9F4200D0C5E089
:1074E0003C2800D9C2E0082000F08AFE0721C7B27C
:1074F000301CFEF7E1FEC0B2B84202D8002F00D027
:10750000071C07237B43297A201C00930422594B34
:10751000FFF712FEC0B20390002F00D1A6E01E209C
:1075200000F07EFF0022039D049201230593049B3B
:10753000BB4247DA07AE0C22301C002103F0A7FF44
:10754000301C059900F02CFEB3786355F2786B1C63
:10755000DBB2E2543388AA1C190AD2B2A154EA1C45
:10756000D2B2A3542A1D0023D2B2A35431796A1D8A
:10757000D2B2A154AA1DD2B2A354EA1DD2B2A354CE
:107580002A1C0832D2B2A3542A1C0932D2B2A35404
:10759000291CB2680A31100EC9B26054291C0B3183
:1075A000100CC9B26054291C281C0D310C30160A6D
:1075B000C9B2C0B226546254049A0E350132EDB2FB
:1075C0000492B3E70E235F43039AD719FFB20397E0
:1075D00000F054FF4AE0049A00230393102A45D197
:1075E000254B9F4218D1EB7B232B3FD12B7C432B88
:1075F0003CD16B7C4C2B39D1AB7C532B36D11E202C
:1076000000F00EFF00F036FE00F038FF297A201C53
:107610000096049A3B1C25E0184B9F4226D13B283C
:1076200024D843089BB21E20049300F0F9FE2F1CBF
:107630001037039A049B9A420DDA7978BB780902D5
:10764000C918387889B2012200F042FE039B043742
:1076500001330393EDE700F011FF084B297A201C5A
:1076600000961022FFF768FDC0B2039003980BB09C
:10767000F0BDC046DA07000098080000A20800002C
:10768000F8B5041CFFF7B1FC071C201CFFF7AFFC8A
:10769000061C201CFFF7B1FC0025042F19D1264B36
:1076A0009E4247D1062845D10C23A3723023E372B2
:1076B00023736373A373E3732374452363745223A7
:1076C000A374E3744F22637531232275A3750F25CC
:1076D00030E0102F2ED1194B9E422BD1E37BAB42D1
:1076E00028D1237C532B25D1637C652B22D1A37C0D
:1076F000742B1FD1E37C422B1CD1237D6F2B19D11E
:10770000637D6F2B16D1A37D742B13D1E37D6C2B7E
:1077100010D1237E6F2B0DD1637E612B0AD1A37E06
:10772000642B07D1E37E652B04D1237F722B01D11B
:1077300000F08CFC281CF8BDCC0B0000B80B00003E
:10774000F0B5041C85B008300190201CFFF74DFCFB
:10775000071C201CFFF74BFC061C201CFFF74DFCF0
:10776000051C0020012F32D10F2E00D98EE0731995
:10777000102B02DD1025AD1BADB201F077FC002708
:10778000AF421ADA07223A40FB10002A02D10198D0
:10779000C118CA70019A0333D3180293B8191B7821
:1077A000C0B2039301F032FC07233B40039A984098
:1077B000029B104318700137E2E7013DE817400FC4
:1077C0004519E8100123C0B26372C31832E0022FDA
:1077D00034D10F2E5AD87319102B02DD1025AD1B92
:1077E000ADB201F043FC0027AF421ADA07223A405B
:1077F000FB10002A02D10198C118CA70019A033304
:10780000D3180293B8191B78C0B2039301F0FEFBA2
:1078100007233B40039A9840029B1043187001379E
:10782000E2E7013DE817400F4519E8100223C0B216
:107830006372431C0430A372C0B227E00F2F25D11E
:107840000F2E23D87319102B02DD1025AD1BADB2FE
:107850000027AF420FDA019AFB10D318DB7907211A
:1078600039400B41B819191C0123C0B2194001F06D
:10787000C5FB0137EDE701F0D3FB0F236372002353
:10788000A3722B0AE67223736573062005B0F0BD60
:10789000F0B58FB0071CFFF7A8FB0390381CFFF76B
:1078A000A6FB061C381CFFF7A8FB039A0024042A39
:1078B00000D09AE04E4B3D1C08359E4216D1397AD5
:1078C000331C0090281CFFF737FC04AEC7B2211C04
:1078D000301C202203F0DBFD301C00F065FB325D24
:1078E000EB191A550134202CF9D137E0B6231B01CE
:1078F0009E4219D1397A331C0090039A281CFFF755
:107900001BFC04AEC7B2211C301C0A2203F0BFFDD1
:10791000301C00F0FBFA325DEB191A5501340A2CC9
:10792000F9D13C1C0A345FE0324B9E4219D1397ABE
:10793000331C0090039A281CFFF7FEFB04AEC7B26D
:10794000211C301C202203F0A2FD301C00F054FB4F
:10795000325DEB191A550134202CF9D13C1C20342E
:1079600042E0254B9E4222D1397A331C0090039A83
:10797000281CFFF7E1FBC6B2B31CDBB20393731CF8
:10798000DBB2062204AFAC55381CEA54211C20227D
:1079900003F07DFD381C00F03DFB039AAB183A5D07
:1079A0001A550134202CF8D1341C22341CE0B923A0
:1079B0001B019E4219D1397A331C0090039A281C6E
:1079C000FFF7BAFB04AEC7B2211C301C282203F01B
:1079D0005EFD301C00F02AFB325DEB191A550134B4
:1079E000282CF9D13C1C2834E4B2201C0FB0F0BD87
:1079F0004F0B0000680B00007C0B0000F0B5051C6D
:107A000099B00835071C0395FFF7EFFA051C381CE1
:107A1000FFF7EDFA061C381CFFF7EFFA041C032DE4
:107A200000D096E0D948301883B204903F2B72D82A
:107A3000231C2B409BB2002B00D0E6E1331C2B40D3
:107A40009BB2002B00D0E0E1049D2B19402B02DDFE
:107A5000CF4CA41BA4B2397A331C009403980322A0
:107A6000FFF76AFB049DA408C0B2A4B2AD1006944F
:107A700005900495041C0026069DAE4245DA049844
:107A80003518EDB2281C01F03FFCC0B20790281C4D
:107A9000FFF780FAC0B2012811D0022807D1281CB4
:107AA00003F0FAFB071C281C03F0F8FB0BE003288B
:107AB00007D1281C01F02AFA071C012003E0022745
:107AC00001E00020071CBF03039D621C0799BFB2A1
:107AD0000023D2B238432B5580B2A954A21CD2B293
:107AE000010AA954E21CD2B2A854221DD2B2AB544E
:107AF000621DD2B2AB54A11DE21DD2B2C9B208348C
:107B00006B54E4B2AB540136B6E7EB00059DEB18BD
:107B1000DBB20493A1E19F4B002004909E4200D071
:107B20009BE1012C00D970E1397A2A1C0094331CA6
:107B30000398FFF701FB0499C0B2039D831CDBB2DD
:107B40002954441C0493FFF7B7F9E4B22C192070B0
:107B500083E100220492102D00D07EE18B4BF318BC
:107B600005939BB23F2B00D98FE00323184200D02E
:107B70004BE11E4200D048E1059D2B18402B02DD51
:107B8000834CA41BA4B2397A331C009403981022AE
:107B9000FFF7D2FA059DC0B2AD10A30804909BB2C6
:107BA0000C9500203D1C0B931035079007990B9AFC
:107BB000914200DB24E107990C9AA8788B18DBB27C
:107BC00005932B7801310A936B7809909B090598EE
:107BD00007910893FFF7DEF90A990D90089A059826
:107BE000099BFFF76FF9002840D00D99CBB2022B0B
:107BF00022D10899099A059803F04CFB069BE97875
:107C00001A02120A2B79090692B21B040A431A437C
:107C1000069206986B79604A1B0202401A4306924C
:107C20000699FF22AB7991430A1C1A4306920598E4
:107C3000069901F056FA26E0032B0CD10899059815
:107C4000099A01F069F9A97905984B1E9941C9B2C1
:107C500001F0D4F917E00A9A012A14D1A9790598FC
:107C60004B1E9941C9B201F03EFA0CE01E2000F013
:107C7000D7FB0598032203021A430121022000F0DA
:107C800039FB00F0FBFB083590E7424B9E4234D1B4
:107C9000012800D9B9E0397A2A1C0090331C0398D6
:107CA000FFF74AFA3D7CC0B26B1E9D41EDB20490D5
:107CB000002D10D101F019FA01F00FFA01F0F2F9DC
:107CC0001E2000F0ADFB291C2A1C0C2000F012FB2A
:107CD00000F0D4FB0DE0FFF7EFF8002809D103F026
:107CE000D7FA01F0FCF901F021F901F099F901F05E
:107CF000FEF9281CFFF7DAF87FE0284B9E422ED1D0
:107D0000052800D981E0397A2A1C0090331C039899
:107D1000FFF712FAC0B20490F87B012801D00028C6
:107D200001D101F04DFA3B7C012B02D1002001F082
:107D3000EFF97B7C012B02D17820FFF70FF81E2092
:107D400000F06EFB012100220D2000F0D3FA00218B
:107D50000A1C022000F0CEFA00F090FB4DE0104B20
:107D60009E421FD1012850D8397A2A1C0090331C1A
:107D70000398FFF7E1F9C0B20490387C012801D0E4
:107D800000283AD101F0C4F937E0C04690E8FFFF7F
:107D9000B0170000FC170000FF00FFFF38180000BC
:107DA00042180000344B9E4212D101282DD8397A56
:107DB0002A1C0090331C0398FFF7BEF9C0B2049050
:107DC000387C012801D0002817D101F0F9F914E01E
:107DD0002A4B9E4211D1012817D8397A331C0090C2
:107DE0002A1C0398FFF7A8F9C0B20490387C43B26C
:107DF000002B32DDFEF7B2FF2FE0214B9E4204D074
:107E0000204B9E4229D1112C01D9002032E03E7C2A
:107E10000023039DEA18527A0EAD5A550133062B02
:107E2000F7D1397A10220094164B0398FFF784F9A2
:107E300010ACC0B204900021201C202203F027FBCC
:107E4000201C00F0E7F8062E09D10023E15CEA5C73
:107E5000914204D10133062BF8D104980AE01E2088
:107E600000F0DEFA02200121021C00F043FA00F0CB
:107E700005FBF2E719B0F0BD4318000044180000FC
:107E8000451800009C180000F0B585B0061CFFF7EF
:107E9000ACF8071C301CFFF7AAF80390301CFFF762
:107EA000ACF80025042F24D1134B039A9A4220D119
:107EB00003281ED1341C083400903A1C039B317AED
:107EC000201CFFF739F9C0B2431CDBB21122255444
:107ED000E254831CDBB2E554C31CDBB22222E25421
:107EE000031DDBB2E554851D0530C0B23323EDB26E
:107EF0002354281C05B0F0BDA406000008B501F00D
:107F00008FF901F0A5F9002008BDEEEEF0B5041CD4
:107F100085B0244800F0D6FC051C431C12D14E232A
:107F200023704F2363705423A3705623E3704123BF
:107F300023714C2363714923A3714423E37100230C
:107F400023722BE0002808D1302323700123002264
:107F5000E25401330A2BFAD120E00927281C0A2118
:107F6000FEF7A0F901AEB955281C0A21FEF756F913
:107F7000051C013FF2D200231A1CF15C002902D03B
:107F8000002A02D1DAB2002A02D0981A30312154E4
:107F900001330A2BF1D19B1A0022E254002005B0D4
:107FA000F0BDC046F0FD000010B500230022C25411
:107FB0000133202BFAD10E4B9B5C002B01D1D2B2A6
:107FC00004E083540132202AF5D1002200239918BD
:107FD00020290BDC0749595C002902D1C3189954A8
:107FE00004E08418E1540133142BF0D1002010BDBB
:107FF00034F0FF1F08F0FF1F0023054AD25CC25473
:10800000002A02D00133202BF7D100207047C04650
:108010003FF0FF1F002304499A008A58C2540133DD
:10802000062BF8D10020704780F8FF1F38B5051CDB
:108030000024054BE018800000F044FC2855013472
:10804000132CF6D1002038BD063F000007B5084BC1
:1080500001A901220748019300F0BEFBBFF34F8F37
:10806000054A064BDA60BFF34F8FC046FDE7C046B6
:10807000BBBBBBBB04FE00000400FA0500ED00E042
:10808000012310B5994226D8144C0201A31858793F
:1080900088421FD000290AD11B79012B14D1104B23
:1080A0001868013018600F4B186801380BE001297F
:1080B0000AD11B79012B07D1094B186801381860C8
:1080C000084B186801301860A01801230373417130
:1080D000022300E00323181C10BDC04608F8FF1F50
:1080E00034F1FF1F40F1FF1F10B50B4B00011A18B0
:1080F00094781A1C8C420BD0002903D1074B1C68C2
:10810000013404E0012903D1044B1C68013C1C60CC
:1081100010188170002010BD08F8FF1F24F1FF1F08
:1081200070B51B4C00251B4B1B689D422ED2E67878
:108130002379B3421ED0012E0AD16379012B01D1DC
:10814000154B02E0002B10D1144B1A6801320BE0E2
:10815000002E0AD16379012B01D10F4B02E0002BD5
:1081600003D10E4B1A68013A1A60281C0021FFF750
:10817000BBFF2671237B002B05D0281C0021FFF7B5
:10818000B3FF0023237301351034CCE7002070BD0A
:1081900008F8FF1F38F1FF1F40F1FF1F34F1FF1FE8
:1081A000F0B5134C002901D000232360114A236845
:1081B0001568114A126852199446634516D2AB42AB
:1081C00012D20E4E1F01BA19917800290CD181707C
:1081D000BD5B013305801579C57055792360057144
:1081E00092688260081C02E00133E6E70120F0BDDE
:1081F00028F1FF1F38F1FF1F30F1FF1F08F8FF1FA4
:1082000000B50023082825D8FDF7FEFF050A0C0E4F
:108210001A1C1E202200104B1A68104B1B680DE020
:108220000D4B16E00D4B14E00D4A0E4B1B68106809
:108230000D4AC31811680D4A5B1812689B1809E0B3
:10824000084B06E0064B04E0084B02E0064B00E05A
:10825000074B1B68181C00BD38F1FF1F30F1FF1FD2
:108260002CF1FF1F34F1FF1F3CF1FF1F40F1FF1FF6
:1082700024F1FF1F10B50024084B1B689C420BD251
:10828000074B2201D3181B79012B03D1201C00219D
:10829000FFF72AFF0134EFE7002010BD38F1FF1F80
:1082A00008F8FF1F10B500280AD1074B1A68904242
:1082B00006D0064C0301E35A8B4203D00130F6E7A7
:1082C0000120404210BDC04638F1FF1F08F8FF1FD3
:1082D00038B5051C141CFFF7E5FF431C07D001232C
:1082E0009C4205D8002D03D1211CFFF7FDFE031C85
:1082F000181C38BDF7B5071C01200091161C8142DF
:1083000068D8391C0020FFF7CDFF411C62D0324DE8
:10831000009A04012B19012A02D000229A6055E02C
:108320009B6801930F2F39D004D8022F05D00E2F50
:1083300025D042E0323F0A2F3FD8F3B2032B05D0BD
:10834000042B0CD09E1E73425E4109E00199360A4F
:10835000042208362B190A43F6B29A6000E003267D
:1083600001210A1C2B19B240161C9A6816439E6004
:1083700002239E4300D00021FFF782FE1DE0022E63
:1083800004D0F31E5A4253415B0000E0009B0121E0
:10839000019899402A190143916000E00023012EC1
:1083A00003D0022E02D1012300E0002301212A196B
:1083B00099400B1C91680B4393602B191A1C019870
:1083C0009B680832984201D00123137100992C193F
:1083D000E1700020FEBDC04608F8FF1FF8B501247B
:1083E000051C0E1C171EA74213D8FFF75BFF0130B8
:1083F0000FD1002D0DD1084A1368052B09D007496C
:10840000180109188C704F7104491B1946521360EA
:108410002C1C201CF8BDC04638F1FF1F08F8FF1FB8
:10842000F7B5019000F0C4FA134C051E02D000F01D
:10843000CBFA17E000F0C8FA019E0A235E432F1C16
:108440002368002B0ED101225242D317B6185F4188
:1084500000F0BDFA642000F01FF800F0B5FA331CFC
:108460003B43EDD123680125002B01D00025256079
:1084700000F0ADFA281CFEBD1CF0FF1F38B500F05F
:1084800097FA044C012500F09FFA256000F09FFA4E
:10849000002038BD1CF0FF1F0A4B13B5041C0A490D
:1084A0001868FDF7BBFE0B216043FDF7B7FE002304
:1084B0000193019B834203D2C046019B0133F7E73E
:1084C00013BDC04670F0FF1F40420F00084910B5B1
:1084D0000C68002C0BD007498A4204D006498A4216
:1084E00002D1012200E00022181C111CA04710BD7F
:1084F00044F1FF1FEA030000EB03000008B5034846
:108500004E21034A034B02F04DFFC046E2C6000075
:10851000BCC6000008C7000010B5032805D90748ED
:108520006C21074A074B02F03DFF074B3F221C5CC2
:1085300094430A4022431A5410BDC046E2C60000CC
:10854000D1C6000008C700000010024008B504486A
:1085500001F068FB034801F07BF9002008BDC0462C
:108560000010024000800040F8B5041C8078032809
:1085700000D97EE0E278404B9200404E404F414DA2
:108580009958FDF741FE02203C5C0020FFF7C4FF34
:10859000A378032B01D9FFF7B1FFF15C80220A43D6
:1085A000F254A27838491001381801F0BFF90123BC
:1085B0002B60C0239B00E8582179FF22890190435A
:1085C0001140021C37E00120FFF7A6FFA378032B20
:1085D000E1D8F15C80220A43F254A2782A491001C2
:1085E000381801F0A3F902232B602179C0238901F7
:1085F000FF249B002140E8580902244A1AE0022087
:10860000FFF78AFFA378032BC5D8F15C80220A43C9
:10861000F254A2781C491001381801F087F904239C
:108620002B602179C0239B008901FF242140E85859
:10863000174A090402400A43EA5000201AE00320C6
:10864000FFF76AFFA378032BA5D8F15C80220A43C9
:10865000F254A2780C491001381801F067F9082388
:108660002B60C0239B00EA58217912028907120A65
:10867000E1E7FF2040B2F8BD34C70000001002401F
:1086800048F1FF1F00E100E000800040FF00FFFF15
:10869000FFFF00FF13B50923C356041C042B21DC84
:1086A00008228256042A1DDC511C03D00F491201F6
:1086B0008A1800E00022591C03D00C491B01CB187A
:1086C00000E00023217802290CD100920193084890
:1086D000084AE368084902F079FB6268074B00200A
:1086E0001A6000E0FF2040B216BDC04648F1FF1FEF
:1086F00000C00640CD84000088F1FF1F44F1FF1F39
:1087000037B543680093037A01930378022B12D1A3
:10871000457A002D06D1094809496A4602F098FBBE
:108720002C1C09E00024012D06D105496A460348A6
:1087300002F0FCFB00E0FF2460B23EBD00C006403A
:1087400088F1FF1F08B501F039FA08BD08B501F03E
:108750003DFA08BD08B501F041FA08BD08B501F0C1
:1087600045FA08BD70B5164C00213422201C02F0D9
:108770008EFE201C01F0F0FA0125061E1ED10421F8
:10878000104A201C01F092FB291C0F4A201C01F00A
:108790008DFB311C0D4A201C01F088FB201C0C496C
:1087A00001F016FB0225002808D10A4B82000025A3
:1087B000D550013080235B009842F6D1281C70BD53
:1087C000ACF1FF1FE8F5FF1FE4F1FF1FE0F1FF1F11
:1087D00020F0FF1FE8F1FF1FF7B5151C002917D087
:1087E000002317E001251D405D1900F0EDF82F4E24
:1087F000AD006D4231682E4B0195CA182D4D01997F
:10880000281C521A2C4B211C01F09EFB002828D05A
:10881000012049E0AB4204D09A00121812680133DB
:10882000F8E703230340F3D1244A146801341460A9
:10883000840AA4029E0032191768214A0133B750F6
:10884000171C802252009342F4D1001B80080023A1
:10885000AB42C7D09E001A188E599200BE50013309
:10886000F6E733681249281C5A18019B211CD21ABA
:10887000012301F0CFFA0028CAD1281C3368211C3B
:108880003A1C01F0ABFB051EC2D100F0A0F8281C79
:1088900083001A191268FB589A42B9D1802301301B
:1088A0005B009842F4D10020FEBDC046E0F1FF1FFE
:1088B00000FCFFFFACF1FF1F6B66656BA8F1FF1FAB
:1088C000E8F1FF1F00687047024B0360002343601C
:1088D0007047C046A86100000020704778230370ED
:1088E0007047EEEE7FB5051C0C1C684601F0EEFDEE
:1088F000237869468B8001234B70CB70234B00207B
:10890000AA00D6580872C88000F0A2FE6946021C70
:10891000301C01F033FD002D11D0012D1ED1A168B6
:108920001B4BC22292008801FF219D580840194923
:108930000002294001439950802292000DE0144B1F
:10894000C2229200A1689D588801FF218D430840F2
:10895000291C01439950802252001A600E4D0021BB
:10896000281C242202F093FD301C291C626800237D
:1089700001F0C8FD301C291C202201F0FFFD2278E7
:10898000064B00201A7004B070BDC04658C70000E6
:1089900000E100E0FF00FFFF58F8FF1FECF5FF1FAC
:1089A00008B501F023FE08BD08B501F02BFE08BD97
:1089B00082B0EFF305823F23134001930198431ED9
:1089C0009841C0B202B0704772B60020704762B6DC
:1089D00000207047242108B50248FF31024A034BAA
:1089E00002F0E0FC60C700008FC7000085C70000F0
:1089F00008B5074B80211A680A431A60054B1B68AB
:108A0000002B00D09847BFF34F8FBFF36F8F08BD87
:108A100000000440F4F5FF1F73B5061C68460C1CEB
:108A200001F04CFE002369460B70CB700F2C03D96C
:108A300001220A718B7101E00B718C710120032EF0
:108A40001BD8301C0D4DFDF7DFFB020406080C207F
:108A500004E0132002E0072000E00A2000F0F8FD07
:108A60000F2C01D9286001E0E04028606B460448E3
:108A700069465E7101F0E6FD002076BDF0F5FF1F4E
:108A800000000440EEEEEEEE10B51C1C164B081C68
:108A90001A60164B00211A680B1CFDF78FFC114B56
:108AA0000F4AFDF76BFC002801D1FFF793FF104B35
:108AB000013898601A6880218A4340210A431A606D
:108AC0000C4AC7239B00D058FF21A40188430C40C7
:108AD0000443D45080235B050020136010BDC046C2
:108AE00040420F0000000000F4F5FF1FF0F5FF1FEB
:108AF0000000044000E100E0044B80211A680020DF
:108B00008A4301210A431A607047C04600000440AE
:108B100010B50C4C012322691340012B05D12361B0
:108B2000094B1B68002B00D09847226A0123134091
:108B3000012B06D1034A1362044B1B68002B00D0A3
:108B4000984710BDFC700340F8F5FF1FFCF5FF1FB0
:108B500013B5002401A903480C7001F0E1FD201CAD
:108B600016BDC0460070034070B5051C0E1C1C1CD1
:108B7000002823D001284AD1294B02201A6000F096
:108B800067FD0021321C0B1CFDF718FC234B224A09
:108B9000FDF7F4FB234B244A58615969A401116085
:108BA000DA6902210A43DA61204BC5228A409D58C6
:108BB000FF210C4021041E482C1C20E01D4B0220EC
:108BC0001A6000F045FD321C2B1C291CFDF7F6FB3A
:108BD000124B114AFDF7D2FB124B134A58605968E9
:108BE000A4011160DA6802210A43DA600F4BC52242
:108BF0008A409E58FF210C400D482104341C04403B
:108C00000C439C508022D2031A60002000E0012017
:108C100070BDC046C046C04640420F000000000084
:108C2000FCF5FF1FFC7003407CF8FF1F00E100E033
:108C3000FFFF00FFF8F5FF1F012808D8054B0001D2
:108C4000C018C36801229343C360002000E00120E4
:108C50007047C046FC70034001280BD8064B00014A
:108C6000C018C26801239A43C260C2681343C3603C
:108C7000002000E001207047FC7003401FB501A8F0
:108C800001F0D2FD022000F0E3FC01A9021C024821
:108C900001F02EFE05B000BD006007407FB50E4B11
:108CA0008000C65801AC301C0D1C01F0D3FD201C07
:108CB00001F0BAFD2B680220A3606B79E3702B7979
:108CC000A37000F0C5FC211C021C301C01F010FE3A
:108CD000002004B070BDC046A4C700001FB50293B9
:108CE000054B80000091C0586946019201F092FE48
:108CF000002005B000BDC046A4C7000010B5012487
:108D0000A04202D8FFF730FF0024201C10BD08B598
:108D10000123984202D8FFF78FFF0023181C08BDDB
:108D200008B50123984202D8FFF796FF0023181CCC
:108D300008BDEEEE002901D1014B19707047C04605
:108D400000F6FF1F10B50B4C201C01F079FF282303
:108D500018420DD00F21084203D0201C01F076FFED
:108D600006E0054B1B68002B01D0984700E0E37933
:108D700010BDC04600C0064004F6FF1FE1235B02A1
:108D800003600922002303714371837183600273BE
:108D90008373704730B589B002AC0D1C201C01F004
:108DA00023FF2A6801230220A371E371029200F0DD
:108DB0004FFC211C021C214801F084FEAC7B002CDE
:108DC00027D0012C34D11E4B822109031B481C7073
:108DD00001F024FF1B4B8022D2011A60AA681A4BB3
:108DE00000251A606B461D705D709C701C716A4690
:108DF00007236846D370FFF7B7FB144B04A8436002
:108E000002230370FF230472C5604372FFF742FC24
:108E100010E00B4B8221094809031C7001F0FEFE93
:108E2000084B8022D2011A60AA68074B1A6001E041
:108E3000FF2000E0002040B209B030BD00C0064075
:108E400001F6FF1F00E100E004F6FF1F358D000072
:108E50001FB50D4B1B78002B0BD0012B0DD101A89A
:108E6000002343720223027241600370FFF748FC43
:108E700005E0064801F008FF01E0FF2000E00020C7
:108E800040B205B000BDC04601F6FF1F00C006405D
:108E900008B50B4B1B78002B06D0012B0AD1094BD0
:108EA0001B78002B00D0FEE7074801F0C9FE4306FF
:108EB000FAD501E0FF2000E0002040B208BDC04626
:108EC00001F6FF1F00F6FF1F00C00640014BD879D6
:108ED000C0B2704700C0064013B5684600F04AFCB7
:108EE00000246A4603230448694654705371D470C1
:108EF00000F05EFC201C16BD0070044008B502485E
:108F000000F084FC08BDC04600700440014B185CB2
:108F10007047C04624F0FF1F031C01200F2B02D80E
:108F2000014A0020D154704724F0FF1FF0B50024FF
:108F300087B02B4D01AA635D022B02D10123537030
:108F400002E0012B01D100231370264B26491B5D43
:108F5000264E095D9B009E59880030180768244EF4
:108F600001343E4080277F003E4306602148185868
:108F700001F088F8102CDCD10023EA5C02A9023A47
:108F8000504242415A540133102BF6D16C46002214
:108F900002342270101C131C174D0126ED5CAE40EC
:108FA000072B05DCB243CE5CAE403243D2B204E0C4
:108FB000B043CE5CAE403043C0B20133102BEBD196
:108FC0006D46E870211C03350320227000F0D8F9AB
:108FD000291C042000F0D4F9002007B0F0BDC046E1
:108FE00024F0FF1FC0C70000F4C70000ACC700009A
:108FF000FFF8FFFFE0C70000D0C70000024B800071
:10900000C15000207047C04648F6FF1F034B800048
:10901000C058431E9841C0B27047C04608F6FF1FB3
:1090200010B500230C4A9A5C022A10D10B4A0C4856
:10903000995C0C4A89008A580B499C00595C245859
:1090400001208840002C01D0906000E05060013386
:10905000102BE7D1002010BD24F0FF1FC0C7000077
:1090600048F6FF1FE0C70000F4C700000023094ACC
:109070000120995C084A89008A581169074A9A5C5C
:10908000D140074A8843990001338850102BEED114
:1090900000207047C0C70000E0C70000F4C7000010
:1090A00008F6FF1F002306499A000020505005498A
:1090B0005050054A022199540133102BF3D17047C7
:1090C00048F6FF1F08F6FF1F24F0FF1F08B5FFF743
:1090D000E9FFFFF7A5FF002008BD00207047002032
:1090E0007047002070470020704700207047002024
:1090F0007047EEEE13B5012301AA002403480221B4
:109100001370547000F0BEFF201C16BD80F00F409D
:10911000012807D0002809D002280AD1054B0422D3
:10912000DA6006E0034B04225A6002E0014B04229D
:109130009A60704780F00F4013B5012301AA002404
:1091400003480D211370547000F09CFF201C16BDC5
:1091500000F00F40012804D18022054B92015A6093
:1091600005E0002803D18022014B92019A607047EC
:1091700000F00F4013B5002401AA03480C2114701D
:1091800000F080FF201C16BD00F00F4013B5012336
:1091900001AA0024034802211370547000F072FFEA
:1091A000201C16BD40F00F4008B5FFF7A3FFFFF7E6
:1091B000C3FFFFF7DFFFFFF7E9FF002008BDEEEE7A
:1091C000012803D1044B04225A6004E0002802D194
:1091D000014B04229A60704740F00F4007B501230D
:1091E00001AA044804211370537000F04BFF0020C3
:1091F0000EBDC04600F00F4001280BD0002805D05E
:1092000002280AD1054B1022DA6006E0034B102237
:109210005A6002E0014B10229A60704700F00F4044
:1092200010B5FC242402201CFFF74CFB054B064A1A
:10923000E3189B181860054B04349C42F3D10020BE
:1092400010BDC04680F8FF1F0004FFFF18FC00009F
:1092500070B5FC2086B00002FFF734FB07280BD066
:10926000264C00212022201C02F011F9201C244948
:1092700002F0D1F901203EE0FE200002FFF722FBC0
:10928000041C411C36D0684600210A2202F0FFF877
:10929000002C23D00926201C0A21FDF703F803AD7A
:1092A0007155201C0A21FCF7B9FF041C013EF2D2C3
:1092B00000231A1CE95C002902D0002A02D1DAB28C
:1092C000002A03D0981A30316C46215401330A2BFE
:1092D000F0D19B1A69460022CA5402E030236A4644
:1092E0001370064C0749201C02F088F9201C6946BF
:1092F00002F084F9002006B070BDC0463FF0FF1FA9
:1093000004C8000009C8000008B5064BC01880005A
:10931000FFF7D8FA431E0020032B01D8024AD0568B
:1093200008BDC046093F00000BC8000013B501ACE2
:109330000123221C054803212370637000F0A2FE64
:1093400003481221221C00F09DFE13BD40F00F4087
:1093500000F10F4001290ED8032802D1064B082244
:1093600004E0042807D18022044BD202012901D154
:109370009A6000E05A60704740F00F4000F10F40E3
:10938000F8B50F4E041C0F1C305C0E49FFF786FC2D
:10939000201C0121FFF7DEFF00250B4B1B5DAB42BC
:1093A00008D97919305D002201230135FFF796FCB9
:1093B000EDB2F2E7201C0021FFF7CCFF0020F8BD42
:1093C00088F6FF1F60F0FF1F68F0FF1F38B5064CDE
:1093D000022565600020FFF73BFD0020FFF758FDE8
:1093E000A560002038BDC046C0F00F4008B5002081
:1093F000FFF76CFD08BDEEEE37B5064D01AA281C3F
:10940000012100241170547000F03CFE0223AB6077
:10941000201C3EBDC0F00F4010B500200C1CFFF713
:10942000EBFF211C0020FFF7B5FC002010BDEEEE85
:10943000154B164930B51A1E8A420CD0144C002325
:10944000A408A34204D098000D5801331550F8E742
:10945000104B9A6001E00F4A93600F4A0F490023B6
:10946000891A8B4204D0D45C0D48C4540133F8E708
:109470000C4A0D490023891A8B4204D0D0180024CD
:1094800004700133F8E730BD005D0000005D0000AE
:109490000000000000ED00E054D2000030D30000D6
:1094A00000F0FF1FE0F0FF1FA4F8FF1F024A88230F
:1094B00000215B01D150704700700440084B02222C
:1094C0001878104004D19A791207920F012A05D119
:1094D0005A7801231A40034B9200D0587047C04677
:1094E000004006409CC8000008B5084B00201B78CF
:1094F0005BB2834209DA064B1868002805D105489B
:109500008921054A054B01F04DFF08BD005006407A
:109510009CF8FF1F50C80000A4C8000075C80000D8
:10952000124B10B51C682403A40F022C12D0032C7C
:1095300003D00020002C17D102E0FA20800013E0B5
:10954000FFF7D2FF8022031C1202201C93420BD192
:10955000181C09E0064B1868002805D105489D2114
:10956000054A064B01F01EFF10BDC04600700440C6
:1095700098F8FF1F50C8000023C8000081C80000F1
:10958000074B4168074A10B599500178C022120371
:1095900089041C681140044A22400A431A6010BD25
:1095A0000070044044100000FFFFF3FF38B5074B84
:1095B0001D7A1C7EFFF782FFEDB20723E4B22D0770
:1095C0006D0F1C402C19E04038BDC04600400640DD
:1095D000064B1A7E52B2002A03DB9B791B079B0FB6
:1095E00001D1034800E000207047C046004006401B
:1095F000006CDC0210B5104CA3791B079B0F012BEC
:1096000006D0002B02D0022B09D013E00B4812E049
:10961000FFF754FF237A1B075B0FD8400BE0084B82
:109620001868002807D18C2106484900064A074BD4
:1096300001F0B8FE002010BD00400640006CDC02C6
:109640009CF8FF1F50C800000FC8000075C800003C
:1096500038B5132831D8FCF7D7FD0D0D1430143070
:109660003024273030302A303030302D2D0AFA2087
:10967000800023E0FFF7BEFF114B124AD158090FBB
:109680000BE0104D0E4CFFF7B5FF2959090F0131C2
:10969000FCF7C4FD29594903490F0131FCF7BEFD10
:1096A0000CE0FFF73DFF09E0FFF71EFF06E0FFF7C4
:1096B0007DFF03E0FFF78CFF00E0002038BDC046CF
:1096C000441000000070044010B5002806D1442169
:1096D0002448FF31244A254B01F064FE244B9A793B
:1096E0001207920F012A1FD0C2780E2152000A40A1
:1096F0001A72047941790722C90122400A43D2B281
:109700001A765C788178012294431140221C0A4326
:109710005A700278417892010A43D2B21A7059788D
:109720000278480711D415E00278012ADCD1597873
:109730000A4081788A42D7D019783F220A401A70AD
:109740009A791207920FFBD1CEE7022A02D19979BA
:109750008807FCD599790907890F8A42FAD1002038
:1097600010BDC04650C8000039C800008EC80000B7
:109770000040064010B5041E05D10A4827210A4AB8
:109780000A4B01F00FFE0021062201F080FE0023AB
:1097900023700122A370E37023710323627063714D
:1097A00010BDC046BBC80000E5C80000DEC8000010
:1097B00010B5002905D112484B21124A124B01F075
:1097C000F1FD4A78022352001A404B790C249B0089
:1097D00023401A430B7810241A438B781B01234033
:1097E0001A43CB7820245B0123401A430B79FF21D5
:1097F0009B010B401A4388235B01C25010BDC04639
:10980000BBC80000FAC80000DEC80000EFF31082F9
:1098100072B6044B5521C150AA21C15082F3108861
:109820007047C0460411000008B5054B984205D0AA
:1098300004484121044A054B01F0B4FD002008BD55
:109840000080004051C90000A6CA000074C9000091
:1098500008B5FFF7E9FF034B8022196852000A435D
:109860001A6008BD4080044008B5032905D90A489C
:109870006D210A4A0A4B01F095FD09014018FC30A0
:10988000C26880235B041343C3600023436083608A
:10989000C360044B036108BD51C9000003C9000047
:1098A00096C900008000002038B5032904D91A4861
:1098B00093211A4A1A4B05E0002A05D11648174A87
:1098C000184B942101F06EFD090140181168FC301D
:1098D000416053688360D1680B021B0AC360D17A70
:1098E000C023957ADB02490419408023ED041B0351
:1098F0002B4004690B430C492140547A0B43C0218F
:109900002405890321400B43117A80228905D20363
:109910000A401343036138BD51C9000014C9000057
:1099200096C90000BFC90000FFFF81FF70B5041C8D
:109930000E1C151C002804D11448E721144A154BAD
:1099400005E0032A05D91148114A134BE82101F01B
:1099500029FD1022002101F09AFD25712660301C9E
:10996000FFF762FF800045190C4BAA00D4500C4B46
:109970004519EB5C5AB2803206D01F2213400122F7
:109980009A40131C074A136070BDC04651C90000BD
:10999000F9CA0000CEC9000096C9000090F6FF1F6A
:1099A0004DC9000000E100E0F7B501930AAB041CCB
:1099B0000091161C089D1F78002805D18821304889
:1099C0004900304A304B07E0009B002B06D11221A2
:1099D0002B482C4A2D4BFF3101F0E4FC019B002B5E
:1099E00005D1892126484900264A294BF4E7531E10
:1099F000012B07D9042A05D014212148FF31214A1F
:109A0000244BE9E76B1E012B07D9042D05D08A21D1
:109A10001B4849001B4A204BDEE7201C0021102276
:109A200001F035FD009B2360019B6360099BE360AF
:109A3000022E03D0042E03D0012E03D1667201E062
:109A400000236372022D03D0042D03D0012D03D116
:109A5000E57201E00023E372012F0AD0002F05D048
:109A6000022F0BD101232372002306E0012323726E
:109A700003E000232372A77200E0A372F7BDC04683
:109A800051C90000B6CA0000BFC90000DDC900000E
:109A9000EDC90000FEC9000037CA000008B5002863
:109AA00006D158210448FF31044A054B01F07AFCE5
:109AB0008160C26008BDC04651C9000096CA00005E
:109AC000CEC90000F8B5041C0E1C171C002805D1D7
:109AD000B6211B4849001B4A1B4B06E0002906D152
:109AE0006E211748174A194BFF3101F05BFC2179B1
:109AF00000680B01C318FC33DB688025AD041D40F2
:109B00001CD1FFF7B1FE20682179321CFFF7CCFE93
:109B1000281CFB0713D522792368032A05D956216F
:109B20000B48FF310B4A0C4BDFE712019B18FC334B
:109B30001969802212060A431A6100E00748F8BD3D
:109B400051C90000E6CA0000CEC90000BFC900002C
:109B500073CA000038C9000008C70000881300005D
:109B600008B5002805D1CC210E4849000E4A0F4BFC
:109B700008E002790368032A06D9C4210C480D4A7B
:109B80000D4BFF3101F00EFC12019B18FC33D9681C
:109B9000802252040A43DA608368002B01D0C16836
:109BA000984708BD51C900002AC90000CEC900006D
:109BB00073CA0000CACA000008C7000008B5024BFB
:109BC0001868FFF7CDFF08BD90F6FF1F08B5024BE0
:109BD0005868FFF7C5FF08BD90F6FF1F08B5024B98
:109BE0009868FFF7BDFF08BD90F6FF1F08B5024B50
:109BF000D868FFF7B5FF08BD90F6FF1F08B5054B05
:109C0000984205D004483B21044A054B01F0CAFBA9
:109C1000002008BD001002400ACB000055CB000018
:109C200030CB000008B5FFF7E9FF034B02211A68AB
:109C30000A431A6008BDC0463C800440002806D094
:109C4000C369002B05D01B68022B02D103E004205E
:109C500002E06D2000E000207047EEEE10B50C4CE5
:109C600070232370FFF7EAFF00280FD1094B201C57
:109C70001B68984723786720DBB29A0606D46820D1
:109C8000DA0603D40120184000D0692010BDC04678
:109C900000000240E0F6FF1F30B5041E11D0081C82
:109CA0001043013B03406520002B0BD12568662043
:109CB000A94207D389186268AD18A94202D8181CB6
:109CC00000E0042030BDF8B5061C0F1C141C042550
:109CD000002816D0002A14D0101C0021202201F0E8
:109CE000D6FB33687068FF1AF36827606360317AC7
:109CF000FCF794FAE56025616561A561E561A06006
:109D00000025281CF8BDEEEE38B5002819D0C4692E
:109D10000420002C16D065680B49281C0C2201F089
:109D2000ADFB0A4B01351D60A5680949281C1C22A2
:109D300001F0A4FB074B01351D60022323600020C6
:109D400000E0042038BDC04686CB0000E0F6FF1FCF
:109D500092CB0000F0F6FF1F38B5041E2AD0164B38
:109D6000164AD3581B011B0F0F2B04D0144A5B005B
:109D70009B5A9B0201E080231B0263600123237234
:109D800080230025DB002560E3606561A561201C60
:109D9000FFF754FFA84209D00A4B0B4AE3615A600F
:109DA0000A4A201C1D609A60FFF7AEFF0020206267
:109DB000606200E0042038BD4C10000000700440D8
:109DC00068CB0000E4F6FF1FF4F6FF1FA0F6FF1FAC
:109DD000002814D0002912D00A4B03229B78DBB252
:109DE0001A40022A01D1084B06E03F229343802B00
:109DF00001D1064B00E0064B0B60002000E0042080
:109E00007047C046000002403CC33CC3A55AA55A57
:109E1000A53CC35AF0B58DB00D1C141C04AA1F1C20
:109E20000290FFF750FF0298291C221C099BFFF7A4
:109E300033FF002833D1291C04AA0298FFF743FFFF
:109E4000069A049E534275421D406D420192B542EE
:109E500000D1AD183F02FF233B430393002C1DD0DC
:109E6000AF1BA74200D9271C0999381CFCF7D6F96B
:109E7000330280221B0A52041A430A4B00041A6060
:109E8000039B1843084B18600298FFF7E7FE002871
:109E900005D1019AE41BF619AD18DFE7201C0DB0BF
:109EA000F0BDC046040002400800024038B5051C61
:109EB000141C002827D0002A25D06A20092923D87D
:109EC000081CFCF7A1F90507090F111316181A1C35
:109ED000ED6815E06D6813E0297A6868FCF79EF973
:109EE00020600EE02B7A02E02D6809E00023236059
:109EF00007E06D6904E0AD6902E02D6A00E06D6A7B
:109F00002560002000E0042038BDEEEE10B5044BC3
:109F100080211C680348C9000A220123A04710BD04
:109F2000F0F6FF1F0C3000F010B50C1CFFF786FE9A
:109F3000002803D1012C01D1FFF7E8FF10BD08B5BF
:109F40000121FFF7F1FF08BDF0B58BB00F1C051C18
:109F5000161C02AA1C1CFFF7B6FE391C281C321C5A
:109F6000069BFFF799FE071C002F30D1194B6B2081
:109F70009C422CD1039B029C0193631E9E19301CB2
:109F80000199FCF78FF9002907D0301C0199FCF7E3
:109F900045F9019B461C5E43013E281C0021FFF74A
:109FA000C3FFB4420FD8230290221B0A12051A43A2
:109FB000094B281C1A60FFF751FE002802D1019BB3
:109FC000E418EEE7071C281CFFF7B9FF381C0BB09C
:109FD000F0BDC0466B66656B04000240F0B5061C20
:109FE0008BB00D1C141C1F1C0420002A42D002AA96
:109FF000301CFFF768FE291C301C3A1C059BFFF73C
:10A000004BFE051C002D35D1029A301C291C0092F4
:10A01000FFF78AFF002F29D0231D01932268164BDA
:10A020001A60059B042B04D1009A13021B0AC0225C
:10A030000BE0082B0DD1231C0833019362680F4BF2
:10A040001A60009A13021B0AE022D2041A430C4B36
:10A050001A60301CFFF702FE002806D1059B009A0B
:10A06000FF1AD2180092019CD4E7051C301CFFF7A0
:10A0700066FF281C0BB0F0BD080002400C00024037
:10A080000400024010B5002A05D10F485F210F4A95
:10A090000F4B01F087F914780123002C06D1426997
:10A0A0008B40191C131C8B4343610CE052788B408E
:10A0B000002A01D1836000E04360012243698A40A5
:10A0C000111C1943416110BDBBCB0000AECB000099
:10A0D000DEC8000008B5C378DA0602D483789A0691
:10A0E00001D5044B00E0044B1B689847BFF34F8F2A
:10A0F00008BDC0463CF7FF1F40F7FF1F08B5084BDF
:10A10000984204D0074B984203D1012007E0002079
:10A1100005E00548B921054A054B01F043F908BDA2
:10A1200000600640007006409FCC00007ECD00001D
:10A13000C2CC00004023194202D0827813438370BE
:10A140002023194204D0827950218A43134383711A
:10A1500070474023194202D082789A4382708B065E
:10A1600003D583797022934383717047031CC078B1
:10A170009A79C0B2510602D58022D20110439B7950
:10A18000DA0602D580235B0118437047F0B5051C41
:10A1900085B00C1E05D174487449754A754B01F0A1
:10A1A00001F96E460F360022327033780133DBB28C
:10A1B0003370FFF7DBFF231D87B201937A0402D4CB
:10A1C000FB042CD51CE0AB7940221343AB71002279
:10A1D0000223EA70EB702378002B0ED0002222615C
:10A1E0002270A269202323711A4206D0E369002B52
:10A1F00003D0281C0199226A98477B06E0D4B1E07D
:10A20000AA7910231A43AA710022EA700222EA7086
:10A21000A26923711A4208D17B0600D4A2E002236E
:10A22000EB7001231F4208D124E0E369002BF3D037
:10A23000281C0199226A9847EEE7AB7818229343CD
:10A24000AB702B79DBB23370E368002B00D189E06F
:10A25000494A2023226100222270A26923711A42F6
:10A2600000D17FE0E369002B7CD0226A281C019991
:10A27000984777E04022174222D0042123702371AF
:10A28000394005D0AA7810210A43AA7000930BE048
:10A29000AB7818208343AB702B790091DBB233701D
:10A2A0003378002B00D122712379A2691A4231D070
:10A2B000E369002B2ED0281C0199226A984729E0D7
:10A2C0003B064CD57A0703D5A368002B26D128E09E
:10A2D000A368002B02D0E368002B0AD1042323716A
:10A2E000E369002B03D0281C0199226A98470023B8
:10A2F00063612A79E368D2B2002B33D0A368591C7A
:10A30000A1601A70E368013BE36063690133636134
:10A31000E36827E0009B002BD6D123E0E368002B05
:10A320000AD102232371E369002B03D0281C019971
:10A33000226A984700236361E368002B0BD0A3686F
:10A340005A1CA2601B782B71E368013BE3606369D0
:10A350000133636106E0AB7818229343AB702B792D
:10A36000DBB2337005B0F0BD9FCC0000CE0600001C
:10A3700082CC00000DCD00004E040000F0B587B087
:10A38000041C0D1C059204D146484749474A484BD6
:10A390002BE0FFF7B3FE474B8000C2584649130C31
:10A3A0005B1892B2012019689040021C0A431A609F
:10A3B0000023FF2223706370A370E2705022637148
:10A3C000A271E3712B7A002B02D0022B05D019E089
:10A3D000AB885B00DBB2237014E0AB88EA889A425A
:10A3E00005D830483549314A354B00F0DBFF5B007A
:10A3F000DBB22370EB8808225B00DBB2E371637988
:10A4000013436371A27829780223C9019A430A434E
:10A41000A97849000B401343DBB2A3706B786179D4
:10A420006F22DB010A401A43EB7810211B01D2B2E4
:10A430000B4013436371ED680123019500250295DC
:10A440005B42039501221F49AA4051431F1C0491FE
:10A4500000261D4B7200D05A049A05995043FBF711
:10A46000DDFE0199431A814200D90B1ABB4204D286
:10A4700002950396002B04D01F1C0136402EE8D114
:10A480003B1C022D09D1039A02993F2313408A01F4
:10A490001343DBB2637007B0F0BD0135002BD1D19F
:10A4A000F1E7C0469FCC00007F0500008ECD000084
:10A4B0001ECD0000D4CD0000007004409C050000BB
:10A4C0002ACD00000065CD1D02CC000008B5002893
:10A4D00006D1B9210848C900084A094B00F062FFBB
:10A4E0000023037243708370C370FA231B01C3609F
:10A4F0000123037008BDC0469FCC0000B9CD000009
:10A500001ECD0000F8B50C1C171C1E1C002905D11F
:10A5100011481249124A134B00F044FFFFF7EEFDB9
:10A520002422051C0021201C00F0B1FF0E4BAA00C4
:10A53000D4500E4A0E4BE7611A600E4B26625B5DEB
:10A540005AB2803206D01F22134001229A40131CB7
:10A55000094A1360F8BDC0469FCC00006E0600009B
:10A5600060CD000017CD000034F7FF1F8DA1000063
:10A5700040F7FF1F9DCC000000E100E0F8B5041C8F
:10A580000D1C171C002905D113481449144A154BFA
:10A5900000F008FF0E78F6B2002E1BD16021FFF705
:10A5A000D8FD311C1422281D00F071FF01232B70EF
:10A5B00046231F43AF61A27950231A43A271A279A7
:10A5C000201C1343A3711223E3706021FFF7B2FD37
:10A5D000301C00E00448F8BD9FCC00008606000057
:10A5E0009CCD000017CD00004C04000008B5034BC3
:10A5F00003481968FFF76EFD08BDC04634F7FF1F1A
:10A600000060064008B5034B03485968FFF762FD38
:10A6100008BDC04634F7FF1F0070064008B5054B63
:10A62000984205D004484221044A054B00F0BAFE86
:10A63000002008BD00000440DCCD000025CE000055
:10A6400001CE000038B5051C0C1E05D1174852215B
:10A65000174A184B00F0A6FEFFF7E0FF164B01214A
:10A660001A6802200A431A60E178227804238900DC
:10A670005200194002400A43A1780820C900014055
:10A680000A4361783020994001400A432A60A27948
:10A690007821D2000A40217989000B406179134367
:10A6A00003220A4013436B6038BDC046DCCD000076
:10A6B00037CE0000DEC800003880044010B5041E0C
:10A6C00005D10A4895210A4A0A4B00F06BFE002189
:10A6D000072200F0DCFE0023012223706370A370C8
:10A6E000E37022716271A37110BDC046DCCD000021
:10A6F00042CE0000DEC8000008B5054B984205D0E8
:10A7000004484E21044A054B00F04CFE002008BDD1
:10A710000070034072CE000062CE000095CE0000B3
:10A7200038B5041C0D1E05D112485521124A134B91
:10A7300000F038FEFFF7E0FF114B80221968120489
:10A740000A431A602368022293432A7823600D4B40
:10A75000002A05D0226801211A6022688A4304E099
:10A76000226801211A6022680A43226022681A6066
:10A7700038BDC04672CE000059CE0000DEC80000D1
:10A780003C8004407CF8FF1F08B5084B984204D079
:10A79000074B984203D1012007E0002005E005485F
:10A7A0008421054A054B00F0FDFD08BD006007400F
:10A7B00000700740F1CE0000C6CE000014CF0000AC
:10A7C000F8B5041C0D1C161CFFF7DEFFA77800234C
:10A7D0007F06FF0F0137FFB2B34217D2002D0AD018
:10A7E000A1782A78A271490603D56A780235E27108
:10A7F0000AE0013508E006490A5C095C12020A43D6
:10A80000D1B2120AA171E271DB19E5E7F8BDC046C9
:10A8100044F7FF1F10B50C1CFFF7B6FF014B1C548B
:10A8200010BDC04644F7FF1F10B500210C22041CC8
:10A8300000F02DFE0123237000236370A370E370EA
:10A8400023716371E3710323A371014BA36010BDF6
:10A8500020A1070008B5C37840229343C370FFF7D7
:10A8600093FF064B8000C2580549130C5B1819680A
:10A8700092B2012090408143196008BD7CCF000056
:10A8800000700440F0B587B0059201260822072326
:10A890000490039100257642019200930227002440
:10A8A0006A1C111C794305980292FBF7B7FC039BC5
:10A8B000834205D3181A864202D9061C01940095DA
:10A8C00001347F00092C01D0002EE9D1072D03D0DF
:10A8D000002E01D0029DE1E7009B1A017023134076
:10A8E000019A1343049ADBB2537007B0F0BDEEEE49
:10A8F000F7B5051C0C1C171C002901D0002A06D135
:10A90000E1212B4849002B4A2B4B00F04BFDFFF770
:10A910003BFF2A4B8000C358294899B21A0C0123E7
:10A9200012181E1C10688E40311C01431160EA7819
:10A930004026B243EA70207910211840084384462B
:10A94000A0780822C0000240604610430190E078E1
:10A9500004228000024001980243A07994461840E6
:10A96000420060460243EA706279E0799201324027
:10A9700003401343A2798000D200114019430822FA
:10A98000637802400A435B0002210B401A43AA701D
:10A99000281CA1683A1CFFF775FF281CFF21FFF750
:10A9A00039FF2378002B02D0EB781E43EE70F7BD01
:10A9B000F1CE0000B7CE000036CF00007CCF000003
:10A9C000007004408379C079000218437047F7B5DE
:10A9D00001928778051C7F06FF0F01370C1CFFB220
:10A9E0000026019B9E4213D2002C0CD0AB785A0655
:10A9F00005D5AB792370EB796370023406E0AB794F
:10AA00002370013402E0281CFFF7DCFFF619E8E7A9
:10AA1000F7BDEEEE70B5061C0C1E05D11A481B4999
:10AA20001B4A1C4B00F0BEFC0A68002A02D14B688E
:10AA3000002B26D0B5786D06ED0F0135EDB2A0687C
:10AA400000281FD033789A06FCD5301C21682A1CB8
:10AA5000FFF7B6FE2368002B01D05B192360337823
:10AA60005BB2002BFBDA301C61682A1CFFF7AFFFDA
:10AA70006368002B01D05B196360A268531BA3605D
:10AA8000DDE7042070BDC046F1CE00007F0300006A
:10AA9000D6CE000056CF000008B5002809D0054BDF
:10AAA000984205D00448A521044A054B00F07AFCE1
:10AAB000022008BD00C00640A4CF000022D0000044
:10AAC000C8CF0000F0B5041C85B00E1C171C00296F
:10AAD00004D13E48D0213E4A3E4B06E00D68002D91
:10AAE00005D13A483A4A3C4BD12100F05BFC2901A0
:10AAF000101CFBF793FB80B20190002801D10121CB
:10AB000001917F000297019B2027291C7F42029818
:10AB10005F43FBF783FB019B3F18BFB25901C91983
:10AB200002980397FBF77AFB2F1AA84200D9471B1C
:10AB3000281C6421FBF772FB03235843874241D84A
:10AB4000201CFFF7A9FF254B8000C2582449130C95
:10AB50005B1892B2012019689040021C0A431A60E7
:10AB6000E3780C229343E370019B2278190A1F2398
:10AB70009A430A4301992270CAB26270A77A039A73
:10AB80009F431A401743A772A27817239A437379F9
:10AB900004219B000B4013433279002A02D010217C
:10ABA0000A431343A370E378B279DBB2002A01D0E1
:10ABB00008221343F279002A01D004221343E370E0
:10ABC000002000E0074805B0F0BDC046A4CF00005B
:10ABD00084CF0000DEC80000E2CF000034D00000C7
:10ABE00000700440F503000008B5002806D170216C
:10ABF0000748FF31074A084B00F0D4FBE1235B0212
:10AC000003600023037143718371C37108BDC046A3
:10AC1000A4CF00008ECF0000DEC80000074B194013
:10AC200003780B43DBB20370C2780B0A1343DBB229
:10AC3000C3708379090C19438171704740F00F008C
:10AC400003794079000218437047EEEE10B543795E
:10AC500040240A0AA3431343DBB24371172319426A
:10AC600001D00379C3790B0701D50379C37903793F
:10AC7000407900021843014001D0024800E0081C5E
:10AC800010BDC046EE0300008A18914207D0037938
:10AC90005BB2002BFBDA0B780131C371F5E770472B
:10ACA000B12108B502484900024A034B00F07AFB83
:10ACB00073CA000002D1000008C7000010B50B1CC9
:10ACC000002804D116486621164A174B05E00029D2
:10ACD00005D11348134A154B672100F063FB0A683E
:10ACE0007F21D4780C40D470D47A2140D17201797C
:10ACF0000268032901D9FFF7D3FF09015218FC327A
:10AD00001169490049081161596800220A77596898
:10AD10004C68944203D01868054A8B68A04710BD60
:10AD2000ACD0000040D0000017CD0000D4D000000F
:10AD3000EA03000008B503480349044A044B00F045
:10AD400031FBC04673CA00001A0200007DD000002B
:10AD5000CEC9000010B50B1C002804D116487C2178
:10AD6000164A174B05E0002905D11348134A154B25
:10AD70007D2100F017FB0A682021D47A8C43D4721D
:10AD8000D4788C43D47001790268032901D9FFF784
:10AD900087FF09015218FC32116949004908116105
:10ADA000596802224A7759684C68002C03D0186809
:10ADB000054A8B68A04710BDACD000005DD00000F4
:10ADC00017CD0000D4D00000EB030000F7B5051C40
:10ADD0000C1C171C0193002905D11748A121174A03
:10ADE000174B00F0DFFAFFF757FE0021061C202268
:10ADF000201C00F04CFB0221124B61770021F60071
:10AE0000217701999A19F5505460A16009996760FA
:10AE1000A161089961611C1C002903D0081C0A4922
:10AE2000FEF73CFE099B002B04D0A219181C074911
:10AE3000FEF734FEF7BDC046ACD000008FD0000056
:10AE400017CD000048F7FF1FBDAC000055AD000056
:10AE500070B5131C88B0051C0C1E04D12C48DE21D3
:10AE60002C4A2D4B06E04A69002A05D12848294A78
:10AE70002A4BDF2100F096FA002B04D12448E02170
:10AE8000244A274BF6E71A68002A04D12048E1211A
:10AE9000204A244BEEE75A68002A04D11C48E221DC
:10AEA0001C4A214BE6E70A7F012A2DD001260E77A6
:10AEB0005A680A61196801920222C31D029204A80D
:10AEC000321C0096FEF770FD606904A9321CFEF783
:10AED000F9FD6369002B01D1FFF72CFF1A681B797C
:10AEE00000201B01D318FC3319698022D2050A43C4
:10AEF0001A61EA7A80235B421A43D2B2EA72EA7894
:10AF00001343DBB2EB7001E0FA20800008B070BDA3
:10AF1000ACD0000018D1000017CD0000DAD000003E
:10AF200056CF000011D0000002D0000070B5051C03
:10AF300088B00C1E05D112212C48FF312C4A2D4B14
:10AF400007E08B69002B06D189212848284A2A4B23
:10AF5000490000F027FA002A05D114212348FF31C7
:10AF6000234A264BF5E71368002B05D18A211F4899
:10AF700049001F4A224BECE75368002B05D11621EC
:10AF80001A48FF311A4A1F4BE3E74B7F032B2AD0A5
:10AF900003234B77506801261368C860321CE91DF3
:10AFA0000190009604A80296FEF7FEFCA06904A991
:10AFB000321CFEF787FDA369002B01D1FFF7BAFE13
:10AFC0001A681B7900201B01D318FC3319698022F1
:10AFD000D2050A431A61EA7A20231A43EA72EA7810
:10AFE0001343EB7000E0084808B070BDACD000001F
:10AFF0002DD1000017CD0000EED0000056CF00008C
:10B0000011D0000002D00000E903000008B5074A93
:10B01000074B08490848D150FEF756FB0748FEF792
:10B02000AFFA074A074B1A6008BDC04600700440DB
:10B03000441000000000071045D100004CD1000072
:10B04000006CDC0270F0FF1F594B80201A688000F2
:10B05000024310B51A6019688022D2000A431A60B0
:10B060001968802212010A431A601968802252016D
:10B070000A431A601968802292010A434D491A60F6
:10B080000C6B4D4B802252001C4014430C634C6BE4
:10B090001C4014434C638C6C1C408C64CC6C1C4076
:10B0A000CC640C691C4014430C6144490C6C1C407A
:10B0B00014430C644C6C1C4014434C648C6C1C405A
:10B0C00014438C64CC6C1C401443CC64CC681C408E
:10B0D0001443CC603A490C681C4014430C604C6823
:10B0E0001C4014434C608C6A1C4004438C62CC6A44
:10B0F0001C400443CC628C681C4014438C604C6937
:10B100001C4004434C618C691C40204388612D49DC
:10B1100048681840104348608C68C0201C4080007C
:10B1200004438C60CC681C402043C8600869184008
:10B130001043086148691840104348618869184005
:10B1400010438861C86918401043C8611E490868E7
:10B150001840104308604868184010434860086E63
:10B16000184010430866886C184010438864486F84
:10B17000184010434867886F184010438867086C70
:10B18000184010430864486C184010434864C86C69
:10B1900018401043C864086D184010430865486D96
:10B1A000184010434865C86D03401A43CA6510BD76
:10B1B0003880044000900440FFF8FFFF00A00440E6
:10B1C00000B0044000C0044000D0044008B50A4B61
:10B1D0001A78002A0ED000221A70FCF74FF8074B9D
:10B1E0001870181CFCF7B8F81420FBF7DDFD1420CC
:10B1F000FBF7DAFD002008BD14F1FF1F04F8FF1F64
:10B2000008B5FCF73BF8054A054B12681870181C86
:10B210005A70FCF781F8002008BDC046FCF7FF1FFC
:10B2200004F8FF1F38B5051C0C1CFBF74DFF002868
:10B230002CD0281CFBF7C8FF002824D1201CFCF7C9
:10B240007FFAC1B200291BD1201CFCF7D7FBC1B289
:10B25000002915D1201CFCF7BFF8C1B200290FD17D
:10B26000201CFCF715FBC1B2002909D1201CFCF7FA
:10B2700007FAC1B2002903D1201CFCF705FEC1B2B8
:10B28000281CFBF7CBFF281CFBF72CFF002038BD48
:10B290000020704700207047002070470020704752
:10B2A00070B5CCB0FFF7D0FEFFF7B0FEFDF750FC55
:10B2B0000020FDF7E3FCFDF755FAFDF747F9FA200A
:10B2C00006AE800002ACFDF707FEFEF72FF8FDF793
:10B2D000FDFEFCF713FEFBF793FCFBF7BFFD301CF4
:10B2E000FBF772FE0723201C01253370FDF746FD96
:10B2F000211C321C0020A573E5732573FBF79CFE0F
:10B30000FDF752FF6846FBF7F5FC6A467823537059
:10B31000224B00246846157094700193D570FBF79A
:10B32000F3FC0A21221C231C201CFDF757F80221E4
:10B33000221C231C201CFDF751F80D212A1C201C67
:10B34000231CFDF74BF80D20291C221CFCF7D2FF13
:10B35000FDF7D4FD311C0020FFF764FFFFF736FF37
:10B36000FCF7DEFE0420FCF74BFF002801D0002094
:10B3700008E00620FCF744FF002802D0FA208000F5
:10B3800000E00748FBF770FD0820FCF739FF0028B4
:10B3900000D00120FDF7DEFEDAE7C04601B2000072
:10B3A000E9FD00007FB5061C09480068C068002A56
:10B3B00002D0151C074C01E0074C251C1A1C0091FB
:10B3C000331C06490194029500F020F800F0AEFC11
:10B3D000D4F0FF1F54D100008FD1000061D10000D4
:10B3E000084B10B5041C002B02D0002100E000BF68
:10B3F000054B1868836A002B00D09847201C00F08A
:10B40000DBFFC0460000000094D100000EB403B57D
:10B4100003AB04CB054A011C1068039A019300F0AA
:10B4200029F902B008BC03B01847C046D4F0FF1F8A
:10B4300070B50E4B0E4D0024ED1AAD101E1CAC4223
:10B4400004D0A300F35898470134F8E701F0EEFE6A
:10B45000084B094D0024ED1AAD101E1CAC4204D05F
:10B46000A300F35898470134F8E770BD4CD20000B0
:10B470004CD200004CD2000050D2000010B5002386
:10B48000934203D0CC5CC4540133F9E710BD031CD4
:10B490008218934202D019700133FAE77047EEEE3A
:10B4A00030B5002940D004390B68002B00DAC918E8
:10B4B0001E4A1368141C002B02D14B60116033E04C
:10B4C00099420FD208680A189A4205D11368526847
:10B4D000C01808604A6000E04B60216024E08A42A6
:10B4E00003D8131C5A68002AF9D11D685C198C42D4
:10B4F0000BD10968691858181960904214D1146862
:10B500005268091919605A600EE08C4202D90C2366
:10B51000036009E008680C18944203D1146852686B
:10B52000001908604A60596030BDC04664F7FF1FCB
:10B5300070B50323CD1C9D430835061C0C2D01D28C
:10B540000C2501E0002D3FDB8D423DD3204B1C68D4
:10B550001A1C211C002913D00868431B0DD40B2B87
:10B5600002D90B60CC181EE08C4202D163681360D4
:10B570001AE0486860600C1C16E00C1C4968E9E79A
:10B58000144C2068002803D1301C00F025F82060FE
:10B59000301C291C00F020F8431C15D0C41C0323C8
:10B5A0009C4384420AD12560201C0B300722231DB6
:10B5B0009043C31A0BD05A42E25008E0211A301CC3
:10B5C00000F00AF80130EED10C233360002070BD8A
:10B5D00064F7FF1F60F7FF1F38B5074C0023051CF9
:10B5E000081C236000F0C6FE431C03D12368002B17
:10B5F00000D02B6038BDC046A0F8FF1F10B5021C5C
:10B600001378002B01D00132FAE7CC5CD45401331B
:10B61000002CFAD110BD031C0A7801311A700133D5
:10B62000002AF9D17047936810B5013B9360002B55
:10B6300005DA9469A34208DBCBB20A2B05D0136864
:10B64000581C10601970C8B201E000F0A5FA10BDD6
:10B65000F8B5061C0F1C141CD518AC4208D0217874
:10B66000301C3A1CFFF7DFFF0134431CF5D100E02A
:10B670000020F8BDF0B59FB0061C0F1C0392059387
:10B68000002804D08169002901D100F05FFC754BCE
:10B690009F4201D1776808E0734B9F4201D1B768A0
:10B6A00003E0724B9F4200D1F768BB891A070AD5A5
:10B6B0003B69002B07D006AD00236B6120236B761E
:10B6C0003023AB763BE0301C391C00F0BDFA00287B
:10B6D000F1D001204042C2E0059A111D1268059187
:10B6E000002A76DB0992013423782E2B00D181E0E9
:10B6F00021785F48032200F0E9FC002807D05C496C
:10B700002A68431A40209840104328600134217869
:10B71000631C584806220393297600F0D7FC0028C2
:10B7200000D18AE0544B002B7ED1059B07220733C2
:10B730009343083305936A69049953186B61039C1A
:10B740002378002B04D10399611A029110D003E0F1
:10B75000252BF8D00134F3E7301C391C039A029BE7
:10B76000FFF776FF013075D06A69029953186B6153
:10B770002378002B6ED0012252426A606A46002371
:10B780005B3201342B60EB60AB601370AB652178EA
:10B790003A48052200F09AFC002808D0374A0134C4
:10B7A000831A012098402B6818432860EFE72B6824
:10B7B000D90603D56A4620215B3211701A0703D5DA
:10B7C0006A462B215B32117022782A2A84D0099B89
:10B7D00005E05242EA60022213432B6083E722789D
:10B7E000303A092A04D80A214B4301349B18F6E762
:10B7F000099379E763782A2B09D1059B02341A1D36
:10B800001B680592002B0DDA01235B420AE001342C
:10B8100000232278303A092A04D80A214B43013404
:10B820009B18F6E7079363E705AB0093301C291CD0
:10B830003A1C134B00E000BF07E005AB0093301C3F
:10B84000291C3A1C0E4B00F091F804900499013128
:10B8500000D070E7BB895A0600D53AE70B981FB0B5
:10B86000F0BDC046CCD10000ECD100000CD20000ED
:10B870009ED10000A2D100000000000098D100007D
:10B8800051B60000F7B5151C01930A698B68061CB8
:10B890000C1C934200DA131C221C2B6043321278DA
:10B8A000002A01D001332B602068800602D52B6866
:10B8B00002332B60216806270F401FD0231C43331F
:10B8C0001B785A1E9341226892061FD5E118403119
:10B8D0003020C870211C5A1C45310978A21840320A
:10B8E0000233D17012E0221C301C0199193201235D
:10B8F000089FB847013011D0009F01370097E068DA
:10B900002968009F431A9F42EDDBD7E7221C301CB9
:10B9100001994332089FB847013002D101204042CB
:10B9200023E0206806212B68E268014000250429F5
:10B9300003D1D51AEB43DB171D40A26823699A4255
:10B9400001DDD31AED1800270097009FAF420BDAF4
:10B95000221C301C01991A320123089FB84701307C
:10B96000DCD0009F0137EFE70020FEBDF0B50D1CD5
:10B970008BB0433506920590079304950B7E0C1C03
:10B98000109A6E2B00D1A7E011D8632B22D009D8D2
:10B99000002B00D1B0E0582B00D0C0E045310B7037
:10B9A0007B4D4EE0642B1CD0692B1AD0B7E0732B73
:10B9B00000D1A5E009D86F2B29D0702B00D0AEE0C4
:10B9C0000E68202333430B6036E0752B1FD0782B95
:10B9D00032D0A4E013680D1C191D423511601B689C
:10B9E0009FE0216813680E0603D5191D11601E68BB
:10B9F00005E04806F9D5191D116000215E5E644B13
:10BA0000002E3BDA049D2D2276422A7036E0216812
:10BA100013680E0603D5191D11601E6804E0480660
:10BA2000F9D5191D1E881160594B227E03930827F2
:10BA30006F2A1ED00A271CE0231C78214533554D60
:10BA4000197011682368081D039510601E0601D542
:10BA50000E6802E05806FBD50E88D90702D52022D1
:10BA6000134323601027002E03D1226820239A431A
:10BA70002260231C002243331A7001E003930A273B
:10BA80006368A360002B03DB2568042295432560CF
:10BA9000002E02D1049D002B0ED0049D301C391CB9
:10BAA000FAF700FC0398013D435C301C2B70391CF5
