:105C00006B422E50444F00000000000000000000D6
:105C10005F492403E612A141833C8D10005D000022
:045C200064D5000047
:105D000000300020E9610000F9610000F961000045
:105D10000000000000000000000000000000000083
:105D2000000000000000000000000000F961000019
:105D30000000000000000000F9610000F9610000AF
:105D40000D8B0000158B00001D8B0000258B0000C3
:105D5000F9610000F9610000F9610000F9610000DB
:105D6000D18D0000D98D0000F9610000F9610000BB
:105D7000F9610000F961000079910000F96100000B
:105D8000F9610000F9610000F9610000F9610000AB
:105D9000F9610000F9610000918F0000F9610000D5
:105DA000F9610000F9610000F9610000F96100008B
:105DB000098E0000F9610000F9610000F96100003E
:105DC000EEEEEEEEEEEEEEEEEEEEEEEEEEEEEEEEF3
:105DD000EEEEEEEEEEEEEEEEEEEEEEEEEEEEEEEEE3
:105DE000EEEEEEEEEEEEEEEEEEEEEEEEEEEEEEEED3
:105DF000EEEEEEEEEEEEEEEEEEEEEEEEEEEEEEEEC3
:1060F000EEEEEEEEEEEEEEEEEEEEEEEEEEEEEEFFAF
:10610000FFFFFFFFFFFFFFFFFFFFFFFFFE3DFFFF62
:1061100010B5064C2378002B07D1054B002B02D07D
:10612000044800E000BF0123237010BDC0F0FF1F32
:106130000000000080D4000008B5084B002B03D0FD
:106140000748084900E000BF07480368002B03D058
:10615000064B002B00D0984708BDC0460000000049
:1061600080D40000C4F0FF1FB8F0FF1F0000000043
:10617000164B002B00D1144B9D46402292029A1AD6
:10618000924600218B460F461348144A121A05F016
:106190003CFA0F4B002B00D098470E4B002B00D041
:1061A00098470020002104000D000D48002802D06F
:1061B0000C4800E000BF05F0F9F92000290005F0C7
:1061C00027F905F0CBF9C046000008000030002098
:1061D0000000000000000000C0F0FF1F08F8FF1FD3
:1061E000000000000000000072B603F0EBFA03F0BC
:1061F000A7FA62B6FFF7BCFF014800470148004715
:10620000F96100004DAA0000002934D001230022CA
:1062100010B488422CD301242407A14204D2814225
:1062200002D209011B01F8E7E400A14204D2814235
:1062300002D249005B00F8E7884201D3401A1A43B2
:106240004C08A04202D3001B5C0822438C08A042E9
:1062500002D3001B9C082243CC08A04202D3001B9F
:10626000DC082243002803D01B0901D00909E3E719
:10627000101C10BC7047002801D00020C04307B498
:10628000024802A14018029003BDC046D900000098
:106290000029F0D003B5FFF7B9FF0EBC4243891ABD
:1062A0001847C046002941D010B4041C4C40A446F5
:1062B00001230022002900D54942002800D5404290
:1062C00088422CD301242407A14204D2814202D265
:1062D00009011B01F8E7E400A14204D2814202D285
:1062E00049005B00F8E7884201D3401A1A434C0882
:1062F000A04202D3001B5C0822438C08A04202D3B8
:10630000001B9C082243CC08A04202D3001BDC08DF
:106310002243002803D01B0901D00909E3E7101C20
:106320006446002C00D5404210BC7047002806D0BF
:1063300003DB0020C043400801E08020000607B4D2
:10634000024802A14018029003BDC0461900000097
:106350000029EBD003B5FFF7A7FF0EBC4243891A13
:106360001847C0467047C046002B11D1002A0FD1F4
:10637000002900D1002802D00021C943081C07B41D
:10638000024802A14018029003BDC046D9FFFFFF9A
:1063900003B4684601B5029800F044F8019B9E469C
:1063A00002B00CBC7047C0469C460304F0B51B0C01
:1063B00017043F0C150C1E1C041C000C7E436B4381
:1063C00047434543FB18300C1818874202D98023F5
:1063D0005B02ED18030CED1863465C434A43360438
:1063E000360CA118000480194919F0BDF0B583B02E
:1063F000161C1F1C0090019100F02EF8041C0D1CAF
:10640000221C2B1C301C391CFFF7CEFF009A019B6D
:10641000121A8B410899201C0A604B60291C03B09A
:10642000F0BDC046F0B583B0141C1D1C0090019156
:1064300000F0EEF9221C2B1C061C0F1CFFF7B4FF0A
:10644000009A019B121A8B410899301C0A604B601C
:10645000391C03B0F0BDC046F0B544465F46564611
:106460004D46F0B41C1C85B0002900DADBE00F1C9F
:106470000021061C8A46101C191C002C00DAC9E0F9
:106480000196009089468046002951D1B84200D833
:1064900071E000F07FFB002809D020234546311C25
:1064A0001B1A85408740D940A8460F438640424684
:1064B000150C13041B0C291C381C9B46FFF7A4FE6B
:1064C0005B464343041C291C381C9946FFF7E0FE39
:1064D000330C08041843814509D94044631E8045A4
:1064E00000D978E1814500D875E1023C4044494635
:1064F000411A8946081C291CFFF786FE5A4642436A
:10650000071C291C48469346FFF7C2FE36040904BF
:10651000360C0E43B34507D946447B1EB04502D81E
:10652000023FB34500D81F1C24042743002403E086
:10653000B94211D9002400275246381C211C002AD8
:1065400003D03B1C00215842A14105B03CBC904601
:106550009946A246AB46F0BD081C00F01BFB041E8A
:1065600000D0BFE0B94500D242E1019D0099071C6F
:106570008D424741E0E7002804D101200021FFF7C8
:1065800043FE8046404600F005FB002852D14146BC
:1065900044460B043C1B1B0CA3460D0C009301242A
:1065A000291C5846FFF730FE009F81464743291CAF
:1065B0005846FFF76DFE330C090419438F4208D982
:1065C0004B464144013B884502D88F4200D91AE12D
:1065D0009946C91B8B46081C291CFFF715FE009B1A
:1065E000291C4343071C58460093FFF751FE36040D
:1065F000009D0904360C0E43B54207D946447B1E64
:10660000B04502D8023FB54200D81F1C49460E04CF
:10661000374391E75246D243031C0C1C924600219B
:106620005842A1412CE7002746428F4101214942AF
:106630008A4620E720231B1A4246351C82403C1C18
:10664000DD40DC4087402B1C150C3B43291C864059
:10665000201C009317049046FFF7D6FD3F0C011C49
:10666000794381468B46201C291CFFF711FE009CB4
:106670000904230C19438B450CD94B464144013B7B
:10668000884500D9BDE08B4500D8BAE002225242CD
:10669000914441445C460C1B201C291C0194FFF7CB
:1066A000B3FD391C4143041C8B460198291CFFF79C
:1066B000EFFD009A090413041B0C19438B4509D9FB
:1066C0004144631E884500D997E08B4500D894E08B
:1066D000023C41445B46CB1A49469B460B041C4393
:1066E00000975DE7009D20231B1A4A468240DD404B
:1066F0001543391C009AD94082408846311C0092CB
:10670000D9403A1C82400B1C134301932F0C2B04DD
:106710001B0C391C40460293FFF776FD029A814616
:106720004243391C40469346FFF7B2FD019A0904E3
:10673000130C19438B450AD94B464919013B8D422D
:106740005DD88B455BD902235B42994449195A466F
:106750008A1A101C391C0392FFF756FD029B8046D3
:106760004343391C03989B46FFF792FD019A0904A5
:1067700013041B0C19438B450AD943464919013BA5
:106780008D4238D88B4536D902235B42984449194B
:106790005D464D1BAB464946009D0F0442461743DC
:1067A0002A04120C3B042D0C1B0C380C111C5943F1
:1067B00042436B436843D3180D0C5B198C469A42D5
:1067C00002D98022520280181D0C401983450CD337
:1067D00003D00024B0E61C1C89E665462A041B048D
:1067E000120C9B18A6409E42F3D2013F0024A3E660
:1067F00000240127A0E69846CAE71C1C6AE79946D0
:10680000A5E7994646E70222524291444144E0E618
:10681000F0B55F4656464D464446F0B40D1C85B073
:10682000061C924698460290019103921F1C141C6C
:106830008346A946002B59D1AA4269D9101C00F001
:10684000A9F900280AD020231B1A311CD940854001
:106850000B1C2B43864084409946B346250C2304E9
:106860001B0C291C48469846FFF7CEFC4646071CE1
:106870004643291C4846FFF70BFD5A460904130CF2
:1068800019438E4209D909197B1E8C4200D957E160
:106890008E4200D854E1023F0919891B8946081C21
:1068A000291CFFF7B1FC43464343061C291C4846FC
:1068B0009846FFF7EDFC5A46130409041B0C1943D4
:1068C000884508D90919731E8C4200D936E1023E69
:1068D000884500D832E1380430430027391C05B020
:1068E0003CBC90469946A246AB46F0BD019A934205
:1068F00062D8181C00F04EF9041E60D1019B9F4223
:1069000000D22CE1029F03998F4260410027E5E706
:10691000002A04D101200021FFF776FC041C201C72
:1069200000F038F9002800D0B9E023042D1B1B0C1F
:10693000A946260C98460127311C4846FFF764FCFF
:1069400041464143051C8A464846311CFFF7A0FCDE
:106950005A460804130C1843824507D900196B1EC8
:10696000844202D8824500D910E11D1C5346C31A47
:10697000181C311C9A46FFF747FC414641438146AB
:1069800088465046311CFFF783FC5A46130409041D
:106990001B0C194388450BD94B460919013B8C4206
:1069A00000D9CFE0884500D8CCE002235B4299446F
:1069B00028044946084391E7002700208EE720235A
:1069C0001B1A424657468240DF40174352468240D8
:1069D0000192321CDA40291CD9408540131C2B43FC
:1069E00002933D0C3B041B0C8846081C291C9A464C
:1069F000FFF70AFC534643438146291C40469B4609
:106A0000FFF746FC029A0904130C19438B4506D97B
:106A10004B46C919013B8F4200D8ABE099465A4614
:106A20008A1A101C291C9346FFF7EEFB534643437A
:106A3000291C804658469A46FFF72AFC029A090408
:106A400015042D0C29438A4506D94346C919013B33
:106A50008F4200D886E098465746CF1BBA46494633
:106A6000019F0804424610433D042D0C03043F0CD3
:106A70001B0C020C291C594355437B437A43EB18EA
:106A80000F0CDB198C469D4202D980277F02D21958
:106A90001D0C521992455FD356D000271EE72023C4
:106AA0001B1A311C2F1CD940DF4085400B1C844031
:106AB0002B4386400193B3462304260C1B0C381C41
:106AC000311C9846FFF7A0FB42464243051C311C8F
:106AD000381C9146FFF7DCFB019F09043B0C19436E
:106AE000894507D909196B1E8C424DD889454BD968
:106AF000023D09194A468A1A101C311C9246FFF7BA
:106B000083FB43464343071C311C50469946FFF71D
:106B1000BFFB019A090413041B0C1943894507D9CB
:106B200009197B1E8C422DD889452BD9023F0919A2
:106B30004B46CB1A2D0499462F43FDE61E1CCAE690
:106B40001F1CAAE6994633E761460A041B04120C8F
:106B50009B18A6409E42A0D201380027BEE600271F
:106B60000120BBE68A4500D875E702235B429844C2
:106B7000C91971E78B4500D850E702235B4299445D
:106B8000C9194CE71F1CD3E71D1CB3E7023D0019D0
:106B9000ECE6C0461C2101231B04984201D3000CE3
:106BA00010391B0A984201D3000A08391B09984280
:106BB00001D30009043902A2105C40187047C04696
:106BC00004030202010101010000000000000000B6
:106BD00010B5054C206861680122002312184B4152
:106BE0002260636010BDC046E0F0FF1F90B583B027
:106BF00000AFFB1D00221A70FC1D0120102102F0C5
:106C000017F9031C2370FC1DFA239A000C4B00207B
:106C1000111C1A1C022302F06BF9031C2370FC1DCB
:106C2000002002F0A9F9031C2370FB1D1B78002B28
:106C300001D0012300E00023181CBD4603B090BD25
:106C4000D16B0000014B186859687047E0F0FF1FD6
:106C500010B50C1C0B78022B0ED0DAB2022A02D827
:106C6000012B05D031E0042B14D0202B20D02CE0B8
:106C700000234B608B6028E00022144B1A70012225
:106C8000134B1A70134B5B689847134B63602623B2
:106C9000A3601AE00279114B1A60114B4B60262356
:106CA0008B600122094B1A700022094B1A700CE00C
:106CB0000A690C4B1A600C4B00221A605A609A60E9
:106CC000DA601A610122094B1A7010BD5AF7FF1FD2
:106CD00058F7FF1FE8F0FF1FC8F6FF1F5CF7FF1F04
:106CE000F0F6FF1FF0F0FF1FBCF7FF1FF4F0FF1FCF
:106CF0000123037078234370002383700022C27045
:106D00004360704730B585B0041C8378002B11D1E7
:106D100001AD281C01F0EEFF63782B700E4B6B6009
:106D2000E378AB602078291C01F0E8FF0B4B03CC23
:106D300003C30DE0012B0BD101A801F0D1FFE378D3
:106D40000293207801A901F0D3FF044B03CC03C3C5
:106D5000002005B030BDC046516C0000E8F0FF1FB8
:106D600070B584B0061C084D687001AC201C01F0A1
:106D7000C1FF2670054B63602878211C01F0BEFF1F
:106D8000002004B070BDC046E8F0FF1F516C000049
:106D9000014B58787047C046E8F0FF1F08B5021C49
:106DA0000248002104F031FC08BDC046C8F6FF1FB0
:106DB00008B5021C0248002104F027FC08BDC046AB
:106DC000F0F6FF1F30B5041C03A80578002D04D190
:106DD0005200D2B2104B985C0EE00020012D0BD176
:106DE0000D485500EDB2455D6B40520001252A4328
:106DF000C35C5340DBB2C05C4D1EADB200290AD06B
:106E0000013565190449631C22785040085CAB4287
:106E100001D01C1CF7E730BD28C5000010B584B0B8
:106E2000104B1968104B5B78CB1A0020032B16D13E
:106E30000D4C013989B20D4B5A780D4B1B780090DF
:106E4000201CFFF7BFFF6B46D8730F33054A12684B
:106E5000013AA05C1B78C01A431E9841C0B204B02E
:106E600010BDC046F0F0FF1FF0F6FF1FE8F0FF1F57
:106E70005CF7FF1F08B502F003FB002008BDC04609
:106E800070B5061E03D1012002F00AFB1AE00E4B7A
:106E9000984203D1002002F003FB13E0FFF7D2FE7B
:106EA0000A4B1A685B68994202D80BD1904209D903
:106EB000341C002512196B4104490A604B60022002
:106EC00002F0EEFA70BDC046E9FD0000F8F0FF1FC9
:106ED000014B18707047C04600F1FF1F014B187836
:106EE0007047C04600F1FF1F38B5141C1D1C02F08E
:106EF00033FA012C06D0002C02D0022C0DD016E063
:106F0000012319E0FF230340002B12DD062B02DDD5
:106F10000A3B022B0DD801230EE0FF230340102B68
:106F200009D89B00244AD3589F46012304E000233C
:106F300002E0002300E00023052D32D8AD001F4AF7
:106F400052599746FF221040021C0A3A0020062A96
:106F500030D822E0FF221040002824DD03281CDD69
:106F6000073801281FD818E0FF22104009281CD834
:106F70008000134A12589746FF221040002816DD61
:106F800002280ADD052808D011E0FF221040002861
:106F90000FDD022801DD06280BD1181C431E984185
:106FA00008E0002006E0002004E0002002E00020CD
:106FB00000E0002038BDC04628C600006CC60000B6
:106FC00084C6000008B502F0C7F9FF231840102856
:106FD00003D88000054B1B589F46002004E0032087
:106FE00002E0012000E0022008BDC046ACC600005F
:106FF00008230370002343708422520083528522A9
:107000005200835286235B000022C2540122872350
:107010005B00C254FA22920088235B00C250704782
:10702000407A7047837A1B02C07AC01880B27047DA
:10703000037B1B02407BC01880B2704708B500205C
:1070400002F058FB094B1B685A78002A0DD18422A4
:1070500052009A5AFE2A05D89918087201328421E2
:1070600049005A52002002F075F808BD60F7FF1F72
:1070700070B5041C0D1C161C0120012C1BD80968BE
:107080009623DB01994204D80B48FFF7BDF8411C59
:1070900000E00A49A4000A4BE2580020092302F04C
:1070A00045F8084BE358AB600020291C02F03CFB7C
:1070B000054BE650002070BDA0764B02D6060000BE
:1070C00004F0FF1F00F0FF1F60F7FF1F38B54B1ED5
:1070D000FF2B11D8094C85002B5900208422520027
:1070E000985202225A702B590833CAB2191C02F066
:1070F000F1FA2B5900225A7038BDC04660F7FF1FC5
:107100008000074BC358862252009A5C0020002A58
:1071100004D0002186225200995401207047C046B5
:1071200060F7FF1F044A8000002381584B7081588C
:10713000842252008B52704760F7FF1F08B5002071
:1071400001F0FEFF0F4B1B685A78002A19D18722E5
:1071500052009A5C002A0BD01A7A19788A4207D01A
:10716000002A05D0002903D00020FFF7DBFF08E04C
:10717000197A8A22520099540122862149005A54D0
:107180005A7008BD60F7FF1F10B502AC248801706B
:107190004270511E012908D8072323405A1E9341EB
:1071A000E4081C198470032122E0D11E012903D8B0
:1071B0006400847003211BE0511F012904D81A0ABE
:1071C0008270C370042113E0111C0F39012907D804
:1071D0001A0A8270C370230A03714471062107E002
:1071E000203A0021012A03D81A0A8270C3700421B0
:1071F000081C10BD30B54D1EADB200290FD0031CC8
:10720000451901350748084C020A19784840C0B2B0
:107210004000005B50400133AB42F5D100E0014833
:1072200030BDC046FFFF0000F0C6000070B582B060
:1072300080000E4BC35884225200995ACAB20120D2
:10724000032A11D91D1C08356C4606348E1EA91957
:10725000201C022204F0D0F9B1B2281CFFF7CAFFAB
:107260002388181A431E984102B070BD60F7FF1FB3
:1072700038B5051C0C1CFFF7BDFF28552C19000A5A
:10728000607038BD38B5051C0C1C154B8200D258F7
:1072900019688A235B00CB5C002B04D187235B0039
:1072A000D35C012B1AD0002C0DD187235B00D35C5B
:1072B000012B13D1517A80235B420B43537202237B
:1072C0009372032401E0002C08DD101C0830A1B2E9
:1072D000FFF7CEFFA11C281CFFF7F8FE002038BDE9
:1072E00060F7FF1F08B5264B1B78002B2CD000221F
:1072F000234B1A70FFF792FD00283AD1214B5B789F
:10730000002B08D11F4B1A781F4B1A6001221F4B0C
:107310001A70062032E01B4B1B78232B2BD0194B05
:107320001B78242B03D1174B9B78002B25D0154BB2
:107330001B78242B03D1134B9B78002B1ED1114BB0
:107340001B7802202A2B19D0114B1B780620002B0A
:1073500014D01420FFF722FD00220D4B1A700A4BA7
:107360001B680320232B09D006202A2B06D10420DA
:1073700004E0062002E0012000E0052008BDC04630
:107380005AF7FF1FF0F6FF1F5CF7FF1F59F7FF1FAB
:1073900058F7FF1F70B582B00378032B13D10B4E43
:1073A00033780B4C2370012565700A4B1B681B78E2
:1073B000A370FFF7EDFC021C33780095201C03211D
:1073C000FFF700FDE070002002B070BD5CF7FF1F0A
:1073D000C8F6FF1F60F7FF1F08B50378012B2DD0FB
:1073E000002B1BD0052B2ED10020FFF771FD0020B4
:1073F00001F0D8FF1E2001F09FF90D20012100228D
:1074000001F0E2F802200021002201F0DDF81E2048
:1074100001F0D6F97820FFF7A3FC14E00B4B987825
:10742000C0B20B4B1870FFF79BFC012001F0BAFFB4
:107430000D200021002201F0C7F804E0054B1B6875
:10744000024A92781A70002008BDC046F0F6FF1F6D
:1074500001F1FF1F60F7FF1FF0B55F4656464D462E
:107460004446F0B489B0061C041C0834FFF7D8FD6C
:10747000071C301CFFF7D6FD8146301CFFF7D8FDF6
:107480008046042F00D0F9E0FA22D200914566D15F
:10749000317A0090201C0422FA23DB00FFF774FEEF
:1074A000C6B2012000F0FEFF030AA355731CDBB235
:1074B000E054022000F0F6FFB31CDBB2020AE254F3
:1074C000F31CDBB2E054002000F0ECFF331DDBB214
:1074D000020AE254731DDBB2E054032000F0E2FF25
:1074E000B31DDBB2020AE254F31DDBB2E054082004
:1074F00000F0D8FF331C0833DBB2020AE254331C1D
:107500000933DBB2E054321C0A32D2B20023A35456
:10751000321C0B32D2B2A354321C0C32D2B2A3545E
:10752000321C0D32D2B2A354321C0E32D2B2A3544A
:10753000321C0F32D2B2A354321C1032D2B2A35436
:10754000321C1132D2B2A354321C1232D2B2A35422
:10755000351C1435EDB21336F6B2A355ECE0002518
:10756000794A914500D0E7E03C2800D9E4E00820C2
:1075700000F098FFC5B2424650000E21FEF792FE81
:10758000C0B2854203D3002D00D1C5E0051C2B1CE1
:107590000A2D00D90A23DBB203939B46317ADB0024
:1075A0005A469B1A9BB20093201C0422664BFFF79D
:1075B000EBFDC5B2039B002B00D1BDE01E2001F006
:1075C000BBF85A46002A56DD2E1C00239A4601219C
:1075D00005AF9846D1464B463B607B60BB60381C8C
:1075E00000F024FFBB78A355731CDBB2FA78E25499
:1075F0003B88B21CD2B2190AA154F21CD2B2A354D5
:10760000331DDBB24246E254731DDBB23A79E254D9
:10761000B31DDBB24246E254F31DDBB2E254331C2D
:107620000833DBB2E254331C0933DBB2E254BB68EB
:10763000321C0A32D2B2190EA154321C0B32D2B211
:10764000190CA154321C0D32D2B2311C0C31C9B20A
:10765000180A60540E36F6B2A35401239A44D34557
:1076600001DD4146B7E70E35039B013BDA00D31A33
:107670005B00ED18EDB201F0A3F85DE00025102FDE
:107680005AD1324A91451CD1F37B232B54D1337C00
:10769000432B51D1737C4C2B4ED1B37C532B4BD10C
:1076A0001E2001F049F800F03DFF01F089F8317A21
:1076B00042460092201C1022244BFFF765FDC5B204
:1076C0003AE00025224A914536D13B2834D81E2085
:1076D00001F032F842465308DBB29946002B0FDD29
:1076E000351C10350027287869780902AB78C9184D
:1076F00089B2012200F058FF013704354F45F2DB13
:1077000001F05EF8317A43460093201C1022104BA2
:10771000FFF73AFDC5B20FE0317A2B1C0A2D00D9D4
:107720000A23DBB2DA00D31A9BB20093201C042296
:10773000054BFFF729FDC5B2281C09B03CBC90469B
:107740009946A246AB46F0BDDA0700009808000053
:10775000A208000070B5041CFFF762FC051C201C89
:10776000FFF760FC061C201CFFF762FC031C042DC5
:107770001AD10020264A964249D1062B47D10C2324
:10778000A3723023E37223736373A373E3732374CD
:10779000452363745223A374E3744F2222756375E7
:1077A0003123A3750F2032E00020102D2FD1194B6B
:1077B0009E422CD1E37B002B29D1237C532B26D155
:1077C000637C652B23D1A37C742B20D1E37C422BDB
:1077D0001DD1237D6F2B1AD1637D6F2B17D1A37D14
:1077E000742B14D1E37D6C2B11D1237E6F2B0ED122
:1077F000637E612B0BD1A37E642B08D1E37E652BC6
:1078000005D1237F722B02D100F036FD002070BD20
:10781000CC0B0000B80B000070B58CB0051CFFF756
:10782000FFFB041C281CFFF7FDFB061C281CFFF7B0
:10783000FFFB0023042C00D0B5E02C1C08345B4B6C
:107840009E421ED1297A0090201C0422FFF79CFC46
:10785000C5B2002302930393049305930693079301
:107860000893099302A800F08FFC0023621902A973
:10787000595CD1540133202BF8D12B1C2033DBB2BF
:1078800091E0B6231B019E421BD1297A0090201C57
:107890000422B6231B01FFF777FCC6B202A800231F
:1078A00002934360038100F01DFC0022A11902AD88
:1078B000555D8D5401320A2AF8D1331C0A33DBB2EC
:1078C00071E03B4B9E421ED1297A0090201C04227D
:1078D000FFF75AFCC5B20023029303930493059368
:1078E000069307930893099302A800F08DFC0023E8
:1078F000621902A9595CD1540133202BF8D12B1CF9
:107900002033DBB24FE02B4B9E4225D1297A0090E9
:10791000201C0422FFF738FCC6B20023A355B51C77
:10792000EDB2721CD2B20721A154029303930493C7
:107930000593069307930893099302A800F07EFC31
:107940000023621902A9595CD1540133202BF8D1CC
:10795000331C2233DBB226E00023B9221201964207
:1079600021D1297A0090201C0422B9231B01FFF7A2
:107970000BFCC5B200230293039304930593069373
:107980000793089309930A930B9302A800F062FCF3
:107990000023621902A9595CD1540133282BF8D174
:1079A0002B1C2833DBB2181C0CB070BD4F0B000031
:1079B000680B00007C0B0000F0B55F4656464D4654
:1079C0004446F0B483B0051C061C0836FFF728FBBC
:1079D000041C281CFFF726FB071C8346281CFFF706
:1079E00027FB8046012C50D13A1C203A92B200234A
:1079F000072A00D988E03B1C203B1818082803DD23
:107A00002823DF1BBFB2B84601F056FE4246009263
:107A1000002A2CDD002407239A465946203901917B
:107A20005246224206D1E3175B0F1B19DB10F318F5
:107A30000021D970E3175B0F9846A146C1444B461D
:107A4000DF100337F71939788B46019A1019C0B245
:107A500001F004FE534649460B4042469B1A9840AB
:107A60005B4618433870013400998C42D8DB0123FF
:107A70006B72009B013BDA17520FD318DB10DBB29D
:107A80005A1CAA720433DBB23EE000230F2C3BD118
:107A90003A1C203A92B2072A36D83B1C203B1818D1
:107AA000082803DD2823DB1B9BB29846C1464246CB
:107AB000002A1DDD002420235B429B4407218A46C7
:107AC0005A461019C0B2E3175B0F19198C46C9103A
:107AD0007118C9790091624651460A40D31A00993B
:107AE00019410122114001F0A7FD01344C45E7DBAB
:107AF00001F0BEFD0F236B723B0AAB72EF72414681
:107B00000B0A2B7369730623181C03B03CBC904608
:107B10009946A246AB46F0BDF0B55F4656464D4687
:107B20004446F0B497B0051C041C0834FFF778FAFB
:107B3000061C281CFFF776FA071C8046281CFFF756
:107B400077FA031C8246032E00D0A7E0D5483A18E6
:107B500092B21F2A00D984E00020990700D06BE27E
:107B6000BA0700D068E2CF483E18F318202B03DD97
:107B7000CD4BDB1B9BB29A46297A52460092201CC1
:107B800003223B1CFFF700FBC0B28346504683082C
:107B90009BB205930493002B00DC3EE2F3179B0F8E
:107BA0009E19B6100396331C083BDBB299465D461E
:107BB0000027002603997B18DBB29846181C01F0B9
:107BC000CBFBC0B282464046FFF7FCF9C0B20128A9
:107BD00011D0022807D1484603F012FC80464846DF
:107BE00003F010FC0DE0032809D1484603F00EFC19
:107BF0008046012005E001200222904601E0301C71
:107C0000B04666556B1CDBB25146E15442469303C5
:107C10009BB2184380B2AB1CDBB2020AE254EB1CED
:107C2000DBB2E0542B1DDBB2E6546B1DDBB2E65435
:107C3000EB1DDBB2AA1DD2B2A6540835EDB2E65454
:107C400001374B460133DBB29946049B9F42B1DBBF
:107C50005A460832059B013BDB00D318DBB29B463A
:107C6000DBE100208346914A974200D0D5E1012B09
:107C700000D9E1E1297A0093201C03228B4BFFF706
:107C800083FAC0B200232354831CDBB29B4601302D
:107C9000C0B22418FFF722F92070BEE100229346FB
:107CA000102E00D0B9E17F483A1892B21F2A00D9AD
:107CB000A8E00020990700D0BEE1BA0700D0BBE1E0
:107CC00078483E18F318202B03DD774BDB1B9BB263
:107CD0009A46297A52460092201C10223B1CFFF73C
:107CE00053FAC0B28346504683089BB20493F317FD
:107CF0009B0F9E19B6100596331C083BDEB210216F
:107D0000491900275B4607930890099443460A9354
:107D1000B3460C1C0B9569E005983D18EDB2013790
:107D20000394267863789B099946A1788846281C95
:107D3000FFF748F98246281C311C4A464346FFF7A4
:107D4000D3F8002841D05246D3B2022B22D1584654
:107D50004946424603F050FB039CE3781B06069815
:107D60000202120A1A4323791B0451490A401A439A
:107D700063791B024F4802401A430692A379FF22FF
:107D8000069991430A1C1A4306925846069901F037
:107D900099FC26E0032B0DD158464946424603F094
:107DA00033FB039A91794B1E9941C9B2584601F0B1
:107DB0008FFC16E0012E14D1039B99794B1E99413B
:107DC000C9B2281C01F038FC0BE01E2000F0B4FC06
:107DD0002A02032002430220012100F0F5FB00F0FB
:107DE000EFFC5B460133DBB29B46083404998F42BB
:107DF00092DB079A9346089B9A46099C0A9880460C
:107E00000B9DB7E0294A974235D10020012B00D9BC
:107E100012E1297A0093201C1022244BFFF7B4F9B9
:107E2000C0B283462E7C731E9E41F6B2002E10D146
:107E300001F0EAFB01F042FC01F046FC1E2000F0DC
:107E40007BFC0C200021002200F0BEFB00F0B8FCFF
:107E50000DE0FFF743F8002809D103F0CBFA01F059
:107E60002FFC03F0CBFA01F031FC01F001FC301CD7
:107E7000FFF72EF894E0104A974240D10020052BDE
:107E800000D9D9E0297A0093201C10220A4BFFF771
:107E90007BF9C0B28346EB7B012B0FD1012001F0AF
:107EA000E1FA10E090E8FFFF90170000FC170000D7
:107EB000FFFF00FFFF00FFFF38180000002B02D17A
:107EC000002001F0CFFA2B7C012B02D1002001F021
:107ED00069FA6B7C012B02D17820FEF741FF1E204E
:107EE00000F02AFC0D200121002200F06DFB022091
:107EF0000021002200F068FB00F062FC50E0524AD2
:107F0000974219D10020012B00D995E0297A0093DE
:107F1000201C10224C4BFFF737F9C0B283462B7C54
:107F2000012B03D1012001F03DFA39E0002B37D1BC
:107F3000002001F037FA33E000229346434A97428B
:107F400018D10020012B77D8297A0093201C102209
:107F50003E4BFFF719F9C0B283462B7C012B03D1AE
:107F6000012001F07FFA1BE0002B19D1002001F065
:107F700079FA15E0364B984512D100205246012A75
:107F80005AD8297A0092201C1022FFF7FDF8C0B2BF
:107F90008346287C43B2002B3FDDFEF7E1FE3CE048
:107FA0002C4B98453BD02C4B984536D1534600205E
:107FB000112B41D82E7C0023E218517A0CAA995437
:107FC0000133072BF8D1297A50460090201C10224B
:107FD000214BFFF7D9F8C0B2834600230E930F93CD
:107FE0001093119312931393149315930EA800F00A
:107FF00025F9072E15D10EAB1A780CAB1B789A42D7
:108000000FD100230EAAD1180CA8C21849785278B3
:10801000914206D10133062BF4D158460CE00020E2
:108020000AE01E2000F088FB02200121022200F05D
:10803000CBFA00F0C5FBF0E717B03CBC9046994680
:10804000A246AB46F0BDC0464218000043180000EF
:1080500044180000451800009C18000070B582B05C
:10806000041CFEF7DDFF051C201CFEF7DBFF061CD1
:10807000201CFEF7DDFF0023042D25D1144A964273
:1080800022D1032820D1251C0835217A032300930F
:10809000281C04220E4BFFF777F8C0B200232B54A4
:1080A000421CD2B21121A954821CD2B2AB54C21CC0
:1080B000D2B22221A954021DD2B2AB54831DDBB22D
:1080C0000530C0B233222A54181C02B070BDC0461D
:1080D000A406000008B501F0F9F901F00FFA00203C
:1080E00008BDC046F0B585B0061C264800F0F6FD78
:1080F000051C431C12D14E2333704F23737054233D
:10810000B3705623F370412333714C2373714923A9
:10811000B3714423F371002333722FE0002808D198
:108120003023337001230022F25401330A2BFBD198
:1081300024E06C460D346F460337281C0A21FEF7F5
:10814000A7F82170281C0A21FEF75EF8051C013CE7
:10815000BC42F2D10023002101AA9A5C002A02D07D
:10816000002902D1D9B2002902D0581A3032325433
:1081700001330A2BF0D1591A00237354002005B0A3
:10818000F0BDC046F0FD000030B500230022C2540F
:108190000133202BFBD11A4B1B78002B29D10DE08A
:1081A000CA5C002A04D1FF221340202B07DD24E003
:1081B000C2540133202BF3D1002300E00023114AE5
:1081C0001278002A0FD105E0131E202B15DC0C7845
:1081D000002C02D10022C2540FE08454013201313C
:1081E000A942F1D109E0C2545A1C064D691C14354C
:1081F000EAE7037001230249D2E7002030BDC04600
:1082000024F0FF1F08F0FF1F0B4B1B78002B0DD134
:1082100003E0CA5C002A04D100E000230022C2541B
:1082200008E0C2540133202BF3D103E00370012393
:108230000149EEE70020704730F0FF1F002304499A
:108240009A008A58C2540133072BF9D10020704795
:10825000E0F7FF1F70B5051C054C064E201C00F012
:108260003DFD287004340135B442F7D1002070BDC3
:108270001CFC000068FC000000B583B0074B0193B4
:10828000074801A9012200F095FCBFF34F8F054A72
:10829000054BDA60BFF34F8FC046FDE7BBBBBBBBEE
:1082A00004FE00000400FA0500ED00E001230129AE
:1082B0002ED80301174AD3185B798B4227D00029A7
:1082C0000DD10301D3181B79012B18D1124B1A6859
:1082D00001321A60114B1A68013A1A600FE0012945
:1082E0000DD103010B4AD3181B79012B07D10A4B7F
:1082F0001A68013A1A60094B1A6801321A600001C3
:10830000044B1818417101230373022300E0032377
:10831000181C704768F7FF1F14F1FF1F20F1FF1FA3
:108320000123012A1BD80123002818D10B010D4875
:10833000C3189B7893420CD0002A04D10A4B1868CA
:108340000130186005E0012A03D1074B1868013895
:1083500018600901034B59188A700023FFE7181CA5
:108360007047C04668F7FF1F04F1FF1FF8B52B4B9D
:108370001B68002B50D000240025294F2B01DB194E
:10838000DE782301FB181B79B3422FD0012E11D1C7
:108390002301234AD3185B79012B04D1214B1A689E
:1083A00001321A6019E0002B17D11F4B1A680132F5
:1083B0001A6012E0002E10D12301194AD3185B79FC
:1083C000012B04D1174B1A68013A1A6005E0002B03
:1083D00003D1154B1A68013A1A600020211C0022B3
:1083E000FFF79EFF23010E4AD3181E7123010C4A8A
:1083F000D3181B7B002B09D00020211C0022FFF783
:108400008FFF2401064B1C190023237301352C1CFC
:10841000024B1B689D42B1D30020F8BD18F1FF1F2D
:1084200068F7FF1F20F1FF1F14F1FF1F30B500296F
:1084300002D00022174B1A60164B1B68164A1168AF
:10844000164A14680C19A3421FD21A01144D52196E
:108450000232994214D91578002D11D10022827070
:108460000F491A01545A04808A181179C170517940
:108470000171926882600133064A1360002007E0B0
:1084800001331032A342E4D301E0012000E00120D7
:1084900030BDC04608F1FF1F18F1FF1F10F1FF1F8C
:1084A00068F7FF1F08282AD88000164B1B589F46E4
:1084B000154B1868154B1B68C01821E0124B186843
:1084C0001EE0124B18681BE0114B1968114B18681D
:1084D000114B1A68114B1B6840188018C0180FE028
:1084E0000B4B18680CE00B4B186809E00B4B186835
:1084F00006E0094B186803E0094B186800E000200B
:108500007047C046F0C8000018F1FF1F10F1FF1FB0
:1085100014F1FF1F0CF1FF1F1CF1FF1F20F1FF1FC3
:1085200004F1FF1F70B50C4B1B68002B11D000210C
:1085300000240A4E084D23019B191B79012B03D1FE
:1085400000200022FFF7ECFE0134211C2B689C4226
:10855000F1D3002070BDC04618F1FF1F68F7FF1F60
:1085600010B5002813D10E4B1A68002A12D00D4BFB
:108570001B888B4211D00B4C03E00301E35A8B4262
:108580000CD001309042F8D10120404206E0012099
:10859000404203E00120404200E0002010BDC04600
:1085A00018F1FF1F68F7FF1F38B5041C151CFFF7F3
:1085B000D7FF011C431C04D0201C2A1CFFF7B0FE6F
:1085C00001E00120404238BDF0B5474680B4051CAB
:1085D0000C1C171C0120012900D981E00020291C56
:1085E000FFF7BEFF061C701C78D0002C02D0012CB7
:1085F00006D06DE033013C4AD31800229A6067E050
:108600003301394AD318996888460F2D45D004D8CC
:10861000022D05D00E2D2FD050E0323D0A2D4DD821
:10862000FF233B40032B05D0042B0ED0023B5A42C4
:1086300053410BE03B0A0833DBB232012A498A1866
:10864000042140460143916000E0032301229A4047
:10865000131C320124498A1891680B43936002224B
:10866000934304D0301C0021FFF720FE26E0301C8D
:108670000121FFF71BFE21E0022F04D0FB1E5A420E
:1086800053415B0000E00123320117498A180121A0
:10869000994040460143916000E00023012F03D040
:1086A000022F02D1012300E0002332010E498A1873
:1086B000012199400B1C91680B43936033010A4AD6
:1086C000D3189B68434503D03301D31801221A7392
:1086D0003601054B9E19F470002001E00123584239
:1086E00004BC9046F0BDC04668F7FF1F70B5051C7E
:1086F0000E1C141C0123012A18D8FFF731FF012397
:10870000013013D10123002D10D1094B1B68052B1B
:108710000BD0084A190150180125857044718E52FA
:108720000133034A1360002300E00123181C70BDCD
:1087300018F1FF1F68F7FF1FF0B5474680B4041C0F
:1087400000F04EFB00280ED000F056FB1B4B1B68C0
:108750000124002B03D00022184B1A60002400F0E3
:108760004FFB201C27E000F047FBA3001B195C0017
:108770000025124A904601267642F7170BE0A4190D
:108780007D4100F03DFB642000F032F800F034FB46
:10879000231C2B4303D042461368002BEFD0074B1A
:1087A0001B680124002B03D00022044B1A60002414
:1087B00000F026FB201C04BC9046F0BD1CF0FF1FFF
:1087C00008B500F00DFB002807D000F015FB0122D2
:1087D000064B1A6000F014FB06E000F00DFB0122CE
:1087E000024B1A6000F00CFB002008BD1CF0FF1FBC
:1087F00010B582B0041C0B4B18680B49FDF704FD43
:1088000060430B21FDF700FD00230193019B98427B
:1088100006D9C046019B01330193019B9842F8D8C9
:1088200002B010BD50F0FF1F40420F0010B50949C3
:108830000C68002C0CD008498A4203D007498A42B0
:1088400003D101E0002200E00122181C111CA04706
:1088500010BDC04624F1FF1FEA030000EB03000037
:1088600008B5044801F094FB034801F083F90020A7
:1088700008BDC046001002400080004038B5041C0E
:108880008378012B37D0002B05D0022B64D0032B2B
:1088900000D192E0BFE0614B1978C0788000604A57
:1088A00082583F20024081430A431A70A378032B69
:1088B00005D95C484E215C4A5C4B02F031FE574AB8
:1088C000D05C80210143D154A27813015848C018CC
:1088D000584901F0C9F9584B01221A60C022920090
:1088E00098582479A401FF210C408843211C01439E
:1088F0009950002090E0494B5978C0788000484A50
:1089000082583F20024081430A435A70A378032BC8
:1089100005D944484E21444A444B02F001FE3F4AE7
:10892000D05C80210143D154A27813014048C01883
:10893000404901F099F9404B02221A60C02292008E
:108940009D5820798001FF21084000023B492940C1
:108950000143995000205FE0304B9978C078800047
:108960002F4A82583F20024081430A439A70A378DD
:10897000032B05D92B484E212B4A2C4B02F0D0FD5E
:10898000264AD05C80210143D154A27813012848A3
:10899000C018284901F068F9274B04221A60C02248
:1089A00092009D5820798001FF210840000424494D
:1089B00029400143995000202EE0184BD978C07807
:1089C0008000174A82583F20024081430A43DA70F0
:1089D000A378032B05D913484E21134A134B02F0F9
:1089E0009FFD0E4AD05C80210143D154A27813012F
:1089F0000F48C0180F4901F037F90F4B08221A60D1
:108A0000C02292009958207980070902090A01437F
:108A10009950002000E0FF2040B238BD0010024015
:108A200080C900002CC9000014C9000054C900000E
:108A300028F1FF1F0080004000E100E0FF00FFFF81
:108A4000FFFF00FF10B582B0041C437A5AB2042A1B
:108A500024DC027A51B2042922DC013104D052B262
:108A6000120112498A1800E0002259B2013104D0E3
:108A70005BB21B010D49CB1800E0002321780229CD
:108A800010D1009201930A480A490B4AE36802F0A8
:108A900041FA6268094B1A60002004E0FF2002E0FE
:108AA000FF2000E0FF2040B202B010BD28F1FF1F00
:108AB00000C0064068F1FF1F2D88000024F1FF1F51
:108AC00000B583B043680093037A01930378022BC7
:108AD00013D1437A002B06D10A480B496A4602F0AB
:108AE00061FA00200AE00020012B07D10548064961
:108AF0006A4602F0D7FA002000E0FF2040B203B03F
:108B000000BDC04600C0064068F1FF1F08B501F077
:108B10000BFA08BD08B501F00FFA08BD08B501F061
:108B200013FA08BD08B501F017FA08BD10B51B48C7
:108B30000023036043608360C3600361436183611A
:108B4000C361036243628362C362036301F0BEFADE
:108B50000123002820D1114C201C0421104A01F0CF
:108B600079FB201C01210F4A01F074FB201C00211D
:108B70000D4A01F06FFB201C0C4901F0E5FA0223BD
:108B8000002809D100230A4C802149009A00105185
:108B900001338B42FAD10023181C10BD8CF1FF1F4A
:108BA000C8F5FF1FC4F1FF1FC0F1FF1F20F0FF1F1A
:108BB000C8F1FF1FF8B54F464646C0B4904600299D
:108BC00074D0002A05D0021C002310CA013343458B
:108BD000FBD10123820770D13A4B1A6801321A6027
:108BE000830A9B0299461C1C0023374A80277F007A
:108BF00040CC9D00AE500133BB42F9D14346002B1F
:108C000013D04A46801A80084746002200232E4E81
:108C1000151892005458AA00945101331A1EBA42F2
:108C2000F6D1012342461340984400F0E5F843464C
:108C30009C006442254B1A68254BD218121B25480C
:108C40004946254B01F066FB0123002835D11F4B17
:108C50001A681F4BD218121B1E484946012301F007
:108C60009BFA0123002828D1184B1B681948494654
:108C7000154A01F0A7FB012300281ED100F0C0F81F
:108C80004A461368104A12689A4211D14A46043281
:108C900001230D4C80256D00116898000059884211
:108CA00008D101330432AB42F6D105E0012304E0E0
:108CB000012302E0012300E00023181C0CBC9046B5
:108CC0009946F8BD88F1FF1FC8F1FF1FC0F1FF1FD3
:108CD00000FCFFFF8CF1FF1F6B66656B006870473F
:108CE000024B0360002343607047C046A861000048
:108CF00000207047782303707047C04670B584B079
:108D0000051C0E1C684601F003FE00236846037232
:108D100032788280C38001234370C370AA00274B3E
:108D2000D458002000F026FE021C201C694601F0E9
:108D30002FFD002D02D0012D10D01FE0204BC222AC
:108D400092009C58B1688801FF2108408C43211C87
:108D500001439950802252001A600FE0184BC22242
:108D600092009C58B0688101FF200840000215491C
:108D7000214001439950802292001A60124C002336
:108D800023606360A360E36023616361A361E361C7
:108D90002362AD00094BED58281C211C726800238A
:108DA00001F0D2FD281C211C202201F009FE32789E
:108DB000064B1A70002004B070BDC046A4C9000064
:108DC00000E100E0FF00FFFFB8F7FF1FCCF5FF1F39
:108DD00008B501F02FFE08BD08B501F037FE08BD4B
:108DE00082B0EFF305833F22134001930198431EA5
:108DF0009841C0B202B0704772B600207047C046BA
:108E000062B600207047C04608B5074B196880223B
:108E10000A431A60054B1B68002B00D09847BFF32C
:108E20004F8FBFF36F8F08BD00000440D4F5FF1FC4
:108E300030B583B0041C0D1C684601F063FE0023AE
:108E40006A461370D3700F2D04D9012313710023C8
:108E5000937103E000236A4613719571012C12D0BF
:108E6000002C04D0022C1AD0032C24D036E00C2085
:108E700000F080FD0F2D02D91A4B186026E0E84063
:108E8000184B186022E0132000F074FD0F2D02D95A
:108E9000144B18601AE0E840124B186016E00720E7
:108EA00000F068FD0F2D02D90E4B18600EE0E8406F
:108EB0000C4B18600AE00A2000F05CFD0F2D02D96F
:108EC000084B186002E0E840064B18606B465C7186
:108ED0000548694601F0DAFD002000E0012003B0FA
:108EE00030BDC046D0F5FF1F00000440EEEEEEEEB0
:108EF00010B51C1C184B1A60184B1A68081C00216E
:108F00000023FDF751FA134B114AFDF72DFA002803
:108F100006D113482421FF31124A134B02F000FB03
:108F20000138124A9060136880218B4340210B4323
:108F300013600F4AC72189005358A401FF20044041
:108F400083431C43545080235B051360002010BDF5
:108F500040420F0000000000D4F5FF1FD0F5FF1FB6
:108F6000ACC90000E0C90000D4C900000000044002
:108F700000E100E0C046C046044B1A6880218A43E5
:108F800001210A431A6000207047C04600000440D7
:108F900008B586235B000F4AD358DA0709D50121AB
:108FA00086235B000B4AD1500B4B1B68002B00D073
:108FB00098478E235B00074AD358DA0709D5012169
:108FC0008E235B00034AD150044B1B68002B00D05A
:108FD000984708BD00700340D8F5FF1FDCF5FF1F60
:108FE00000B583B001A900230B70034801F0B8FD60
:108FF000002003B000BDC04600700340EEEEEEEE70
:1090000038B50D1C1C1C002802D001282DD059E0B9
:109010002F4B1A60022000F0ADFC00212A1C002317
:10902000FDF7C2F9294B284AFDF79EF9294B80220A
:10903000520098509958284A11608422520098583A
:10904000022101439950254BC52292009D58A4014D
:10905000FF210C40210422482C1C04400C439C504E
:109060008022D2031A6000202DE01E4B1A600220DD
:1090700000F080FC00212A1C0023FDF795F9134B1A
:10908000114AFDF771F9134B8822520098509958F4
:10909000114A11608C2252009858022101439950C4
:1090A0000E4BC52292009D58A401FF210C402104C3
:1090B0000B482C1C04400C439C508022D2031A60A5
:1090C000002000E0012038BD40420F0000000000F9
:1090D000D8F5FF1F00700340DCF7FF1F00E100E040
:1090E000FFFF00FFDCF5FF1F012808D80001054B3A
:1090F000C0180368012293430360002000E00120B0
:109100007047C0460871034001280BD80001064B88
:10911000C018026801239A43026002681343036087
:10912000002000E0012070470871034010B50124C1
:10913000012802D8FFF764FF0024201C10BDC046A0
:1091400008B50123012802D8FFF7CEFF0023181C21
:1091500008BDC04608B50123012802D8FFF7D4FF97
:109160000023181C08BDC046002902D10022014B73
:109170001A707047E0F5FF1F08B50B4801F002FEBA
:10918000282303420ED0030704D007480F2101F023
:10919000FFFD07E0054B1B68002B01D0984701E05D
:1091A000014BDB7908BDC04600C00640E4F5FF1F57
:1091B000E1235B02036000230371437183718360C9
:1091C000092202738373704730B589B00D1C06AC59
:1091D000201C01F0ABFD2A6806920123A371E37104
:1091E000022000F0C7FB021C2348211C01F008FDEF
:1091F000AB7B002B02D0012B10D036E000221F4B9E
:109200001A701D488221090301F0AAFD8022D201B3
:109210001B4B1A60AA681B4B1A6028E00124174BED
:109220001C7015488221090301F09AFD8022D201A9
:10923000134B1A60AA68134B1A6000256B461D7009
:109240005D709C701C7107236A46D3706846FFF7F7
:1092500015FB02A80C4B4360022303700472C56027
:10926000FF234372FFF7EEFB01E0FF2000E0002048
:1092700040B209B030BDC04600C00640E1F5FF1F56
:1092800000E100E0E4F5FF1F6991000000B585B042
:109290000D4B1B78002B02D0012B04D00DE00B48A6
:1092A00001F094FD0BE001A80023437202724160BB
:1092B00002230370FFF704FC01E0FF2000E0002020
:1092C00040B205B000BDC046E1F5FF1F00C006403A
:1092D00038B50D4B1B78002B02D0012B03D00DE0CD
:1092E0000A4D402404E00A4B1B78002BF8D0FEE71F
:1092F000281C01F047FD0442FAD001E0FF2000E005
:10930000002040B238BDC046E1F5FF1F00C0064056
:10931000E0F5FF1F014BD879C0B2704700C006408E
:1093200000B583B0684600F0BBFB002369464B7074
:1093300003224A71CB70034800F0CCFB002003B03D
:1093400000BDC0460070044008B5024800F0F0FBC4
:1093500008BDC0460070044008B5094BC018800025
:10936000FFF7BCFC022805D0032805D0012805D052
:10937000002004E00F2002E0102000E00E2008BDD5
:10938000083F000000B583B001AA01231370002339
:1093900053700348022101F075F8002003B000BDAE
:1093A00080F00F40012804D0002806D0022808D001
:1093B0000AE00422054B5A6006E00422034B9A603F
:1093C00002E00422014BDA607047C04680F00F4093
:1093D00000B583B001AA0123137000235370034822
:1093E0000D2101F04FF8002003B000BD00F00F4048
:1093F000012804D180229201044B5A6005E0002824
:1094000003D180229201014B9A60704700F00F4017
:1094100000B583B001AA0023137003480C2101F0AA
:1094200031F8002003B000BD00F00F4000B583B05C
:1094300001AA01231370002353700348022101F095
:1094400021F8002003B000BD40F00F4008B5FFF741
:1094500099FFFFF7BDFFFFF7DBFFFFF7E7FF0020F6
:1094600008BDC046012803D10422044B5A6004E021
:10947000002802D10422014B9A60704740F00F404F
:1094800000B583B001AA012313705370034804216F
:1094900000F0F8FF002003B000BDC04600F00F4010
:1094A000012808D0002802D0022808D00AE01022A3
:1094B000054B5A6006E01022034B9A6002E010222E
:1094C000014BDA607047C04600F00F4070B5FC24D5
:1094D0002402074E074D201CFFF700FCA319064A83
:1094E0009B1818600434AC42F5D1002070BDC04612
:1094F000E0F7FF1F1CFC00000004FFFF70B586B002
:10950000FC200002FFF7EAFB08280FD02C4B0022BA
:109510005A609A60DA601A615A619A61DA61294A7E
:109520001168196012791A71012047E0FE200002CB
:10953000FFF7D4FB051C421C3FD00023009301938E
:109540006C462381002826D015346E460B36281C25
:109550000A21FCF79DFE2170281C0A21FCF754FE0D
:10956000051C013CB442F2D10023002103AA9A5CFD
:10957000002A02D0002902D1D9B2002903D0581AFA
:1095800030326C46225401330A2BEFD1591A002392
:109590006A46535402E030236C462370084C201C6A
:1095A00002F0F7F820180849022202F025F8201CE2
:1095B000694602F0E1F8002000E0002006B070BD2E
:1095C00030F0FF1FF8C9000000CA0000F0B583B0FA
:1095D00001AB01221A7000225A700024074F084E76
:1095E000084DA35D9B00D859615D01AA00F04AFFB8
:1095F0000134082CF5D1002003B0F0BD14CA0000DE
:1096000004CA00000CCA0000F0B50023074E084D44
:10961000084C01205A5D92009259195D071C8F4039
:1096200097600133082BF5D10020F0BD14CA00006B
:1096300004CA00000CCA0000072807D8064B1B5CB0
:109640008B4206D0044B1954002003E00120404215
:1096500000E000207047C046E8F5FF1F01230728FF
:1096600001D8024B1B5C181C7047C046E8F5FF1F71
:10967000F0B500230C4884460C4F0D4E0D4D0124CF
:10968000DA5D920061465258995D585D002803D119
:10969000201C8840906002E0201C8840506001330C
:1096A000082BEDD10020F0BD14CA000004CA000050
:1096B0000CCA0000E8F5FF1F00207047002070472B
:1096C000002070470020704700207047002070473E
:1096D0000020704738B5064C022565600020FFF772
:1096E000D5FD0020FFF7F4FDA560002038BDC04681
:1096F000C0F00F4008B50020FFF70CFE08BDC046C3
:1097000010B582B001AA0123137000235370054CD9
:10971000201C012100F0B6FE0223A360002002B04D
:1097200010BDC046C0F00F4010B50C1C0020FFF764
:10973000E7FF0020211CFFF747FD002010BDC046B9
:1097400030B5174B174A9A4210D01749890809D0EB
:1097500000230022134C1248C558E550013204334F
:109760008A42F9D1114B0F4A9A6002E00F4B0C4A22
:109770009A600F4B0F49C91A07D000230E4C0C48B2
:10978000C25CE25401339942FAD10C4B0C49C91A1C
:1097900005D0591800221A7001338B42FBD130BD1D
:1097A000005D0000005D00000000000000ED00E032
:1097B000A8D4000064D5000000F0FF1FC0F0FF1F18
:1097C00008F8FF1F002188235B01014AD150704730
:1097D00000700440094B1B789A0706D4074B9B790D
:1097E0001B079B0F0020012B06D1044B5A78012345
:1097F0001A409200024BD0587047C04600400640C5
:1098000010CB000008B5084B1B785BB20020002B82
:1098100009DA064B1B68181E05D105488921054A3F
:10982000054B01F07DFE08BD0050064000F8FF1F0B
:10983000BCCA000018CB0000E4CA000008B5114BF8
:109840001B681B039B0F022B10D0032B03D000209F
:10985000002B15D102E0FA20800011E0FFF7D2FFC3
:10986000094BC01843425841C00309E0074B186830
:10987000002805D106489D21064A074B01F050FEFD
:1098800008BDC046007004400080FFFFFCF7FF1FCA
:10989000BCCA00008CCA0000F0CA000010B5074B1B
:1098A000074A416899501C6801788904C022120354
:1098B0001140044A22400A431A6010BD007004405F
:1098C00044100000FFFFF3FF38B5074B1D7AEDB2DF
:1098D0001C7EE4B2FFF77EFF2D076D0F07231C40AF
:1098E0002C19E04038BDC04600400640074B1B7EA7
:1098F0005BB2002B06DB054B9B791B079B0F03D14B
:10990000034802E0024800E00020704700400640A3
:10991000006CDC0208B5114B9B791B079B0F012BD8
:1099200006D0002B02D0022B0AD014E00C4813E022
:10993000FFF750FF094B1B7A1B075B0FD8400BE06A
:10994000084B1868002807D107488C214900074AAE
:10995000074B01F0E5FD002008BDC0460040064071
:10996000006CDC0200F8FF1FBCCA000078CA0000CF
:10997000E4CA000038B513282CD88000164B1B58B9
:109980009F46FA20800026E0FFF7C4FF134B144ADD
:10999000D158090F0131FCF737FC1CE0FFF7BAFF83
:1099A0000F4D0E4C2959090F0131FCF72DFC295997
:1099B0004903490F0131FCF727FC0CE0FFF73EFF9C
:1099C00009E0FFF71FFF06E0FFF77EFF03E0FFF768
:1099D0008DFF00E0002038BD28CA000044100000C0
:1099E0000070044010B5002806D129484421FF31F9
:1099F000284A294B01F094FD284B9B791B079B0FAC
:109A0000012B13D10378012B10D1244B5A78012359
:109A10001A4083789A4209D0204B19783F220A4095
:109A20001A70191C0C228B791342FCD1C278520097
:109A30000E231A40194B1A724179C9010279072481
:109A400022400A43D2B21A76597882780124224001
:109A5000A1430A435A700278920141780A43D2B274
:109A60001A705B785A0702D50378022B03D000786E
:109A70000A490C2205E0094902228B791342FCD0E5
:109A8000F5E78B7913409B089842FAD1002010BD6E
:109A9000BCCA0000A4CA000000CB00000040064081
:109AA00008B5002805D108482721084A084B01F0CD
:109AB00037FD00230370012242708370C37003716D
:109AC0000323437108BDC04630CB00005CCB0000CF
:109AD00054CB000010B5002905D112484B21124A81
:109AE000124B01F01DFD4A78520002231A404B79B7
:109AF0009B000C2423401A430B781A438B781B01DC
:109B0000102423401A43CB785B01202423401A43BE
:109B10000B799B01FF210B401A4388235B01C25044
:109B200010BDC04630CB000074CB000054CB000009
:109B3000EFF3108272B6044B5521C150AA21C150D7
:109B400082F310887047C0460411000008B5054B29
:109B5000984205D004484121044A054B01F0E0FC3D
:109B6000002008BD00800040ECCB000050CD00007C
:109B700010CC000008B5FFF7E9FF034B19688022FD
:109B800052000A431A6008BD4080044008B503290A
:109B900005D90D486D210D4A0D4B01F0C1FC09019D
:109BA00040188422520083181968802252040A4304
:109BB0001A6000228021490042508221490042500F
:109BC0001A60044A5A6008BDECCB000080CB00004C
:109BD00034CC00008000002038B5032905D91D4889
:109BE00093211D4A1D4B01F09BFC002A05D1194809
:109BF0009421194A1A4B01F093FC09014018802363
:109C00005B001168C15082235B005168C150D1686C
:109C10000B021B0A0930FF3003604468D17A490403
:109C2000C023DB021940957AED0480231B032B40EF
:109C30000B430C4921400B43547A2405C02189036E
:109C400021400B43117A89058022D2030A40134335
:109C5000436038BDECCB000094CB000034CC000056
:109C600060CC0000FFFF81FF70B5041C0E1C151CAA
:109C7000002805D11448E721144A154B01F050FC87
:109C8000032A05D91048E821104A124B01F048FC7C
:109C90000021102201F0B9FC26602571301CFFF76D
:109CA00055FF80004519AA000B4BD45045190B4BAA
:109CB000EB5C5AB2803206D01F22134001229A4038
:109CC000131C074A136070BDECCB0000D8CB00001A
:109CD00070CC000034CC0000F0F5FF1FD4CB0000A6
:109CE00000E100E0F8B54F464646C0B4041C894682
:109CF000161C9846089D0AAB1F78002806D13848E4
:109D000088214900374A384B01F00AFC002906D166
:109D100033481221FF31334A344B01F001FC4346F2
:109D2000002B06D12E48892149002E4A304B01F0E4
:109D3000F7FB531E012B08D9042A06D0284814210A
:109D4000FF31284A2B4B01F0EBFB6B1E012B08D98E
:109D5000042D06D022488A214900224A264B01F0D0
:109D6000DFFB201C0021102201F04FFC4B4623603A
:109D700043466360099BE360022E06D0042E07D0A1
:109D8000012E07D10123637204E00223637201E014
:109D900000236372022D06D0042D07D0012D07D1B8
:109DA0000123E37204E00223E37201E00023E37283
:109DB000012F08D0002F02D0022F09D00CE0012380
:109DC0002372A37208E0002323720123A37203E02D
:109DD000012323720023A3720CBC90469946F8BD60
:109DE000ECCB000060CD000060CC000080CC000017
:109DF00090CC0000A4CC0000E0CC000008B5002806
:109E000006D105485821FF31044A054B01F088FB73
:109E10008160C26008BDC046ECCB000040CD0000B0
:109E200070CC000070B5041C0D1C161C002806D157
:109E30001D48B62149001D4A1D4B01F071FB002948
:109E400006D119486E21FF31184A1A4B01F068FB00
:109E5000006821790B01C3180933FF331B689A018D
:109E60001FD4FFF793FE217920682A1CFFF7B4FE68
:109E70000020F30716D523682279032A06D90E4855
:109E80005621FF310D4A0E4B01F04AFB12019B187F
:109E90000933FF335968802212060A435A600020B2
:109EA00000E0084870BDC046ECCB000090CD00003B
:109EB00070CC000060CC00001CCD0000BCCB0000CA
:109EC00054C900008813000008B5002806D11048C6
:109ED000CC2149000F4A104B01F022FB03680279A4
:109EE000032A06D90D48C421FF310D4A0D4B01F05C
:109EF00017FB12019B180933FF33196880225204A3
:109F00000A431A608368002B01D0C168984708BDD6
:109F1000ECCB0000ACCB000070CC00001CCD0000EE
:109F200074CD000054C9000008B5024B1868FFF753
:109F3000CBFF08BDF0F5FF1F08B5024B5868FFF7CF
:109F4000C3FF08BDF0F5FF1F08B5024B9868FFF787
:109F5000BBFF08BDF0F5FF1F08B5024BD868FFF73F
:109F6000B3FF08BDF0F5FF1F08B5054B984205D0BB
:109F700004483B21044A054B01F0D2FA002008BDF9
:109F800000100240A4CD0000F4CD0000CCCD0000B4
:109F900008B5FFF7E9FF034B196802220A431A606C
:109FA00008BDC0463C800440002807D0C369002B90
:109FB00006D01B68022B05D06D2004E0042002E0CF
:109FC0006D2000E00020704710B570220C4B1A7015
:109FD000FFF7EAFF031C002B11D1094C094B1B684A
:109FE000201C98472378DBB267209A0607D46820A4
:109FF000DA0604D4DA0701D5692000E0002010BD9C
:10A000000000024040F6FF1F30B500280FD0013B92
:10A0100065240D1C15431D420CD10368662499422A
:10A0200008D38A1841685B189A4202D902E00424D6
:10A0300000E00024201C30BD70B5051C0E1C141C53
:10A04000002819D00420002A17D0101C002120223B
:10A0500001F0DBFA2B68F61A2660EB686360297A58
:10A060006868FCF7D1F8A0600423E36023616361B2
:10A07000A361E361002000E0042070BD38B5002832
:10A0800019D0C4690420002C16D06568281C0B491F
:10A090000C2201F0B1FA0135094B1D60A568281C9E
:10A0A00008491C2201F0A8FA0135074B1D60022364
:10A0B0002360002000E0042038BDC04650CE0000E0
:10A0C00040F6FF1F5CCE000050F6FF1F10B5041EC7
:10A0D0002CD0174B174AD3581B011B0F0F2B04D042
:10A0E0005B00154A9A5A920201E080221202002374
:10A0F00023606260012222728022D200E2606361EA
:10A10000A361201CFFF750FF00280AD00B4B002250
:10A110001A600B4A5A600B4A9A60E361201CFFF7F1
:10A12000ADFF002323626362002000E0042010BD25
:10A130004C1000000070044030CE000044F6FF1FB9
:10A1400054F6FF1F00F6FF1F002818D0002918D072
:10A150000D4B9B78DBB203221A40022A03D10B4B32
:10A160000B6000200EE03F229343802B03D1084B6D
:10A170000B60002006E0074B0B60002002E004208B
:10A1800000E004207047C046000002403CC33CC3CE
:10A19000A55AA55AA53CC35AF0B55F4656464D464A
:10A1A0004446F0B48BB080460C1C151C9A4602AA9B
:10A1B000FFF742FF079B4046211C2A1CFFF724FFA4
:10A1C000021C002A3BD14046211C02AAFFF734FFA3
:10A1D000029E049A9146534277421F407F42B74203
:10A1E00000D14F44002D27D053461A02FF231A43B3
:10A1F0000192164A9346164B9A46BC1BAC4200D9B4
:10A200002C1C201C0799FBF7FFFF33021B0A80223E
:10A21000520413435A4613600004019B18435246EC
:10A2200010604046FFF7D0FE002808D12D1B3619DC
:10A230004F44002DE1D101E0002000E000200BB0F0
:10A240003CBC90469946A246AB46F0BD0400024095
:10A250000800024010B5141C002832D0002A32D069
:10A26000092932D889001A4B5B589F46C068106094
:10A2700000202BE040681060002027E0017A406851
:10A28000FBF7C2FF2060002020E0037A136000206B
:10A290001CE000681060002018E00023136000201C
:10A2A00014E040691060002010E080691060002018
:10A2B0000CE0006A1060002008E0406A1060002096
:10A2C00004E0042002E0042000E06A2010BDC04643
:10A2D00008CE000010B5044B1C6804488021C9005A
:10A2E0000A220123A04710BD50F6FF1F0C3000F0DA
:10A2F00010B50C1CFFF758FE002803D1012C01D12A
:10A30000FFF7E8FF10BDC04608B50121FFF7F0FFD9
:10A3100008BDC046F0B557464E464546E0B488B045
:10A32000061C0C1C171C98466A46FFF785FE049B0A
:10A33000301C211C3A1CFFF767FE051C002D36D18E
:10A340006B201E4B984532D125E0381C4146FBF767
:10A350005BFF471C42465743013F301C0021FFF77B
:10A36000C7FFA74212D390231B059A46144B994668
:10A3700023021B0A524613434A461360301CFFF760
:10A3800023FE051E02D14444A742F1D2301CFFF740
:10A39000BBFF281C0BE0009C019B9846631EDF1945
:10A3A000381C4146FBF774FF0029CED1D5E708B031
:10A3B0001CBC90469946A246F0BDC0466B66656BD4
:10A3C00004000240F0B55F4656464D464446F0B4A0
:10A3D00089B081460E1C141C1D1C0420002A44D088
:10A3E00048466A46FFF728FE039B4846311C2A1C54
:10A3F000FFF70AFE061C002E37D1009F48460021B9
:10A40000FFF776FF002D2CD01B4A92461B4B9B4634
:10A41000221D9046236852461360039B042B07D1EC
:10A420003B021B0AC022D2041A43154B1A600DE0EE
:10A43000082B0BD11B19984663685A4613603A02E1
:10A44000120AE023DB041A430D4B1A604846FFF75B
:10A45000BBFD061E05D1039BFF18ED1A01D0444633
:10A46000D6E74846FFF750FF301C09B03CBC904689
:10A470009946A246AB46F0BD080002400C000240DF
:10A480000400024008B5002A05D110485F21104A97
:10A49000104B01F045F81378002B05D143690122D8
:10A4A0008A40934343610FE05378002B03D101238B
:10A4B0008B40836002E001238B40436043690122AB
:10A4C0008A40111C1943416108BDC04688CE000076
:10A4D00078CE000054CB000008B5C378DA0602D469
:10A4E00083789A0603D5054B1B68984702E0044B16
:10A4F0001B689847BFF34F8F08BDC0469CF6FF1FEF
:10A50000A0F6FF1F08B5084B984204D0074B9842AD
:10A5100003D1012007E0002005E00548B921054AE4
:10A52000054B00F0FDFF08BD0060064000700640CE
:10A5300070CF000064D0000094CF00004B0603D51C
:10A5400082784023134383708B0605D5837950228C
:10A5500093432022134383717047C0464B0603D5B3
:10A5600083784022934383708B0603D583797022CE
:10A57000934383717047C046031CC078C0B29A7978
:10A58000510602D58022D20110439B79DA0602D50A
:10A5900080235B0118437047F0B583B0051C0C1E87
:10A5A00005D176487649774A774B00F0B9FF6B467C
:10A5B0000022DA71DA790132D2B2DA71FFF7DCFF08
:10A5C000271D0604360C72041CD5AA7940231343B8
:10A5D000AB710023EB700223EB702378002B0ED0BD
:10A5E00020232371002222612270A2691A4206D020
:10A5F000E369002B03D0281C391C226A9847730694
:10A6000000D4B8E0F20416D5A979102310220A4329
:10A61000AA710022EA700222EA702371A2691A422A
:10A6200006D0E369002B03D0281C391C226A984706
:10A63000730600D49FE00223EB70F2071ED5AB78BF
:10A6400018229343AB702A79D2B26B46DA71E36871
:10A65000002B00D18FE0202323714C4A226100227D
:10A660002270A2691A4200D185E0E369002B00D173
:10A6700081E0226A281C391C98477CE0730625D5A6
:10A68000012323702371720705D5AA781023134381
:10A69000AB7001260EE0AB7818229343AB702A7999
:10A6A000D2B26B46DA7107331B780026002B01D13A
:10A6B000402323712379A2691A4232D0E369002B27
:10A6C0002FD0281C391C226A98472AE0330623D54C
:10A6D000720728D4A368002B02D0E368002B0AD1AC
:10A6E00004232371E369002B03D0281C391C226A40
:10A6F0009847002363612B79D9B2E368002B3AD0E5
:10A70000A268531CA3601170E368013BE3606369B6
:10A7100001336361E3682EE02A79D2B26B46DA71C5
:10A7200029E0002E27D0A368002B02D0E368002B7D
:10A730000AD102232371E369002B03D0281C391CA2
:10A74000226A984700236361E368002B0BD0A3685B
:10A750005A1CA2601B782B71E368013BE3606369BC
:10A760000133636107E0AB7818229343AB702A7919
:10A77000D2B26B46DA7103B0F0BDC04670CF0000B4
:10A78000CE06000050CF0000E4CF00004E040000D1
:10A79000F0B55F4656464D464446F0B483B001904E
:10A7A0000C1C914605D150485049514A514B00F07C
:10A7B000B7FE0198FFF7A6FE80004F4BC258130C5E
:10A7C0004E495B1819681204120C01209040021CBB
:10A7D0000A431A600023019A137053709370FF228A
:10A7E0000199CA704B7150228A71CB71237A002B68
:10A7F00002D0022B06D01BE0A3885B00DBB2019ADB
:10A80000137015E0A388E2889A4205D836483C497F
:10A81000374A3C4B00F084FE5B00DBB201990B70C1
:10A82000E3885B00DBB2CB714A79082313434B7199
:10A83000019B9A782378DB0102218A431A43A3788B
:10A840005B000B401343DBB201998B70497963784D
:10A85000DB016F220A401A43D2B2E3781B011021B8
:10A860000B40134301994B71E568002292469346D1
:10A870000021009101267642234A90460127534643
:10A880009F4022494F43002463004246985A784330
:10A890004946FBF7B9FC431B854200D92B1AB3424A
:10A8A00005D252460092A346002B0CD01E1C013448
:10A8B000402CE9D15146022905D052460132002EE2
:10A8C00001D09246DAE73F235A46134000998A01A5
:10A8D0001343DBB2019A537003B03CBC90469946D7
:10A8E000A246AB46F0BDC04670CF00007F05000019
:10A8F00074D0000000D00000C0D000000070044000
:10A900009C0500000CD00000D0CE00000065CD1DDD
:10A9100008B5002806D10948B921C900084A094BE1
:10A9200000F0FEFD0023037243708370C370FA23AE
:10A930001B01C3600123037008BDC04670CF000037
:10A94000A4D0000000D00000F8B50C1C171C1E1C81
:10A95000002905D111481249124A134B00F0E0FDBD
:10A96000FFF7D0FD051C201C0021242200F04DFE25
:10A97000E7612662AA000D4BD4500D4A0D4B1A60B8
:10A980000D4B5B5D5AB2803206D01F22134001226C
:10A990009A40131C094A1360F8BDC04670CF0000EE
:10A9A0006E06000044D00000F8CF000094F6FF1FB0
:10A9B00099A50000A0F6FF1F6CCF000000E100E0A9
:10A9C00070B5051C0C1C161C002905D1144815492E
:10A9D000154A164B00F0A4FD0B78002B1DD1602109
:10A9E000FFF7BCFD201D0021142200F00EFE012304
:10A9F000237046231E43A661AA7950231A43D2B27C
:10AA0000AA71AA791343DBB2AB711223EB70281C35
:10AA10006021FFF793FD002000E0054870BDC046AF
:10AA200070CF00008606000084D00000F8CF000040
:10AA30004C04000008B5034B19680348FFF74CFDB0
:10AA400008BDC04694F6FF1F0060064008B5034BE2
:10AA500059680348FFF740FD08BDC04694F6FF1F44
:10AA60000070064008B5054B984205D004484221C5
:10AA7000044A054B00F054FD002008BD00000440CE
:10AA8000C8D0000038D10000F0D0000038B5051C57
:10AA90000C1E05D117485221174A184B00F040FDF3
:10AAA000FFF7E0FF164B196801220A431A60E178AC
:10AAB00089000423194022785200022002400A43F0
:10AAC000A178C900082001400A43617809013020BB
:10AAD00001400A432A60A279D20078210A402179F4
:10AAE00089000B401343627903210A4013436B60D2
:10AAF00038BDC046C8D0000014D1000054CB0000BF
:10AB00003880044008B5002805D108489521084A36
:10AB1000084B00F005FD0023037043708370C37081
:10AB2000012202714271837108BDC046C8D0000085
:10AB300020D1000054CB000008B5054B984205D049
:10AB400004484E21044A054B00F0EAFC002008BDF1
:10AB50000070034068D1000058D100008CD1000083
:10AB600038B5041C0D1E05D114485521144A154B47
:10AB700000F0D6FCFFF7E0FF134B196880221204A7
:10AB80000A431A6023680222934323602B78002B28
:10AB900009D022680D4B1A60226801218A43226085
:10ABA00022681A6008E02268084B1A6021680122B6
:10ABB0000A43226022681A6038BDC04668D100008E
:10ABC0004CD1000054CB00003C800440DCF7FF1F58
:10ABD00008B5002808D0064B984207D00548A521A3
:10ABE000054A064B00F09CFC002000E0022008BD56
:10ABF00000C00640D4D1000064D20000F8D10000AB
:10AC0000F8B54F464646C0B4071C0E1C904605D109
:10AC10003F48D0213F4A404B00F082FC0C68002C9A
:10AC200005D13B48D1213B4A3C4B00F079FC210146
:10AC3000101CFBF7E9FA85B2002D00D10125404632
:10AC40004000804620235B426B439946211CFBF762
:10AC5000DBFA484480B28146690149444046FBF72B
:10AC6000D3FA211A8846844201D2001B8046201C58
:10AC70006421FBF7C9FA43001818804543D8381CF3
:10AC8000FFF7A6FF8000264BC258130C25481B185F
:10AC900019681204120C01209040021C0A431A6029
:10ACA000FB780C229343FB703A78290A1F239A43BE
:10ACB0000A433A70EDB27D70B97A1F2248460240CD
:10ACC00099430B1C1343BB72BA7817239A437379C9
:10ACD0009B0004210B4013433279002A03D010213A
:10ACE0000A431343DBB2BB70FB78DBB2B279002AB4
:10ACF00001D008221343F279002A01D00422134321
:10AD0000FB70002000E008480CBC90469946F8BD56
:10AD1000D4D10000B0D1000054CB000014D2000008
:10AD200078D2000000700440F503000008B5002848
:10AD300006D108487021FF31074A084B00F0F0FBAC
:10AD4000E1235B0203600023037143718371C371CC
:10AD500008BDC046D4D10000BCD1000054CB0000D7
:10AD6000074B194003780B43DBB20370C2780B0A20
:10AD70001343DBB2C3708379090C194381717047A7
:10AD800040F00F0003794079000218437047C04635
:10AD900010B543790A0A4024A3431343DBB243713D
:10ADA00017230B4201D00379C3790B0701D503792F
:10ADB000C379027943791B021343194201D0024837
:10ADC00000E0002010BDC046EE03000010B5002AD0
:10ADD0000AD00C1C8A1803795BB2002BFBDA2378AB
:10ADE000C37101349442F6D110BDC04610B500289D
:10ADF00005D11B487C211B4A1B4B00F091FB00290D
:10AE000005D117487D21174A184B00F089FB0B68C4
:10AE1000DC7A20229443DC72DC789443DC70026894
:10AE20000379032B06D91248B1214900114A124B6C
:10AE300000F076FB1B01D3180933FF335A68520028
:10AE400052085A6002234A6853774A685468002CB3
:10AE500004D008689368111C084AA04710BDC0467A
:10AE600028D30000A4D20000F8CF000050D3000087
:10AE70001CCD0000F8D2000054C90000EB03000014
:10AE800010B5002805D11B4866211B4A1B4B00F05A
:10AE900047FB002905D117486721174A184B00F0D6
:10AEA0003FFB0B68DC787F221440DC70DC7A2240A8
:10AEB000DA7202680379032B06D91248B1214900DE
:10AEC000114A124B00F02CFB1B01D3180933FF333E
:10AED0005A68520052085A6000234A6813774A6839
:10AEE0005468002C04D008689368111C084AA047D5
:10AEF00010BDC04628D3000084D20000F8CF000067
:10AF000050D300001CCD0000F8D2000054C900004E
:10AF1000EA030000F0B5474680B480460C1C151CBF
:10AF20001E1C002905D11948A121194A194B00F00E
:10AF3000F7FAFFF74DFE071C201C0021202200F02D
:10AF400064FB154BF9004246CA5059184C60022365
:10AF50006377002323776560A660079BA361069A49
:10AF60006261002A04D00A1C06980C49FEF746FFCD
:10AF7000079B002B06D0FF00074AD219181C08496E
:10AF8000FEF73CFF04BC9046F0BDC04628D300004D
:10AF9000D8D20000F8CF0000A4F6FF1F81AE000059
:10AFA000EDAD000030B589B0051C0C1E05D132484E
:10AFB000DE21324A324B00F0B3FA4B69002B05D147
:10AFC0002D48DF212D4A2F4B00F0AAFA002A05D187
:10AFD0002948E021294A2C4B00F0A2FA1368002BE3
:10AFE00005D12548E121254A284B00F099FA5368FC
:10AFF000002B05D12048E221204A254B00F090FA91
:10B000000B7F012B33D00120087753680B61116847
:10B01000EB1D0090526801920222029204A80122C4
:10B02000FEF760FE606904A90122FEF7FBFE63697A
:10B03000002B05D117481849184A194B00F070FA2F
:10B040001A681B791B01D3180933FF335968802212
:10B05000D2050A435A60EA7A80235B421A43D2B28D
:10B06000EA72EA781343DBB2EB70002001E0FA20C9
:10B07000800009B030BDC04628D3000010D30000C6
:10B08000F8CF000058D30000F0CF000050D20000ED
:10B0900040D200001CCD00001A020000C4D2000003
:10B0A00070CC000030B589B0051C0C1E06D13348A9
:10B0B0001221FF31324A334B00F032FA8B69002BF8
:10B0C00006D12E48892149002D4A2F4B00F028FA3D
:10B0D000002A06D129481421FF31294A2B4B00F0C0
:10B0E0001FFA1368002B06D124488A214900244AFC
:10B0F000274B00F015FA5368002B06D11F48162184
:10B10000FF311F4A234B00F00BFA4B7F032B32D049
:10B1100003234B775368CB60C11D13680120009057
:10B1200052680192029004A80122FEF7DBFDA0699B
:10B1300004A90122FEF776FEA369002B05D116486B
:10B140001649174A174B00F0EBF91A681B791B01D7
:10B15000D3180933FF3359688022D2050A435A6055
:10B16000EA7A20231A43D2B2EA72EA781343DBB2B6
:10B17000EB70002000E00C4809B030BD28D300007F
:10B1800080D30000F8CF00006CD30000F0CF0000A7
:10B1900050D2000040D200001CCD00001A02000076
:10B1A000C4D2000070CC0000E903000008B50749D4
:10B1B000074B084AD1500848FEF714FC0748FEF731
:10B1C0006DFB074A074B1A6008BDC0460000071018
:10B1D000441000000070044098D30000A0D3000089
:10B1E000006CDC0250F0FF1F10B5474B1A6880203E
:10B1F000800002431A6019688022D2000A431A6054
:10B200001968802212010A431A60196880225201CB
:10B210000A431A601968802292010A431A603B4966
:10B220000C6B3B4B1C408022520014430C634C6B54
:10B230001C4014434C638C6C1C408C64CC6C1C40D4
:10B24000CC640C691C4014430C6132490C6C1C40EA
:10B2500014430C644C6C1C4014434C648C6C1C40B8
:10B2600014438C64CC6C1C401443CC64CC681C40EC
:10B270001443CC6028490C681C4014430C604C6893
:10B280001C4014434C608C6A1C4004438C62CC6AA2
:10B290001C400443CC628C681C4014438C604C6995
:10B2A0001C4004434C618C691C40204388611B494D
:10B2B00048681840104348608C681C40C0208000DB
:10B2C00004438C60CC681C402043C8600869184067
:10B2D0001043086148691840104348618869184064
:10B2E00010438861C86918401043C8610C49086858
:10B2F0001840104308604868184010434860086EC2
:10B3000003401A430A6610BD388004400090044090
:10B31000FFF8FFFF00A0044000B0044000C004405C
:10B3200000D0044008B50B4B1B78002B0FD0002237
:10B33000084B1A70FBF7D6FF074B1870181CFCF768
:10B340004BF81420FBF734FD1420FBF731FD0020EF
:10B3500008BDC046F4F0FF1F64F7FF1F08B5FBF7F8
:10B36000C1FF054B1870054A12685A70181CFCF78B
:10B3700011F8002008BDC04664F7FF1F5CF7FF1FEF
:10B3800038B5041C0D1CFBF7BBFE002830D0201C78
:10B39000FBF74CFF002828D1281CFCF70DFBC1B29D
:10B3A00000291BD1281CFCF737FAC1B2002915D19E
:10B3B000281CFCF751F8C1B200290FD1281CFCF75A
:10B3C000ABFBC1B2002909D1281CFCF7C3F9C1B2FB
:10B3D000002903D1281CFCF741FEC1B2201CFBF759
:10B3E00051FF201CFBF79EFE02E0201CFBF79AFE9B
:10B3F000002038BD002070470020704700207047B3
:10B4000000207047002070470020704700207047E0
:10B4100030B5CDB0FFF7E8FEFFF7C8FEFDF7E0FD61
:10B42000FDF784FBFDF71CFAFEF7D0F8FA20800048
:10B43000FDF776FFFCF74EFE0120FBF7D7FBFBF78D
:10B4400019FD06AC201CFBF7D3FD0823237002ADC9
:10B45000281CFDF7ADFE0124AC73EC732C730020A7
:10B4600002A906AAFBF704FEFDF7F0FF00A8FBF710
:10B470003FFC6A4614700023937078235370264B68
:10B480000193D4706846FBF73DFC00200A2100229E
:10B490000023FDF72BF90020022100220023FDF7F5
:10B4A00025F900200D2101220023FDF71FF90D20B1
:10B4B00001210022FDF788F8184DFA24A400FDF7B9
:10B4C00043FF002006A9FFF75BFFFFF72BFFFCF708
:10B4D0004DFF0420FCF7E6FF002803D00020FBF717
:10B4E000CFFC0BE00620FCF7DDFF002803D0201C7A
:10B4F000FBF7C6FC02E0281CFBF7C2FC0820FCF7A7
:10B50000D1FF002803D00120FDF772FFD7E700200C
:10B51000FDF76EFFD3E7C0465DB30000E9FD000014
:10B520007FB5061C09480068C068002A02D0151CB7
:10B53000074C01E0074C251C1A1C0091331C0649DE
:10B540000194029500F020F800F0AEFCB4F0FF1F6B
:10B55000A8D30000E3D30000B5D30000084B10B51A
:10B56000041C002B02D0002100E000BF054B18682E
:10B57000836A002B00D09847201C00F0D3FFC04600
:10B5800000000000E8D300000EB403B503AB04CB09
:10B59000054A011C1068039A019300F029F902B0D2
:10B5A00008BC03B01847C046B4F0FF1F70B50E4B7F
:10B5B0000E4D0024ED1AAD101E1CAC4204D0A300A9
:10B5C000F35898470134F8E701F05AFF084B094D4A
:10B5D0000024ED1AAD101E1CAC4204D0A300F35899
:10B5E00098470134F8E770BDA0D40000A0D4000053
:10B5F000A0D40000A4D4000010B50023934203D0CF
:10B60000CC5CC4540133F9E710BD031C821893428B
:10B6100002D019700133FAE77047EEEE30B5002919
:10B6200040D004390B68002B00DAC9181E4A136891
:10B63000141C002B02D14B60116033E099420FD2F1
:10B6400008680A189A4205D113685268C018086041
:10B650004A6000E04B60216024E08A4203D8131C5A
:10B660005A68002AF9D11D685C198C420BD109680F
:10B67000691858181960904214D114685268091951
:10B6800019605A600EE08C4202D90C23036009E075
:10B6900008680C18944203D11468526800190860B5
:10B6A0004A60596030BDC046C0F6FF1F70B5032325
:10B6B000CD1C9D430835061C0C2D01D20C2501E044
:10B6C000002D3FDB8D423DD3204B1C681A1C211CF2
:10B6D000002913D00868431B0DD40B2B02D90B6033
:10B6E000CC181EE08C4202D1636813601AE04868EF
:10B6F00060600C1C16E00C1C4968E9E7144C2068DB
:10B70000002803D1301C00F025F82060301C291CD3
:10B7100000F020F8431C15D0C41C03239C43844232
:10B720000AD12560201C0B300722231D9043C31A29
:10B730000BD05A42E25008E0211A301C00F00AF8FF
:10B740000130EED10C233360002070BDC0F6FF1F26
:10B75000BCF6FF1F38B5074C0023051C081C2360EE
:10B7600000F0BEFE431C03D12368002B00D02B60E9
:10B7700038BDC04604F8FF1F10B5021C1378002B1B
:10B7800001D00132FAE7CC5CD4540133002CFAD159
:10B7900010BD0023C25C0133002AFBD1581E704744
:10B7A000936810B5013B9360002B05DA9469A342BE
:10B7B00008DBCBB20A2B05D01368581C1060197037
:10B7C000C8B201E000F0A6FA10BDF8B5061C0F1CC7
:10B7D000141CD518AC4208D02178301C3A1CFFF755
:10B7E000DFFF0134431CF5D100E00020F8BDEEEE90
:10B7F000F0B59FB0061C0F1C03920593002804D0DF
:10B800008169002901D100F05FFC754B9F4201D195
:10B81000776808E0734B9F4201D1B76803E0724B31
:10B820009F4200D1F768BB891A070AD53B69002BF4
:10B8300007D006AD00236B6120236B763023AB76F7
:10B840003BE0301C391C00F0BDFA0028F1D001208B
:10B850004042C2E0059A111D12680591002A76DB6C
:10B860000992013423782E2B00D181E021785F48A2
:10B87000032200F0E9FC002807D05C492A68431A3B
:10B88000402098401043286001342178631C5848B8
:10B8900006220393297600F0D7FC002800D18AE025
:10B8A000544B002B7ED1059B07220733934308336B
:10B8B00005936A69049953186B61039C2378002BE4
:10B8C00004D10399611A029110D003E0252BF8D01E
:10B8D0000134F3E7301C391C039A029BFFF775FF14
:10B8E000013075D06A69029953186B612378002B77
:10B8F0006ED0012252426A606A4600235B320134F4
:10B900002B60EB60AB601370AB6521783A48052281
:10B9100000F09AFC002808D0374A0134831A01202D
:10B9200098402B6818432860EFE72B68D90603D5A9
:10B930006A4620215B3211701A0703D56A462B2113
:10B940005B32117022782A2A84D0099B05E052428A
:10B95000EA60022213432B6083E72278303A092AF7
:10B9600004D80A214B4301349B18F6E7099379E781
:10B9700063782A2B09D1059B02341A1D1B68059296
:10B98000002B0DDA01235B420AE001340023227808
:10B99000303A092A04D80A214B4301349B18F6E7B0
:10B9A000079363E705AB0093301C291C3A1C134B2B
:10B9B00000E000BF07E005AB0093301C291C3A1CD7
:10B9C0000E4B00F091F804900499013100D070E71B
:10B9D000BB895A0600D53AE70B981FB0F0BDC046A8
:10B9E00020D4000040D4000060D40000F2D3000056
:10B9F000F6D3000000000000ECD30000CBB700003D
:10BA0000F7B5151C01930A698B68061C0C1C934240
:10BA100000DA131C221C2B6043321278002A01D05A
:10BA200001332B602068800602D52B6802332B601F
:10BA3000216806270F401FD0231C43331B785A1E52
:10BA40009341226892061FD5E11840313020C8701A
:10BA5000211C5A1C45310978A21840320233D1709A
:10BA600012E0221C301C019919320123089FB847AB
:10BA7000013011D0009F01370097E0682968009FCE
:10BA8000431A9F42EDDBD7E7221C301C0199433259
:10BA9000089FB847013002D10120404223E02068CE
:10BAA00006212B68E26801400025042903D1D51A3C
